{"contracts/CarameloPreSale.sol":{"CarameloPreSale":{"abi":[{"inputs":[{"internalType":"address","name":"tokenAddress","type":"address"},{"internalType":"uint256","name":"ratePhase1","type":"uint256"},{"internalType":"uint256","name":"ratePhase2","type":"uint256"},{"internalType":"uint256","name":"ratePhase3","type":"uint256"},{"internalType":"uint256","name":"_tokensAvailable","type":"uint256"},{"internalType":"uint256","name":"_maxTokensBuy","type":"uint256"}],"stateMutability":"nonpayable","type":"constructor"},{"inputs":[{"internalType":"uint256","name":"required","type":"uint256"},{"internalType":"uint256","name":"available","type":"uint256"}],"name":"InsufficientFunds","type":"error"},{"inputs":[{"internalType":"string","name":"message","type":"string"},{"internalType":"enum Phase","name":"phase","type":"uint8"}],"name":"InvalidPhase","type":"error"},{"inputs":[{"internalType":"string","name":"message","type":"string"},{"internalType":"uint256","name":"rate","type":"uint256"}],"name":"InvalidPhaseRate","type":"error"},{"inputs":[{"internalType":"string","name":"message","type":"string"},{"internalType":"uint256","name":"amount","type":"uint256"}],"name":"InvalidTokenAmount","type":"error"},{"inputs":[{"internalType":"uint256","name":"allowed","type":"uint256"},{"internalType":"uint256","name":"attempted","type":"uint256"}],"name":"MaxTokensBuyExceeded","type":"error"},{"inputs":[{"internalType":"string","name":"message","type":"string"},{"internalType":"uint256","name":"available","type":"uint256"},{"internalType":"uint256","name":"requested","type":"uint256"}],"name":"NoTokensAvailable","type":"error"},{"inputs":[{"internalType":"address","name":"owner","type":"address"}],"name":"OwnableInvalidOwner","type":"error"},{"inputs":[{"internalType":"address","name":"account","type":"address"}],"name":"OwnableUnauthorizedAccount","type":"error"},{"inputs":[{"internalType":"string","name":"message","type":"string"},{"internalType":"uint256","name":"tokensAvailable","type":"uint256"}],"name":"PreSaleAlreadyInitialized","type":"error"},{"inputs":[],"name":"PreSaleNotActive","type":"error"},{"inputs":[],"name":"ReentrancyGuardReentrantCall","type":"error"},{"inputs":[],"name":"WithdrawalFailed","type":"error"},{"inputs":[],"name":"ZeroAddress","type":"error"},{"anonymous":false,"inputs":[{"indexed":true,"internalType":"address","name":"account","type":"address"}],"name":"AddressWhitelisted","type":"event"},{"anonymous":false,"inputs":[{"indexed":true,"internalType":"address","name":"owner","type":"address"},{"indexed":false,"internalType":"uint256","name":"amount","type":"uint256"}],"name":"FundsWithdrawn","type":"event"},{"anonymous":false,"inputs":[{"indexed":false,"internalType":"uint256","name":"newLimit","type":"uint256"}],"name":"MaxTokensBuyUpdated","type":"event"},{"anonymous":false,"inputs":[{"indexed":true,"internalType":"address","name":"previousOwner","type":"address"},{"indexed":true,"internalType":"address","name":"newOwner","type":"address"}],"name":"OwnershipTransferred","type":"event"},{"anonymous":false,"inputs":[{"indexed":false,"internalType":"enum Phase","name":"newPhase","type":"uint8"}],"name":"PhaseUpdated","type":"event"},{"anonymous":false,"inputs":[],"name":"PreSaleEnded","type":"event"},{"anonymous":false,"inputs":[{"indexed":false,"internalType":"uint256","name":"tokensAvailable","type":"uint256"}],"name":"PreSaleInitialized","type":"event"},{"anonymous":false,"inputs":[{"indexed":true,"internalType":"address","name":"buyer","type":"address"},{"indexed":false,"internalType":"uint256","name":"amount","type":"uint256"},{"indexed":false,"internalType":"uint256","name":"cost","type":"uint256"}],"name":"TokensPurchased","type":"event"},{"anonymous":false,"inputs":[{"indexed":true,"internalType":"address","name":"account","type":"address"},{"indexed":false,"internalType":"bool","name":"status","type":"bool"}],"name":"WhitelistUpdated","type":"event"},{"inputs":[{"internalType":"address[]","name":"accounts","type":"address[]"}],"name":"addMultipleToWhitelist","outputs":[],"stateMutability":"nonpayable","type":"function"},{"inputs":[{"internalType":"address","name":"account","type":"address"}],"name":"addToWhitelist","outputs":[],"stateMutability":"nonpayable","type":"function"},{"inputs":[],"name":"buyTokens","outputs":[],"stateMutability":"payable","type":"function"},{"inputs":[],"name":"currentPhase","outputs":[{"internalType":"enum Phase","name":"","type":"uint8"}],"stateMutability":"view","type":"function"},{"inputs":[],"name":"endPreSale","outputs":[],"stateMutability":"nonpayable","type":"function"},{"inputs":[],"name":"initializePreSale","outputs":[],"stateMutability":"nonpayable","type":"function"},{"inputs":[],"name":"maxTokensBuy","outputs":[{"internalType":"uint256","name":"","type":"uint256"}],"stateMutability":"view","type":"function"},{"inputs":[],"name":"owner","outputs":[{"internalType":"address","name":"","type":"address"}],"stateMutability":"view","type":"function"},{"inputs":[{"internalType":"enum Phase","name":"","type":"uint8"}],"name":"phaseRates","outputs":[{"internalType":"uint256","name":"","type":"uint256"}],"stateMutability":"view","type":"function"},{"inputs":[],"name":"preSaleInitialized","outputs":[{"internalType":"bool","name":"","type":"bool"}],"stateMutability":"view","type":"function"},{"inputs":[{"internalType":"address","name":"account","type":"address"}],"name":"removeFromWhitelist","outputs":[],"stateMutability":"nonpayable","type":"function"},{"inputs":[],"name":"renounceOwnership","outputs":[],"stateMutability":"nonpayable","type":"function"},{"inputs":[],"name":"token","outputs":[{"internalType":"contract IERC20","name":"","type":"address"}],"stateMutability":"view","type":"function"},{"inputs":[],"name":"tokensAvailable","outputs":[{"internalType":"uint256","name":"","type":"uint256"}],"stateMutability":"view","type":"function"},{"inputs":[{"internalType":"address","name":"","type":"address"}],"name":"tokensPurchasedByAddress","outputs":[{"internalType":"uint256","name":"","type":"uint256"}],"stateMutability":"view","type":"function"},{"inputs":[],"name":"tokensRemaining","outputs":[{"internalType":"uint256","name":"","type":"uint256"}],"stateMutability":"view","type":"function"},{"inputs":[],"name":"tokensSold","outputs":[{"internalType":"uint256","name":"","type":"uint256"}],"stateMutability":"view","type":"function"},{"inputs":[],"name":"totalBNBReceived","outputs":[{"internalType":"uint256","name":"","type":"uint256"}],"stateMutability":"view","type":"function"},{"inputs":[{"internalType":"address","name":"newOwner","type":"address"}],"name":"transferOwnership","outputs":[],"stateMutability":"nonpayable","type":"function"},{"inputs":[{"internalType":"uint256","name":"newLimit","type":"uint256"}],"name":"updateMaxTokensBuy","outputs":[],"stateMutability":"nonpayable","type":"function"},{"inputs":[{"internalType":"enum Phase","name":"newPhase","type":"uint8"}],"name":"updatePhase","outputs":[],"stateMutability":"nonpayable","type":"function"},{"inputs":[{"internalType":"enum Phase","name":"phase","type":"uint8"},{"internalType":"uint256","name":"newRate","type":"uint256"}],"name":"updatePhaseRate","outputs":[],"stateMutability":"nonpayable","type":"function"},{"inputs":[{"internalType":"address","name":"","type":"address"}],"name":"whitelist","outputs":[{"internalType":"bool","name":"","type":"bool"}],"stateMutability":"view","type":"function"},{"inputs":[],"name":"withdrawFunds","outputs":[],"stateMutability":"nonpayable","type":"function"},{"inputs":[],"name":"withdrawUnsoldTokens","outputs":[],"stateMutability":"nonpayable","type":"function"},{"stateMutability":"payable","type":"receive"}],"evm":{"bytecode":{"linkReferences":{},"object":"608060405234801561001057600080fd5b5060405161270b38038061270b833981810160405281019061003291906103ba565b33600073ffffffffffffffffffffffffffffffffffffffff168173ffffffffffffffffffffffffffffffffffffffff16036100a55760006040517f1e4fbdf700000000000000000000000000000000000000000000000000000000815260040161009c9190610456565b60405180910390fd5b6100b48161025d60201b60201c565b5060018081905550600073ffffffffffffffffffffffffffffffffffffffff168673ffffffffffffffffffffffffffffffffffffffff1603610122576040517fd92e233d00000000000000000000000000000000000000000000000000000000815260040160405180910390fd5b85600260016101000a81548173ffffffffffffffffffffffffffffffffffffffff021916908373ffffffffffffffffffffffffffffffffffffffff160217905550846005600080600381111561017b5761017a610471565b5b600381111561018d5761018c610471565b5b8152602001908152602001600020819055508360056000600160038111156101b8576101b7610471565b5b60038111156101ca576101c9610471565b5b8152602001908152602001600020819055508260056000600260038111156101f5576101f4610471565b5b600381111561020757610206610471565b5b8152602001908152602001600020819055508160038190555080600a819055506000600260006101000a81548160ff0219169083600381111561024d5761024c610471565b5b02179055505050505050506104a0565b60008060009054906101000a900473ffffffffffffffffffffffffffffffffffffffff169050816000806101000a81548173ffffffffffffffffffffffffffffffffffffffff021916908373ffffffffffffffffffffffffffffffffffffffff1602179055508173ffffffffffffffffffffffffffffffffffffffff168173ffffffffffffffffffffffffffffffffffffffff167f8be0079c531659141344cd1fd0a4f28419497f9722a3daafe3b4186f6b6457e060405160405180910390a35050565b600080fd5b600073ffffffffffffffffffffffffffffffffffffffff82169050919050565b600061035182610326565b9050919050565b61036181610346565b811461036c57600080fd5b50565b60008151905061037e81610358565b92915050565b6000819050919050565b61039781610384565b81146103a257600080fd5b50565b6000815190506103b48161038e565b92915050565b60008060008060008060c087890312156103d7576103d6610321565b5b60006103e589828a0161036f565b96505060206103f689828a016103a5565b955050604061040789828a016103a5565b945050606061041889828a016103a5565b935050608061042989828a016103a5565b92505060a061043a89828a016103a5565b9150509295509295509295565b61045081610346565b82525050565b600060208201905061046b6000830184610447565b92915050565b7f4e487b7100000000000000000000000000000000000000000000000000000000600052602160045260246000fd5b61225c806104af6000396000f3fe60806040526004361061016a5760003560e01c80639b19251a116100d1578063ded362fe1161008a578063ee2d2c6811610064578063ee2d2c68146104d2578063ee889ed0146104e9578063f2fde38b14610500578063fc0c546a1461052957610179565b8063ded362fe14610441578063e43252d71461046c578063ed3193d21461049557610179565b80639b19251a146103665780639e4137af146103a3578063c8b08125146103cc578063c8bdbfb6146103f7578063cf3d8e531461040e578063d0febe4c1461043757610179565b806358ed2cc31161012357806358ed2cc31461027e57806360659a92146102a7578063715018a6146102d25780638401f8d1146102e95780638ab1d681146103125780638da5cb5b1461033b57610179565b8063055ad42e1461017e578063103d6ed3146101a957806314770959146101e657806324600fc314610211578063287294c814610228578063518ab2a81461025357610179565b3661017957610177610554565b005b600080fd5b34801561018a57600080fd5b50610193610a56565b6040516101a09190611885565b60405180910390f35b3480156101b557600080fd5b506101d060048036038101906101cb91906118cf565b610a69565b6040516101dd9190611915565b60405180910390f35b3480156101f257600080fd5b506101fb610a81565b604051610208919061194b565b60405180910390f35b34801561021d57600080fd5b50610226610a94565b005b34801561023457600080fd5b5061023d610bfc565b60405161024a9190611915565b60405180910390f35b34801561025f57600080fd5b50610268610c02565b6040516102759190611915565b60405180910390f35b34801561028a57600080fd5b506102a560048036038101906102a09190611992565b610c08565b005b3480156102b357600080fd5b506102bc610c51565b6040516102c99190611915565b60405180910390f35b3480156102de57600080fd5b506102e7610c57565b005b3480156102f557600080fd5b50610310600480360381019061030b9190611a24565b610c6b565b005b34801561031e57600080fd5b5061033960048036038101906103349190611acf565b610e17565b005b34801561034757600080fd5b50610350610ec9565b60405161035d9190611b0b565b60405180910390f35b34801561037257600080fd5b5061038d60048036038101906103889190611acf565b610ef2565b60405161039a919061194b565b60405180910390f35b3480156103af57600080fd5b506103ca60048036038101906103c59190611b26565b610f12565b005b3480156103d857600080fd5b506103e1610f9f565b6040516103ee9190611915565b60405180910390f35b34801561040357600080fd5b5061040c610fa9565b005b34801561041a57600080fd5b50610435600480360381019061043091906118cf565b611116565b005b61043f610554565b005b34801561044d57600080fd5b50610456611295565b6040516104639190611915565b60405180910390f35b34801561047857600080fd5b50610493600480360381019061048e9190611acf565b61129b565b005b3480156104a157600080fd5b506104bc60048036038101906104b79190611acf565b611341565b6040516104c99190611915565b60405180910390f35b3480156104de57600080fd5b506104e7611359565b005b3480156104f557600080fd5b506104fe6114f3565b005b34801561050c57600080fd5b5061052760048036038101906105229190611acf565b6115c0565b005b34801561053557600080fd5b5061053e611646565b60405161054b9190611bc5565b60405180910390f35b61055c61166c565b60038081111561056f5761056e61180e565b5b600260009054906101000a900460ff1660038111156105915761059061180e565b5b036105c8576040517fe3c26abe00000000000000000000000000000000000000000000000000000000815260040160405180910390fd5b60003403610610576001346040517f03eb8b54000000000000000000000000000000000000000000000000000000008152600401610607929190611c1b565b60405180910390fd5b600060056000600260009054906101000a900460ff1660038111156106385761063761180e565b5b600381111561064a5761064961180e565b5b8152602001908152602001600020549050600081036106af57600260009054906101000a900460ff166040517f9f516dee0000000000000000000000000000000000000000000000000000000081526004016106a69190611ca1565b60405180910390fd5b6000670de0b6b3a764000082346106c69190611cfe565b6106d09190611d6f565b905060035481111561071d57600354816040517f61b0d5b4000000000000000000000000000000000000000000000000000000008152600401610714929190611e12565b60405180910390fd5b6000600860003373ffffffffffffffffffffffffffffffffffffffff1673ffffffffffffffffffffffffffffffffffffffff16815260200190815260200160002060009054906101000a900460ff1661077857600a5461079a565b7fffffffffffffffffffffffffffffffffffffffffffffffffffffffffffffffff5b90508082600960003373ffffffffffffffffffffffffffffffffffffffff1673ffffffffffffffffffffffffffffffffffffffff168152602001908152602001600020546107e89190611e4e565b1115610877578082600960003373ffffffffffffffffffffffffffffffffffffffff1673ffffffffffffffffffffffffffffffffffffffff1681526020019081526020016000205461083a9190611e4e565b6040517f913fa13800000000000000000000000000000000000000000000000000000000815260040161086e929190611e82565b60405180910390fd5b81600360008282546108899190611eab565b9250508190555081600460008282546108a29190611e4e565b9250508190555034600660008282546108bb9190611e4e565b9250508190555081600960003373ffffffffffffffffffffffffffffffffffffffff1673ffffffffffffffffffffffffffffffffffffffff16815260200190815260200160002060008282546109119190611e4e565b92505081905550600260019054906101000a900473ffffffffffffffffffffffffffffffffffffffff1673ffffffffffffffffffffffffffffffffffffffff1663a9059cbb33846040518363ffffffff1660e01b8152600401610975929190611edf565b6020604051808303816000875af1158015610994573d6000803e3d6000fd5b505050506040513d601f19601f820116820180604052508101906109b89190611f34565b6109f957816040517f93255a730000000000000000000000000000000000000000000000000000000081526004016109f09190611fad565b60405180910390fd5b3373ffffffffffffffffffffffffffffffffffffffff167f8fafebcaf9d154343dad25669bfa277f4fbacd7ac6b0c4fed522580e040a0f338334604051610a41929190611e82565b60405180910390a2505050610a546116b2565b565b600260009054906101000a900460ff1681565b60056020528060005260406000206000915090505481565b600760009054906101000a900460ff1681565b610a9c61166c565b610aa46116bb565b600047905060008103610af1576001816040517f03eb8b54000000000000000000000000000000000000000000000000000000008152600401610ae8929190611c1b565b60405180910390fd5b6000610afb610ec9565b73ffffffffffffffffffffffffffffffffffffffff1682604051610b1e9061200c565b60006040518083038185875af1925050503d8060008114610b5b576040519150601f19603f3d011682016040523d82523d6000602084013e610b60565b606091505b5050905080610b9b576040517f27fcd9d100000000000000000000000000000000000000000000000000000000815260040160405180910390fd5b610ba3610ec9565b73ffffffffffffffffffffffffffffffffffffffff167feaff4b37086828766ad3268786972c0cd24259d4c87a80f9d3963a3c3d999b0d83604051610be89190611915565b60405180910390a25050610bfa6116b2565b565b60065481565b60045481565b610c106116bb565b80600a819055507fd62ff6c5039086f4f370d050bc58ed17716234ac8dfc95cf9b02b8d9fa16228281604051610c469190611915565b60405180910390a150565b60035481565b610c5f6116bb565b610c696000611742565b565b610c736116bb565b600082829050905060005b81811015610e11576000848483818110610c9b57610c9a612021565b5b9050602002016020810190610cb09190611acf565b9050600073ffffffffffffffffffffffffffffffffffffffff168173ffffffffffffffffffffffffffffffffffffffff1603610d18576040517fd92e233d00000000000000000000000000000000000000000000000000000000815260040160405180910390fd5b600860008273ffffffffffffffffffffffffffffffffffffffff1673ffffffffffffffffffffffffffffffffffffffff16815260200190815260200160002060009054906101000a900460ff16610e05576001600860008373ffffffffffffffffffffffffffffffffffffffff1673ffffffffffffffffffffffffffffffffffffffff16815260200190815260200160002060006101000a81548160ff0219169083151502179055508073ffffffffffffffffffffffffffffffffffffffff167f4f783c179409b4127238bc9c990bc99b9a651666a0d20b51d6c42849eb88466d60405160405180910390a25b50806001019050610c7e565b50505050565b610e1f6116bb565b6000600860008373ffffffffffffffffffffffffffffffffffffffff1673ffffffffffffffffffffffffffffffffffffffff16815260200190815260200160002060006101000a81548160ff0219169083151502179055508073ffffffffffffffffffffffffffffffffffffffff167ff93f9a76c1bf3444d22400a00cb9fe990e6abe9dbb333fda48859cfee864543d6000604051610ebe919061194b565b60405180910390a250565b60008060009054906101000a900473ffffffffffffffffffffffffffffffffffffffff16905090565b60086020528060005260406000206000915054906101000a900460ff1681565b610f1a6116bb565b60008103610f5f57806040517fc60dd43d000000000000000000000000000000000000000000000000000000008152600401610f56919061209c565b60405180910390fd5b8060056000846003811115610f7757610f7661180e565b5b6003811115610f8957610f8861180e565b5b8152602001908152602001600020819055505050565b6000600354905090565b610fb16116bb565b600380811115610fc457610fc361180e565b5b600260009054906101000a900460ff166003811115610fe657610fe561180e565b5b1461101d576040517fe3c26abe00000000000000000000000000000000000000000000000000000000815260040160405180910390fd5b600060035490506000811115611113576000600381905550600260019054906101000a900473ffffffffffffffffffffffffffffffffffffffff1673ffffffffffffffffffffffffffffffffffffffff1663a9059cbb61107b610ec9565b836040518363ffffffff1660e01b8152600401611099929190611edf565b6020604051808303816000875af11580156110b8573d6000803e3d6000fd5b505050506040513d601f19601f820116820180604052508101906110dc9190611f34565b611112576040517f27fcd9d100000000000000000000000000000000000000000000000000000000815260040160405180910390fd5b5b50565b61111e6116bb565b6003808111156111315761113061180e565b5b600260009054906101000a900460ff1660038111156111535761115261180e565b5b0361118a576040517fe3c26abe00000000000000000000000000000000000000000000000000000000815260040160405180910390fd5b600260009054906101000a900460ff1660038111156111ac576111ab61180e565b5b8160038111156111bf576111be61180e565b5b1115806111ef57506003808111156111da576111d961180e565b5b8160038111156111ed576111ec61180e565b5b145b1561123157806040517f9f516dee0000000000000000000000000000000000000000000000000000000081526004016112289190612116565b60405180910390fd5b80600260006101000a81548160ff021916908360038111156112565761125561180e565b5b02179055507f05ac19f4e6db6fd8b645dd056e4842cd2f63e0c6f0568176c17ef60e3c16732d8160405161128a9190611885565b60405180910390a150565b600a5481565b6112a36116bb565b6001600860008373ffffffffffffffffffffffffffffffffffffffff1673ffffffffffffffffffffffffffffffffffffffff16815260200190815260200160002060006101000a81548160ff0219169083151502179055508073ffffffffffffffffffffffffffffffffffffffff167f4f783c179409b4127238bc9c990bc99b9a651666a0d20b51d6c42849eb88466d60405160405180910390a250565b60096020528060005260406000206000915090505481565b6113616116bb565b600760009054906101000a900460ff16156113b5576003546040517fff61f1f30000000000000000000000000000000000000000000000000000000081526004016113ac91906121b6565b60405180910390fd5b6000600260019054906101000a900473ffffffffffffffffffffffffffffffffffffffff1673ffffffffffffffffffffffffffffffffffffffff166370a08231306040518263ffffffff1660e01b81526004016114129190611b0b565b602060405180830381865afa15801561142f573d6000803e3d6000fd5b505050506040513d601f19601f8201168201806040525081019061145391906121f9565b905060035481101561149c57806040517f93255a730000000000000000000000000000000000000000000000000000000081526004016114939190611fad565b60405180910390fd5b6001600760006101000a81548160ff0219169083151502179055507f52662d1a3131f7ba0d800fc07f2bc63113061f8c1307e917016493a232bc81506003546040516114e89190611915565b60405180910390a150565b6114fb6116bb565b60038081111561150e5761150d61180e565b5b600260009054906101000a900460ff1660038111156115305761152f61180e565b5b03611567576040517fe3c26abe00000000000000000000000000000000000000000000000000000000815260040160405180910390fd5b6003600260006101000a81548160ff0219169083600381111561158d5761158c61180e565b5b02179055507fc82e6055d31de9b552cd0014f23a8b8ce120c288ed1afce01adb97150efc018560405160405180910390a1565b6115c86116bb565b600073ffffffffffffffffffffffffffffffffffffffff168173ffffffffffffffffffffffffffffffffffffffff160361163a5760006040517f1e4fbdf70000000000000000000000000000000000000000000000000000000081526004016116319190611b0b565b60405180910390fd5b61164381611742565b50565b600260019054906101000a900473ffffffffffffffffffffffffffffffffffffffff1681565b6002600154036116a8576040517f3ee5aeb500000000000000000000000000000000000000000000000000000000815260040160405180910390fd5b6002600181905550565b60018081905550565b6116c3611806565b73ffffffffffffffffffffffffffffffffffffffff166116e1610ec9565b73ffffffffffffffffffffffffffffffffffffffff161461174057611704611806565b6040517f118cdaa70000000000000000000000000000000000000000000000000000000081526004016117379190611b0b565b60405180910390fd5b565b60008060009054906101000a900473ffffffffffffffffffffffffffffffffffffffff169050816000806101000a81548173ffffffffffffffffffffffffffffffffffffffff021916908373ffffffffffffffffffffffffffffffffffffffff1602179055508173ffffffffffffffffffffffffffffffffffffffff168173ffffffffffffffffffffffffffffffffffffffff167f8be0079c531659141344cd1fd0a4f28419497f9722a3daafe3b4186f6b6457e060405160405180910390a35050565b600033905090565b7f4e487b7100000000000000000000000000000000000000000000000000000000600052602160045260246000fd5b6004811061184e5761184d61180e565b5b50565b600081905061185f8261183d565b919050565b600061186f82611851565b9050919050565b61187f81611864565b82525050565b600060208201905061189a6000830184611876565b92915050565b600080fd5b600080fd5b600481106118b757600080fd5b50565b6000813590506118c9816118aa565b92915050565b6000602082840312156118e5576118e46118a0565b5b60006118f3848285016118ba565b91505092915050565b6000819050919050565b61190f816118fc565b82525050565b600060208201905061192a6000830184611906565b92915050565b60008115159050919050565b61194581611930565b82525050565b6000602082019050611960600083018461193c565b92915050565b61196f816118fc565b811461197a57600080fd5b50565b60008135905061198c81611966565b92915050565b6000602082840312156119a8576119a76118a0565b5b60006119b68482850161197d565b91505092915050565b600080fd5b600080fd5b600080fd5b60008083601f8401126119e4576119e36119bf565b5b8235905067ffffffffffffffff811115611a0157611a006119c4565b5b602083019150836020820283011115611a1d57611a1c6119c9565b5b9250929050565b60008060208385031215611a3b57611a3a6118a0565b5b600083013567ffffffffffffffff811115611a5957611a586118a5565b5b611a65858286016119ce565b92509250509250929050565b600073ffffffffffffffffffffffffffffffffffffffff82169050919050565b6000611a9c82611a71565b9050919050565b611aac81611a91565b8114611ab757600080fd5b50565b600081359050611ac981611aa3565b92915050565b600060208284031215611ae557611ae46118a0565b5b6000611af384828501611aba565b91505092915050565b611b0581611a91565b82525050565b6000602082019050611b206000830184611afc565b92915050565b60008060408385031215611b3d57611b3c6118a0565b5b6000611b4b858286016118ba565b9250506020611b5c8582860161197d565b9150509250929050565b6000819050919050565b6000611b8b611b86611b8184611a71565b611b66565b611a71565b9050919050565b6000611b9d82611b70565b9050919050565b6000611baf82611b92565b9050919050565b611bbf81611ba4565b82525050565b6000602082019050611bda6000830184611bb6565b92915050565b6000819050919050565b6000611c05611c00611bfb84611be0565b611b66565b6118fc565b9050919050565b611c1581611bea565b82525050565b6000604082019050611c306000830185611c0c565b611c3d6020830184611906565b9392505050565b600082825260208201905092915050565b7f496e76616c6964207068617365207261746520666f722070686173653a200000600082015250565b6000611c8b601e83611c44565b9150611c9682611c55565b602082019050919050565b60006040820190508181036000830152611cba81611c7e565b9050611cc96020830184611876565b92915050565b7f4e487b7100000000000000000000000000000000000000000000000000000000600052601160045260246000fd5b6000611d09826118fc565b9150611d14836118fc565b9250828202611d22816118fc565b91508282048414831517611d3957611d38611ccf565b5b5092915050565b7f4e487b7100000000000000000000000000000000000000000000000000000000600052601260045260246000fd5b6000611d7a826118fc565b9150611d85836118fc565b925082611d9557611d94611d40565b5b828204905092915050565b7f496e73756666696369656e7420746f6b656e7320617661696c61626c6520696e60008201527f2070726573616c652e20417661696c61626c653a200000000000000000000000602082015250565b6000611dfc603583611c44565b9150611e0782611da0565b604082019050919050565b60006060820190508181036000830152611e2b81611def565b9050611e3a6020830185611906565b611e476040830184611906565b9392505050565b6000611e59826118fc565b9150611e64836118fc565b9250828201905080821115611e7c57611e7b611ccf565b5b92915050565b6000604082019050611e976000830185611906565b611ea46020830184611906565b9392505050565b6000611eb6826118fc565b9150611ec1836118fc565b9250828203905081811115611ed957611ed8611ccf565b5b92915050565b6000604082019050611ef46000830185611afc565b611f016020830184611906565b9392505050565b611f1181611930565b8114611f1c57600080fd5b50565b600081519050611f2e81611f08565b92915050565b600060208284031215611f4a57611f496118a0565b5b6000611f5884828501611f1f565b91505092915050565b7f496e76616c696420746f6b656e20616d6f756e743a2000000000000000000000600082015250565b6000611f97601683611c44565b9150611fa282611f61565b602082019050919050565b60006040820190508181036000830152611fc681611f8a565b9050611fd56020830184611906565b92915050565b600081905092915050565b50565b6000611ff6600083611fdb565b915061200182611fe6565b600082019050919050565b600061201782611fe9565b9150819050919050565b7f4e487b7100000000000000000000000000000000000000000000000000000000600052603260045260246000fd5b7f496e76616c696420706861736520726174653a20000000000000000000000000600082015250565b6000612086601483611c44565b915061209182612050565b602082019050919050565b600060408201905081810360008301526120b581612079565b90506120c46020830184611906565b92915050565b7f496e76616c69642070686173653a200000000000000000000000000000000000600082015250565b6000612100600f83611c44565b915061210b826120ca565b602082019050919050565b6000604082019050818103600083015261212f816120f3565b905061213e6020830184611876565b92915050565b7f5468652070726573616c6520416c726561647920696e697469616c697a65642060008201527f776974683a200000000000000000000000000000000000000000000000000000602082015250565b60006121a0602683611c44565b91506121ab82612144565b604082019050919050565b600060408201905081810360008301526121cf81612193565b90506121de6020830184611906565b92915050565b6000815190506121f381611966565b92915050565b60006020828403121561220f5761220e6118a0565b5b600061221d848285016121e4565b9150509291505056fea2646970667358221220b6967f95ab6abf08f24aeee5691d721cbe054d6b663b1ff77523978234c6b67364736f6c634300081a0033","opcodes":"PUSH1 0x80 PUSH1 0x40 MSTORE CALLVALUE DUP1 ISZERO PUSH2 0x10 JUMPI PUSH1 0x0 DUP1 REVERT JUMPDEST POP PUSH1 0x40 MLOAD PUSH2 0x270B CODESIZE SUB DUP1 PUSH2 0x270B DUP4 CODECOPY DUP2 DUP2 ADD PUSH1 0x40 MSTORE DUP2 ADD SWAP1 PUSH2 0x32 SWAP2 SWAP1 PUSH2 0x3BA JUMP JUMPDEST CALLER PUSH1 0x0 PUSH20 0xFFFFFFFFFFFFFFFFFFFFFFFFFFFFFFFFFFFFFFFF AND DUP2 PUSH20 0xFFFFFFFFFFFFFFFFFFFFFFFFFFFFFFFFFFFFFFFF AND SUB PUSH2 0xA5 JUMPI PUSH1 0x0 PUSH1 0x40 MLOAD PUSH32 0x1E4FBDF700000000000000000000000000000000000000000000000000000000 DUP2 MSTORE PUSH1 0x4 ADD PUSH2 0x9C SWAP2 SWAP1 PUSH2 0x456 JUMP JUMPDEST PUSH1 0x40 MLOAD DUP1 SWAP2 SUB SWAP1 REVERT JUMPDEST PUSH2 0xB4 DUP2 PUSH2 0x25D PUSH1 0x20 SHL PUSH1 0x20 SHR JUMP JUMPDEST POP PUSH1 0x1 DUP1 DUP2 SWAP1 SSTORE POP PUSH1 0x0 PUSH20 0xFFFFFFFFFFFFFFFFFFFFFFFFFFFFFFFFFFFFFFFF AND DUP7 PUSH20 0xFFFFFFFFFFFFFFFFFFFFFFFFFFFFFFFFFFFFFFFF AND SUB PUSH2 0x122 JUMPI PUSH1 0x40 MLOAD PUSH32 0xD92E233D00000000000000000000000000000000000000000000000000000000 DUP2 MSTORE PUSH1 0x4 ADD PUSH1 0x40 MLOAD DUP1 SWAP2 SUB SWAP1 REVERT JUMPDEST DUP6 PUSH1 0x2 PUSH1 0x1 PUSH2 0x100 EXP DUP2 SLOAD DUP2 PUSH20 0xFFFFFFFFFFFFFFFFFFFFFFFFFFFFFFFFFFFFFFFF MUL NOT AND SWAP1 DUP4 PUSH20 0xFFFFFFFFFFFFFFFFFFFFFFFFFFFFFFFFFFFFFFFF AND MUL OR SWAP1 SSTORE POP DUP5 PUSH1 0x5 PUSH1 0x0 DUP1 PUSH1 0x3 DUP2 GT ISZERO PUSH2 0x17B JUMPI PUSH2 0x17A PUSH2 0x471 JUMP JUMPDEST JUMPDEST PUSH1 0x3 DUP2 GT ISZERO PUSH2 0x18D JUMPI PUSH2 0x18C PUSH2 0x471 JUMP JUMPDEST JUMPDEST DUP2 MSTORE PUSH1 0x20 ADD SWAP1 DUP2 MSTORE PUSH1 0x20 ADD PUSH1 0x0 KECCAK256 DUP2 SWAP1 SSTORE POP DUP4 PUSH1 0x5 PUSH1 0x0 PUSH1 0x1 PUSH1 0x3 DUP2 GT ISZERO PUSH2 0x1B8 JUMPI PUSH2 0x1B7 PUSH2 0x471 JUMP JUMPDEST JUMPDEST PUSH1 0x3 DUP2 GT ISZERO PUSH2 0x1CA JUMPI PUSH2 0x1C9 PUSH2 0x471 JUMP JUMPDEST JUMPDEST DUP2 MSTORE PUSH1 0x20 ADD SWAP1 DUP2 MSTORE PUSH1 0x20 ADD PUSH1 0x0 KECCAK256 DUP2 SWAP1 SSTORE POP DUP3 PUSH1 0x5 PUSH1 0x0 PUSH1 0x2 PUSH1 0x3 DUP2 GT ISZERO PUSH2 0x1F5 JUMPI PUSH2 0x1F4 PUSH2 0x471 JUMP JUMPDEST JUMPDEST PUSH1 0x3 DUP2 GT ISZERO PUSH2 0x207 JUMPI PUSH2 0x206 PUSH2 0x471 JUMP JUMPDEST JUMPDEST DUP2 MSTORE PUSH1 0x20 ADD SWAP1 DUP2 MSTORE PUSH1 0x20 ADD PUSH1 0x0 KECCAK256 DUP2 SWAP1 SSTORE POP DUP2 PUSH1 0x3 DUP2 SWAP1 SSTORE POP DUP1 PUSH1 0xA DUP2 SWAP1 SSTORE POP PUSH1 0x0 PUSH1 0x2 PUSH1 0x0 PUSH2 0x100 EXP DUP2 SLOAD DUP2 PUSH1 0xFF MUL NOT AND SWAP1 DUP4 PUSH1 0x3 DUP2 GT ISZERO PUSH2 0x24D JUMPI PUSH2 0x24C PUSH2 0x471 JUMP JUMPDEST JUMPDEST MUL OR SWAP1 SSTORE POP POP POP POP POP POP POP PUSH2 0x4A0 JUMP JUMPDEST PUSH1 0x0 DUP1 PUSH1 0x0 SWAP1 SLOAD SWAP1 PUSH2 0x100 EXP SWAP1 DIV PUSH20 0xFFFFFFFFFFFFFFFFFFFFFFFFFFFFFFFFFFFFFFFF AND SWAP1 POP DUP2 PUSH1 0x0 DUP1 PUSH2 0x100 EXP DUP2 SLOAD DUP2 PUSH20 0xFFFFFFFFFFFFFFFFFFFFFFFFFFFFFFFFFFFFFFFF MUL NOT AND SWAP1 DUP4 PUSH20 0xFFFFFFFFFFFFFFFFFFFFFFFFFFFFFFFFFFFFFFFF AND MUL OR SWAP1 SSTORE POP DUP2 PUSH20 0xFFFFFFFFFFFFFFFFFFFFFFFFFFFFFFFFFFFFFFFF AND DUP2 PUSH20 0xFFFFFFFFFFFFFFFFFFFFFFFFFFFFFFFFFFFFFFFF AND PUSH32 0x8BE0079C531659141344CD1FD0A4F28419497F9722A3DAAFE3B4186F6B6457E0 PUSH1 0x40 MLOAD PUSH1 0x40 MLOAD DUP1 SWAP2 SUB SWAP1 LOG3 POP POP JUMP JUMPDEST PUSH1 0x0 DUP1 REVERT JUMPDEST PUSH1 0x0 PUSH20 0xFFFFFFFFFFFFFFFFFFFFFFFFFFFFFFFFFFFFFFFF DUP3 AND SWAP1 POP SWAP2 SWAP1 POP JUMP JUMPDEST PUSH1 0x0 PUSH2 0x351 DUP3 PUSH2 0x326 JUMP JUMPDEST SWAP1 POP SWAP2 SWAP1 POP JUMP JUMPDEST PUSH2 0x361 DUP2 PUSH2 0x346 JUMP JUMPDEST DUP2 EQ PUSH2 0x36C JUMPI PUSH1 0x0 DUP1 REVERT JUMPDEST POP JUMP JUMPDEST PUSH1 0x0 DUP2 MLOAD SWAP1 POP PUSH2 0x37E DUP2 PUSH2 0x358 JUMP JUMPDEST SWAP3 SWAP2 POP POP JUMP JUMPDEST PUSH1 0x0 DUP2 SWAP1 POP SWAP2 SWAP1 POP JUMP JUMPDEST PUSH2 0x397 DUP2 PUSH2 0x384 JUMP JUMPDEST DUP2 EQ PUSH2 0x3A2 JUMPI PUSH1 0x0 DUP1 REVERT JUMPDEST POP JUMP JUMPDEST PUSH1 0x0 DUP2 MLOAD SWAP1 POP PUSH2 0x3B4 DUP2 PUSH2 0x38E JUMP JUMPDEST SWAP3 SWAP2 POP POP JUMP JUMPDEST PUSH1 0x0 DUP1 PUSH1 0x0 DUP1 PUSH1 0x0 DUP1 PUSH1 0xC0 DUP8 DUP10 SUB SLT ISZERO PUSH2 0x3D7 JUMPI PUSH2 0x3D6 PUSH2 0x321 JUMP JUMPDEST JUMPDEST PUSH1 0x0 PUSH2 0x3E5 DUP10 DUP3 DUP11 ADD PUSH2 0x36F JUMP JUMPDEST SWAP7 POP POP PUSH1 0x20 PUSH2 0x3F6 DUP10 DUP3 DUP11 ADD PUSH2 0x3A5 JUMP JUMPDEST SWAP6 POP POP PUSH1 0x40 PUSH2 0x407 DUP10 DUP3 DUP11 ADD PUSH2 0x3A5 JUMP JUMPDEST SWAP5 POP POP PUSH1 0x60 PUSH2 0x418 DUP10 DUP3 DUP11 ADD PUSH2 0x3A5 JUMP JUMPDEST SWAP4 POP POP PUSH1 0x80 PUSH2 0x429 DUP10 DUP3 DUP11 ADD PUSH2 0x3A5 JUMP JUMPDEST SWAP3 POP POP PUSH1 0xA0 PUSH2 0x43A DUP10 DUP3 DUP11 ADD PUSH2 0x3A5 JUMP JUMPDEST SWAP2 POP POP SWAP3 SWAP6 POP SWAP3 SWAP6 POP SWAP3 SWAP6 JUMP JUMPDEST PUSH2 0x450 DUP2 PUSH2 0x346 JUMP JUMPDEST DUP3 MSTORE POP POP JUMP JUMPDEST PUSH1 0x0 PUSH1 0x20 DUP3 ADD SWAP1 POP PUSH2 0x46B PUSH1 0x0 DUP4 ADD DUP5 PUSH2 0x447 JUMP JUMPDEST SWAP3 SWAP2 POP POP JUMP JUMPDEST PUSH32 0x4E487B7100000000000000000000000000000000000000000000000000000000 PUSH1 0x0 MSTORE PUSH1 0x21 PUSH1 0x4 MSTORE PUSH1 0x24 PUSH1 0x0 REVERT JUMPDEST PUSH2 0x225C DUP1 PUSH2 0x4AF PUSH1 0x0 CODECOPY PUSH1 0x0 RETURN INVALID PUSH1 0x80 PUSH1 0x40 MSTORE PUSH1 0x4 CALLDATASIZE LT PUSH2 0x16A JUMPI PUSH1 0x0 CALLDATALOAD PUSH1 0xE0 SHR DUP1 PUSH4 0x9B19251A GT PUSH2 0xD1 JUMPI DUP1 PUSH4 0xDED362FE GT PUSH2 0x8A JUMPI DUP1 PUSH4 0xEE2D2C68 GT PUSH2 0x64 JUMPI DUP1 PUSH4 0xEE2D2C68 EQ PUSH2 0x4D2 JUMPI DUP1 PUSH4 0xEE889ED0 EQ PUSH2 0x4E9 JUMPI DUP1 PUSH4 0xF2FDE38B EQ PUSH2 0x500 JUMPI DUP1 PUSH4 0xFC0C546A EQ PUSH2 0x529 JUMPI PUSH2 0x179 JUMP JUMPDEST DUP1 PUSH4 0xDED362FE EQ PUSH2 0x441 JUMPI DUP1 PUSH4 0xE43252D7 EQ PUSH2 0x46C JUMPI DUP1 PUSH4 0xED3193D2 EQ PUSH2 0x495 JUMPI PUSH2 0x179 JUMP JUMPDEST DUP1 PUSH4 0x9B19251A EQ PUSH2 0x366 JUMPI DUP1 PUSH4 0x9E4137AF EQ PUSH2 0x3A3 JUMPI DUP1 PUSH4 0xC8B08125 EQ PUSH2 0x3CC JUMPI DUP1 PUSH4 0xC8BDBFB6 EQ PUSH2 0x3F7 JUMPI DUP1 PUSH4 0xCF3D8E53 EQ PUSH2 0x40E JUMPI DUP1 PUSH4 0xD0FEBE4C EQ PUSH2 0x437 JUMPI PUSH2 0x179 JUMP JUMPDEST DUP1 PUSH4 0x58ED2CC3 GT PUSH2 0x123 JUMPI DUP1 PUSH4 0x58ED2CC3 EQ PUSH2 0x27E JUMPI DUP1 PUSH4 0x60659A92 EQ PUSH2 0x2A7 JUMPI DUP1 PUSH4 0x715018A6 EQ PUSH2 0x2D2 JUMPI DUP1 PUSH4 0x8401F8D1 EQ PUSH2 0x2E9 JUMPI DUP1 PUSH4 0x8AB1D681 EQ PUSH2 0x312 JUMPI DUP1 PUSH4 0x8DA5CB5B EQ PUSH2 0x33B JUMPI PUSH2 0x179 JUMP JUMPDEST DUP1 PUSH4 0x55AD42E EQ PUSH2 0x17E JUMPI DUP1 PUSH4 0x103D6ED3 EQ PUSH2 0x1A9 JUMPI DUP1 PUSH4 0x14770959 EQ PUSH2 0x1E6 JUMPI DUP1 PUSH4 0x24600FC3 EQ PUSH2 0x211 JUMPI DUP1 PUSH4 0x287294C8 EQ PUSH2 0x228 JUMPI DUP1 PUSH4 0x518AB2A8 EQ PUSH2 0x253 JUMPI PUSH2 0x179 JUMP JUMPDEST CALLDATASIZE PUSH2 0x179 JUMPI PUSH2 0x177 PUSH2 0x554 JUMP JUMPDEST STOP JUMPDEST PUSH1 0x0 DUP1 REVERT JUMPDEST CALLVALUE DUP1 ISZERO PUSH2 0x18A JUMPI PUSH1 0x0 DUP1 REVERT JUMPDEST POP PUSH2 0x193 PUSH2 0xA56 JUMP JUMPDEST PUSH1 0x40 MLOAD PUSH2 0x1A0 SWAP2 SWAP1 PUSH2 0x1885 JUMP JUMPDEST PUSH1 0x40 MLOAD DUP1 SWAP2 SUB SWAP1 RETURN JUMPDEST CALLVALUE DUP1 ISZERO PUSH2 0x1B5 JUMPI PUSH1 0x0 DUP1 REVERT JUMPDEST POP PUSH2 0x1D0 PUSH1 0x4 DUP1 CALLDATASIZE SUB DUP2 ADD SWAP1 PUSH2 0x1CB SWAP2 SWAP1 PUSH2 0x18CF JUMP JUMPDEST PUSH2 0xA69 JUMP JUMPDEST PUSH1 0x40 MLOAD PUSH2 0x1DD SWAP2 SWAP1 PUSH2 0x1915 JUMP JUMPDEST PUSH1 0x40 MLOAD DUP1 SWAP2 SUB SWAP1 RETURN JUMPDEST CALLVALUE DUP1 ISZERO PUSH2 0x1F2 JUMPI PUSH1 0x0 DUP1 REVERT JUMPDEST POP PUSH2 0x1FB PUSH2 0xA81 JUMP JUMPDEST PUSH1 0x40 MLOAD PUSH2 0x208 SWAP2 SWAP1 PUSH2 0x194B JUMP JUMPDEST PUSH1 0x40 MLOAD DUP1 SWAP2 SUB SWAP1 RETURN JUMPDEST CALLVALUE DUP1 ISZERO PUSH2 0x21D JUMPI PUSH1 0x0 DUP1 REVERT JUMPDEST POP PUSH2 0x226 PUSH2 0xA94 JUMP JUMPDEST STOP JUMPDEST CALLVALUE DUP1 ISZERO PUSH2 0x234 JUMPI PUSH1 0x0 DUP1 REVERT JUMPDEST POP PUSH2 0x23D PUSH2 0xBFC JUMP JUMPDEST PUSH1 0x40 MLOAD PUSH2 0x24A SWAP2 SWAP1 PUSH2 0x1915 JUMP JUMPDEST PUSH1 0x40 MLOAD DUP1 SWAP2 SUB SWAP1 RETURN JUMPDEST CALLVALUE DUP1 ISZERO PUSH2 0x25F JUMPI PUSH1 0x0 DUP1 REVERT JUMPDEST POP PUSH2 0x268 PUSH2 0xC02 JUMP JUMPDEST PUSH1 0x40 MLOAD PUSH2 0x275 SWAP2 SWAP1 PUSH2 0x1915 JUMP JUMPDEST PUSH1 0x40 MLOAD DUP1 SWAP2 SUB SWAP1 RETURN JUMPDEST CALLVALUE DUP1 ISZERO PUSH2 0x28A JUMPI PUSH1 0x0 DUP1 REVERT JUMPDEST POP PUSH2 0x2A5 PUSH1 0x4 DUP1 CALLDATASIZE SUB DUP2 ADD SWAP1 PUSH2 0x2A0 SWAP2 SWAP1 PUSH2 0x1992 JUMP JUMPDEST PUSH2 0xC08 JUMP JUMPDEST STOP JUMPDEST CALLVALUE DUP1 ISZERO PUSH2 0x2B3 JUMPI PUSH1 0x0 DUP1 REVERT JUMPDEST POP PUSH2 0x2BC PUSH2 0xC51 JUMP JUMPDEST PUSH1 0x40 MLOAD PUSH2 0x2C9 SWAP2 SWAP1 PUSH2 0x1915 JUMP JUMPDEST PUSH1 0x40 MLOAD DUP1 SWAP2 SUB SWAP1 RETURN JUMPDEST CALLVALUE DUP1 ISZERO PUSH2 0x2DE JUMPI PUSH1 0x0 DUP1 REVERT JUMPDEST POP PUSH2 0x2E7 PUSH2 0xC57 JUMP JUMPDEST STOP JUMPDEST CALLVALUE DUP1 ISZERO PUSH2 0x2F5 JUMPI PUSH1 0x0 DUP1 REVERT JUMPDEST POP PUSH2 0x310 PUSH1 0x4 DUP1 CALLDATASIZE SUB DUP2 ADD SWAP1 PUSH2 0x30B SWAP2 SWAP1 PUSH2 0x1A24 JUMP JUMPDEST PUSH2 0xC6B JUMP JUMPDEST STOP JUMPDEST CALLVALUE DUP1 ISZERO PUSH2 0x31E JUMPI PUSH1 0x0 DUP1 REVERT JUMPDEST POP PUSH2 0x339 PUSH1 0x4 DUP1 CALLDATASIZE SUB DUP2 ADD SWAP1 PUSH2 0x334 SWAP2 SWAP1 PUSH2 0x1ACF JUMP JUMPDEST PUSH2 0xE17 JUMP JUMPDEST STOP JUMPDEST CALLVALUE DUP1 ISZERO PUSH2 0x347 JUMPI PUSH1 0x0 DUP1 REVERT JUMPDEST POP PUSH2 0x350 PUSH2 0xEC9 JUMP JUMPDEST PUSH1 0x40 MLOAD PUSH2 0x35D SWAP2 SWAP1 PUSH2 0x1B0B JUMP JUMPDEST PUSH1 0x40 MLOAD DUP1 SWAP2 SUB SWAP1 RETURN JUMPDEST CALLVALUE DUP1 ISZERO PUSH2 0x372 JUMPI PUSH1 0x0 DUP1 REVERT JUMPDEST POP PUSH2 0x38D PUSH1 0x4 DUP1 CALLDATASIZE SUB DUP2 ADD SWAP1 PUSH2 0x388 SWAP2 SWAP1 PUSH2 0x1ACF JUMP JUMPDEST PUSH2 0xEF2 JUMP JUMPDEST PUSH1 0x40 MLOAD PUSH2 0x39A SWAP2 SWAP1 PUSH2 0x194B JUMP JUMPDEST PUSH1 0x40 MLOAD DUP1 SWAP2 SUB SWAP1 RETURN JUMPDEST CALLVALUE DUP1 ISZERO PUSH2 0x3AF JUMPI PUSH1 0x0 DUP1 REVERT JUMPDEST POP PUSH2 0x3CA PUSH1 0x4 DUP1 CALLDATASIZE SUB DUP2 ADD SWAP1 PUSH2 0x3C5 SWAP2 SWAP1 PUSH2 0x1B26 JUMP JUMPDEST PUSH2 0xF12 JUMP JUMPDEST STOP JUMPDEST CALLVALUE DUP1 ISZERO PUSH2 0x3D8 JUMPI PUSH1 0x0 DUP1 REVERT JUMPDEST POP PUSH2 0x3E1 PUSH2 0xF9F JUMP JUMPDEST PUSH1 0x40 MLOAD PUSH2 0x3EE SWAP2 SWAP1 PUSH2 0x1915 JUMP JUMPDEST PUSH1 0x40 MLOAD DUP1 SWAP2 SUB SWAP1 RETURN JUMPDEST CALLVALUE DUP1 ISZERO PUSH2 0x403 JUMPI PUSH1 0x0 DUP1 REVERT JUMPDEST POP PUSH2 0x40C PUSH2 0xFA9 JUMP JUMPDEST STOP JUMPDEST CALLVALUE DUP1 ISZERO PUSH2 0x41A JUMPI PUSH1 0x0 DUP1 REVERT JUMPDEST POP PUSH2 0x435 PUSH1 0x4 DUP1 CALLDATASIZE SUB DUP2 ADD SWAP1 PUSH2 0x430 SWAP2 SWAP1 PUSH2 0x18CF JUMP JUMPDEST PUSH2 0x1116 JUMP JUMPDEST STOP JUMPDEST PUSH2 0x43F PUSH2 0x554 JUMP JUMPDEST STOP JUMPDEST CALLVALUE DUP1 ISZERO PUSH2 0x44D JUMPI PUSH1 0x0 DUP1 REVERT JUMPDEST POP PUSH2 0x456 PUSH2 0x1295 JUMP JUMPDEST PUSH1 0x40 MLOAD PUSH2 0x463 SWAP2 SWAP1 PUSH2 0x1915 JUMP JUMPDEST PUSH1 0x40 MLOAD DUP1 SWAP2 SUB SWAP1 RETURN JUMPDEST CALLVALUE DUP1 ISZERO PUSH2 0x478 JUMPI PUSH1 0x0 DUP1 REVERT JUMPDEST POP PUSH2 0x493 PUSH1 0x4 DUP1 CALLDATASIZE SUB DUP2 ADD SWAP1 PUSH2 0x48E SWAP2 SWAP1 PUSH2 0x1ACF JUMP JUMPDEST PUSH2 0x129B JUMP JUMPDEST STOP JUMPDEST CALLVALUE DUP1 ISZERO PUSH2 0x4A1 JUMPI PUSH1 0x0 DUP1 REVERT JUMPDEST POP PUSH2 0x4BC PUSH1 0x4 DUP1 CALLDATASIZE SUB DUP2 ADD SWAP1 PUSH2 0x4B7 SWAP2 SWAP1 PUSH2 0x1ACF JUMP JUMPDEST PUSH2 0x1341 JUMP JUMPDEST PUSH1 0x40 MLOAD PUSH2 0x4C9 SWAP2 SWAP1 PUSH2 0x1915 JUMP JUMPDEST PUSH1 0x40 MLOAD DUP1 SWAP2 SUB SWAP1 RETURN JUMPDEST CALLVALUE DUP1 ISZERO PUSH2 0x4DE JUMPI PUSH1 0x0 DUP1 REVERT JUMPDEST POP PUSH2 0x4E7 PUSH2 0x1359 JUMP JUMPDEST STOP JUMPDEST CALLVALUE DUP1 ISZERO PUSH2 0x4F5 JUMPI PUSH1 0x0 DUP1 REVERT JUMPDEST POP PUSH2 0x4FE PUSH2 0x14F3 JUMP JUMPDEST STOP JUMPDEST CALLVALUE DUP1 ISZERO PUSH2 0x50C JUMPI PUSH1 0x0 DUP1 REVERT JUMPDEST POP PUSH2 0x527 PUSH1 0x4 DUP1 CALLDATASIZE SUB DUP2 ADD SWAP1 PUSH2 0x522 SWAP2 SWAP1 PUSH2 0x1ACF JUMP JUMPDEST PUSH2 0x15C0 JUMP JUMPDEST STOP JUMPDEST CALLVALUE DUP1 ISZERO PUSH2 0x535 JUMPI PUSH1 0x0 DUP1 REVERT JUMPDEST POP PUSH2 0x53E PUSH2 0x1646 JUMP JUMPDEST PUSH1 0x40 MLOAD PUSH2 0x54B SWAP2 SWAP1 PUSH2 0x1BC5 JUMP JUMPDEST PUSH1 0x40 MLOAD DUP1 SWAP2 SUB SWAP1 RETURN JUMPDEST PUSH2 0x55C PUSH2 0x166C JUMP JUMPDEST PUSH1 0x3 DUP1 DUP2 GT ISZERO PUSH2 0x56F JUMPI PUSH2 0x56E PUSH2 0x180E JUMP JUMPDEST JUMPDEST PUSH1 0x2 PUSH1 0x0 SWAP1 SLOAD SWAP1 PUSH2 0x100 EXP SWAP1 DIV PUSH1 0xFF AND PUSH1 0x3 DUP2 GT ISZERO PUSH2 0x591 JUMPI PUSH2 0x590 PUSH2 0x180E JUMP JUMPDEST JUMPDEST SUB PUSH2 0x5C8 JUMPI PUSH1 0x40 MLOAD PUSH32 0xE3C26ABE00000000000000000000000000000000000000000000000000000000 DUP2 MSTORE PUSH1 0x4 ADD PUSH1 0x40 MLOAD DUP1 SWAP2 SUB SWAP1 REVERT JUMPDEST PUSH1 0x0 CALLVALUE SUB PUSH2 0x610 JUMPI PUSH1 0x1 CALLVALUE PUSH1 0x40 MLOAD PUSH32 0x3EB8B5400000000000000000000000000000000000000000000000000000000 DUP2 MSTORE PUSH1 0x4 ADD PUSH2 0x607 SWAP3 SWAP2 SWAP1 PUSH2 0x1C1B JUMP JUMPDEST PUSH1 0x40 MLOAD DUP1 SWAP2 SUB SWAP1 REVERT JUMPDEST PUSH1 0x0 PUSH1 0x5 PUSH1 0x0 PUSH1 0x2 PUSH1 0x0 SWAP1 SLOAD SWAP1 PUSH2 0x100 EXP SWAP1 DIV PUSH1 0xFF AND PUSH1 0x3 DUP2 GT ISZERO PUSH2 0x638 JUMPI PUSH2 0x637 PUSH2 0x180E JUMP JUMPDEST JUMPDEST PUSH1 0x3 DUP2 GT ISZERO PUSH2 0x64A JUMPI PUSH2 0x649 PUSH2 0x180E JUMP JUMPDEST JUMPDEST DUP2 MSTORE PUSH1 0x20 ADD SWAP1 DUP2 MSTORE PUSH1 0x20 ADD PUSH1 0x0 KECCAK256 SLOAD SWAP1 POP PUSH1 0x0 DUP2 SUB PUSH2 0x6AF JUMPI PUSH1 0x2 PUSH1 0x0 SWAP1 SLOAD SWAP1 PUSH2 0x100 EXP SWAP1 DIV PUSH1 0xFF AND PUSH1 0x40 MLOAD PUSH32 0x9F516DEE00000000000000000000000000000000000000000000000000000000 DUP2 MSTORE PUSH1 0x4 ADD PUSH2 0x6A6 SWAP2 SWAP1 PUSH2 0x1CA1 JUMP JUMPDEST PUSH1 0x40 MLOAD DUP1 SWAP2 SUB SWAP1 REVERT JUMPDEST PUSH1 0x0 PUSH8 0xDE0B6B3A7640000 DUP3 CALLVALUE PUSH2 0x6C6 SWAP2 SWAP1 PUSH2 0x1CFE JUMP JUMPDEST PUSH2 0x6D0 SWAP2 SWAP1 PUSH2 0x1D6F JUMP JUMPDEST SWAP1 POP PUSH1 0x3 SLOAD DUP2 GT ISZERO PUSH2 0x71D JUMPI PUSH1 0x3 SLOAD DUP2 PUSH1 0x40 MLOAD PUSH32 0x61B0D5B400000000000000000000000000000000000000000000000000000000 DUP2 MSTORE PUSH1 0x4 ADD PUSH2 0x714 SWAP3 SWAP2 SWAP1 PUSH2 0x1E12 JUMP JUMPDEST PUSH1 0x40 MLOAD DUP1 SWAP2 SUB SWAP1 REVERT JUMPDEST PUSH1 0x0 PUSH1 0x8 PUSH1 0x0 CALLER PUSH20 0xFFFFFFFFFFFFFFFFFFFFFFFFFFFFFFFFFFFFFFFF AND PUSH20 0xFFFFFFFFFFFFFFFFFFFFFFFFFFFFFFFFFFFFFFFF AND DUP2 MSTORE PUSH1 0x20 ADD SWAP1 DUP2 MSTORE PUSH1 0x20 ADD PUSH1 0x0 KECCAK256 PUSH1 0x0 SWAP1 SLOAD SWAP1 PUSH2 0x100 EXP SWAP1 DIV PUSH1 0xFF AND PUSH2 0x778 JUMPI PUSH1 0xA SLOAD PUSH2 0x79A JUMP JUMPDEST PUSH32 0xFFFFFFFFFFFFFFFFFFFFFFFFFFFFFFFFFFFFFFFFFFFFFFFFFFFFFFFFFFFFFFFF JUMPDEST SWAP1 POP DUP1 DUP3 PUSH1 0x9 PUSH1 0x0 CALLER PUSH20 0xFFFFFFFFFFFFFFFFFFFFFFFFFFFFFFFFFFFFFFFF AND PUSH20 0xFFFFFFFFFFFFFFFFFFFFFFFFFFFFFFFFFFFFFFFF AND DUP2 MSTORE PUSH1 0x20 ADD SWAP1 DUP2 MSTORE PUSH1 0x20 ADD PUSH1 0x0 KECCAK256 SLOAD PUSH2 0x7E8 SWAP2 SWAP1 PUSH2 0x1E4E JUMP JUMPDEST GT ISZERO PUSH2 0x877 JUMPI DUP1 DUP3 PUSH1 0x9 PUSH1 0x0 CALLER PUSH20 0xFFFFFFFFFFFFFFFFFFFFFFFFFFFFFFFFFFFFFFFF AND PUSH20 0xFFFFFFFFFFFFFFFFFFFFFFFFFFFFFFFFFFFFFFFF AND DUP2 MSTORE PUSH1 0x20 ADD SWAP1 DUP2 MSTORE PUSH1 0x20 ADD PUSH1 0x0 KECCAK256 SLOAD PUSH2 0x83A SWAP2 SWAP1 PUSH2 0x1E4E JUMP JUMPDEST PUSH1 0x40 MLOAD PUSH32 0x913FA13800000000000000000000000000000000000000000000000000000000 DUP2 MSTORE PUSH1 0x4 ADD PUSH2 0x86E SWAP3 SWAP2 SWAP1 PUSH2 0x1E82 JUMP JUMPDEST PUSH1 0x40 MLOAD DUP1 SWAP2 SUB SWAP1 REVERT JUMPDEST DUP2 PUSH1 0x3 PUSH1 0x0 DUP3 DUP3 SLOAD PUSH2 0x889 SWAP2 SWAP1 PUSH2 0x1EAB JUMP JUMPDEST SWAP3 POP POP DUP2 SWAP1 SSTORE POP DUP2 PUSH1 0x4 PUSH1 0x0 DUP3 DUP3 SLOAD PUSH2 0x8A2 SWAP2 SWAP1 PUSH2 0x1E4E JUMP JUMPDEST SWAP3 POP POP DUP2 SWAP1 SSTORE POP CALLVALUE PUSH1 0x6 PUSH1 0x0 DUP3 DUP3 SLOAD PUSH2 0x8BB SWAP2 SWAP1 PUSH2 0x1E4E JUMP JUMPDEST SWAP3 POP POP DUP2 SWAP1 SSTORE POP DUP2 PUSH1 0x9 PUSH1 0x0 CALLER PUSH20 0xFFFFFFFFFFFFFFFFFFFFFFFFFFFFFFFFFFFFFFFF AND PUSH20 0xFFFFFFFFFFFFFFFFFFFFFFFFFFFFFFFFFFFFFFFF AND DUP2 MSTORE PUSH1 0x20 ADD SWAP1 DUP2 MSTORE PUSH1 0x20 ADD PUSH1 0x0 KECCAK256 PUSH1 0x0 DUP3 DUP3 SLOAD PUSH2 0x911 SWAP2 SWAP1 PUSH2 0x1E4E JUMP JUMPDEST SWAP3 POP POP DUP2 SWAP1 SSTORE POP PUSH1 0x2 PUSH1 0x1 SWAP1 SLOAD SWAP1 PUSH2 0x100 EXP SWAP1 DIV PUSH20 0xFFFFFFFFFFFFFFFFFFFFFFFFFFFFFFFFFFFFFFFF AND PUSH20 0xFFFFFFFFFFFFFFFFFFFFFFFFFFFFFFFFFFFFFFFF AND PUSH4 0xA9059CBB CALLER DUP5 PUSH1 0x40 MLOAD DUP4 PUSH4 0xFFFFFFFF AND PUSH1 0xE0 SHL DUP2 MSTORE PUSH1 0x4 ADD PUSH2 0x975 SWAP3 SWAP2 SWAP1 PUSH2 0x1EDF JUMP JUMPDEST PUSH1 0x20 PUSH1 0x40 MLOAD DUP1 DUP4 SUB DUP2 PUSH1 0x0 DUP8 GAS CALL ISZERO DUP1 ISZERO PUSH2 0x994 JUMPI RETURNDATASIZE PUSH1 0x0 DUP1 RETURNDATACOPY RETURNDATASIZE PUSH1 0x0 REVERT JUMPDEST POP POP POP POP PUSH1 0x40 MLOAD RETURNDATASIZE PUSH1 0x1F NOT PUSH1 0x1F DUP3 ADD AND DUP3 ADD DUP1 PUSH1 0x40 MSTORE POP DUP2 ADD SWAP1 PUSH2 0x9B8 SWAP2 SWAP1 PUSH2 0x1F34 JUMP JUMPDEST PUSH2 0x9F9 JUMPI DUP2 PUSH1 0x40 MLOAD PUSH32 0x93255A7300000000000000000000000000000000000000000000000000000000 DUP2 MSTORE PUSH1 0x4 ADD PUSH2 0x9F0 SWAP2 SWAP1 PUSH2 0x1FAD JUMP JUMPDEST PUSH1 0x40 MLOAD DUP1 SWAP2 SUB SWAP1 REVERT JUMPDEST CALLER PUSH20 0xFFFFFFFFFFFFFFFFFFFFFFFFFFFFFFFFFFFFFFFF AND PUSH32 0x8FAFEBCAF9D154343DAD25669BFA277F4FBACD7AC6B0C4FED522580E040A0F33 DUP4 CALLVALUE PUSH1 0x40 MLOAD PUSH2 0xA41 SWAP3 SWAP2 SWAP1 PUSH2 0x1E82 JUMP JUMPDEST PUSH1 0x40 MLOAD DUP1 SWAP2 SUB SWAP1 LOG2 POP POP POP PUSH2 0xA54 PUSH2 0x16B2 JUMP JUMPDEST JUMP JUMPDEST PUSH1 0x2 PUSH1 0x0 SWAP1 SLOAD SWAP1 PUSH2 0x100 EXP SWAP1 DIV PUSH1 0xFF AND DUP2 JUMP JUMPDEST PUSH1 0x5 PUSH1 0x20 MSTORE DUP1 PUSH1 0x0 MSTORE PUSH1 0x40 PUSH1 0x0 KECCAK256 PUSH1 0x0 SWAP2 POP SWAP1 POP SLOAD DUP2 JUMP JUMPDEST PUSH1 0x7 PUSH1 0x0 SWAP1 SLOAD SWAP1 PUSH2 0x100 EXP SWAP1 DIV PUSH1 0xFF AND DUP2 JUMP JUMPDEST PUSH2 0xA9C PUSH2 0x166C JUMP JUMPDEST PUSH2 0xAA4 PUSH2 0x16BB JUMP JUMPDEST PUSH1 0x0 SELFBALANCE SWAP1 POP PUSH1 0x0 DUP2 SUB PUSH2 0xAF1 JUMPI PUSH1 0x1 DUP2 PUSH1 0x40 MLOAD PUSH32 0x3EB8B5400000000000000000000000000000000000000000000000000000000 DUP2 MSTORE PUSH1 0x4 ADD PUSH2 0xAE8 SWAP3 SWAP2 SWAP1 PUSH2 0x1C1B JUMP JUMPDEST PUSH1 0x40 MLOAD DUP1 SWAP2 SUB SWAP1 REVERT JUMPDEST PUSH1 0x0 PUSH2 0xAFB PUSH2 0xEC9 JUMP JUMPDEST PUSH20 0xFFFFFFFFFFFFFFFFFFFFFFFFFFFFFFFFFFFFFFFF AND DUP3 PUSH1 0x40 MLOAD PUSH2 0xB1E SWAP1 PUSH2 0x200C JUMP JUMPDEST PUSH1 0x0 PUSH1 0x40 MLOAD DUP1 DUP4 SUB DUP2 DUP6 DUP8 GAS CALL SWAP3 POP POP POP RETURNDATASIZE DUP1 PUSH1 0x0 DUP2 EQ PUSH2 0xB5B JUMPI PUSH1 0x40 MLOAD SWAP2 POP PUSH1 0x1F NOT PUSH1 0x3F RETURNDATASIZE ADD AND DUP3 ADD PUSH1 0x40 MSTORE RETURNDATASIZE DUP3 MSTORE RETURNDATASIZE PUSH1 0x0 PUSH1 0x20 DUP5 ADD RETURNDATACOPY PUSH2 0xB60 JUMP JUMPDEST PUSH1 0x60 SWAP2 POP JUMPDEST POP POP SWAP1 POP DUP1 PUSH2 0xB9B JUMPI PUSH1 0x40 MLOAD PUSH32 0x27FCD9D100000000000000000000000000000000000000000000000000000000 DUP2 MSTORE PUSH1 0x4 ADD PUSH1 0x40 MLOAD DUP1 SWAP2 SUB SWAP1 REVERT JUMPDEST PUSH2 0xBA3 PUSH2 0xEC9 JUMP JUMPDEST PUSH20 0xFFFFFFFFFFFFFFFFFFFFFFFFFFFFFFFFFFFFFFFF AND PUSH32 0xEAFF4B37086828766AD3268786972C0CD24259D4C87A80F9D3963A3C3D999B0D DUP4 PUSH1 0x40 MLOAD PUSH2 0xBE8 SWAP2 SWAP1 PUSH2 0x1915 JUMP JUMPDEST PUSH1 0x40 MLOAD DUP1 SWAP2 SUB SWAP1 LOG2 POP POP PUSH2 0xBFA PUSH2 0x16B2 JUMP JUMPDEST JUMP JUMPDEST PUSH1 0x6 SLOAD DUP2 JUMP JUMPDEST PUSH1 0x4 SLOAD DUP2 JUMP JUMPDEST PUSH2 0xC10 PUSH2 0x16BB JUMP JUMPDEST DUP1 PUSH1 0xA DUP2 SWAP1 SSTORE POP PUSH32 0xD62FF6C5039086F4F370D050BC58ED17716234AC8DFC95CF9B02B8D9FA162282 DUP2 PUSH1 0x40 MLOAD PUSH2 0xC46 SWAP2 SWAP1 PUSH2 0x1915 JUMP JUMPDEST PUSH1 0x40 MLOAD DUP1 SWAP2 SUB SWAP1 LOG1 POP JUMP JUMPDEST PUSH1 0x3 SLOAD DUP2 JUMP JUMPDEST PUSH2 0xC5F PUSH2 0x16BB JUMP JUMPDEST PUSH2 0xC69 PUSH1 0x0 PUSH2 0x1742 JUMP JUMPDEST JUMP JUMPDEST PUSH2 0xC73 PUSH2 0x16BB JUMP JUMPDEST PUSH1 0x0 DUP3 DUP3 SWAP1 POP SWAP1 POP PUSH1 0x0 JUMPDEST DUP2 DUP2 LT ISZERO PUSH2 0xE11 JUMPI PUSH1 0x0 DUP5 DUP5 DUP4 DUP2 DUP2 LT PUSH2 0xC9B JUMPI PUSH2 0xC9A PUSH2 0x2021 JUMP JUMPDEST JUMPDEST SWAP1 POP PUSH1 0x20 MUL ADD PUSH1 0x20 DUP2 ADD SWAP1 PUSH2 0xCB0 SWAP2 SWAP1 PUSH2 0x1ACF JUMP JUMPDEST SWAP1 POP PUSH1 0x0 PUSH20 0xFFFFFFFFFFFFFFFFFFFFFFFFFFFFFFFFFFFFFFFF AND DUP2 PUSH20 0xFFFFFFFFFFFFFFFFFFFFFFFFFFFFFFFFFFFFFFFF AND SUB PUSH2 0xD18 JUMPI PUSH1 0x40 MLOAD PUSH32 0xD92E233D00000000000000000000000000000000000000000000000000000000 DUP2 MSTORE PUSH1 0x4 ADD PUSH1 0x40 MLOAD DUP1 SWAP2 SUB SWAP1 REVERT JUMPDEST PUSH1 0x8 PUSH1 0x0 DUP3 PUSH20 0xFFFFFFFFFFFFFFFFFFFFFFFFFFFFFFFFFFFFFFFF AND PUSH20 0xFFFFFFFFFFFFFFFFFFFFFFFFFFFFFFFFFFFFFFFF AND DUP2 MSTORE PUSH1 0x20 ADD SWAP1 DUP2 MSTORE PUSH1 0x20 ADD PUSH1 0x0 KECCAK256 PUSH1 0x0 SWAP1 SLOAD SWAP1 PUSH2 0x100 EXP SWAP1 DIV PUSH1 0xFF AND PUSH2 0xE05 JUMPI PUSH1 0x1 PUSH1 0x8 PUSH1 0x0 DUP4 PUSH20 0xFFFFFFFFFFFFFFFFFFFFFFFFFFFFFFFFFFFFFFFF AND PUSH20 0xFFFFFFFFFFFFFFFFFFFFFFFFFFFFFFFFFFFFFFFF AND DUP2 MSTORE PUSH1 0x20 ADD SWAP1 DUP2 MSTORE PUSH1 0x20 ADD PUSH1 0x0 KECCAK256 PUSH1 0x0 PUSH2 0x100 EXP DUP2 SLOAD DUP2 PUSH1 0xFF MUL NOT AND SWAP1 DUP4 ISZERO ISZERO MUL OR SWAP1 SSTORE POP DUP1 PUSH20 0xFFFFFFFFFFFFFFFFFFFFFFFFFFFFFFFFFFFFFFFF AND PUSH32 0x4F783C179409B4127238BC9C990BC99B9A651666A0D20B51D6C42849EB88466D PUSH1 0x40 MLOAD PUSH1 0x40 MLOAD DUP1 SWAP2 SUB SWAP1 LOG2 JUMPDEST POP DUP1 PUSH1 0x1 ADD SWAP1 POP PUSH2 0xC7E JUMP JUMPDEST POP POP POP POP JUMP JUMPDEST PUSH2 0xE1F PUSH2 0x16BB JUMP JUMPDEST PUSH1 0x0 PUSH1 0x8 PUSH1 0x0 DUP4 PUSH20 0xFFFFFFFFFFFFFFFFFFFFFFFFFFFFFFFFFFFFFFFF AND PUSH20 0xFFFFFFFFFFFFFFFFFFFFFFFFFFFFFFFFFFFFFFFF AND DUP2 MSTORE PUSH1 0x20 ADD SWAP1 DUP2 MSTORE PUSH1 0x20 ADD PUSH1 0x0 KECCAK256 PUSH1 0x0 PUSH2 0x100 EXP DUP2 SLOAD DUP2 PUSH1 0xFF MUL NOT AND SWAP1 DUP4 ISZERO ISZERO MUL OR SWAP1 SSTORE POP DUP1 PUSH20 0xFFFFFFFFFFFFFFFFFFFFFFFFFFFFFFFFFFFFFFFF AND PUSH32 0xF93F9A76C1BF3444D22400A00CB9FE990E6ABE9DBB333FDA48859CFEE864543D PUSH1 0x0 PUSH1 0x40 MLOAD PUSH2 0xEBE SWAP2 SWAP1 PUSH2 0x194B JUMP JUMPDEST PUSH1 0x40 MLOAD DUP1 SWAP2 SUB SWAP1 LOG2 POP JUMP JUMPDEST PUSH1 0x0 DUP1 PUSH1 0x0 SWAP1 SLOAD SWAP1 PUSH2 0x100 EXP SWAP1 DIV PUSH20 0xFFFFFFFFFFFFFFFFFFFFFFFFFFFFFFFFFFFFFFFF AND SWAP1 POP SWAP1 JUMP JUMPDEST PUSH1 0x8 PUSH1 0x20 MSTORE DUP1 PUSH1 0x0 MSTORE PUSH1 0x40 PUSH1 0x0 KECCAK256 PUSH1 0x0 SWAP2 POP SLOAD SWAP1 PUSH2 0x100 EXP SWAP1 DIV PUSH1 0xFF AND DUP2 JUMP JUMPDEST PUSH2 0xF1A PUSH2 0x16BB JUMP JUMPDEST PUSH1 0x0 DUP2 SUB PUSH2 0xF5F JUMPI DUP1 PUSH1 0x40 MLOAD PUSH32 0xC60DD43D00000000000000000000000000000000000000000000000000000000 DUP2 MSTORE PUSH1 0x4 ADD PUSH2 0xF56 SWAP2 SWAP1 PUSH2 0x209C JUMP JUMPDEST PUSH1 0x40 MLOAD DUP1 SWAP2 SUB SWAP1 REVERT JUMPDEST DUP1 PUSH1 0x5 PUSH1 0x0 DUP5 PUSH1 0x3 DUP2 GT ISZERO PUSH2 0xF77 JUMPI PUSH2 0xF76 PUSH2 0x180E JUMP JUMPDEST JUMPDEST PUSH1 0x3 DUP2 GT ISZERO PUSH2 0xF89 JUMPI PUSH2 0xF88 PUSH2 0x180E JUMP JUMPDEST JUMPDEST DUP2 MSTORE PUSH1 0x20 ADD SWAP1 DUP2 MSTORE PUSH1 0x20 ADD PUSH1 0x0 KECCAK256 DUP2 SWAP1 SSTORE POP POP POP JUMP JUMPDEST PUSH1 0x0 PUSH1 0x3 SLOAD SWAP1 POP SWAP1 JUMP JUMPDEST PUSH2 0xFB1 PUSH2 0x16BB JUMP JUMPDEST PUSH1 0x3 DUP1 DUP2 GT ISZERO PUSH2 0xFC4 JUMPI PUSH2 0xFC3 PUSH2 0x180E JUMP JUMPDEST JUMPDEST PUSH1 0x2 PUSH1 0x0 SWAP1 SLOAD SWAP1 PUSH2 0x100 EXP SWAP1 DIV PUSH1 0xFF AND PUSH1 0x3 DUP2 GT ISZERO PUSH2 0xFE6 JUMPI PUSH2 0xFE5 PUSH2 0x180E JUMP JUMPDEST JUMPDEST EQ PUSH2 0x101D JUMPI PUSH1 0x40 MLOAD PUSH32 0xE3C26ABE00000000000000000000000000000000000000000000000000000000 DUP2 MSTORE PUSH1 0x4 ADD PUSH1 0x40 MLOAD DUP1 SWAP2 SUB SWAP1 REVERT JUMPDEST PUSH1 0x0 PUSH1 0x3 SLOAD SWAP1 POP PUSH1 0x0 DUP2 GT ISZERO PUSH2 0x1113 JUMPI PUSH1 0x0 PUSH1 0x3 DUP2 SWAP1 SSTORE POP PUSH1 0x2 PUSH1 0x1 SWAP1 SLOAD SWAP1 PUSH2 0x100 EXP SWAP1 DIV PUSH20 0xFFFFFFFFFFFFFFFFFFFFFFFFFFFFFFFFFFFFFFFF AND PUSH20 0xFFFFFFFFFFFFFFFFFFFFFFFFFFFFFFFFFFFFFFFF AND PUSH4 0xA9059CBB PUSH2 0x107B PUSH2 0xEC9 JUMP JUMPDEST DUP4 PUSH1 0x40 MLOAD DUP4 PUSH4 0xFFFFFFFF AND PUSH1 0xE0 SHL DUP2 MSTORE PUSH1 0x4 ADD PUSH2 0x1099 SWAP3 SWAP2 SWAP1 PUSH2 0x1EDF JUMP JUMPDEST PUSH1 0x20 PUSH1 0x40 MLOAD DUP1 DUP4 SUB DUP2 PUSH1 0x0 DUP8 GAS CALL ISZERO DUP1 ISZERO PUSH2 0x10B8 JUMPI RETURNDATASIZE PUSH1 0x0 DUP1 RETURNDATACOPY RETURNDATASIZE PUSH1 0x0 REVERT JUMPDEST POP POP POP POP PUSH1 0x40 MLOAD RETURNDATASIZE PUSH1 0x1F NOT PUSH1 0x1F DUP3 ADD AND DUP3 ADD DUP1 PUSH1 0x40 MSTORE POP DUP2 ADD SWAP1 PUSH2 0x10DC SWAP2 SWAP1 PUSH2 0x1F34 JUMP JUMPDEST PUSH2 0x1112 JUMPI PUSH1 0x40 MLOAD PUSH32 0x27FCD9D100000000000000000000000000000000000000000000000000000000 DUP2 MSTORE PUSH1 0x4 ADD PUSH1 0x40 MLOAD DUP1 SWAP2 SUB SWAP1 REVERT JUMPDEST JUMPDEST POP JUMP JUMPDEST PUSH2 0x111E PUSH2 0x16BB JUMP JUMPDEST PUSH1 0x3 DUP1 DUP2 GT ISZERO PUSH2 0x1131 JUMPI PUSH2 0x1130 PUSH2 0x180E JUMP JUMPDEST JUMPDEST PUSH1 0x2 PUSH1 0x0 SWAP1 SLOAD SWAP1 PUSH2 0x100 EXP SWAP1 DIV PUSH1 0xFF AND PUSH1 0x3 DUP2 GT ISZERO PUSH2 0x1153 JUMPI PUSH2 0x1152 PUSH2 0x180E JUMP JUMPDEST JUMPDEST SUB PUSH2 0x118A JUMPI PUSH1 0x40 MLOAD PUSH32 0xE3C26ABE00000000000000000000000000000000000000000000000000000000 DUP2 MSTORE PUSH1 0x4 ADD PUSH1 0x40 MLOAD DUP1 SWAP2 SUB SWAP1 REVERT JUMPDEST PUSH1 0x2 PUSH1 0x0 SWAP1 SLOAD SWAP1 PUSH2 0x100 EXP SWAP1 DIV PUSH1 0xFF AND PUSH1 0x3 DUP2 GT ISZERO PUSH2 0x11AC JUMPI PUSH2 0x11AB PUSH2 0x180E JUMP JUMPDEST JUMPDEST DUP2 PUSH1 0x3 DUP2 GT ISZERO PUSH2 0x11BF JUMPI PUSH2 0x11BE PUSH2 0x180E JUMP JUMPDEST JUMPDEST GT ISZERO DUP1 PUSH2 0x11EF JUMPI POP PUSH1 0x3 DUP1 DUP2 GT ISZERO PUSH2 0x11DA JUMPI PUSH2 0x11D9 PUSH2 0x180E JUMP JUMPDEST JUMPDEST DUP2 PUSH1 0x3 DUP2 GT ISZERO PUSH2 0x11ED JUMPI PUSH2 0x11EC PUSH2 0x180E JUMP JUMPDEST JUMPDEST EQ JUMPDEST ISZERO PUSH2 0x1231 JUMPI DUP1 PUSH1 0x40 MLOAD PUSH32 0x9F516DEE00000000000000000000000000000000000000000000000000000000 DUP2 MSTORE PUSH1 0x4 ADD PUSH2 0x1228 SWAP2 SWAP1 PUSH2 0x2116 JUMP JUMPDEST PUSH1 0x40 MLOAD DUP1 SWAP2 SUB SWAP1 REVERT JUMPDEST DUP1 PUSH1 0x2 PUSH1 0x0 PUSH2 0x100 EXP DUP2 SLOAD DUP2 PUSH1 0xFF MUL NOT AND SWAP1 DUP4 PUSH1 0x3 DUP2 GT ISZERO PUSH2 0x1256 JUMPI PUSH2 0x1255 PUSH2 0x180E JUMP JUMPDEST JUMPDEST MUL OR SWAP1 SSTORE POP PUSH32 0x5AC19F4E6DB6FD8B645DD056E4842CD2F63E0C6F0568176C17EF60E3C16732D DUP2 PUSH1 0x40 MLOAD PUSH2 0x128A SWAP2 SWAP1 PUSH2 0x1885 JUMP JUMPDEST PUSH1 0x40 MLOAD DUP1 SWAP2 SUB SWAP1 LOG1 POP JUMP JUMPDEST PUSH1 0xA SLOAD DUP2 JUMP JUMPDEST PUSH2 0x12A3 PUSH2 0x16BB JUMP JUMPDEST PUSH1 0x1 PUSH1 0x8 PUSH1 0x0 DUP4 PUSH20 0xFFFFFFFFFFFFFFFFFFFFFFFFFFFFFFFFFFFFFFFF AND PUSH20 0xFFFFFFFFFFFFFFFFFFFFFFFFFFFFFFFFFFFFFFFF AND DUP2 MSTORE PUSH1 0x20 ADD SWAP1 DUP2 MSTORE PUSH1 0x20 ADD PUSH1 0x0 KECCAK256 PUSH1 0x0 PUSH2 0x100 EXP DUP2 SLOAD DUP2 PUSH1 0xFF MUL NOT AND SWAP1 DUP4 ISZERO ISZERO MUL OR SWAP1 SSTORE POP DUP1 PUSH20 0xFFFFFFFFFFFFFFFFFFFFFFFFFFFFFFFFFFFFFFFF AND PUSH32 0x4F783C179409B4127238BC9C990BC99B9A651666A0D20B51D6C42849EB88466D PUSH1 0x40 MLOAD PUSH1 0x40 MLOAD DUP1 SWAP2 SUB SWAP1 LOG2 POP JUMP JUMPDEST PUSH1 0x9 PUSH1 0x20 MSTORE DUP1 PUSH1 0x0 MSTORE PUSH1 0x40 PUSH1 0x0 KECCAK256 PUSH1 0x0 SWAP2 POP SWAP1 POP SLOAD DUP2 JUMP JUMPDEST PUSH2 0x1361 PUSH2 0x16BB JUMP JUMPDEST PUSH1 0x7 PUSH1 0x0 SWAP1 SLOAD SWAP1 PUSH2 0x100 EXP SWAP1 DIV PUSH1 0xFF AND ISZERO PUSH2 0x13B5 JUMPI PUSH1 0x3 SLOAD PUSH1 0x40 MLOAD PUSH32 0xFF61F1F300000000000000000000000000000000000000000000000000000000 DUP2 MSTORE PUSH1 0x4 ADD PUSH2 0x13AC SWAP2 SWAP1 PUSH2 0x21B6 JUMP JUMPDEST PUSH1 0x40 MLOAD DUP1 SWAP2 SUB SWAP1 REVERT JUMPDEST PUSH1 0x0 PUSH1 0x2 PUSH1 0x1 SWAP1 SLOAD SWAP1 PUSH2 0x100 EXP SWAP1 DIV PUSH20 0xFFFFFFFFFFFFFFFFFFFFFFFFFFFFFFFFFFFFFFFF AND PUSH20 0xFFFFFFFFFFFFFFFFFFFFFFFFFFFFFFFFFFFFFFFF AND PUSH4 0x70A08231 ADDRESS PUSH1 0x40 MLOAD DUP3 PUSH4 0xFFFFFFFF AND PUSH1 0xE0 SHL DUP2 MSTORE PUSH1 0x4 ADD PUSH2 0x1412 SWAP2 SWAP1 PUSH2 0x1B0B JUMP JUMPDEST PUSH1 0x20 PUSH1 0x40 MLOAD DUP1 DUP4 SUB DUP2 DUP7 GAS STATICCALL ISZERO DUP1 ISZERO PUSH2 0x142F JUMPI RETURNDATASIZE PUSH1 0x0 DUP1 RETURNDATACOPY RETURNDATASIZE PUSH1 0x0 REVERT JUMPDEST POP POP POP POP PUSH1 0x40 MLOAD RETURNDATASIZE PUSH1 0x1F NOT PUSH1 0x1F DUP3 ADD AND DUP3 ADD DUP1 PUSH1 0x40 MSTORE POP DUP2 ADD SWAP1 PUSH2 0x1453 SWAP2 SWAP1 PUSH2 0x21F9 JUMP JUMPDEST SWAP1 POP PUSH1 0x3 SLOAD DUP2 LT ISZERO PUSH2 0x149C JUMPI DUP1 PUSH1 0x40 MLOAD PUSH32 0x93255A7300000000000000000000000000000000000000000000000000000000 DUP2 MSTORE PUSH1 0x4 ADD PUSH2 0x1493 SWAP2 SWAP1 PUSH2 0x1FAD JUMP JUMPDEST PUSH1 0x40 MLOAD DUP1 SWAP2 SUB SWAP1 REVERT JUMPDEST PUSH1 0x1 PUSH1 0x7 PUSH1 0x0 PUSH2 0x100 EXP DUP2 SLOAD DUP2 PUSH1 0xFF MUL NOT AND SWAP1 DUP4 ISZERO ISZERO MUL OR SWAP1 SSTORE POP PUSH32 0x52662D1A3131F7BA0D800FC07F2BC63113061F8C1307E917016493A232BC8150 PUSH1 0x3 SLOAD PUSH1 0x40 MLOAD PUSH2 0x14E8 SWAP2 SWAP1 PUSH2 0x1915 JUMP JUMPDEST PUSH1 0x40 MLOAD DUP1 SWAP2 SUB SWAP1 LOG1 POP JUMP JUMPDEST PUSH2 0x14FB PUSH2 0x16BB JUMP JUMPDEST PUSH1 0x3 DUP1 DUP2 GT ISZERO PUSH2 0x150E JUMPI PUSH2 0x150D PUSH2 0x180E JUMP JUMPDEST JUMPDEST PUSH1 0x2 PUSH1 0x0 SWAP1 SLOAD SWAP1 PUSH2 0x100 EXP SWAP1 DIV PUSH1 0xFF AND PUSH1 0x3 DUP2 GT ISZERO PUSH2 0x1530 JUMPI PUSH2 0x152F PUSH2 0x180E JUMP JUMPDEST JUMPDEST SUB PUSH2 0x1567 JUMPI PUSH1 0x40 MLOAD PUSH32 0xE3C26ABE00000000000000000000000000000000000000000000000000000000 DUP2 MSTORE PUSH1 0x4 ADD PUSH1 0x40 MLOAD DUP1 SWAP2 SUB SWAP1 REVERT JUMPDEST PUSH1 0x3 PUSH1 0x2 PUSH1 0x0 PUSH2 0x100 EXP DUP2 SLOAD DUP2 PUSH1 0xFF MUL NOT AND SWAP1 DUP4 PUSH1 0x3 DUP2 GT ISZERO PUSH2 0x158D JUMPI PUSH2 0x158C PUSH2 0x180E JUMP JUMPDEST JUMPDEST MUL OR SWAP1 SSTORE POP PUSH32 0xC82E6055D31DE9B552CD0014F23A8B8CE120C288ED1AFCE01ADB97150EFC0185 PUSH1 0x40 MLOAD PUSH1 0x40 MLOAD DUP1 SWAP2 SUB SWAP1 LOG1 JUMP JUMPDEST PUSH2 0x15C8 PUSH2 0x16BB JUMP JUMPDEST PUSH1 0x0 PUSH20 0xFFFFFFFFFFFFFFFFFFFFFFFFFFFFFFFFFFFFFFFF AND DUP2 PUSH20 0xFFFFFFFFFFFFFFFFFFFFFFFFFFFFFFFFFFFFFFFF AND SUB PUSH2 0x163A JUMPI PUSH1 0x0 PUSH1 0x40 MLOAD PUSH32 0x1E4FBDF700000000000000000000000000000000000000000000000000000000 DUP2 MSTORE PUSH1 0x4 ADD PUSH2 0x1631 SWAP2 SWAP1 PUSH2 0x1B0B JUMP JUMPDEST PUSH1 0x40 MLOAD DUP1 SWAP2 SUB SWAP1 REVERT JUMPDEST PUSH2 0x1643 DUP2 PUSH2 0x1742 JUMP JUMPDEST POP JUMP JUMPDEST PUSH1 0x2 PUSH1 0x1 SWAP1 SLOAD SWAP1 PUSH2 0x100 EXP SWAP1 DIV PUSH20 0xFFFFFFFFFFFFFFFFFFFFFFFFFFFFFFFFFFFFFFFF AND DUP2 JUMP JUMPDEST PUSH1 0x2 PUSH1 0x1 SLOAD SUB PUSH2 0x16A8 JUMPI PUSH1 0x40 MLOAD PUSH32 0x3EE5AEB500000000000000000000000000000000000000000000000000000000 DUP2 MSTORE PUSH1 0x4 ADD PUSH1 0x40 MLOAD DUP1 SWAP2 SUB SWAP1 REVERT JUMPDEST PUSH1 0x2 PUSH1 0x1 DUP2 SWAP1 SSTORE POP JUMP JUMPDEST PUSH1 0x1 DUP1 DUP2 SWAP1 SSTORE POP JUMP JUMPDEST PUSH2 0x16C3 PUSH2 0x1806 JUMP JUMPDEST PUSH20 0xFFFFFFFFFFFFFFFFFFFFFFFFFFFFFFFFFFFFFFFF AND PUSH2 0x16E1 PUSH2 0xEC9 JUMP JUMPDEST PUSH20 0xFFFFFFFFFFFFFFFFFFFFFFFFFFFFFFFFFFFFFFFF AND EQ PUSH2 0x1740 JUMPI PUSH2 0x1704 PUSH2 0x1806 JUMP JUMPDEST PUSH1 0x40 MLOAD PUSH32 0x118CDAA700000000000000000000000000000000000000000000000000000000 DUP2 MSTORE PUSH1 0x4 ADD PUSH2 0x1737 SWAP2 SWAP1 PUSH2 0x1B0B JUMP JUMPDEST PUSH1 0x40 MLOAD DUP1 SWAP2 SUB SWAP1 REVERT JUMPDEST JUMP JUMPDEST PUSH1 0x0 DUP1 PUSH1 0x0 SWAP1 SLOAD SWAP1 PUSH2 0x100 EXP SWAP1 DIV PUSH20 0xFFFFFFFFFFFFFFFFFFFFFFFFFFFFFFFFFFFFFFFF AND SWAP1 POP DUP2 PUSH1 0x0 DUP1 PUSH2 0x100 EXP DUP2 SLOAD DUP2 PUSH20 0xFFFFFFFFFFFFFFFFFFFFFFFFFFFFFFFFFFFFFFFF MUL NOT AND SWAP1 DUP4 PUSH20 0xFFFFFFFFFFFFFFFFFFFFFFFFFFFFFFFFFFFFFFFF AND MUL OR SWAP1 SSTORE POP DUP2 PUSH20 0xFFFFFFFFFFFFFFFFFFFFFFFFFFFFFFFFFFFFFFFF AND DUP2 PUSH20 0xFFFFFFFFFFFFFFFFFFFFFFFFFFFFFFFFFFFFFFFF AND PUSH32 0x8BE0079C531659141344CD1FD0A4F28419497F9722A3DAAFE3B4186F6B6457E0 PUSH1 0x40 MLOAD PUSH1 0x40 MLOAD DUP1 SWAP2 SUB SWAP1 LOG3 POP POP JUMP JUMPDEST PUSH1 0x0 CALLER SWAP1 POP SWAP1 JUMP JUMPDEST PUSH32 0x4E487B7100000000000000000000000000000000000000000000000000000000 PUSH1 0x0 MSTORE PUSH1 0x21 PUSH1 0x4 MSTORE PUSH1 0x24 PUSH1 0x0 REVERT JUMPDEST PUSH1 0x4 DUP2 LT PUSH2 0x184E JUMPI PUSH2 0x184D PUSH2 0x180E JUMP JUMPDEST JUMPDEST POP JUMP JUMPDEST PUSH1 0x0 DUP2 SWAP1 POP PUSH2 0x185F DUP3 PUSH2 0x183D JUMP JUMPDEST SWAP2 SWAP1 POP JUMP JUMPDEST PUSH1 0x0 PUSH2 0x186F DUP3 PUSH2 0x1851 JUMP JUMPDEST SWAP1 POP SWAP2 SWAP1 POP JUMP JUMPDEST PUSH2 0x187F DUP2 PUSH2 0x1864 JUMP JUMPDEST DUP3 MSTORE POP POP JUMP JUMPDEST PUSH1 0x0 PUSH1 0x20 DUP3 ADD SWAP1 POP PUSH2 0x189A PUSH1 0x0 DUP4 ADD DUP5 PUSH2 0x1876 JUMP JUMPDEST SWAP3 SWAP2 POP POP JUMP JUMPDEST PUSH1 0x0 DUP1 REVERT JUMPDEST PUSH1 0x0 DUP1 REVERT JUMPDEST PUSH1 0x4 DUP2 LT PUSH2 0x18B7 JUMPI PUSH1 0x0 DUP1 REVERT JUMPDEST POP JUMP JUMPDEST PUSH1 0x0 DUP2 CALLDATALOAD SWAP1 POP PUSH2 0x18C9 DUP2 PUSH2 0x18AA JUMP JUMPDEST SWAP3 SWAP2 POP POP JUMP JUMPDEST PUSH1 0x0 PUSH1 0x20 DUP3 DUP5 SUB SLT ISZERO PUSH2 0x18E5 JUMPI PUSH2 0x18E4 PUSH2 0x18A0 JUMP JUMPDEST JUMPDEST PUSH1 0x0 PUSH2 0x18F3 DUP5 DUP3 DUP6 ADD PUSH2 0x18BA JUMP JUMPDEST SWAP2 POP POP SWAP3 SWAP2 POP POP JUMP JUMPDEST PUSH1 0x0 DUP2 SWAP1 POP SWAP2 SWAP1 POP JUMP JUMPDEST PUSH2 0x190F DUP2 PUSH2 0x18FC JUMP JUMPDEST DUP3 MSTORE POP POP JUMP JUMPDEST PUSH1 0x0 PUSH1 0x20 DUP3 ADD SWAP1 POP PUSH2 0x192A PUSH1 0x0 DUP4 ADD DUP5 PUSH2 0x1906 JUMP JUMPDEST SWAP3 SWAP2 POP POP JUMP JUMPDEST PUSH1 0x0 DUP2 ISZERO ISZERO SWAP1 POP SWAP2 SWAP1 POP JUMP JUMPDEST PUSH2 0x1945 DUP2 PUSH2 0x1930 JUMP JUMPDEST DUP3 MSTORE POP POP JUMP JUMPDEST PUSH1 0x0 PUSH1 0x20 DUP3 ADD SWAP1 POP PUSH2 0x1960 PUSH1 0x0 DUP4 ADD DUP5 PUSH2 0x193C JUMP JUMPDEST SWAP3 SWAP2 POP POP JUMP JUMPDEST PUSH2 0x196F DUP2 PUSH2 0x18FC JUMP JUMPDEST DUP2 EQ PUSH2 0x197A JUMPI PUSH1 0x0 DUP1 REVERT JUMPDEST POP JUMP JUMPDEST PUSH1 0x0 DUP2 CALLDATALOAD SWAP1 POP PUSH2 0x198C DUP2 PUSH2 0x1966 JUMP JUMPDEST SWAP3 SWAP2 POP POP JUMP JUMPDEST PUSH1 0x0 PUSH1 0x20 DUP3 DUP5 SUB SLT ISZERO PUSH2 0x19A8 JUMPI PUSH2 0x19A7 PUSH2 0x18A0 JUMP JUMPDEST JUMPDEST PUSH1 0x0 PUSH2 0x19B6 DUP5 DUP3 DUP6 ADD PUSH2 0x197D JUMP JUMPDEST SWAP2 POP POP SWAP3 SWAP2 POP POP JUMP JUMPDEST PUSH1 0x0 DUP1 REVERT JUMPDEST PUSH1 0x0 DUP1 REVERT JUMPDEST PUSH1 0x0 DUP1 REVERT JUMPDEST PUSH1 0x0 DUP1 DUP4 PUSH1 0x1F DUP5 ADD SLT PUSH2 0x19E4 JUMPI PUSH2 0x19E3 PUSH2 0x19BF JUMP JUMPDEST JUMPDEST DUP3 CALLDATALOAD SWAP1 POP PUSH8 0xFFFFFFFFFFFFFFFF DUP2 GT ISZERO PUSH2 0x1A01 JUMPI PUSH2 0x1A00 PUSH2 0x19C4 JUMP JUMPDEST JUMPDEST PUSH1 0x20 DUP4 ADD SWAP2 POP DUP4 PUSH1 0x20 DUP3 MUL DUP4 ADD GT ISZERO PUSH2 0x1A1D JUMPI PUSH2 0x1A1C PUSH2 0x19C9 JUMP JUMPDEST JUMPDEST SWAP3 POP SWAP3 SWAP1 POP JUMP JUMPDEST PUSH1 0x0 DUP1 PUSH1 0x20 DUP4 DUP6 SUB SLT ISZERO PUSH2 0x1A3B JUMPI PUSH2 0x1A3A PUSH2 0x18A0 JUMP JUMPDEST JUMPDEST PUSH1 0x0 DUP4 ADD CALLDATALOAD PUSH8 0xFFFFFFFFFFFFFFFF DUP2 GT ISZERO PUSH2 0x1A59 JUMPI PUSH2 0x1A58 PUSH2 0x18A5 JUMP JUMPDEST JUMPDEST PUSH2 0x1A65 DUP6 DUP3 DUP7 ADD PUSH2 0x19CE JUMP JUMPDEST SWAP3 POP SWAP3 POP POP SWAP3 POP SWAP3 SWAP1 POP JUMP JUMPDEST PUSH1 0x0 PUSH20 0xFFFFFFFFFFFFFFFFFFFFFFFFFFFFFFFFFFFFFFFF DUP3 AND SWAP1 POP SWAP2 SWAP1 POP JUMP JUMPDEST PUSH1 0x0 PUSH2 0x1A9C DUP3 PUSH2 0x1A71 JUMP JUMPDEST SWAP1 POP SWAP2 SWAP1 POP JUMP JUMPDEST PUSH2 0x1AAC DUP2 PUSH2 0x1A91 JUMP JUMPDEST DUP2 EQ PUSH2 0x1AB7 JUMPI PUSH1 0x0 DUP1 REVERT JUMPDEST POP JUMP JUMPDEST PUSH1 0x0 DUP2 CALLDATALOAD SWAP1 POP PUSH2 0x1AC9 DUP2 PUSH2 0x1AA3 JUMP JUMPDEST SWAP3 SWAP2 POP POP JUMP JUMPDEST PUSH1 0x0 PUSH1 0x20 DUP3 DUP5 SUB SLT ISZERO PUSH2 0x1AE5 JUMPI PUSH2 0x1AE4 PUSH2 0x18A0 JUMP JUMPDEST JUMPDEST PUSH1 0x0 PUSH2 0x1AF3 DUP5 DUP3 DUP6 ADD PUSH2 0x1ABA JUMP JUMPDEST SWAP2 POP POP SWAP3 SWAP2 POP POP JUMP JUMPDEST PUSH2 0x1B05 DUP2 PUSH2 0x1A91 JUMP JUMPDEST DUP3 MSTORE POP POP JUMP JUMPDEST PUSH1 0x0 PUSH1 0x20 DUP3 ADD SWAP1 POP PUSH2 0x1B20 PUSH1 0x0 DUP4 ADD DUP5 PUSH2 0x1AFC JUMP JUMPDEST SWAP3 SWAP2 POP POP JUMP JUMPDEST PUSH1 0x0 DUP1 PUSH1 0x40 DUP4 DUP6 SUB SLT ISZERO PUSH2 0x1B3D JUMPI PUSH2 0x1B3C PUSH2 0x18A0 JUMP JUMPDEST JUMPDEST PUSH1 0x0 PUSH2 0x1B4B DUP6 DUP3 DUP7 ADD PUSH2 0x18BA JUMP JUMPDEST SWAP3 POP POP PUSH1 0x20 PUSH2 0x1B5C DUP6 DUP3 DUP7 ADD PUSH2 0x197D JUMP JUMPDEST SWAP2 POP POP SWAP3 POP SWAP3 SWAP1 POP JUMP JUMPDEST PUSH1 0x0 DUP2 SWAP1 POP SWAP2 SWAP1 POP JUMP JUMPDEST PUSH1 0x0 PUSH2 0x1B8B PUSH2 0x1B86 PUSH2 0x1B81 DUP5 PUSH2 0x1A71 JUMP JUMPDEST PUSH2 0x1B66 JUMP JUMPDEST PUSH2 0x1A71 JUMP JUMPDEST SWAP1 POP SWAP2 SWAP1 POP JUMP JUMPDEST PUSH1 0x0 PUSH2 0x1B9D DUP3 PUSH2 0x1B70 JUMP JUMPDEST SWAP1 POP SWAP2 SWAP1 POP JUMP JUMPDEST PUSH1 0x0 PUSH2 0x1BAF DUP3 PUSH2 0x1B92 JUMP JUMPDEST SWAP1 POP SWAP2 SWAP1 POP JUMP JUMPDEST PUSH2 0x1BBF DUP2 PUSH2 0x1BA4 JUMP JUMPDEST DUP3 MSTORE POP POP JUMP JUMPDEST PUSH1 0x0 PUSH1 0x20 DUP3 ADD SWAP1 POP PUSH2 0x1BDA PUSH1 0x0 DUP4 ADD DUP5 PUSH2 0x1BB6 JUMP JUMPDEST SWAP3 SWAP2 POP POP JUMP JUMPDEST PUSH1 0x0 DUP2 SWAP1 POP SWAP2 SWAP1 POP JUMP JUMPDEST PUSH1 0x0 PUSH2 0x1C05 PUSH2 0x1C00 PUSH2 0x1BFB DUP5 PUSH2 0x1BE0 JUMP JUMPDEST PUSH2 0x1B66 JUMP JUMPDEST PUSH2 0x18FC JUMP JUMPDEST SWAP1 POP SWAP2 SWAP1 POP JUMP JUMPDEST PUSH2 0x1C15 DUP2 PUSH2 0x1BEA JUMP JUMPDEST DUP3 MSTORE POP POP JUMP JUMPDEST PUSH1 0x0 PUSH1 0x40 DUP3 ADD SWAP1 POP PUSH2 0x1C30 PUSH1 0x0 DUP4 ADD DUP6 PUSH2 0x1C0C JUMP JUMPDEST PUSH2 0x1C3D PUSH1 0x20 DUP4 ADD DUP5 PUSH2 0x1906 JUMP JUMPDEST SWAP4 SWAP3 POP POP POP JUMP JUMPDEST PUSH1 0x0 DUP3 DUP3 MSTORE PUSH1 0x20 DUP3 ADD SWAP1 POP SWAP3 SWAP2 POP POP JUMP JUMPDEST PUSH32 0x496E76616C6964207068617365207261746520666F722070686173653A200000 PUSH1 0x0 DUP3 ADD MSTORE POP JUMP JUMPDEST PUSH1 0x0 PUSH2 0x1C8B PUSH1 0x1E DUP4 PUSH2 0x1C44 JUMP JUMPDEST SWAP2 POP PUSH2 0x1C96 DUP3 PUSH2 0x1C55 JUMP JUMPDEST PUSH1 0x20 DUP3 ADD SWAP1 POP SWAP2 SWAP1 POP JUMP JUMPDEST PUSH1 0x0 PUSH1 0x40 DUP3 ADD SWAP1 POP DUP2 DUP2 SUB PUSH1 0x0 DUP4 ADD MSTORE PUSH2 0x1CBA DUP2 PUSH2 0x1C7E JUMP JUMPDEST SWAP1 POP PUSH2 0x1CC9 PUSH1 0x20 DUP4 ADD DUP5 PUSH2 0x1876 JUMP JUMPDEST SWAP3 SWAP2 POP POP JUMP JUMPDEST PUSH32 0x4E487B7100000000000000000000000000000000000000000000000000000000 PUSH1 0x0 MSTORE PUSH1 0x11 PUSH1 0x4 MSTORE PUSH1 0x24 PUSH1 0x0 REVERT JUMPDEST PUSH1 0x0 PUSH2 0x1D09 DUP3 PUSH2 0x18FC JUMP JUMPDEST SWAP2 POP PUSH2 0x1D14 DUP4 PUSH2 0x18FC JUMP JUMPDEST SWAP3 POP DUP3 DUP3 MUL PUSH2 0x1D22 DUP2 PUSH2 0x18FC JUMP JUMPDEST SWAP2 POP DUP3 DUP3 DIV DUP5 EQ DUP4 ISZERO OR PUSH2 0x1D39 JUMPI PUSH2 0x1D38 PUSH2 0x1CCF JUMP JUMPDEST JUMPDEST POP SWAP3 SWAP2 POP POP JUMP JUMPDEST PUSH32 0x4E487B7100000000000000000000000000000000000000000000000000000000 PUSH1 0x0 MSTORE PUSH1 0x12 PUSH1 0x4 MSTORE PUSH1 0x24 PUSH1 0x0 REVERT JUMPDEST PUSH1 0x0 PUSH2 0x1D7A DUP3 PUSH2 0x18FC JUMP JUMPDEST SWAP2 POP PUSH2 0x1D85 DUP4 PUSH2 0x18FC JUMP JUMPDEST SWAP3 POP DUP3 PUSH2 0x1D95 JUMPI PUSH2 0x1D94 PUSH2 0x1D40 JUMP JUMPDEST JUMPDEST DUP3 DUP3 DIV SWAP1 POP SWAP3 SWAP2 POP POP JUMP JUMPDEST PUSH32 0x496E73756666696369656E7420746F6B656E7320617661696C61626C6520696E PUSH1 0x0 DUP3 ADD MSTORE PUSH32 0x2070726573616C652E20417661696C61626C653A200000000000000000000000 PUSH1 0x20 DUP3 ADD MSTORE POP JUMP JUMPDEST PUSH1 0x0 PUSH2 0x1DFC PUSH1 0x35 DUP4 PUSH2 0x1C44 JUMP JUMPDEST SWAP2 POP PUSH2 0x1E07 DUP3 PUSH2 0x1DA0 JUMP JUMPDEST PUSH1 0x40 DUP3 ADD SWAP1 POP SWAP2 SWAP1 POP JUMP JUMPDEST PUSH1 0x0 PUSH1 0x60 DUP3 ADD SWAP1 POP DUP2 DUP2 SUB PUSH1 0x0 DUP4 ADD MSTORE PUSH2 0x1E2B DUP2 PUSH2 0x1DEF JUMP JUMPDEST SWAP1 POP PUSH2 0x1E3A PUSH1 0x20 DUP4 ADD DUP6 PUSH2 0x1906 JUMP JUMPDEST PUSH2 0x1E47 PUSH1 0x40 DUP4 ADD DUP5 PUSH2 0x1906 JUMP JUMPDEST SWAP4 SWAP3 POP POP POP JUMP JUMPDEST PUSH1 0x0 PUSH2 0x1E59 DUP3 PUSH2 0x18FC JUMP JUMPDEST SWAP2 POP PUSH2 0x1E64 DUP4 PUSH2 0x18FC JUMP JUMPDEST SWAP3 POP DUP3 DUP3 ADD SWAP1 POP DUP1 DUP3 GT ISZERO PUSH2 0x1E7C JUMPI PUSH2 0x1E7B PUSH2 0x1CCF JUMP JUMPDEST JUMPDEST SWAP3 SWAP2 POP POP JUMP JUMPDEST PUSH1 0x0 PUSH1 0x40 DUP3 ADD SWAP1 POP PUSH2 0x1E97 PUSH1 0x0 DUP4 ADD DUP6 PUSH2 0x1906 JUMP JUMPDEST PUSH2 0x1EA4 PUSH1 0x20 DUP4 ADD DUP5 PUSH2 0x1906 JUMP JUMPDEST SWAP4 SWAP3 POP POP POP JUMP JUMPDEST PUSH1 0x0 PUSH2 0x1EB6 DUP3 PUSH2 0x18FC JUMP JUMPDEST SWAP2 POP PUSH2 0x1EC1 DUP4 PUSH2 0x18FC JUMP JUMPDEST SWAP3 POP DUP3 DUP3 SUB SWAP1 POP DUP2 DUP2 GT ISZERO PUSH2 0x1ED9 JUMPI PUSH2 0x1ED8 PUSH2 0x1CCF JUMP JUMPDEST JUMPDEST SWAP3 SWAP2 POP POP JUMP JUMPDEST PUSH1 0x0 PUSH1 0x40 DUP3 ADD SWAP1 POP PUSH2 0x1EF4 PUSH1 0x0 DUP4 ADD DUP6 PUSH2 0x1AFC JUMP JUMPDEST PUSH2 0x1F01 PUSH1 0x20 DUP4 ADD DUP5 PUSH2 0x1906 JUMP JUMPDEST SWAP4 SWAP3 POP POP POP JUMP JUMPDEST PUSH2 0x1F11 DUP2 PUSH2 0x1930 JUMP JUMPDEST DUP2 EQ PUSH2 0x1F1C JUMPI PUSH1 0x0 DUP1 REVERT JUMPDEST POP JUMP JUMPDEST PUSH1 0x0 DUP2 MLOAD SWAP1 POP PUSH2 0x1F2E DUP2 PUSH2 0x1F08 JUMP JUMPDEST SWAP3 SWAP2 POP POP JUMP JUMPDEST PUSH1 0x0 PUSH1 0x20 DUP3 DUP5 SUB SLT ISZERO PUSH2 0x1F4A JUMPI PUSH2 0x1F49 PUSH2 0x18A0 JUMP JUMPDEST JUMPDEST PUSH1 0x0 PUSH2 0x1F58 DUP5 DUP3 DUP6 ADD PUSH2 0x1F1F JUMP JUMPDEST SWAP2 POP POP SWAP3 SWAP2 POP POP JUMP JUMPDEST PUSH32 0x496E76616C696420746F6B656E20616D6F756E743A2000000000000000000000 PUSH1 0x0 DUP3 ADD MSTORE POP JUMP JUMPDEST PUSH1 0x0 PUSH2 0x1F97 PUSH1 0x16 DUP4 PUSH2 0x1C44 JUMP JUMPDEST SWAP2 POP PUSH2 0x1FA2 DUP3 PUSH2 0x1F61 JUMP JUMPDEST PUSH1 0x20 DUP3 ADD SWAP1 POP SWAP2 SWAP1 POP JUMP JUMPDEST PUSH1 0x0 PUSH1 0x40 DUP3 ADD SWAP1 POP DUP2 DUP2 SUB PUSH1 0x0 DUP4 ADD MSTORE PUSH2 0x1FC6 DUP2 PUSH2 0x1F8A JUMP JUMPDEST SWAP1 POP PUSH2 0x1FD5 PUSH1 0x20 DUP4 ADD DUP5 PUSH2 0x1906 JUMP JUMPDEST SWAP3 SWAP2 POP POP JUMP JUMPDEST PUSH1 0x0 DUP2 SWAP1 POP SWAP3 SWAP2 POP POP JUMP JUMPDEST POP JUMP JUMPDEST PUSH1 0x0 PUSH2 0x1FF6 PUSH1 0x0 DUP4 PUSH2 0x1FDB JUMP JUMPDEST SWAP2 POP PUSH2 0x2001 DUP3 PUSH2 0x1FE6 JUMP JUMPDEST PUSH1 0x0 DUP3 ADD SWAP1 POP SWAP2 SWAP1 POP JUMP JUMPDEST PUSH1 0x0 PUSH2 0x2017 DUP3 PUSH2 0x1FE9 JUMP JUMPDEST SWAP2 POP DUP2 SWAP1 POP SWAP2 SWAP1 POP JUMP JUMPDEST PUSH32 0x4E487B7100000000000000000000000000000000000000000000000000000000 PUSH1 0x0 MSTORE PUSH1 0x32 PUSH1 0x4 MSTORE PUSH1 0x24 PUSH1 0x0 REVERT JUMPDEST PUSH32 0x496E76616C696420706861736520726174653A20000000000000000000000000 PUSH1 0x0 DUP3 ADD MSTORE POP JUMP JUMPDEST PUSH1 0x0 PUSH2 0x2086 PUSH1 0x14 DUP4 PUSH2 0x1C44 JUMP JUMPDEST SWAP2 POP PUSH2 0x2091 DUP3 PUSH2 0x2050 JUMP JUMPDEST PUSH1 0x20 DUP3 ADD SWAP1 POP SWAP2 SWAP1 POP JUMP JUMPDEST PUSH1 0x0 PUSH1 0x40 DUP3 ADD SWAP1 POP DUP2 DUP2 SUB PUSH1 0x0 DUP4 ADD MSTORE PUSH2 0x20B5 DUP2 PUSH2 0x2079 JUMP JUMPDEST SWAP1 POP PUSH2 0x20C4 PUSH1 0x20 DUP4 ADD DUP5 PUSH2 0x1906 JUMP JUMPDEST SWAP3 SWAP2 POP POP JUMP JUMPDEST PUSH32 0x496E76616C69642070686173653A200000000000000000000000000000000000 PUSH1 0x0 DUP3 ADD MSTORE POP JUMP JUMPDEST PUSH1 0x0 PUSH2 0x2100 PUSH1 0xF DUP4 PUSH2 0x1C44 JUMP JUMPDEST SWAP2 POP PUSH2 0x210B DUP3 PUSH2 0x20CA JUMP JUMPDEST PUSH1 0x20 DUP3 ADD SWAP1 POP SWAP2 SWAP1 POP JUMP JUMPDEST PUSH1 0x0 PUSH1 0x40 DUP3 ADD SWAP1 POP DUP2 DUP2 SUB PUSH1 0x0 DUP4 ADD MSTORE PUSH2 0x212F DUP2 PUSH2 0x20F3 JUMP JUMPDEST SWAP1 POP PUSH2 0x213E PUSH1 0x20 DUP4 ADD DUP5 PUSH2 0x1876 JUMP JUMPDEST SWAP3 SWAP2 POP POP JUMP JUMPDEST PUSH32 0x5468652070726573616C6520416C726561647920696E697469616C697A656420 PUSH1 0x0 DUP3 ADD MSTORE PUSH32 0x776974683A200000000000000000000000000000000000000000000000000000 PUSH1 0x20 DUP3 ADD MSTORE POP JUMP JUMPDEST PUSH1 0x0 PUSH2 0x21A0 PUSH1 0x26 DUP4 PUSH2 0x1C44 JUMP JUMPDEST SWAP2 POP PUSH2 0x21AB DUP3 PUSH2 0x2144 JUMP JUMPDEST PUSH1 0x40 DUP3 ADD SWAP1 POP SWAP2 SWAP1 POP JUMP JUMPDEST PUSH1 0x0 PUSH1 0x40 DUP3 ADD SWAP1 POP DUP2 DUP2 SUB PUSH1 0x0 DUP4 ADD MSTORE PUSH2 0x21CF DUP2 PUSH2 0x2193 JUMP JUMPDEST SWAP1 POP PUSH2 0x21DE PUSH1 0x20 DUP4 ADD DUP5 PUSH2 0x1906 JUMP JUMPDEST SWAP3 SWAP2 POP POP JUMP JUMPDEST PUSH1 0x0 DUP2 MLOAD SWAP1 POP PUSH2 0x21F3 DUP2 PUSH2 0x1966 JUMP JUMPDEST SWAP3 SWAP2 POP POP JUMP JUMPDEST PUSH1 0x0 PUSH1 0x20 DUP3 DUP5 SUB SLT ISZERO PUSH2 0x220F JUMPI PUSH2 0x220E PUSH2 0x18A0 JUMP JUMPDEST JUMPDEST PUSH1 0x0 PUSH2 0x221D DUP5 DUP3 DUP6 ADD PUSH2 0x21E4 JUMP JUMPDEST SWAP2 POP POP SWAP3 SWAP2 POP POP JUMP INVALID LOG2 PUSH5 0x6970667358 0x22 SLT KECCAK256 0xB6 SWAP7 PUSH32 0x95AB6ABF08F24AEEE5691D721CBE054D6B663B1FF77523978234C6B67364736F PUSH13 0x634300081A0033000000000000 "},"methodIdentifiers":{"addMultipleToWhitelist(address[])":"8401f8d1","addToWhitelist(address)":"e43252d7","buyTokens()":"d0febe4c","currentPhase()":"055ad42e","endPreSale()":"ee889ed0","initializePreSale()":"ee2d2c68","maxTokensBuy()":"ded362fe","owner()":"8da5cb5b","phaseRates(uint8)":"103d6ed3","preSaleInitialized()":"14770959","removeFromWhitelist(address)":"8ab1d681","renounceOwnership()":"715018a6","token()":"fc0c546a","tokensAvailable()":"60659a92","tokensPurchasedByAddress(address)":"ed3193d2","tokensRemaining()":"c8b08125","tokensSold()":"518ab2a8","totalBNBReceived()":"287294c8","transferOwnership(address)":"f2fde38b","updateMaxTokensBuy(uint256)":"58ed2cc3","updatePhase(uint8)":"cf3d8e53","updatePhaseRate(uint8,uint256)":"9e4137af","whitelist(address)":"9b19251a","withdrawFunds()":"24600fc3","withdrawUnsoldTokens()":"c8bdbfb6"}},"storageLayout":{"storage":[{"astId":8,"contract":"contracts/CarameloPreSale.sol:CarameloPreSale","label":"_owner","offset":0,"slot":"0","type":"t_address"},{"astId":180,"contract":"contracts/CarameloPreSale.sol:CarameloPreSale","label":"_status","offset":0,"slot":"1","type":"t_uint256"},{"astId":1893,"contract":"contracts/CarameloPreSale.sol:CarameloPreSale","label":"currentPhase","offset":0,"slot":"2","type":"t_enum(Phase)3057"},{"astId":1896,"contract":"contracts/CarameloPreSale.sol:CarameloPreSale","label":"token","offset":1,"slot":"2","type":"t_contract(IERC20)1886"},{"astId":1898,"contract":"contracts/CarameloPreSale.sol:CarameloPreSale","label":"tokensAvailable","offset":0,"slot":"3","type":"t_uint256"},{"astId":1900,"contract":"contracts/CarameloPreSale.sol:CarameloPreSale","label":"tokensSold","offset":0,"slot":"4","type":"t_uint256"},{"astId":1905,"contract":"contracts/CarameloPreSale.sol:CarameloPreSale","label":"phaseRates","offset":0,"slot":"5","type":"t_mapping(t_enum(Phase)3057,t_uint256)"},{"astId":1907,"contract":"contracts/CarameloPreSale.sol:CarameloPreSale","label":"totalBNBReceived","offset":0,"slot":"6","type":"t_uint256"},{"astId":1909,"contract":"contracts/CarameloPreSale.sol:CarameloPreSale","label":"preSaleInitialized","offset":0,"slot":"7","type":"t_bool"},{"astId":1913,"contract":"contracts/CarameloPreSale.sol:CarameloPreSale","label":"whitelist","offset":0,"slot":"8","type":"t_mapping(t_address,t_bool)"},{"astId":1917,"contract":"contracts/CarameloPreSale.sol:CarameloPreSale","label":"tokensPurchasedByAddress","offset":0,"slot":"9","type":"t_mapping(t_address,t_uint256)"},{"astId":1919,"contract":"contracts/CarameloPreSale.sol:CarameloPreSale","label":"maxTokensBuy","offset":0,"slot":"10","type":"t_uint256"}],"types":{"t_address":{"encoding":"inplace","label":"address","numberOfBytes":"20"},"t_bool":{"encoding":"inplace","label":"bool","numberOfBytes":"1"},"t_contract(IERC20)1886":{"encoding":"inplace","label":"contract IERC20","numberOfBytes":"20"},"t_enum(Phase)3057":{"encoding":"inplace","label":"enum Phase","numberOfBytes":"1"},"t_mapping(t_address,t_bool)":{"encoding":"mapping","key":"t_address","label":"mapping(address => bool)","numberOfBytes":"32","value":"t_bool"},"t_mapping(t_address,t_uint256)":{"encoding":"mapping","key":"t_address","label":"mapping(address => uint256)","numberOfBytes":"32","value":"t_uint256"},"t_mapping(t_enum(Phase)3057,t_uint256)":{"encoding":"mapping","key":"t_enum(Phase)3057","label":"mapping(enum Phase => uint256)","numberOfBytes":"32","value":"t_uint256"},"t_uint256":{"encoding":"inplace","label":"uint256","numberOfBytes":"32"}}}}}}