{"contracts/Caramelo.sol":{"Caramelo":{"abi":[{"inputs":[{"internalType":"string","name":"tokenName","type":"string"},{"internalType":"string","name":"tokenSymbol","type":"string"},{"internalType":"uint256","name":"_totalSupply","type":"uint256"},{"internalType":"uint8","name":"_token_decimals","type":"uint8"},{"internalType":"uint256","name":"_taxFee","type":"uint256"},{"internalType":"uint256","name":"_liquidityFee","type":"uint256"},{"internalType":"uint256","name":"_maxTokensTXAmount","type":"uint256"},{"internalType":"uint256","name":"_numTokensSellToAddToLiquidity","type":"uint256"}],"stateMutability":"nonpayable","type":"constructor"},{"inputs":[],"name":"AlreadyExcluded","type":"error"},{"inputs":[{"internalType":"uint256","name":"tBurn","type":"uint256"},{"internalType":"uint256","name":"_tTotal","type":"uint256"}],"name":"BurnExceedsTotalSupply","type":"error"},{"inputs":[{"internalType":"uint256","name":"totalFees","type":"uint256"}],"name":"FeesExceeded","type":"error"},{"inputs":[{"internalType":"uint256","name":"available","type":"uint256"},{"internalType":"uint256","name":"required","type":"uint256"}],"name":"InsufficientBalance","type":"error"},{"inputs":[],"name":"InvalidTokenomicsPercentage","type":"error"},{"inputs":[],"name":"LiquidityAdditionFailed","type":"error"},{"inputs":[],"name":"NotExcluded","type":"error"},{"inputs":[{"internalType":"uint256","name":"currentAmount","type":"uint256"},{"internalType":"uint256","name":"newAmount","type":"uint256"}],"name":"NumTokensSellToAddToLiquidityFailed","type":"error"},{"inputs":[{"internalType":"address","name":"owner","type":"address"}],"name":"OwnableInvalidOwner","type":"error"},{"inputs":[{"internalType":"address","name":"account","type":"address"}],"name":"OwnableUnauthorizedAccount","type":"error"},{"inputs":[],"name":"ReentrancyGuardReentrantCall","type":"error"},{"inputs":[],"name":"SwapProtocolAlreadyConfigured","type":"error"},{"inputs":[],"name":"TokenBalanceZero","type":"error"},{"inputs":[{"internalType":"string","name":"message","type":"string"}],"name":"TokenomicsAlreadyInitialized","type":"error"},{"inputs":[],"name":"TransferAmountExceedsMax","type":"error"},{"inputs":[],"name":"TransferAmountZero","type":"error"},{"inputs":[],"name":"ZeroAddress","type":"error"},{"inputs":[],"name":"ZeroValue","type":"error"},{"anonymous":false,"inputs":[{"indexed":true,"internalType":"address","name":"owner","type":"address"},{"indexed":true,"internalType":"address","name":"spender","type":"address"},{"indexed":false,"internalType":"uint256","name":"value","type":"uint256"}],"name":"Approval","type":"event"},{"anonymous":false,"inputs":[{"indexed":true,"internalType":"address","name":"account","type":"address"}],"name":"ExcludedFromFee","type":"event"},{"anonymous":false,"inputs":[{"indexed":false,"internalType":"uint256","name":"reflectionFee","type":"uint256"},{"indexed":false,"internalType":"uint256","name":"liquidityFee","type":"uint256"},{"indexed":false,"internalType":"uint256","name":"burnFee","type":"uint256"}],"name":"FeesDistributed","type":"event"},{"anonymous":false,"inputs":[{"indexed":true,"internalType":"uint256","name":"_taxFee","type":"uint256"},{"indexed":true,"internalType":"uint256","name":"_liquidityFee","type":"uint256"}],"name":"FeesUpdated","type":"event"},{"anonymous":false,"inputs":[{"indexed":true,"internalType":"address","name":"account","type":"address"}],"name":"IncludedInFee","type":"event"},{"anonymous":false,"inputs":[{"indexed":false,"internalType":"uint256","name":"tokenAmount","type":"uint256"},{"indexed":false,"internalType":"uint256","name":"ethAmount","type":"uint256"},{"indexed":false,"internalType":"uint256","name":"liquidity","type":"uint256"}],"name":"LiquidityAdded","type":"event"},{"anonymous":false,"inputs":[{"indexed":false,"internalType":"uint256","name":"newMaxTxAmount","type":"uint256"}],"name":"MaxTxAmountUpdated","type":"event"},{"anonymous":false,"inputs":[{"indexed":false,"internalType":"uint256","name":"newNumTokensSellToAddToLiquidity","type":"uint256"}],"name":"NumTokensSellToAddToLiquidityUpdated","type":"event"},{"anonymous":false,"inputs":[{"indexed":true,"internalType":"address","name":"previousOwner","type":"address"},{"indexed":true,"internalType":"address","name":"newOwner","type":"address"}],"name":"OwnershipTransferred","type":"event"},{"anonymous":false,"inputs":[{"indexed":false,"internalType":"uint256","name":"tokensSwapped","type":"uint256"},{"indexed":false,"internalType":"uint256","name":"ethReceived","type":"uint256"},{"indexed":false,"internalType":"uint256","name":"tokensAddedToLiquidity","type":"uint256"}],"name":"SwapAndLiquify","type":"event"},{"anonymous":false,"inputs":[{"indexed":false,"internalType":"bool","name":"enabled","type":"bool"}],"name":"SwapAndLiquifyEnabledUpdated","type":"event"},{"anonymous":false,"inputs":[{"indexed":true,"internalType":"address","name":"burner","type":"address"},{"indexed":false,"internalType":"uint256","name":"burnAmount","type":"uint256"}],"name":"TokensBurned","type":"event"},{"anonymous":false,"inputs":[{"indexed":true,"internalType":"address","name":"from","type":"address"},{"indexed":true,"internalType":"address","name":"to","type":"address"},{"indexed":false,"internalType":"uint256","name":"value","type":"uint256"}],"name":"Transfer","type":"event"},{"anonymous":false,"inputs":[{"indexed":true,"internalType":"address","name":"router","type":"address"},{"indexed":true,"internalType":"address","name":"pair","type":"address"}],"name":"UniswapConfigured","type":"event"},{"anonymous":false,"inputs":[{"indexed":false,"internalType":"address","name":"newRouter","type":"address"}],"name":"UniswapV2RouterUpdated","type":"event"},{"inputs":[{"internalType":"address","name":"owner","type":"address"},{"internalType":"address","name":"spender","type":"address"}],"name":"allowance","outputs":[{"internalType":"uint256","name":"","type":"uint256"}],"stateMutability":"view","type":"function"},{"inputs":[{"internalType":"address","name":"spender","type":"address"},{"internalType":"uint256","name":"amount","type":"uint256"}],"name":"approve","outputs":[{"internalType":"bool","name":"","type":"bool"}],"stateMutability":"nonpayable","type":"function"},{"inputs":[{"internalType":"address","name":"account","type":"address"}],"name":"balanceOf","outputs":[{"internalType":"uint256","name":"","type":"uint256"}],"stateMutability":"view","type":"function"},{"inputs":[{"internalType":"uint256","name":"amount","type":"uint256"}],"name":"burn","outputs":[],"stateMutability":"nonpayable","type":"function"},{"inputs":[{"internalType":"address","name":"routerAddress","type":"address"}],"name":"configureSwapProtocol","outputs":[],"stateMutability":"nonpayable","type":"function"},{"inputs":[],"name":"decimals","outputs":[{"internalType":"uint8","name":"","type":"uint8"}],"stateMutability":"view","type":"function"},{"inputs":[{"internalType":"address","name":"account","type":"address"}],"name":"excludeFromFee","outputs":[],"stateMutability":"nonpayable","type":"function"},{"inputs":[{"internalType":"address","name":"account","type":"address"}],"name":"includeInFee","outputs":[],"stateMutability":"nonpayable","type":"function"},{"inputs":[],"name":"initializeTokenomics","outputs":[],"stateMutability":"nonpayable","type":"function"},{"inputs":[{"internalType":"address","name":"account","type":"address"}],"name":"isAccountExcludedFromFree","outputs":[{"internalType":"bool","name":"","type":"bool"}],"stateMutability":"view","type":"function"},{"inputs":[],"name":"isSwapAndLiquifyEnabled","outputs":[{"internalType":"bool","name":"","type":"bool"}],"stateMutability":"view","type":"function"},{"inputs":[],"name":"liquidityFee","outputs":[{"internalType":"uint256","name":"","type":"uint256"}],"stateMutability":"view","type":"function"},{"inputs":[],"name":"maxTxAmount","outputs":[{"internalType":"uint256","name":"","type":"uint256"}],"stateMutability":"view","type":"function"},{"inputs":[],"name":"name","outputs":[{"internalType":"string","name":"","type":"string"}],"stateMutability":"view","type":"function"},{"inputs":[],"name":"numTokensSellToAddToLiquidity","outputs":[{"internalType":"uint256","name":"","type":"uint256"}],"stateMutability":"view","type":"function"},{"inputs":[],"name":"owner","outputs":[{"internalType":"address","name":"","type":"address"}],"stateMutability":"view","type":"function"},{"inputs":[{"internalType":"address","name":"account","type":"address"}],"name":"reflectionBalanceOf","outputs":[{"internalType":"uint256","name":"","type":"uint256"}],"stateMutability":"view","type":"function"},{"inputs":[],"name":"renounceOwnership","outputs":[],"stateMutability":"nonpayable","type":"function"},{"inputs":[{"internalType":"uint256","name":"_taxFee","type":"uint256"},{"internalType":"uint256","name":"_liquidityFee","type":"uint256"}],"name":"setFees","outputs":[],"stateMutability":"nonpayable","type":"function"},{"inputs":[{"internalType":"uint256","name":"newMaxTxAmount","type":"uint256"}],"name":"setMaxTxAmount","outputs":[],"stateMutability":"nonpayable","type":"function"},{"inputs":[{"internalType":"uint256","name":"newNumTokensSellToAddToLiquidity","type":"uint256"}],"name":"setNumTokensSellToAddToLiquidity","outputs":[],"stateMutability":"nonpayable","type":"function"},{"inputs":[{"internalType":"bool","name":"_enabled","type":"bool"}],"name":"setSwapAndLiquifyEnabled","outputs":[],"stateMutability":"nonpayable","type":"function"},{"inputs":[],"name":"swapAndLiquifyEnabled","outputs":[{"internalType":"bool","name":"","type":"bool"}],"stateMutability":"view","type":"function"},{"inputs":[],"name":"symbol","outputs":[{"internalType":"string","name":"","type":"string"}],"stateMutability":"view","type":"function"},{"inputs":[],"name":"taxFee","outputs":[{"internalType":"uint256","name":"","type":"uint256"}],"stateMutability":"view","type":"function"},{"inputs":[{"internalType":"uint256","name":"","type":"uint256"}],"name":"tokenomics","outputs":[{"internalType":"address","name":"wallet","type":"address"},{"internalType":"uint256","name":"percentage","type":"uint256"}],"stateMutability":"view","type":"function"},{"inputs":[],"name":"totalSupply","outputs":[{"internalType":"uint256","name":"","type":"uint256"}],"stateMutability":"view","type":"function"},{"inputs":[{"internalType":"address","name":"recipient","type":"address"},{"internalType":"uint256","name":"amount","type":"uint256"}],"name":"transfer","outputs":[{"internalType":"bool","name":"","type":"bool"}],"stateMutability":"nonpayable","type":"function"},{"inputs":[{"internalType":"address","name":"sender","type":"address"},{"internalType":"address","name":"recipient","type":"address"},{"internalType":"uint256","name":"amount","type":"uint256"}],"name":"transferFrom","outputs":[{"internalType":"bool","name":"","type":"bool"}],"stateMutability":"nonpayable","type":"function"},{"inputs":[{"internalType":"address","name":"newOwner","type":"address"}],"name":"transferOwnership","outputs":[],"stateMutability":"nonpayable","type":"function"},{"inputs":[],"name":"uniswapV2Pair","outputs":[{"internalType":"address","name":"","type":"address"}],"stateMutability":"view","type":"function"},{"inputs":[],"name":"uniswapV2Router","outputs":[{"internalType":"contract IUniswapV2Router02","name":"","type":"address"}],"stateMutability":"view","type":"function"},{"inputs":[{"internalType":"address","name":"newRouter","type":"address"}],"name":"updateUniswapV2Router","outputs":[],"stateMutability":"nonpayable","type":"function"},{"inputs":[{"internalType":"uint256","name":"amount","type":"uint256"}],"name":"withdrawBNB","outputs":[],"stateMutability":"nonpayable","type":"function"},{"stateMutability":"payable","type":"receive"}],"evm":{"bytecode":{"linkReferences":{},"object":"60806040526000600760016101000a81548160ff0219169083151502179055506000600f60006101000a81548160ff0219169083151502179055506000600f60016101000a81548160ff02191690831515021790555034801561006157600080fd5b50604051614b19380380614b19833981810160405281019061008391906106a3565b33600073ffffffffffffffffffffffffffffffffffffffff168173ffffffffffffffffffffffffffffffffffffffff16036100f65760006040517f1e4fbdf70000000000000000000000000000000000000000000000000000000081526004016100ed91906107d2565b60405180910390fd5b610105816103f360201b60201c565b5060018081905550620186a0838561011d919061081c565b111561016b57828461012f919061081c565b6040517f2db7582d000000000000000000000000000000000000000000000000000000008152600401610162919061085f565b60405180910390fd5b876005908161017a9190610a91565b50866006908161018a9190610a91565b5084600760006101000a81548160ff021916908360ff160217905550600760009054906101000a900460ff1660ff16600a6101c59190610c96565b866101d09190610ce1565b6002819055506002546000196101e69190610d52565b6000196101f39190610d83565b60038190555083600b8190555082600c81905550600760009054906101000a900460ff16600a6102239190610db7565b8261022e9190610ce1565b600d81905550600760009054906101000a900460ff16600a6102509190610db7565b8161025b9190610ce1565b600e81905550600354600860006102766104b760201b60201c565b73ffffffffffffffffffffffffffffffffffffffff1673ffffffffffffffffffffffffffffffffffffffff168152602001908152602001600020819055506001600a60006102c86104b760201b60201c565b73ffffffffffffffffffffffffffffffffffffffff1673ffffffffffffffffffffffffffffffffffffffff16815260200190815260200160002060006101000a81548160ff0219169083151502179055506001600a60003073ffffffffffffffffffffffffffffffffffffffff1673ffffffffffffffffffffffffffffffffffffffff16815260200190815260200160002060006101000a81548160ff02191690831515021790555061037f6104b760201b60201c565b73ffffffffffffffffffffffffffffffffffffffff16600073ffffffffffffffffffffffffffffffffffffffff167fddf252ad1be2c89b69c2b068fc378daa952ba7f163c4a11628f55a4df523b3ef6002546040516103de919061085f565b60405180910390a35050505050505050610e02565b60008060009054906101000a900473ffffffffffffffffffffffffffffffffffffffff169050816000806101000a81548173ffffffffffffffffffffffffffffffffffffffff021916908373ffffffffffffffffffffffffffffffffffffffff1602179055508173ffffffffffffffffffffffffffffffffffffffff168173ffffffffffffffffffffffffffffffffffffffff167f8be0079c531659141344cd1fd0a4f28419497f9722a3daafe3b4186f6b6457e060405160405180910390a35050565b600033905090565b6000604051905090565b600080fd5b600080fd5b600080fd5b600080fd5b6000601f19601f8301169050919050565b7f4e487b7100000000000000000000000000000000000000000000000000000000600052604160045260246000fd5b610526826104dd565b810181811067ffffffffffffffff82111715610545576105446104ee565b5b80604052505050565b60006105586104bf565b9050610564828261051d565b919050565b600067ffffffffffffffff821115610584576105836104ee565b5b61058d826104dd565b9050602081019050919050565b60005b838110156105b857808201518184015260208101905061059d565b60008484015250505050565b60006105d76105d284610569565b61054e565b9050828152602081018484840111156105f3576105f26104d8565b5b6105fe84828561059a565b509392505050565b600082601f83011261061b5761061a6104d3565b5b815161062b8482602086016105c4565b91505092915050565b6000819050919050565b61064781610634565b811461065257600080fd5b50565b6000815190506106648161063e565b92915050565b600060ff82169050919050565b6106808161066a565b811461068b57600080fd5b50565b60008151905061069d81610677565b92915050565b600080600080600080600080610100898b0312156106c4576106c36104c9565b5b600089015167ffffffffffffffff8111156106e2576106e16104ce565b5b6106ee8b828c01610606565b985050602089015167ffffffffffffffff81111561070f5761070e6104ce565b5b61071b8b828c01610606565b975050604061072c8b828c01610655565b965050606061073d8b828c0161068e565b955050608061074e8b828c01610655565b94505060a061075f8b828c01610655565b93505060c06107708b828c01610655565b92505060e06107818b828c01610655565b9150509295985092959890939650565b600073ffffffffffffffffffffffffffffffffffffffff82169050919050565b60006107bc82610791565b9050919050565b6107cc816107b1565b82525050565b60006020820190506107e760008301846107c3565b92915050565b7f4e487b7100000000000000000000000000000000000000000000000000000000600052601160045260246000fd5b600061082782610634565b915061083283610634565b925082820190508082111561084a576108496107ed565b5b92915050565b61085981610634565b82525050565b60006020820190506108746000830184610850565b92915050565b600081519050919050565b7f4e487b7100000000000000000000000000000000000000000000000000000000600052602260045260246000fd5b600060028204905060018216806108cc57607f821691505b6020821081036108df576108de610885565b5b50919050565b60008190508160005260206000209050919050565b60006020601f8301049050919050565b600082821b905092915050565b6000600883026109477fffffffffffffffffffffffffffffffffffffffffffffffffffffffffffffffff8261090a565b610951868361090a565b95508019841693508086168417925050509392505050565b6000819050919050565b600061098e61098961098484610634565b610969565b610634565b9050919050565b6000819050919050565b6109a883610973565b6109bc6109b482610995565b848454610917565b825550505050565b600090565b6109d16109c4565b6109dc81848461099f565b505050565b5b81811015610a00576109f56000826109c9565b6001810190506109e2565b5050565b601f821115610a4557610a16816108e5565b610a1f846108fa565b81016020851015610a2e578190505b610a42610a3a856108fa565b8301826109e1565b50505b505050565b600082821c905092915050565b6000610a6860001984600802610a4a565b1980831691505092915050565b6000610a818383610a57565b9150826002028217905092915050565b610a9a8261087a565b67ffffffffffffffff811115610ab357610ab26104ee565b5b610abd82546108b4565b610ac8828285610a04565b600060209050601f831160018114610afb5760008415610ae9578287015190505b610af38582610a75565b865550610b5b565b601f198416610b09866108e5565b60005b82811015610b3157848901518255600182019150602085019450602081019050610b0c565b86831015610b4e5784890151610b4a601f891682610a57565b8355505b6001600288020188555050505b505050505050565b60008160011c9050919050565b6000808291508390505b6001851115610bba57808604811115610b9657610b956107ed565b5b6001851615610ba55780820291505b8081029050610bb385610b63565b9450610b7a565b94509492505050565b600082610bd35760019050610c8f565b81610be15760009050610c8f565b8160018114610bf75760028114610c0157610c30565b6001915050610c8f565b60ff841115610c1357610c126107ed565b5b8360020a915084821115610c2a57610c296107ed565b5b50610c8f565b5060208310610133831016604e8410600b8410161715610c655782820a905083811115610c6057610c5f6107ed565b5b610c8f565b610c728484846001610b70565b92509050818404811115610c8957610c886107ed565b5b81810290505b9392505050565b6000610ca182610634565b9150610cac83610634565b9250610cd97fffffffffffffffffffffffffffffffffffffffffffffffffffffffffffffffff8484610bc3565b905092915050565b6000610cec82610634565b9150610cf783610634565b9250828202610d0581610634565b91508282048414831517610d1c57610d1b6107ed565b5b5092915050565b7f4e487b7100000000000000000000000000000000000000000000000000000000600052601260045260246000fd5b6000610d5d82610634565b9150610d6883610634565b925082610d7857610d77610d23565b5b828206905092915050565b6000610d8e82610634565b9150610d9983610634565b9250828203905081811115610db157610db06107ed565b5b92915050565b6000610dc282610634565b9150610dcd8361066a565b9250610dfa7fffffffffffffffffffffffffffffffffffffffffffffffffffffffffffffffff8484610bc3565b905092915050565b613d0880610e116000396000f3fe6080604052600436106101fd5760003560e01c806370a082311161010d578063a9059cbb116100a0578063dd62ed3e1161006f578063dd62ed3e14610731578063ea2f0b371461076e578063ec28438a14610797578063f0f165af146107c0578063f2fde38b146107e957610204565b8063a9059cbb14610677578063bd90fc4e146106b4578063c49b9a80146106dd578063d12a76881461070657610204565b80638da5cb5b116100dc5780638da5cb5b146105cb57806395d89b41146105f657806398118cb414610621578063a071dcf41461064c57610204565b806370a082311461050f578063715018a61461054c57806384aa9fb6146105635780638c0b5e22146105a057610204565b80631e352ab51161019057806342966c681161015f57806342966c681461043e578063437823ec1461046757806349bd5a5e146104905780634a74bb02146104bb57806365b8dbc0146104e657610204565b80631e352ab51461038257806323b872dd146103995780632e664829146103d6578063313ce5671461041357610204565b80630b78f9c0116101cc5780630b78f9c0146102da578063127f4b2e146103035780631694505e1461032c57806318160ddd1461035757610204565b806304f377f81461020957806306fdde0314610234578063087a2daf1461025f578063095ea7b31461029d57610204565b3661020457005b600080fd5b34801561021557600080fd5b5061021e610812565b60405161022b919061307b565b60405180910390f35b34801561024057600080fd5b50610249610829565b6040516102569190613126565b60405180910390f35b34801561026b57600080fd5b5061028660048036038101906102819190613183565b6108bb565b604051610294929190613200565b60405180910390f35b3480156102a957600080fd5b506102c460048036038101906102bf9190613255565b610905565b6040516102d1919061307b565b60405180910390f35b3480156102e657600080fd5b5061030160048036038101906102fc9190613295565b610923565b005b34801561030f57600080fd5b5061032a60048036038101906103259190613183565b6109c4565b005b34801561033857600080fd5b50610341610a5d565b60405161034e9190613334565b60405180910390f35b34801561036357600080fd5b5061036c610a83565b604051610379919061334f565b60405180910390f35b34801561038e57600080fd5b50610397610a8d565b005b3480156103a557600080fd5b506103c060048036038101906103bb919061336a565b6110bc565b6040516103cd919061307b565b60405180910390f35b3480156103e257600080fd5b506103fd60048036038101906103f891906133bd565b6111c8565b60405161040a919061307b565b60405180910390f35b34801561041f57600080fd5b5061042861121e565b6040516104359190613406565b60405180910390f35b34801561044a57600080fd5b5061046560048036038101906104609190613183565b611235565b005b34801561047357600080fd5b5061048e600480360381019061048991906133bd565b611249565b005b34801561049c57600080fd5b506104a5611373565b6040516104b29190613421565b60405180910390f35b3480156104c757600080fd5b506104d0611399565b6040516104dd919061307b565b60405180910390f35b3480156104f257600080fd5b5061050d600480360381019061050891906133bd565b6113ac565b005b34801561051b57600080fd5b50610536600480360381019061053191906133bd565b611495565b604051610543919061334f565b60405180910390f35b34801561055857600080fd5b50610561611540565b005b34801561056f57600080fd5b5061058a600480360381019061058591906133bd565b611554565b604051610597919061334f565b60405180910390f35b3480156105ac57600080fd5b506105b561161d565b6040516105c2919061334f565b60405180910390f35b3480156105d757600080fd5b506105e0611623565b6040516105ed9190613421565b60405180910390f35b34801561060257600080fd5b5061060b61164c565b6040516106189190613126565b60405180910390f35b34801561062d57600080fd5b506106366116de565b604051610643919061334f565b60405180910390f35b34801561065857600080fd5b506106616116e4565b60405161066e919061334f565b60405180910390f35b34801561068357600080fd5b5061069e60048036038101906106999190613255565b6116ea565b6040516106ab919061307b565b60405180910390f35b3480156106c057600080fd5b506106db60048036038101906106d691906133bd565b611718565b005b3480156106e957600080fd5b5061070460048036038101906106ff9190613468565b611c02565b005b34801561071257600080fd5b5061071b611d2b565b604051610728919061334f565b60405180910390f35b34801561073d57600080fd5b5061075860048036038101906107539190613495565b611d31565b604051610765919061334f565b60405180910390f35b34801561077a57600080fd5b50610795600480360381019061079091906133bd565b611db8565b005b3480156107a357600080fd5b506107be60048036038101906107b99190613183565b611ee1565b005b3480156107cc57600080fd5b506107e760048036038101906107e29190613183565b611f50565b005b3480156107f557600080fd5b50610810600480360381019061080b91906133bd565b61200e565b005b6000600f60009054906101000a900460ff16905090565b60606005805461083890613504565b80601f016020809104026020016040519081016040528092919081815260200182805461086490613504565b80156108b15780601f10610886576101008083540402835291602001916108b1565b820191906000526020600020905b81548152906001019060200180831161089457829003601f168201915b5050505050905090565b601181600681106108cb57600080fd5b600202016000915090508060000160009054906101000a900473ffffffffffffffffffffffffffffffffffffffff16908060010154905082565b6000610919610912612094565b848461209c565b6001905092915050565b61092b612225565b600081836109399190613564565b9050620186a081111561098357806040517f2db7582d00000000000000000000000000000000000000000000000000000000815260040161097a919061334f565b60405180910390fd5b82600b8190555081600c8190555081837f5c6323bf1c2d7aaea2c091a4751c1c87af7f2864650c336507a77d0557af37a160405160405180910390a3505050565b6109cc612225565b80471015610a135747816040517fcf479181000000000000000000000000000000000000000000000000000000008152600401610a0a929190613598565b60405180910390fd5b3373ffffffffffffffffffffffffffffffffffffffff166108fc829081150290604051600060405180830381858888f19350505050158015610a59573d6000803e3d6000fd5b5050565b600f60029054906101000a900473ffffffffffffffffffffffffffffffffffffffff1681565b6000600254905090565b610a95612225565b600760019054906101000a900460ff1615610ae5576040517f25dab357000000000000000000000000000000000000000000000000000000008152600401610adc9061360d565b60405180910390fd5b60405180604001604052803373ffffffffffffffffffffffffffffffffffffffff16815260200160328152506011600060068110610b2657610b2561362d565b5b6002020160008201518160000160006101000a81548173ffffffffffffffffffffffffffffffffffffffff021916908373ffffffffffffffffffffffffffffffffffffffff160217905550602082015181600101559050506040518060400160405280735cffe6546affdceea5fc02838ad7b1aaec3fc00a73ffffffffffffffffffffffffffffffffffffffff168152602001600f8152506011600160068110610bd357610bd261362d565b5b6002020160008201518160000160006101000a81548173ffffffffffffffffffffffffffffffffffffffff021916908373ffffffffffffffffffffffffffffffffffffffff160217905550602082015181600101559050506040518060400160405280739bfb2e701bcc5c4e02539f74c0e66593b5d13a4a73ffffffffffffffffffffffffffffffffffffffff168152602001600a8152506011600260068110610c8057610c7f61362d565b5b6002020160008201518160000160006101000a81548173ffffffffffffffffffffffffffffffffffffffff021916908373ffffffffffffffffffffffffffffffffffffffff1602179055506020820151816001015590505060405180604001604052807324f515276052d412f659aa28a6dd7f39a52f6ad773ffffffffffffffffffffffffffffffffffffffff168152602001600a8152506011600360068110610d2d57610d2c61362d565b5b6002020160008201518160000160006101000a81548173ffffffffffffffffffffffffffffffffffffffff021916908373ffffffffffffffffffffffffffffffffffffffff1602179055506020820151816001015590505060405180604001604052807314864bc81feed0ec2aa2e1826f82b1801d55c47f73ffffffffffffffffffffffffffffffffffffffff168152602001600a8152506011600460068110610dda57610dd961362d565b5b6002020160008201518160000160006101000a81548173ffffffffffffffffffffffffffffffffffffffff021916908373ffffffffffffffffffffffffffffffffffffffff160217905550602082015181600101559050506040518060400160405280723bfb0098f7acea6d7d9c1b866268a8bd36c2e273ffffffffffffffffffffffffffffffffffffffff16815260200160058152506011600560068110610e8657610e8561362d565b5b6002020160008201518160000160006101000a81548173ffffffffffffffffffffffffffffffffffffffff021916908373ffffffffffffffffffffffffffffffffffffffff160217905550602082015181600101559050506000805b6006811015610fc257600073ffffffffffffffffffffffffffffffffffffffff1660118260068110610f1757610f1661362d565b5b6002020160000160009054906101000a900473ffffffffffffffffffffffffffffffffffffffff1673ffffffffffffffffffffffffffffffffffffffff1603610f8c576040517fd92e233d00000000000000000000000000000000000000000000000000000000815260040160405180910390fd5b60118160068110610fa057610f9f61362d565b5b600202016001015482610fb39190613564565b91508080600101915050610ee2565b5060648114610ffd576040517f478352c200000000000000000000000000000000000000000000000000000000815260040160405180910390fd5b60005b600681101561109d5760006064601183600681106110215761102061362d565b5b6002020160010154600254611036919061365c565b61104091906136cd565b905061108f61104d612094565b601184600681106110615761106061362d565b5b6002020160000160009054906101000a900473ffffffffffffffffffffffffffffffffffffffff16836122ac565b508080600101915050611000565b506001600760016101000a81548160ff02191690831515021790555050565b60006110c66127a7565b6000600960008673ffffffffffffffffffffffffffffffffffffffff1673ffffffffffffffffffffffffffffffffffffffff1681526020019081526020016000206000611111612094565b73ffffffffffffffffffffffffffffffffffffffff1673ffffffffffffffffffffffffffffffffffffffff168152602001908152602001600020549050828110156111955780836040517fcf47918100000000000000000000000000000000000000000000000000000000815260040161118c929190613598565b60405180910390fd5b6111a08585856122ac565b6111b4856111ac612094565b85840361209c565b60019150506111c16127ed565b9392505050565b6000600a60008373ffffffffffffffffffffffffffffffffffffffff1673ffffffffffffffffffffffffffffffffffffffff16815260200190815260200160002060009054906101000a900460ff169050919050565b6000600760009054906101000a900460ff16905090565b61123d612225565b611246816127f6565b50565b611251612225565b600a60008273ffffffffffffffffffffffffffffffffffffffff1673ffffffffffffffffffffffffffffffffffffffff16815260200190815260200160002060009054906101000a900460ff16156112d5576040517f2eb8ef2e00000000000000000000000000000000000000000000000000000000815260040160405180910390fd5b6001600a60008373ffffffffffffffffffffffffffffffffffffffff1673ffffffffffffffffffffffffffffffffffffffff16815260200190815260200160002060006101000a81548160ff0219169083151502179055508073ffffffffffffffffffffffffffffffffffffffff167ff1d6512ec7550bf605a5a38910e48fb6a57938ed74a5afa01753fa023001005c60405160405180910390a250565b601060009054906101000a900473ffffffffffffffffffffffffffffffffffffffff1681565b600f60009054906101000a900460ff1681565b6113b4612225565b600073ffffffffffffffffffffffffffffffffffffffff168173ffffffffffffffffffffffffffffffffffffffff160361141a576040517fd92e233d00000000000000000000000000000000000000000000000000000000815260040160405180910390fd5b80600f60026101000a81548173ffffffffffffffffffffffffffffffffffffffff021916908373ffffffffffffffffffffffffffffffffffffffff1602179055507f7e0f425e693a3591da35eee37f8ada3aadc3632fa8ffbcecac1341351c8ece668160405161148a9190613421565b60405180910390a150565b600080600860008473ffffffffffffffffffffffffffffffffffffffff1673ffffffffffffffffffffffffffffffffffffffff16815260200190815260200160002054036114e6576000905061153b565b6114ee61291c565b600860008473ffffffffffffffffffffffffffffffffffffffff1673ffffffffffffffffffffffffffffffffffffffff1681526020019081526020016000205461153891906136cd565b90505b919050565b611548612225565b6115526000612977565b565b60008073ffffffffffffffffffffffffffffffffffffffff168273ffffffffffffffffffffffffffffffffffffffff16036115c4576040517f08c379a00000000000000000000000000000000000000000000000000000000081526004016115bb9061374a565b60405180910390fd5b6115cc61291c565b600860008473ffffffffffffffffffffffffffffffffffffffff1673ffffffffffffffffffffffffffffffffffffffff1681526020019081526020016000205461161691906136cd565b9050919050565b600d5481565b60008060009054906101000a900473ffffffffffffffffffffffffffffffffffffffff16905090565b60606006805461165b90613504565b80601f016020809104026020016040519081016040528092919081815260200182805461168790613504565b80156116d45780601f106116a9576101008083540402835291602001916116d4565b820191906000526020600020905b8154815290600101906020018083116116b757829003601f168201915b5050505050905090565b600c5481565b600b5481565b60006116f46127a7565b6117066116ff612094565b84846122ac565b600190506117126127ed565b92915050565b611720612225565b600073ffffffffffffffffffffffffffffffffffffffff16600f60029054906101000a900473ffffffffffffffffffffffffffffffffffffffff1673ffffffffffffffffffffffffffffffffffffffff161415806117cd5750600073ffffffffffffffffffffffffffffffffffffffff16601060009054906101000a900473ffffffffffffffffffffffffffffffffffffffff1673ffffffffffffffffffffffffffffffffffffffff1614155b15611804576040517f8e95803b00000000000000000000000000000000000000000000000000000000815260040160405180910390fd5b600073ffffffffffffffffffffffffffffffffffffffff168173ffffffffffffffffffffffffffffffffffffffff160361186a576040517fd92e233d00000000000000000000000000000000000000000000000000000000815260040160405180910390fd5b80600f60026101000a81548173ffffffffffffffffffffffffffffffffffffffff021916908373ffffffffffffffffffffffffffffffffffffffff1602179055506000600f60029054906101000a900473ffffffffffffffffffffffffffffffffffffffff1673ffffffffffffffffffffffffffffffffffffffff1663c45a01556040518163ffffffff1660e01b8152600401602060405180830381865afa15801561191a573d6000803e3d6000fd5b505050506040513d601f19601f8201168201806040525081019061193e919061377f565b73ffffffffffffffffffffffffffffffffffffffff1663c9c6539630600f60029054906101000a900473ffffffffffffffffffffffffffffffffffffffff1673ffffffffffffffffffffffffffffffffffffffff1663ad5c46486040518163ffffffff1660e01b8152600401602060405180830381865afa1580156119c7573d6000803e3d6000fd5b505050506040513d601f19601f820116820180604052508101906119eb919061377f565b6040518363ffffffff1660e01b8152600401611a089291906137ac565b6020604051808303816000875af1158015611a27573d6000803e3d6000fd5b505050506040513d601f19601f82011682018060405250810190611a4b919061377f565b9050600073ffffffffffffffffffffffffffffffffffffffff168173ffffffffffffffffffffffffffffffffffffffff1603611ab3576040517fd92e233d00000000000000000000000000000000000000000000000000000000815260040160405180910390fd5b80601060006101000a81548173ffffffffffffffffffffffffffffffffffffffff021916908373ffffffffffffffffffffffffffffffffffffffff1602179055506001600a60008373ffffffffffffffffffffffffffffffffffffffff1673ffffffffffffffffffffffffffffffffffffffff16815260200190815260200160002060006101000a81548160ff0219169083151502179055506001600a60008473ffffffffffffffffffffffffffffffffffffffff1673ffffffffffffffffffffffffffffffffffffffff16815260200190815260200160002060006101000a81548160ff0219169083151502179055508073ffffffffffffffffffffffffffffffffffffffff168273ffffffffffffffffffffffffffffffffffffffff167fc1a9e56c8129347b63ce39a7b2cb626d8e39b9baae0723beb7cbe61d73475bc060405160405180910390a35050565b611c0a612225565b801515600f60009054906101000a900460ff16151503611cd75780611c64576040518060400160405280601881526020017f5377617020697320616c72656164792064697361626c65640000000000000000815250611c9b565b6040518060400160405280601781526020017f5377617020697320616c726561647920656e61626c65640000000000000000008152505b6040517f08c379a0000000000000000000000000000000000000000000000000000000008152600401611cce9190613126565b60405180910390fd5b80600f60006101000a81548160ff0219169083151502179055507f53726dfcaf90650aa7eb35524f4d3220f07413c8d6cb404cc8c18bf5591bc15981604051611d20919061307b565b60405180910390a150565b600e5481565b6000600960008473ffffffffffffffffffffffffffffffffffffffff1673ffffffffffffffffffffffffffffffffffffffff16815260200190815260200160002060008373ffffffffffffffffffffffffffffffffffffffff1673ffffffffffffffffffffffffffffffffffffffff16815260200190815260200160002054905092915050565b611dc0612225565b600a60008273ffffffffffffffffffffffffffffffffffffffff1673ffffffffffffffffffffffffffffffffffffffff16815260200190815260200160002060009054906101000a900460ff16611e43576040517f8a92e2c200000000000000000000000000000000000000000000000000000000815260040160405180910390fd5b6000600a60008373ffffffffffffffffffffffffffffffffffffffff1673ffffffffffffffffffffffffffffffffffffffff16815260200190815260200160002060006101000a81548160ff0219169083151502179055508073ffffffffffffffffffffffffffffffffffffffff167f78ce087db51d01d3e32355f2d83455d5a39f99194c8d3d1c2614893695cee44260405160405180910390a250565b611ee9612225565b600760009054906101000a900460ff16600a611f059190613908565b81611f10919061365c565b600d819055507f947f344d56e1e8c70dc492fb94c4ddddd490c016aab685f5e7e47b2e85cb44cf81604051611f45919061334f565b60405180910390a150565b611f58612225565b600760009054906101000a900460ff16600a611f749190613908565b81611f7f919061365c565b600e81905550600d54600e541115611fd457600e54600d546040517fcd1a97bb000000000000000000000000000000000000000000000000000000008152600401611fcb929190613598565b60405180910390fd5b7fab1090599596cfb0c655b6424e552fba2cedf77457ed354fbe96e9abf4aa1f1381604051612003919061334f565b60405180910390a150565b612016612225565b600073ffffffffffffffffffffffffffffffffffffffff168173ffffffffffffffffffffffffffffffffffffffff16036120885760006040517f1e4fbdf700000000000000000000000000000000000000000000000000000000815260040161207f9190613421565b60405180910390fd5b61209181612977565b50565b600033905090565b600073ffffffffffffffffffffffffffffffffffffffff168373ffffffffffffffffffffffffffffffffffffffff1614806121035750600073ffffffffffffffffffffffffffffffffffffffff168273ffffffffffffffffffffffffffffffffffffffff16145b1561213a576040517fd92e233d00000000000000000000000000000000000000000000000000000000815260040160405180910390fd5b80600960008573ffffffffffffffffffffffffffffffffffffffff1673ffffffffffffffffffffffffffffffffffffffff16815260200190815260200160002060008473ffffffffffffffffffffffffffffffffffffffff1673ffffffffffffffffffffffffffffffffffffffff168152602001908152602001600020819055508173ffffffffffffffffffffffffffffffffffffffff168373ffffffffffffffffffffffffffffffffffffffff167f8c5be1e5ebec7d5bd14f71427d1e84f3dd0314c0f7b2291e5b200ac8c7c3b92583604051612218919061334f565b60405180910390a3505050565b61222d612094565b73ffffffffffffffffffffffffffffffffffffffff1661224b611623565b73ffffffffffffffffffffffffffffffffffffffff16146122aa5761226e612094565b6040517f118cdaa70000000000000000000000000000000000000000000000000000000081526004016122a19190613421565b60405180910390fd5b565b600073ffffffffffffffffffffffffffffffffffffffff168373ffffffffffffffffffffffffffffffffffffffff1603612312576040517fd92e233d00000000000000000000000000000000000000000000000000000000815260040160405180910390fd5b600073ffffffffffffffffffffffffffffffffffffffff168273ffffffffffffffffffffffffffffffffffffffff1603612378576040517fd92e233d00000000000000000000000000000000000000000000000000000000815260040160405180910390fd5b600081036123b2576040517f29a1e53700000000000000000000000000000000000000000000000000000000815260040160405180910390fd5b6123ba611623565b73ffffffffffffffffffffffffffffffffffffffff168373ffffffffffffffffffffffffffffffffffffffff16141580156123f757506000600d54115b80156124045750600d5481115b1561243b576040517f46830da900000000000000000000000000000000000000000000000000000000815260040160405180910390fd5b600061244630611495565b9050600e5481101580156124675750600f60019054906101000a900460ff16155b80156124c15750601060009054906101000a900473ffffffffffffffffffffffffffffffffffffffff1673ffffffffffffffffffffffffffffffffffffffff168473ffffffffffffffffffffffffffffffffffffffff1614155b156124d0576124cf81612a3b565b5b6000600a60008673ffffffffffffffffffffffffffffffffffffffff1673ffffffffffffffffffffffffffffffffffffffff16815260200190815260200160002060009054906101000a900460ff161590506000806000831561259657620186a0600b548761253f919061365c565b61254991906136cd565b9250620186a06175308461255d919061365c565b61256791906136cd565b905080836125759190613953565b9250620186a0600c5487612589919061365c565b61259391906136cd565b91505b6000818385896125a69190613953565b6125b09190613953565b6125ba9190613953565b90506125c461291c565b876125cf919061365c565b600860008b73ffffffffffffffffffffffffffffffffffffffff1673ffffffffffffffffffffffffffffffffffffffff168152602001908152602001600020600082825461261d9190613953565b9250508190555061262c61291c565b81612637919061365c565b600860008a73ffffffffffffffffffffffffffffffffffffffff1673ffffffffffffffffffffffffffffffffffffffff16815260200190815260200160002060008282546126859190613564565b9250508190555084156127375761269b84612b36565b6126a483612bbf565b6126ad826127f6565b7f312c5308f42848705a866c73dec11fd0783c2d64aac6a97e94467062ad3f40588484846040516126e093929190613987565b60405180910390a18873ffffffffffffffffffffffffffffffffffffffff167ffd38818f5291bf0bb3a2a48aadc06ba8757865d1dabd804585338aab3009dcb68360405161272e919061334f565b60405180910390a25b8773ffffffffffffffffffffffffffffffffffffffff168973ffffffffffffffffffffffffffffffffffffffff167fddf252ad1be2c89b69c2b068fc378daa952ba7f163c4a11628f55a4df523b3ef83604051612794919061334f565b60405180910390a3505050505050505050565b6002600154036127e3576040517f3ee5aeb500000000000000000000000000000000000000000000000000000000815260040160405180910390fd5b6002600181905550565b60018081905550565b60025481111561284157806002546040517f831ebd9c000000000000000000000000000000000000000000000000000000008152600401612838929190613598565b60405180910390fd5b60008111156128e757600061285461291c565b8261285f919061365c565b905080600360008282546128739190613953565b92505081905550816002600082825461288c9190613953565b925050819055503073ffffffffffffffffffffffffffffffffffffffff167ffd38818f5291bf0bb3a2a48aadc06ba8757865d1dabd804585338aab3009dcb6836040516128d9919061334f565b60405180910390a250612919565b6040517f7c946ed700000000000000000000000000000000000000000000000000000000815260040160405180910390fd5b50565b60008060025411612962576040517f08c379a000000000000000000000000000000000000000000000000000000000815260040161295990613a30565b60405180910390fd5b60025460035461297291906136cd565b905090565b60008060009054906101000a900473ffffffffffffffffffffffffffffffffffffffff169050816000806101000a81548173ffffffffffffffffffffffffffffffffffffffff021916908373ffffffffffffffffffffffffffffffffffffffff1602179055508173ffffffffffffffffffffffffffffffffffffffff168173ffffffffffffffffffffffffffffffffffffffff167f8be0079c531659141344cd1fd0a4f28419497f9722a3daafe3b4186f6b6457e060405160405180910390a35050565b6001600f60016101000a81548160ff02191690831515021790555060008103612a90576040517f64e2819f00000000000000000000000000000000000000000000000000000000815260040160405180910390fd5b6000600282612a9f91906136cd565b905060008183612aaf9190613953565b90506000479050612abf83612c30565b60008147612acd9190613953565b9050612ad98382612e73565b7f17bbfb9a6069321b6ded73bd96327c9e6b7212a5cd51ff219cd61370acafb561848285604051612b0c93929190613987565b60405180910390a1505050506000600f60016101000a81548160ff02191690831515021790555050565b6000612b4061291c565b82612b4b919061365c565b90508060036000828254612b5f9190613953565b925050819055508160046000828254612b789190613564565b925050819055507f312c5308f42848705a866c73dec11fd0783c2d64aac6a97e94467062ad3f405882600080604051612bb393929190613a8b565b60405180910390a15050565b6000612bc961291c565b82612bd4919061365c565b905080600860003073ffffffffffffffffffffffffffffffffffffffff1673ffffffffffffffffffffffffffffffffffffffff1681526020019081526020016000206000828254612c259190613564565b925050819055505050565b6000600267ffffffffffffffff811115612c4d57612c4c613ac2565b5b604051908082528060200260200182016040528015612c7b5781602001602082028036833780820191505090505b5090503081600081518110612c9357612c9261362d565b5b602002602001019073ffffffffffffffffffffffffffffffffffffffff16908173ffffffffffffffffffffffffffffffffffffffff1681525050600f60029054906101000a900473ffffffffffffffffffffffffffffffffffffffff1673ffffffffffffffffffffffffffffffffffffffff1663ad5c46486040518163ffffffff1660e01b8152600401602060405180830381865afa158015612d3a573d6000803e3d6000fd5b505050506040513d601f19601f82011682018060405250810190612d5e919061377f565b81600181518110612d7257612d7161362d565b5b602002602001019073ffffffffffffffffffffffffffffffffffffffff16908173ffffffffffffffffffffffffffffffffffffffff1681525050612dd930600f60029054906101000a900473ffffffffffffffffffffffffffffffffffffffff168461209c565b600f60029054906101000a900473ffffffffffffffffffffffffffffffffffffffff1673ffffffffffffffffffffffffffffffffffffffff1663791ac9478360008430426040518663ffffffff1660e01b8152600401612e3d959493929190613baf565b600060405180830381600087803b158015612e5757600080fd5b505af1158015612e6b573d6000803e3d6000fd5b505050505050565b600073ffffffffffffffffffffffffffffffffffffffff16600f60029054906101000a900473ffffffffffffffffffffffffffffffffffffffff1673ffffffffffffffffffffffffffffffffffffffff1603612efb576040517fd92e233d00000000000000000000000000000000000000000000000000000000815260040160405180910390fd5b612f2830600f60029054906101000a900473ffffffffffffffffffffffffffffffffffffffff168461209c565b6000806000600f60029054906101000a900473ffffffffffffffffffffffffffffffffffffffff1673ffffffffffffffffffffffffffffffffffffffff1663f305d719853088600080612f79611623565b426040518863ffffffff1660e01b8152600401612f9b96959493929190613c09565b60606040518083038185885af1158015612fb9573d6000803e3d6000fd5b50505050506040513d601f19601f82011682018060405250810190612fde9190613c7f565b9250925092506000810361301e576040517fb657fe1300000000000000000000000000000000000000000000000000000000815260040160405180910390fd5b7fd7f28048575eead8851d024ead087913957dfb4fd1a02b4d1573f5352a5a2be383838360405161305193929190613987565b60405180910390a15050505050565b60008115159050919050565b61307581613060565b82525050565b6000602082019050613090600083018461306c565b92915050565b600081519050919050565b600082825260208201905092915050565b60005b838110156130d05780820151818401526020810190506130b5565b60008484015250505050565b6000601f19601f8301169050919050565b60006130f882613096565b61310281856130a1565b93506131128185602086016130b2565b61311b816130dc565b840191505092915050565b6000602082019050818103600083015261314081846130ed565b905092915050565b600080fd5b6000819050919050565b6131608161314d565b811461316b57600080fd5b50565b60008135905061317d81613157565b92915050565b60006020828403121561319957613198613148565b5b60006131a78482850161316e565b91505092915050565b600073ffffffffffffffffffffffffffffffffffffffff82169050919050565b60006131db826131b0565b9050919050565b6131eb816131d0565b82525050565b6131fa8161314d565b82525050565b600060408201905061321560008301856131e2565b61322260208301846131f1565b9392505050565b613232816131d0565b811461323d57600080fd5b50565b60008135905061324f81613229565b92915050565b6000806040838503121561326c5761326b613148565b5b600061327a85828601613240565b925050602061328b8582860161316e565b9150509250929050565b600080604083850312156132ac576132ab613148565b5b60006132ba8582860161316e565b92505060206132cb8582860161316e565b9150509250929050565b6000819050919050565b60006132fa6132f56132f0846131b0565b6132d5565b6131b0565b9050919050565b600061330c826132df565b9050919050565b600061331e82613301565b9050919050565b61332e81613313565b82525050565b60006020820190506133496000830184613325565b92915050565b600060208201905061336460008301846131f1565b92915050565b60008060006060848603121561338357613382613148565b5b600061339186828701613240565b93505060206133a286828701613240565b92505060406133b38682870161316e565b9150509250925092565b6000602082840312156133d3576133d2613148565b5b60006133e184828501613240565b91505092915050565b600060ff82169050919050565b613400816133ea565b82525050565b600060208201905061341b60008301846133f7565b92915050565b600060208201905061343660008301846131e2565b92915050565b61344581613060565b811461345057600080fd5b50565b6000813590506134628161343c565b92915050565b60006020828403121561347e5761347d613148565b5b600061348c84828501613453565b91505092915050565b600080604083850312156134ac576134ab613148565b5b60006134ba85828601613240565b92505060206134cb85828601613240565b9150509250929050565b7f4e487b7100000000000000000000000000000000000000000000000000000000600052602260045260246000fd5b6000600282049050600182168061351c57607f821691505b60208210810361352f5761352e6134d5565b5b50919050565b7f4e487b7100000000000000000000000000000000000000000000000000000000600052601160045260246000fd5b600061356f8261314d565b915061357a8361314d565b925082820190508082111561359257613591613535565b5b92915050565b60006040820190506135ad60008301856131f1565b6135ba60208301846131f1565b9392505050565b7f546f6b656e6f6d69637320616c726561647920696e697469616c697a65642100600082015250565b60006135f7601f836130a1565b9150613602826135c1565b602082019050919050565b60006020820190508181036000830152613626816135ea565b9050919050565b7f4e487b7100000000000000000000000000000000000000000000000000000000600052603260045260246000fd5b60006136678261314d565b91506136728361314d565b92508282026136808161314d565b9150828204841483151761369757613696613535565b5b5092915050565b7f4e487b7100000000000000000000000000000000000000000000000000000000600052601260045260246000fd5b60006136d88261314d565b91506136e38361314d565b9250826136f3576136f261369e565b5b828204905092915050565b7f5a65726f20616464726573730000000000000000000000000000000000000000600082015250565b6000613734600c836130a1565b915061373f826136fe565b602082019050919050565b6000602082019050818103600083015261376381613727565b9050919050565b60008151905061377981613229565b92915050565b60006020828403121561379557613794613148565b5b60006137a38482850161376a565b91505092915050565b60006040820190506137c160008301856131e2565b6137ce60208301846131e2565b9392505050565b60008160011c9050919050565b6000808291508390505b600185111561382c5780860481111561380857613807613535565b5b60018516156138175780820291505b8081029050613825856137d5565b94506137ec565b94509492505050565b6000826138455760019050613901565b816138535760009050613901565b81600181146138695760028114613873576138a2565b6001915050613901565b60ff84111561388557613884613535565b5b8360020a91508482111561389c5761389b613535565b5b50613901565b5060208310610133831016604e8410600b84101617156138d75782820a9050838111156138d2576138d1613535565b5b613901565b6138e484848460016137e2565b925090508184048111156138fb576138fa613535565b5b81810290505b9392505050565b60006139138261314d565b915061391e836133ea565b925061394b7fffffffffffffffffffffffffffffffffffffffffffffffffffffffffffffffff8484613835565b905092915050565b600061395e8261314d565b91506139698361314d565b925082820390508181111561398157613980613535565b5b92915050565b600060608201905061399c60008301866131f1565b6139a960208301856131f1565b6139b660408301846131f1565b949350505050565b7f546f74616c20737570706c79206d75737420626520677265617465722074686160008201527f6e207a65726f0000000000000000000000000000000000000000000000000000602082015250565b6000613a1a6026836130a1565b9150613a25826139be565b604082019050919050565b60006020820190508181036000830152613a4981613a0d565b9050919050565b6000819050919050565b6000613a75613a70613a6b84613a50565b6132d5565b61314d565b9050919050565b613a8581613a5a565b82525050565b6000606082019050613aa060008301866131f1565b613aad6020830185613a7c565b613aba6040830184613a7c565b949350505050565b7f4e487b7100000000000000000000000000000000000000000000000000000000600052604160045260246000fd5b600081519050919050565b600082825260208201905092915050565b6000819050602082019050919050565b613b26816131d0565b82525050565b6000613b388383613b1d565b60208301905092915050565b6000602082019050919050565b6000613b5c82613af1565b613b668185613afc565b9350613b7183613b0d565b8060005b83811015613ba2578151613b898882613b2c565b9750613b9483613b44565b925050600181019050613b75565b5085935050505092915050565b600060a082019050613bc460008301886131f1565b613bd16020830187613a7c565b8181036040830152613be38186613b51565b9050613bf260608301856131e2565b613bff60808301846131f1565b9695505050505050565b600060c082019050613c1e60008301896131e2565b613c2b60208301886131f1565b613c386040830187613a7c565b613c456060830186613a7c565b613c5260808301856131e2565b613c5f60a08301846131f1565b979650505050505050565b600081519050613c7981613157565b92915050565b600080600060608486031215613c9857613c97613148565b5b6000613ca686828701613c6a565b9350506020613cb786828701613c6a565b9250506040613cc886828701613c6a565b915050925092509256fea2646970667358221220270282970438eea33d99e7766cbb8abfcffd213c2b8a44dc172da332d7539fe964736f6c634300081a0033","opcodes":"PUSH1 0x80 PUSH1 0x40 MSTORE PUSH1 0x0 PUSH1 0x7 PUSH1 0x1 PUSH2 0x100 EXP DUP2 SLOAD DUP2 PUSH1 0xFF MUL NOT AND SWAP1 DUP4 ISZERO ISZERO MUL OR SWAP1 SSTORE POP PUSH1 0x0 PUSH1 0xF PUSH1 0x0 PUSH2 0x100 EXP DUP2 SLOAD DUP2 PUSH1 0xFF MUL NOT AND SWAP1 DUP4 ISZERO ISZERO MUL OR SWAP1 SSTORE POP PUSH1 0x0 PUSH1 0xF PUSH1 0x1 PUSH2 0x100 EXP DUP2 SLOAD DUP2 PUSH1 0xFF MUL NOT AND SWAP1 DUP4 ISZERO ISZERO MUL OR SWAP1 SSTORE POP CALLVALUE DUP1 ISZERO PUSH2 0x61 JUMPI PUSH1 0x0 DUP1 REVERT JUMPDEST POP PUSH1 0x40 MLOAD PUSH2 0x4B19 CODESIZE SUB DUP1 PUSH2 0x4B19 DUP4 CODECOPY DUP2 DUP2 ADD PUSH1 0x40 MSTORE DUP2 ADD SWAP1 PUSH2 0x83 SWAP2 SWAP1 PUSH2 0x6A3 JUMP JUMPDEST CALLER PUSH1 0x0 PUSH20 0xFFFFFFFFFFFFFFFFFFFFFFFFFFFFFFFFFFFFFFFF AND DUP2 PUSH20 0xFFFFFFFFFFFFFFFFFFFFFFFFFFFFFFFFFFFFFFFF AND SUB PUSH2 0xF6 JUMPI PUSH1 0x0 PUSH1 0x40 MLOAD PUSH32 0x1E4FBDF700000000000000000000000000000000000000000000000000000000 DUP2 MSTORE PUSH1 0x4 ADD PUSH2 0xED SWAP2 SWAP1 PUSH2 0x7D2 JUMP JUMPDEST PUSH1 0x40 MLOAD DUP1 SWAP2 SUB SWAP1 REVERT JUMPDEST PUSH2 0x105 DUP2 PUSH2 0x3F3 PUSH1 0x20 SHL PUSH1 0x20 SHR JUMP JUMPDEST POP PUSH1 0x1 DUP1 DUP2 SWAP1 SSTORE POP PUSH3 0x186A0 DUP4 DUP6 PUSH2 0x11D SWAP2 SWAP1 PUSH2 0x81C JUMP JUMPDEST GT ISZERO PUSH2 0x16B JUMPI DUP3 DUP5 PUSH2 0x12F SWAP2 SWAP1 PUSH2 0x81C JUMP JUMPDEST PUSH1 0x40 MLOAD PUSH32 0x2DB7582D00000000000000000000000000000000000000000000000000000000 DUP2 MSTORE PUSH1 0x4 ADD PUSH2 0x162 SWAP2 SWAP1 PUSH2 0x85F JUMP JUMPDEST PUSH1 0x40 MLOAD DUP1 SWAP2 SUB SWAP1 REVERT JUMPDEST DUP8 PUSH1 0x5 SWAP1 DUP2 PUSH2 0x17A SWAP2 SWAP1 PUSH2 0xA91 JUMP JUMPDEST POP DUP7 PUSH1 0x6 SWAP1 DUP2 PUSH2 0x18A SWAP2 SWAP1 PUSH2 0xA91 JUMP JUMPDEST POP DUP5 PUSH1 0x7 PUSH1 0x0 PUSH2 0x100 EXP DUP2 SLOAD DUP2 PUSH1 0xFF MUL NOT AND SWAP1 DUP4 PUSH1 0xFF AND MUL OR SWAP1 SSTORE POP PUSH1 0x7 PUSH1 0x0 SWAP1 SLOAD SWAP1 PUSH2 0x100 EXP SWAP1 DIV PUSH1 0xFF AND PUSH1 0xFF AND PUSH1 0xA PUSH2 0x1C5 SWAP2 SWAP1 PUSH2 0xC96 JUMP JUMPDEST DUP7 PUSH2 0x1D0 SWAP2 SWAP1 PUSH2 0xCE1 JUMP JUMPDEST PUSH1 0x2 DUP2 SWAP1 SSTORE POP PUSH1 0x2 SLOAD PUSH1 0x0 NOT PUSH2 0x1E6 SWAP2 SWAP1 PUSH2 0xD52 JUMP JUMPDEST PUSH1 0x0 NOT PUSH2 0x1F3 SWAP2 SWAP1 PUSH2 0xD83 JUMP JUMPDEST PUSH1 0x3 DUP2 SWAP1 SSTORE POP DUP4 PUSH1 0xB DUP2 SWAP1 SSTORE POP DUP3 PUSH1 0xC DUP2 SWAP1 SSTORE POP PUSH1 0x7 PUSH1 0x0 SWAP1 SLOAD SWAP1 PUSH2 0x100 EXP SWAP1 DIV PUSH1 0xFF AND PUSH1 0xA PUSH2 0x223 SWAP2 SWAP1 PUSH2 0xDB7 JUMP JUMPDEST DUP3 PUSH2 0x22E SWAP2 SWAP1 PUSH2 0xCE1 JUMP JUMPDEST PUSH1 0xD DUP2 SWAP1 SSTORE POP PUSH1 0x7 PUSH1 0x0 SWAP1 SLOAD SWAP1 PUSH2 0x100 EXP SWAP1 DIV PUSH1 0xFF AND PUSH1 0xA PUSH2 0x250 SWAP2 SWAP1 PUSH2 0xDB7 JUMP JUMPDEST DUP2 PUSH2 0x25B SWAP2 SWAP1 PUSH2 0xCE1 JUMP JUMPDEST PUSH1 0xE DUP2 SWAP1 SSTORE POP PUSH1 0x3 SLOAD PUSH1 0x8 PUSH1 0x0 PUSH2 0x276 PUSH2 0x4B7 PUSH1 0x20 SHL PUSH1 0x20 SHR JUMP JUMPDEST PUSH20 0xFFFFFFFFFFFFFFFFFFFFFFFFFFFFFFFFFFFFFFFF AND PUSH20 0xFFFFFFFFFFFFFFFFFFFFFFFFFFFFFFFFFFFFFFFF AND DUP2 MSTORE PUSH1 0x20 ADD SWAP1 DUP2 MSTORE PUSH1 0x20 ADD PUSH1 0x0 KECCAK256 DUP2 SWAP1 SSTORE POP PUSH1 0x1 PUSH1 0xA PUSH1 0x0 PUSH2 0x2C8 PUSH2 0x4B7 PUSH1 0x20 SHL PUSH1 0x20 SHR JUMP JUMPDEST PUSH20 0xFFFFFFFFFFFFFFFFFFFFFFFFFFFFFFFFFFFFFFFF AND PUSH20 0xFFFFFFFFFFFFFFFFFFFFFFFFFFFFFFFFFFFFFFFF AND DUP2 MSTORE PUSH1 0x20 ADD SWAP1 DUP2 MSTORE PUSH1 0x20 ADD PUSH1 0x0 KECCAK256 PUSH1 0x0 PUSH2 0x100 EXP DUP2 SLOAD DUP2 PUSH1 0xFF MUL NOT AND SWAP1 DUP4 ISZERO ISZERO MUL OR SWAP1 SSTORE POP PUSH1 0x1 PUSH1 0xA PUSH1 0x0 ADDRESS PUSH20 0xFFFFFFFFFFFFFFFFFFFFFFFFFFFFFFFFFFFFFFFF AND PUSH20 0xFFFFFFFFFFFFFFFFFFFFFFFFFFFFFFFFFFFFFFFF AND DUP2 MSTORE PUSH1 0x20 ADD SWAP1 DUP2 MSTORE PUSH1 0x20 ADD PUSH1 0x0 KECCAK256 PUSH1 0x0 PUSH2 0x100 EXP DUP2 SLOAD DUP2 PUSH1 0xFF MUL NOT AND SWAP1 DUP4 ISZERO ISZERO MUL OR SWAP1 SSTORE POP PUSH2 0x37F PUSH2 0x4B7 PUSH1 0x20 SHL PUSH1 0x20 SHR JUMP JUMPDEST PUSH20 0xFFFFFFFFFFFFFFFFFFFFFFFFFFFFFFFFFFFFFFFF AND PUSH1 0x0 PUSH20 0xFFFFFFFFFFFFFFFFFFFFFFFFFFFFFFFFFFFFFFFF AND PUSH32 0xDDF252AD1BE2C89B69C2B068FC378DAA952BA7F163C4A11628F55A4DF523B3EF PUSH1 0x2 SLOAD PUSH1 0x40 MLOAD PUSH2 0x3DE SWAP2 SWAP1 PUSH2 0x85F JUMP JUMPDEST PUSH1 0x40 MLOAD DUP1 SWAP2 SUB SWAP1 LOG3 POP POP POP POP POP POP POP POP PUSH2 0xE02 JUMP JUMPDEST PUSH1 0x0 DUP1 PUSH1 0x0 SWAP1 SLOAD SWAP1 PUSH2 0x100 EXP SWAP1 DIV PUSH20 0xFFFFFFFFFFFFFFFFFFFFFFFFFFFFFFFFFFFFFFFF AND SWAP1 POP DUP2 PUSH1 0x0 DUP1 PUSH2 0x100 EXP DUP2 SLOAD DUP2 PUSH20 0xFFFFFFFFFFFFFFFFFFFFFFFFFFFFFFFFFFFFFFFF MUL NOT AND SWAP1 DUP4 PUSH20 0xFFFFFFFFFFFFFFFFFFFFFFFFFFFFFFFFFFFFFFFF AND MUL OR SWAP1 SSTORE POP DUP2 PUSH20 0xFFFFFFFFFFFFFFFFFFFFFFFFFFFFFFFFFFFFFFFF AND DUP2 PUSH20 0xFFFFFFFFFFFFFFFFFFFFFFFFFFFFFFFFFFFFFFFF AND PUSH32 0x8BE0079C531659141344CD1FD0A4F28419497F9722A3DAAFE3B4186F6B6457E0 PUSH1 0x40 MLOAD PUSH1 0x40 MLOAD DUP1 SWAP2 SUB SWAP1 LOG3 POP POP JUMP JUMPDEST PUSH1 0x0 CALLER SWAP1 POP SWAP1 JUMP JUMPDEST PUSH1 0x0 PUSH1 0x40 MLOAD SWAP1 POP SWAP1 JUMP JUMPDEST PUSH1 0x0 DUP1 REVERT JUMPDEST PUSH1 0x0 DUP1 REVERT JUMPDEST PUSH1 0x0 DUP1 REVERT JUMPDEST PUSH1 0x0 DUP1 REVERT JUMPDEST PUSH1 0x0 PUSH1 0x1F NOT PUSH1 0x1F DUP4 ADD AND SWAP1 POP SWAP2 SWAP1 POP JUMP JUMPDEST PUSH32 0x4E487B7100000000000000000000000000000000000000000000000000000000 PUSH1 0x0 MSTORE PUSH1 0x41 PUSH1 0x4 MSTORE PUSH1 0x24 PUSH1 0x0 REVERT JUMPDEST PUSH2 0x526 DUP3 PUSH2 0x4DD JUMP JUMPDEST DUP2 ADD DUP2 DUP2 LT PUSH8 0xFFFFFFFFFFFFFFFF DUP3 GT OR ISZERO PUSH2 0x545 JUMPI PUSH2 0x544 PUSH2 0x4EE JUMP JUMPDEST JUMPDEST DUP1 PUSH1 0x40 MSTORE POP POP POP JUMP JUMPDEST PUSH1 0x0 PUSH2 0x558 PUSH2 0x4BF JUMP JUMPDEST SWAP1 POP PUSH2 0x564 DUP3 DUP3 PUSH2 0x51D JUMP JUMPDEST SWAP2 SWAP1 POP JUMP JUMPDEST PUSH1 0x0 PUSH8 0xFFFFFFFFFFFFFFFF DUP3 GT ISZERO PUSH2 0x584 JUMPI PUSH2 0x583 PUSH2 0x4EE JUMP JUMPDEST JUMPDEST PUSH2 0x58D DUP3 PUSH2 0x4DD JUMP JUMPDEST SWAP1 POP PUSH1 0x20 DUP2 ADD SWAP1 POP SWAP2 SWAP1 POP JUMP JUMPDEST PUSH1 0x0 JUMPDEST DUP4 DUP2 LT ISZERO PUSH2 0x5B8 JUMPI DUP1 DUP3 ADD MLOAD DUP2 DUP5 ADD MSTORE PUSH1 0x20 DUP2 ADD SWAP1 POP PUSH2 0x59D JUMP JUMPDEST PUSH1 0x0 DUP5 DUP5 ADD MSTORE POP POP POP POP JUMP JUMPDEST PUSH1 0x0 PUSH2 0x5D7 PUSH2 0x5D2 DUP5 PUSH2 0x569 JUMP JUMPDEST PUSH2 0x54E JUMP JUMPDEST SWAP1 POP DUP3 DUP2 MSTORE PUSH1 0x20 DUP2 ADD DUP5 DUP5 DUP5 ADD GT ISZERO PUSH2 0x5F3 JUMPI PUSH2 0x5F2 PUSH2 0x4D8 JUMP JUMPDEST JUMPDEST PUSH2 0x5FE DUP5 DUP3 DUP6 PUSH2 0x59A JUMP JUMPDEST POP SWAP4 SWAP3 POP POP POP JUMP JUMPDEST PUSH1 0x0 DUP3 PUSH1 0x1F DUP4 ADD SLT PUSH2 0x61B JUMPI PUSH2 0x61A PUSH2 0x4D3 JUMP JUMPDEST JUMPDEST DUP2 MLOAD PUSH2 0x62B DUP5 DUP3 PUSH1 0x20 DUP7 ADD PUSH2 0x5C4 JUMP JUMPDEST SWAP2 POP POP SWAP3 SWAP2 POP POP JUMP JUMPDEST PUSH1 0x0 DUP2 SWAP1 POP SWAP2 SWAP1 POP JUMP JUMPDEST PUSH2 0x647 DUP2 PUSH2 0x634 JUMP JUMPDEST DUP2 EQ PUSH2 0x652 JUMPI PUSH1 0x0 DUP1 REVERT JUMPDEST POP JUMP JUMPDEST PUSH1 0x0 DUP2 MLOAD SWAP1 POP PUSH2 0x664 DUP2 PUSH2 0x63E JUMP JUMPDEST SWAP3 SWAP2 POP POP JUMP JUMPDEST PUSH1 0x0 PUSH1 0xFF DUP3 AND SWAP1 POP SWAP2 SWAP1 POP JUMP JUMPDEST PUSH2 0x680 DUP2 PUSH2 0x66A JUMP JUMPDEST DUP2 EQ PUSH2 0x68B JUMPI PUSH1 0x0 DUP1 REVERT JUMPDEST POP JUMP JUMPDEST PUSH1 0x0 DUP2 MLOAD SWAP1 POP PUSH2 0x69D DUP2 PUSH2 0x677 JUMP JUMPDEST SWAP3 SWAP2 POP POP JUMP JUMPDEST PUSH1 0x0 DUP1 PUSH1 0x0 DUP1 PUSH1 0x0 DUP1 PUSH1 0x0 DUP1 PUSH2 0x100 DUP10 DUP12 SUB SLT ISZERO PUSH2 0x6C4 JUMPI PUSH2 0x6C3 PUSH2 0x4C9 JUMP JUMPDEST JUMPDEST PUSH1 0x0 DUP10 ADD MLOAD PUSH8 0xFFFFFFFFFFFFFFFF DUP2 GT ISZERO PUSH2 0x6E2 JUMPI PUSH2 0x6E1 PUSH2 0x4CE JUMP JUMPDEST JUMPDEST PUSH2 0x6EE DUP12 DUP3 DUP13 ADD PUSH2 0x606 JUMP JUMPDEST SWAP9 POP POP PUSH1 0x20 DUP10 ADD MLOAD PUSH8 0xFFFFFFFFFFFFFFFF DUP2 GT ISZERO PUSH2 0x70F JUMPI PUSH2 0x70E PUSH2 0x4CE JUMP JUMPDEST JUMPDEST PUSH2 0x71B DUP12 DUP3 DUP13 ADD PUSH2 0x606 JUMP JUMPDEST SWAP8 POP POP PUSH1 0x40 PUSH2 0x72C DUP12 DUP3 DUP13 ADD PUSH2 0x655 JUMP JUMPDEST SWAP7 POP POP PUSH1 0x60 PUSH2 0x73D DUP12 DUP3 DUP13 ADD PUSH2 0x68E JUMP JUMPDEST SWAP6 POP POP PUSH1 0x80 PUSH2 0x74E DUP12 DUP3 DUP13 ADD PUSH2 0x655 JUMP JUMPDEST SWAP5 POP POP PUSH1 0xA0 PUSH2 0x75F DUP12 DUP3 DUP13 ADD PUSH2 0x655 JUMP JUMPDEST SWAP4 POP POP PUSH1 0xC0 PUSH2 0x770 DUP12 DUP3 DUP13 ADD PUSH2 0x655 JUMP JUMPDEST SWAP3 POP POP PUSH1 0xE0 PUSH2 0x781 DUP12 DUP3 DUP13 ADD PUSH2 0x655 JUMP JUMPDEST SWAP2 POP POP SWAP3 SWAP6 SWAP9 POP SWAP3 SWAP6 SWAP9 SWAP1 SWAP4 SWAP7 POP JUMP JUMPDEST PUSH1 0x0 PUSH20 0xFFFFFFFFFFFFFFFFFFFFFFFFFFFFFFFFFFFFFFFF DUP3 AND SWAP1 POP SWAP2 SWAP1 POP JUMP JUMPDEST PUSH1 0x0 PUSH2 0x7BC DUP3 PUSH2 0x791 JUMP JUMPDEST SWAP1 POP SWAP2 SWAP1 POP JUMP JUMPDEST PUSH2 0x7CC DUP2 PUSH2 0x7B1 JUMP JUMPDEST DUP3 MSTORE POP POP JUMP JUMPDEST PUSH1 0x0 PUSH1 0x20 DUP3 ADD SWAP1 POP PUSH2 0x7E7 PUSH1 0x0 DUP4 ADD DUP5 PUSH2 0x7C3 JUMP JUMPDEST SWAP3 SWAP2 POP POP JUMP JUMPDEST PUSH32 0x4E487B7100000000000000000000000000000000000000000000000000000000 PUSH1 0x0 MSTORE PUSH1 0x11 PUSH1 0x4 MSTORE PUSH1 0x24 PUSH1 0x0 REVERT JUMPDEST PUSH1 0x0 PUSH2 0x827 DUP3 PUSH2 0x634 JUMP JUMPDEST SWAP2 POP PUSH2 0x832 DUP4 PUSH2 0x634 JUMP JUMPDEST SWAP3 POP DUP3 DUP3 ADD SWAP1 POP DUP1 DUP3 GT ISZERO PUSH2 0x84A JUMPI PUSH2 0x849 PUSH2 0x7ED JUMP JUMPDEST JUMPDEST SWAP3 SWAP2 POP POP JUMP JUMPDEST PUSH2 0x859 DUP2 PUSH2 0x634 JUMP JUMPDEST DUP3 MSTORE POP POP JUMP JUMPDEST PUSH1 0x0 PUSH1 0x20 DUP3 ADD SWAP1 POP PUSH2 0x874 PUSH1 0x0 DUP4 ADD DUP5 PUSH2 0x850 JUMP JUMPDEST SWAP3 SWAP2 POP POP JUMP JUMPDEST PUSH1 0x0 DUP2 MLOAD SWAP1 POP SWAP2 SWAP1 POP JUMP JUMPDEST PUSH32 0x4E487B7100000000000000000000000000000000000000000000000000000000 PUSH1 0x0 MSTORE PUSH1 0x22 PUSH1 0x4 MSTORE PUSH1 0x24 PUSH1 0x0 REVERT JUMPDEST PUSH1 0x0 PUSH1 0x2 DUP3 DIV SWAP1 POP PUSH1 0x1 DUP3 AND DUP1 PUSH2 0x8CC JUMPI PUSH1 0x7F DUP3 AND SWAP2 POP JUMPDEST PUSH1 0x20 DUP3 LT DUP2 SUB PUSH2 0x8DF JUMPI PUSH2 0x8DE PUSH2 0x885 JUMP JUMPDEST JUMPDEST POP SWAP2 SWAP1 POP JUMP JUMPDEST PUSH1 0x0 DUP2 SWAP1 POP DUP2 PUSH1 0x0 MSTORE PUSH1 0x20 PUSH1 0x0 KECCAK256 SWAP1 POP SWAP2 SWAP1 POP JUMP JUMPDEST PUSH1 0x0 PUSH1 0x20 PUSH1 0x1F DUP4 ADD DIV SWAP1 POP SWAP2 SWAP1 POP JUMP JUMPDEST PUSH1 0x0 DUP3 DUP3 SHL SWAP1 POP SWAP3 SWAP2 POP POP JUMP JUMPDEST PUSH1 0x0 PUSH1 0x8 DUP4 MUL PUSH2 0x947 PUSH32 0xFFFFFFFFFFFFFFFFFFFFFFFFFFFFFFFFFFFFFFFFFFFFFFFFFFFFFFFFFFFFFFFF DUP3 PUSH2 0x90A JUMP JUMPDEST PUSH2 0x951 DUP7 DUP4 PUSH2 0x90A JUMP JUMPDEST SWAP6 POP DUP1 NOT DUP5 AND SWAP4 POP DUP1 DUP7 AND DUP5 OR SWAP3 POP POP POP SWAP4 SWAP3 POP POP POP JUMP JUMPDEST PUSH1 0x0 DUP2 SWAP1 POP SWAP2 SWAP1 POP JUMP JUMPDEST PUSH1 0x0 PUSH2 0x98E PUSH2 0x989 PUSH2 0x984 DUP5 PUSH2 0x634 JUMP JUMPDEST PUSH2 0x969 JUMP JUMPDEST PUSH2 0x634 JUMP JUMPDEST SWAP1 POP SWAP2 SWAP1 POP JUMP JUMPDEST PUSH1 0x0 DUP2 SWAP1 POP SWAP2 SWAP1 POP JUMP JUMPDEST PUSH2 0x9A8 DUP4 PUSH2 0x973 JUMP JUMPDEST PUSH2 0x9BC PUSH2 0x9B4 DUP3 PUSH2 0x995 JUMP JUMPDEST DUP5 DUP5 SLOAD PUSH2 0x917 JUMP JUMPDEST DUP3 SSTORE POP POP POP POP JUMP JUMPDEST PUSH1 0x0 SWAP1 JUMP JUMPDEST PUSH2 0x9D1 PUSH2 0x9C4 JUMP JUMPDEST PUSH2 0x9DC DUP2 DUP5 DUP5 PUSH2 0x99F JUMP JUMPDEST POP POP POP JUMP JUMPDEST JUMPDEST DUP2 DUP2 LT ISZERO PUSH2 0xA00 JUMPI PUSH2 0x9F5 PUSH1 0x0 DUP3 PUSH2 0x9C9 JUMP JUMPDEST PUSH1 0x1 DUP2 ADD SWAP1 POP PUSH2 0x9E2 JUMP JUMPDEST POP POP JUMP JUMPDEST PUSH1 0x1F DUP3 GT ISZERO PUSH2 0xA45 JUMPI PUSH2 0xA16 DUP2 PUSH2 0x8E5 JUMP JUMPDEST PUSH2 0xA1F DUP5 PUSH2 0x8FA JUMP JUMPDEST DUP2 ADD PUSH1 0x20 DUP6 LT ISZERO PUSH2 0xA2E JUMPI DUP2 SWAP1 POP JUMPDEST PUSH2 0xA42 PUSH2 0xA3A DUP6 PUSH2 0x8FA JUMP JUMPDEST DUP4 ADD DUP3 PUSH2 0x9E1 JUMP JUMPDEST POP POP JUMPDEST POP POP POP JUMP JUMPDEST PUSH1 0x0 DUP3 DUP3 SHR SWAP1 POP SWAP3 SWAP2 POP POP JUMP JUMPDEST PUSH1 0x0 PUSH2 0xA68 PUSH1 0x0 NOT DUP5 PUSH1 0x8 MUL PUSH2 0xA4A JUMP JUMPDEST NOT DUP1 DUP4 AND SWAP2 POP POP SWAP3 SWAP2 POP POP JUMP JUMPDEST PUSH1 0x0 PUSH2 0xA81 DUP4 DUP4 PUSH2 0xA57 JUMP JUMPDEST SWAP2 POP DUP3 PUSH1 0x2 MUL DUP3 OR SWAP1 POP SWAP3 SWAP2 POP POP JUMP JUMPDEST PUSH2 0xA9A DUP3 PUSH2 0x87A JUMP JUMPDEST PUSH8 0xFFFFFFFFFFFFFFFF DUP2 GT ISZERO PUSH2 0xAB3 JUMPI PUSH2 0xAB2 PUSH2 0x4EE JUMP JUMPDEST JUMPDEST PUSH2 0xABD DUP3 SLOAD PUSH2 0x8B4 JUMP JUMPDEST PUSH2 0xAC8 DUP3 DUP3 DUP6 PUSH2 0xA04 JUMP JUMPDEST PUSH1 0x0 PUSH1 0x20 SWAP1 POP PUSH1 0x1F DUP4 GT PUSH1 0x1 DUP2 EQ PUSH2 0xAFB JUMPI PUSH1 0x0 DUP5 ISZERO PUSH2 0xAE9 JUMPI DUP3 DUP8 ADD MLOAD SWAP1 POP JUMPDEST PUSH2 0xAF3 DUP6 DUP3 PUSH2 0xA75 JUMP JUMPDEST DUP7 SSTORE POP PUSH2 0xB5B JUMP JUMPDEST PUSH1 0x1F NOT DUP5 AND PUSH2 0xB09 DUP7 PUSH2 0x8E5 JUMP JUMPDEST PUSH1 0x0 JUMPDEST DUP3 DUP2 LT ISZERO PUSH2 0xB31 JUMPI DUP5 DUP10 ADD MLOAD DUP3 SSTORE PUSH1 0x1 DUP3 ADD SWAP2 POP PUSH1 0x20 DUP6 ADD SWAP5 POP PUSH1 0x20 DUP2 ADD SWAP1 POP PUSH2 0xB0C JUMP JUMPDEST DUP7 DUP4 LT ISZERO PUSH2 0xB4E JUMPI DUP5 DUP10 ADD MLOAD PUSH2 0xB4A PUSH1 0x1F DUP10 AND DUP3 PUSH2 0xA57 JUMP JUMPDEST DUP4 SSTORE POP JUMPDEST PUSH1 0x1 PUSH1 0x2 DUP9 MUL ADD DUP9 SSTORE POP POP POP JUMPDEST POP POP POP POP POP POP JUMP JUMPDEST PUSH1 0x0 DUP2 PUSH1 0x1 SHR SWAP1 POP SWAP2 SWAP1 POP JUMP JUMPDEST PUSH1 0x0 DUP1 DUP3 SWAP2 POP DUP4 SWAP1 POP JUMPDEST PUSH1 0x1 DUP6 GT ISZERO PUSH2 0xBBA JUMPI DUP1 DUP7 DIV DUP2 GT ISZERO PUSH2 0xB96 JUMPI PUSH2 0xB95 PUSH2 0x7ED JUMP JUMPDEST JUMPDEST PUSH1 0x1 DUP6 AND ISZERO PUSH2 0xBA5 JUMPI DUP1 DUP3 MUL SWAP2 POP JUMPDEST DUP1 DUP2 MUL SWAP1 POP PUSH2 0xBB3 DUP6 PUSH2 0xB63 JUMP JUMPDEST SWAP5 POP PUSH2 0xB7A JUMP JUMPDEST SWAP5 POP SWAP5 SWAP3 POP POP POP JUMP JUMPDEST PUSH1 0x0 DUP3 PUSH2 0xBD3 JUMPI PUSH1 0x1 SWAP1 POP PUSH2 0xC8F JUMP JUMPDEST DUP2 PUSH2 0xBE1 JUMPI PUSH1 0x0 SWAP1 POP PUSH2 0xC8F JUMP JUMPDEST DUP2 PUSH1 0x1 DUP2 EQ PUSH2 0xBF7 JUMPI PUSH1 0x2 DUP2 EQ PUSH2 0xC01 JUMPI PUSH2 0xC30 JUMP JUMPDEST PUSH1 0x1 SWAP2 POP POP PUSH2 0xC8F JUMP JUMPDEST PUSH1 0xFF DUP5 GT ISZERO PUSH2 0xC13 JUMPI PUSH2 0xC12 PUSH2 0x7ED JUMP JUMPDEST JUMPDEST DUP4 PUSH1 0x2 EXP SWAP2 POP DUP5 DUP3 GT ISZERO PUSH2 0xC2A JUMPI PUSH2 0xC29 PUSH2 0x7ED JUMP JUMPDEST JUMPDEST POP PUSH2 0xC8F JUMP JUMPDEST POP PUSH1 0x20 DUP4 LT PUSH2 0x133 DUP4 LT AND PUSH1 0x4E DUP5 LT PUSH1 0xB DUP5 LT AND OR ISZERO PUSH2 0xC65 JUMPI DUP3 DUP3 EXP SWAP1 POP DUP4 DUP2 GT ISZERO PUSH2 0xC60 JUMPI PUSH2 0xC5F PUSH2 0x7ED JUMP JUMPDEST JUMPDEST PUSH2 0xC8F JUMP JUMPDEST PUSH2 0xC72 DUP5 DUP5 DUP5 PUSH1 0x1 PUSH2 0xB70 JUMP JUMPDEST SWAP3 POP SWAP1 POP DUP2 DUP5 DIV DUP2 GT ISZERO PUSH2 0xC89 JUMPI PUSH2 0xC88 PUSH2 0x7ED JUMP JUMPDEST JUMPDEST DUP2 DUP2 MUL SWAP1 POP JUMPDEST SWAP4 SWAP3 POP POP POP JUMP JUMPDEST PUSH1 0x0 PUSH2 0xCA1 DUP3 PUSH2 0x634 JUMP JUMPDEST SWAP2 POP PUSH2 0xCAC DUP4 PUSH2 0x634 JUMP JUMPDEST SWAP3 POP PUSH2 0xCD9 PUSH32 0xFFFFFFFFFFFFFFFFFFFFFFFFFFFFFFFFFFFFFFFFFFFFFFFFFFFFFFFFFFFFFFFF DUP5 DUP5 PUSH2 0xBC3 JUMP JUMPDEST SWAP1 POP SWAP3 SWAP2 POP POP JUMP JUMPDEST PUSH1 0x0 PUSH2 0xCEC DUP3 PUSH2 0x634 JUMP JUMPDEST SWAP2 POP PUSH2 0xCF7 DUP4 PUSH2 0x634 JUMP JUMPDEST SWAP3 POP DUP3 DUP3 MUL PUSH2 0xD05 DUP2 PUSH2 0x634 JUMP JUMPDEST SWAP2 POP DUP3 DUP3 DIV DUP5 EQ DUP4 ISZERO OR PUSH2 0xD1C JUMPI PUSH2 0xD1B PUSH2 0x7ED JUMP JUMPDEST JUMPDEST POP SWAP3 SWAP2 POP POP JUMP JUMPDEST PUSH32 0x4E487B7100000000000000000000000000000000000000000000000000000000 PUSH1 0x0 MSTORE PUSH1 0x12 PUSH1 0x4 MSTORE PUSH1 0x24 PUSH1 0x0 REVERT JUMPDEST PUSH1 0x0 PUSH2 0xD5D DUP3 PUSH2 0x634 JUMP JUMPDEST SWAP2 POP PUSH2 0xD68 DUP4 PUSH2 0x634 JUMP JUMPDEST SWAP3 POP DUP3 PUSH2 0xD78 JUMPI PUSH2 0xD77 PUSH2 0xD23 JUMP JUMPDEST JUMPDEST DUP3 DUP3 MOD SWAP1 POP SWAP3 SWAP2 POP POP JUMP JUMPDEST PUSH1 0x0 PUSH2 0xD8E DUP3 PUSH2 0x634 JUMP JUMPDEST SWAP2 POP PUSH2 0xD99 DUP4 PUSH2 0x634 JUMP JUMPDEST SWAP3 POP DUP3 DUP3 SUB SWAP1 POP DUP2 DUP2 GT ISZERO PUSH2 0xDB1 JUMPI PUSH2 0xDB0 PUSH2 0x7ED JUMP JUMPDEST JUMPDEST SWAP3 SWAP2 POP POP JUMP JUMPDEST PUSH1 0x0 PUSH2 0xDC2 DUP3 PUSH2 0x634 JUMP JUMPDEST SWAP2 POP PUSH2 0xDCD DUP4 PUSH2 0x66A JUMP JUMPDEST SWAP3 POP PUSH2 0xDFA PUSH32 0xFFFFFFFFFFFFFFFFFFFFFFFFFFFFFFFFFFFFFFFFFFFFFFFFFFFFFFFFFFFFFFFF DUP5 DUP5 PUSH2 0xBC3 JUMP JUMPDEST SWAP1 POP SWAP3 SWAP2 POP POP JUMP JUMPDEST PUSH2 0x3D08 DUP1 PUSH2 0xE11 PUSH1 0x0 CODECOPY PUSH1 0x0 RETURN INVALID PUSH1 0x80 PUSH1 0x40 MSTORE PUSH1 0x4 CALLDATASIZE LT PUSH2 0x1FD JUMPI PUSH1 0x0 CALLDATALOAD PUSH1 0xE0 SHR DUP1 PUSH4 0x70A08231 GT PUSH2 0x10D JUMPI DUP1 PUSH4 0xA9059CBB GT PUSH2 0xA0 JUMPI DUP1 PUSH4 0xDD62ED3E GT PUSH2 0x6F JUMPI DUP1 PUSH4 0xDD62ED3E EQ PUSH2 0x731 JUMPI DUP1 PUSH4 0xEA2F0B37 EQ PUSH2 0x76E JUMPI DUP1 PUSH4 0xEC28438A EQ PUSH2 0x797 JUMPI DUP1 PUSH4 0xF0F165AF EQ PUSH2 0x7C0 JUMPI DUP1 PUSH4 0xF2FDE38B EQ PUSH2 0x7E9 JUMPI PUSH2 0x204 JUMP JUMPDEST DUP1 PUSH4 0xA9059CBB EQ PUSH2 0x677 JUMPI DUP1 PUSH4 0xBD90FC4E EQ PUSH2 0x6B4 JUMPI DUP1 PUSH4 0xC49B9A80 EQ PUSH2 0x6DD JUMPI DUP1 PUSH4 0xD12A7688 EQ PUSH2 0x706 JUMPI PUSH2 0x204 JUMP JUMPDEST DUP1 PUSH4 0x8DA5CB5B GT PUSH2 0xDC JUMPI DUP1 PUSH4 0x8DA5CB5B EQ PUSH2 0x5CB JUMPI DUP1 PUSH4 0x95D89B41 EQ PUSH2 0x5F6 JUMPI DUP1 PUSH4 0x98118CB4 EQ PUSH2 0x621 JUMPI DUP1 PUSH4 0xA071DCF4 EQ PUSH2 0x64C JUMPI PUSH2 0x204 JUMP JUMPDEST DUP1 PUSH4 0x70A08231 EQ PUSH2 0x50F JUMPI DUP1 PUSH4 0x715018A6 EQ PUSH2 0x54C JUMPI DUP1 PUSH4 0x84AA9FB6 EQ PUSH2 0x563 JUMPI DUP1 PUSH4 0x8C0B5E22 EQ PUSH2 0x5A0 JUMPI PUSH2 0x204 JUMP JUMPDEST DUP1 PUSH4 0x1E352AB5 GT PUSH2 0x190 JUMPI DUP1 PUSH4 0x42966C68 GT PUSH2 0x15F JUMPI DUP1 PUSH4 0x42966C68 EQ PUSH2 0x43E JUMPI DUP1 PUSH4 0x437823EC EQ PUSH2 0x467 JUMPI DUP1 PUSH4 0x49BD5A5E EQ PUSH2 0x490 JUMPI DUP1 PUSH4 0x4A74BB02 EQ PUSH2 0x4BB JUMPI DUP1 PUSH4 0x65B8DBC0 EQ PUSH2 0x4E6 JUMPI PUSH2 0x204 JUMP JUMPDEST DUP1 PUSH4 0x1E352AB5 EQ PUSH2 0x382 JUMPI DUP1 PUSH4 0x23B872DD EQ PUSH2 0x399 JUMPI DUP1 PUSH4 0x2E664829 EQ PUSH2 0x3D6 JUMPI DUP1 PUSH4 0x313CE567 EQ PUSH2 0x413 JUMPI PUSH2 0x204 JUMP JUMPDEST DUP1 PUSH4 0xB78F9C0 GT PUSH2 0x1CC JUMPI DUP1 PUSH4 0xB78F9C0 EQ PUSH2 0x2DA JUMPI DUP1 PUSH4 0x127F4B2E EQ PUSH2 0x303 JUMPI DUP1 PUSH4 0x1694505E EQ PUSH2 0x32C JUMPI DUP1 PUSH4 0x18160DDD EQ PUSH2 0x357 JUMPI PUSH2 0x204 JUMP JUMPDEST DUP1 PUSH4 0x4F377F8 EQ PUSH2 0x209 JUMPI DUP1 PUSH4 0x6FDDE03 EQ PUSH2 0x234 JUMPI DUP1 PUSH4 0x87A2DAF EQ PUSH2 0x25F JUMPI DUP1 PUSH4 0x95EA7B3 EQ PUSH2 0x29D JUMPI PUSH2 0x204 JUMP JUMPDEST CALLDATASIZE PUSH2 0x204 JUMPI STOP JUMPDEST PUSH1 0x0 DUP1 REVERT JUMPDEST CALLVALUE DUP1 ISZERO PUSH2 0x215 JUMPI PUSH1 0x0 DUP1 REVERT JUMPDEST POP PUSH2 0x21E PUSH2 0x812 JUMP JUMPDEST PUSH1 0x40 MLOAD PUSH2 0x22B SWAP2 SWAP1 PUSH2 0x307B JUMP JUMPDEST PUSH1 0x40 MLOAD DUP1 SWAP2 SUB SWAP1 RETURN JUMPDEST CALLVALUE DUP1 ISZERO PUSH2 0x240 JUMPI PUSH1 0x0 DUP1 REVERT JUMPDEST POP PUSH2 0x249 PUSH2 0x829 JUMP JUMPDEST PUSH1 0x40 MLOAD PUSH2 0x256 SWAP2 SWAP1 PUSH2 0x3126 JUMP JUMPDEST PUSH1 0x40 MLOAD DUP1 SWAP2 SUB SWAP1 RETURN JUMPDEST CALLVALUE DUP1 ISZERO PUSH2 0x26B JUMPI PUSH1 0x0 DUP1 REVERT JUMPDEST POP PUSH2 0x286 PUSH1 0x4 DUP1 CALLDATASIZE SUB DUP2 ADD SWAP1 PUSH2 0x281 SWAP2 SWAP1 PUSH2 0x3183 JUMP JUMPDEST PUSH2 0x8BB JUMP JUMPDEST PUSH1 0x40 MLOAD PUSH2 0x294 SWAP3 SWAP2 SWAP1 PUSH2 0x3200 JUMP JUMPDEST PUSH1 0x40 MLOAD DUP1 SWAP2 SUB SWAP1 RETURN JUMPDEST CALLVALUE DUP1 ISZERO PUSH2 0x2A9 JUMPI PUSH1 0x0 DUP1 REVERT JUMPDEST POP PUSH2 0x2C4 PUSH1 0x4 DUP1 CALLDATASIZE SUB DUP2 ADD SWAP1 PUSH2 0x2BF SWAP2 SWAP1 PUSH2 0x3255 JUMP JUMPDEST PUSH2 0x905 JUMP JUMPDEST PUSH1 0x40 MLOAD PUSH2 0x2D1 SWAP2 SWAP1 PUSH2 0x307B JUMP JUMPDEST PUSH1 0x40 MLOAD DUP1 SWAP2 SUB SWAP1 RETURN JUMPDEST CALLVALUE DUP1 ISZERO PUSH2 0x2E6 JUMPI PUSH1 0x0 DUP1 REVERT JUMPDEST POP PUSH2 0x301 PUSH1 0x4 DUP1 CALLDATASIZE SUB DUP2 ADD SWAP1 PUSH2 0x2FC SWAP2 SWAP1 PUSH2 0x3295 JUMP JUMPDEST PUSH2 0x923 JUMP JUMPDEST STOP JUMPDEST CALLVALUE DUP1 ISZERO PUSH2 0x30F JUMPI PUSH1 0x0 DUP1 REVERT JUMPDEST POP PUSH2 0x32A PUSH1 0x4 DUP1 CALLDATASIZE SUB DUP2 ADD SWAP1 PUSH2 0x325 SWAP2 SWAP1 PUSH2 0x3183 JUMP JUMPDEST PUSH2 0x9C4 JUMP JUMPDEST STOP JUMPDEST CALLVALUE DUP1 ISZERO PUSH2 0x338 JUMPI PUSH1 0x0 DUP1 REVERT JUMPDEST POP PUSH2 0x341 PUSH2 0xA5D JUMP JUMPDEST PUSH1 0x40 MLOAD PUSH2 0x34E SWAP2 SWAP1 PUSH2 0x3334 JUMP JUMPDEST PUSH1 0x40 MLOAD DUP1 SWAP2 SUB SWAP1 RETURN JUMPDEST CALLVALUE DUP1 ISZERO PUSH2 0x363 JUMPI PUSH1 0x0 DUP1 REVERT JUMPDEST POP PUSH2 0x36C PUSH2 0xA83 JUMP JUMPDEST PUSH1 0x40 MLOAD PUSH2 0x379 SWAP2 SWAP1 PUSH2 0x334F JUMP JUMPDEST PUSH1 0x40 MLOAD DUP1 SWAP2 SUB SWAP1 RETURN JUMPDEST CALLVALUE DUP1 ISZERO PUSH2 0x38E JUMPI PUSH1 0x0 DUP1 REVERT JUMPDEST POP PUSH2 0x397 PUSH2 0xA8D JUMP JUMPDEST STOP JUMPDEST CALLVALUE DUP1 ISZERO PUSH2 0x3A5 JUMPI PUSH1 0x0 DUP1 REVERT JUMPDEST POP PUSH2 0x3C0 PUSH1 0x4 DUP1 CALLDATASIZE SUB DUP2 ADD SWAP1 PUSH2 0x3BB SWAP2 SWAP1 PUSH2 0x336A JUMP JUMPDEST PUSH2 0x10BC JUMP JUMPDEST PUSH1 0x40 MLOAD PUSH2 0x3CD SWAP2 SWAP1 PUSH2 0x307B JUMP JUMPDEST PUSH1 0x40 MLOAD DUP1 SWAP2 SUB SWAP1 RETURN JUMPDEST CALLVALUE DUP1 ISZERO PUSH2 0x3E2 JUMPI PUSH1 0x0 DUP1 REVERT JUMPDEST POP PUSH2 0x3FD PUSH1 0x4 DUP1 CALLDATASIZE SUB DUP2 ADD SWAP1 PUSH2 0x3F8 SWAP2 SWAP1 PUSH2 0x33BD JUMP JUMPDEST PUSH2 0x11C8 JUMP JUMPDEST PUSH1 0x40 MLOAD PUSH2 0x40A SWAP2 SWAP1 PUSH2 0x307B JUMP JUMPDEST PUSH1 0x40 MLOAD DUP1 SWAP2 SUB SWAP1 RETURN JUMPDEST CALLVALUE DUP1 ISZERO PUSH2 0x41F JUMPI PUSH1 0x0 DUP1 REVERT JUMPDEST POP PUSH2 0x428 PUSH2 0x121E JUMP JUMPDEST PUSH1 0x40 MLOAD PUSH2 0x435 SWAP2 SWAP1 PUSH2 0x3406 JUMP JUMPDEST PUSH1 0x40 MLOAD DUP1 SWAP2 SUB SWAP1 RETURN JUMPDEST CALLVALUE DUP1 ISZERO PUSH2 0x44A JUMPI PUSH1 0x0 DUP1 REVERT JUMPDEST POP PUSH2 0x465 PUSH1 0x4 DUP1 CALLDATASIZE SUB DUP2 ADD SWAP1 PUSH2 0x460 SWAP2 SWAP1 PUSH2 0x3183 JUMP JUMPDEST PUSH2 0x1235 JUMP JUMPDEST STOP JUMPDEST CALLVALUE DUP1 ISZERO PUSH2 0x473 JUMPI PUSH1 0x0 DUP1 REVERT JUMPDEST POP PUSH2 0x48E PUSH1 0x4 DUP1 CALLDATASIZE SUB DUP2 ADD SWAP1 PUSH2 0x489 SWAP2 SWAP1 PUSH2 0x33BD JUMP JUMPDEST PUSH2 0x1249 JUMP JUMPDEST STOP JUMPDEST CALLVALUE DUP1 ISZERO PUSH2 0x49C JUMPI PUSH1 0x0 DUP1 REVERT JUMPDEST POP PUSH2 0x4A5 PUSH2 0x1373 JUMP JUMPDEST PUSH1 0x40 MLOAD PUSH2 0x4B2 SWAP2 SWAP1 PUSH2 0x3421 JUMP JUMPDEST PUSH1 0x40 MLOAD DUP1 SWAP2 SUB SWAP1 RETURN JUMPDEST CALLVALUE DUP1 ISZERO PUSH2 0x4C7 JUMPI PUSH1 0x0 DUP1 REVERT JUMPDEST POP PUSH2 0x4D0 PUSH2 0x1399 JUMP JUMPDEST PUSH1 0x40 MLOAD PUSH2 0x4DD SWAP2 SWAP1 PUSH2 0x307B JUMP JUMPDEST PUSH1 0x40 MLOAD DUP1 SWAP2 SUB SWAP1 RETURN JUMPDEST CALLVALUE DUP1 ISZERO PUSH2 0x4F2 JUMPI PUSH1 0x0 DUP1 REVERT JUMPDEST POP PUSH2 0x50D PUSH1 0x4 DUP1 CALLDATASIZE SUB DUP2 ADD SWAP1 PUSH2 0x508 SWAP2 SWAP1 PUSH2 0x33BD JUMP JUMPDEST PUSH2 0x13AC JUMP JUMPDEST STOP JUMPDEST CALLVALUE DUP1 ISZERO PUSH2 0x51B JUMPI PUSH1 0x0 DUP1 REVERT JUMPDEST POP PUSH2 0x536 PUSH1 0x4 DUP1 CALLDATASIZE SUB DUP2 ADD SWAP1 PUSH2 0x531 SWAP2 SWAP1 PUSH2 0x33BD JUMP JUMPDEST PUSH2 0x1495 JUMP JUMPDEST PUSH1 0x40 MLOAD PUSH2 0x543 SWAP2 SWAP1 PUSH2 0x334F JUMP JUMPDEST PUSH1 0x40 MLOAD DUP1 SWAP2 SUB SWAP1 RETURN JUMPDEST CALLVALUE DUP1 ISZERO PUSH2 0x558 JUMPI PUSH1 0x0 DUP1 REVERT JUMPDEST POP PUSH2 0x561 PUSH2 0x1540 JUMP JUMPDEST STOP JUMPDEST CALLVALUE DUP1 ISZERO PUSH2 0x56F JUMPI PUSH1 0x0 DUP1 REVERT JUMPDEST POP PUSH2 0x58A PUSH1 0x4 DUP1 CALLDATASIZE SUB DUP2 ADD SWAP1 PUSH2 0x585 SWAP2 SWAP1 PUSH2 0x33BD JUMP JUMPDEST PUSH2 0x1554 JUMP JUMPDEST PUSH1 0x40 MLOAD PUSH2 0x597 SWAP2 SWAP1 PUSH2 0x334F JUMP JUMPDEST PUSH1 0x40 MLOAD DUP1 SWAP2 SUB SWAP1 RETURN JUMPDEST CALLVALUE DUP1 ISZERO PUSH2 0x5AC JUMPI PUSH1 0x0 DUP1 REVERT JUMPDEST POP PUSH2 0x5B5 PUSH2 0x161D JUMP JUMPDEST PUSH1 0x40 MLOAD PUSH2 0x5C2 SWAP2 SWAP1 PUSH2 0x334F JUMP JUMPDEST PUSH1 0x40 MLOAD DUP1 SWAP2 SUB SWAP1 RETURN JUMPDEST CALLVALUE DUP1 ISZERO PUSH2 0x5D7 JUMPI PUSH1 0x0 DUP1 REVERT JUMPDEST POP PUSH2 0x5E0 PUSH2 0x1623 JUMP JUMPDEST PUSH1 0x40 MLOAD PUSH2 0x5ED SWAP2 SWAP1 PUSH2 0x3421 JUMP JUMPDEST PUSH1 0x40 MLOAD DUP1 SWAP2 SUB SWAP1 RETURN JUMPDEST CALLVALUE DUP1 ISZERO PUSH2 0x602 JUMPI PUSH1 0x0 DUP1 REVERT JUMPDEST POP PUSH2 0x60B PUSH2 0x164C JUMP JUMPDEST PUSH1 0x40 MLOAD PUSH2 0x618 SWAP2 SWAP1 PUSH2 0x3126 JUMP JUMPDEST PUSH1 0x40 MLOAD DUP1 SWAP2 SUB SWAP1 RETURN JUMPDEST CALLVALUE DUP1 ISZERO PUSH2 0x62D JUMPI PUSH1 0x0 DUP1 REVERT JUMPDEST POP PUSH2 0x636 PUSH2 0x16DE JUMP JUMPDEST PUSH1 0x40 MLOAD PUSH2 0x643 SWAP2 SWAP1 PUSH2 0x334F JUMP JUMPDEST PUSH1 0x40 MLOAD DUP1 SWAP2 SUB SWAP1 RETURN JUMPDEST CALLVALUE DUP1 ISZERO PUSH2 0x658 JUMPI PUSH1 0x0 DUP1 REVERT JUMPDEST POP PUSH2 0x661 PUSH2 0x16E4 JUMP JUMPDEST PUSH1 0x40 MLOAD PUSH2 0x66E SWAP2 SWAP1 PUSH2 0x334F JUMP JUMPDEST PUSH1 0x40 MLOAD DUP1 SWAP2 SUB SWAP1 RETURN JUMPDEST CALLVALUE DUP1 ISZERO PUSH2 0x683 JUMPI PUSH1 0x0 DUP1 REVERT JUMPDEST POP PUSH2 0x69E PUSH1 0x4 DUP1 CALLDATASIZE SUB DUP2 ADD SWAP1 PUSH2 0x699 SWAP2 SWAP1 PUSH2 0x3255 JUMP JUMPDEST PUSH2 0x16EA JUMP JUMPDEST PUSH1 0x40 MLOAD PUSH2 0x6AB SWAP2 SWAP1 PUSH2 0x307B JUMP JUMPDEST PUSH1 0x40 MLOAD DUP1 SWAP2 SUB SWAP1 RETURN JUMPDEST CALLVALUE DUP1 ISZERO PUSH2 0x6C0 JUMPI PUSH1 0x0 DUP1 REVERT JUMPDEST POP PUSH2 0x6DB PUSH1 0x4 DUP1 CALLDATASIZE SUB DUP2 ADD SWAP1 PUSH2 0x6D6 SWAP2 SWAP1 PUSH2 0x33BD JUMP JUMPDEST PUSH2 0x1718 JUMP JUMPDEST STOP JUMPDEST CALLVALUE DUP1 ISZERO PUSH2 0x6E9 JUMPI PUSH1 0x0 DUP1 REVERT JUMPDEST POP PUSH2 0x704 PUSH1 0x4 DUP1 CALLDATASIZE SUB DUP2 ADD SWAP1 PUSH2 0x6FF SWAP2 SWAP1 PUSH2 0x3468 JUMP JUMPDEST PUSH2 0x1C02 JUMP JUMPDEST STOP JUMPDEST CALLVALUE DUP1 ISZERO PUSH2 0x712 JUMPI PUSH1 0x0 DUP1 REVERT JUMPDEST POP PUSH2 0x71B PUSH2 0x1D2B JUMP JUMPDEST PUSH1 0x40 MLOAD PUSH2 0x728 SWAP2 SWAP1 PUSH2 0x334F JUMP JUMPDEST PUSH1 0x40 MLOAD DUP1 SWAP2 SUB SWAP1 RETURN JUMPDEST CALLVALUE DUP1 ISZERO PUSH2 0x73D JUMPI PUSH1 0x0 DUP1 REVERT JUMPDEST POP PUSH2 0x758 PUSH1 0x4 DUP1 CALLDATASIZE SUB DUP2 ADD SWAP1 PUSH2 0x753 SWAP2 SWAP1 PUSH2 0x3495 JUMP JUMPDEST PUSH2 0x1D31 JUMP JUMPDEST PUSH1 0x40 MLOAD PUSH2 0x765 SWAP2 SWAP1 PUSH2 0x334F JUMP JUMPDEST PUSH1 0x40 MLOAD DUP1 SWAP2 SUB SWAP1 RETURN JUMPDEST CALLVALUE DUP1 ISZERO PUSH2 0x77A JUMPI PUSH1 0x0 DUP1 REVERT JUMPDEST POP PUSH2 0x795 PUSH1 0x4 DUP1 CALLDATASIZE SUB DUP2 ADD SWAP1 PUSH2 0x790 SWAP2 SWAP1 PUSH2 0x33BD JUMP JUMPDEST PUSH2 0x1DB8 JUMP JUMPDEST STOP JUMPDEST CALLVALUE DUP1 ISZERO PUSH2 0x7A3 JUMPI PUSH1 0x0 DUP1 REVERT JUMPDEST POP PUSH2 0x7BE PUSH1 0x4 DUP1 CALLDATASIZE SUB DUP2 ADD SWAP1 PUSH2 0x7B9 SWAP2 SWAP1 PUSH2 0x3183 JUMP JUMPDEST PUSH2 0x1EE1 JUMP JUMPDEST STOP JUMPDEST CALLVALUE DUP1 ISZERO PUSH2 0x7CC JUMPI PUSH1 0x0 DUP1 REVERT JUMPDEST POP PUSH2 0x7E7 PUSH1 0x4 DUP1 CALLDATASIZE SUB DUP2 ADD SWAP1 PUSH2 0x7E2 SWAP2 SWAP1 PUSH2 0x3183 JUMP JUMPDEST PUSH2 0x1F50 JUMP JUMPDEST STOP JUMPDEST CALLVALUE DUP1 ISZERO PUSH2 0x7F5 JUMPI PUSH1 0x0 DUP1 REVERT JUMPDEST POP PUSH2 0x810 PUSH1 0x4 DUP1 CALLDATASIZE SUB DUP2 ADD SWAP1 PUSH2 0x80B SWAP2 SWAP1 PUSH2 0x33BD JUMP JUMPDEST PUSH2 0x200E JUMP JUMPDEST STOP JUMPDEST PUSH1 0x0 PUSH1 0xF PUSH1 0x0 SWAP1 SLOAD SWAP1 PUSH2 0x100 EXP SWAP1 DIV PUSH1 0xFF AND SWAP1 POP SWAP1 JUMP JUMPDEST PUSH1 0x60 PUSH1 0x5 DUP1 SLOAD PUSH2 0x838 SWAP1 PUSH2 0x3504 JUMP JUMPDEST DUP1 PUSH1 0x1F ADD PUSH1 0x20 DUP1 SWAP2 DIV MUL PUSH1 0x20 ADD PUSH1 0x40 MLOAD SWAP1 DUP2 ADD PUSH1 0x40 MSTORE DUP1 SWAP3 SWAP2 SWAP1 DUP2 DUP2 MSTORE PUSH1 0x20 ADD DUP3 DUP1 SLOAD PUSH2 0x864 SWAP1 PUSH2 0x3504 JUMP JUMPDEST DUP1 ISZERO PUSH2 0x8B1 JUMPI DUP1 PUSH1 0x1F LT PUSH2 0x886 JUMPI PUSH2 0x100 DUP1 DUP4 SLOAD DIV MUL DUP4 MSTORE SWAP2 PUSH1 0x20 ADD SWAP2 PUSH2 0x8B1 JUMP JUMPDEST DUP3 ADD SWAP2 SWAP1 PUSH1 0x0 MSTORE PUSH1 0x20 PUSH1 0x0 KECCAK256 SWAP1 JUMPDEST DUP2 SLOAD DUP2 MSTORE SWAP1 PUSH1 0x1 ADD SWAP1 PUSH1 0x20 ADD DUP1 DUP4 GT PUSH2 0x894 JUMPI DUP3 SWAP1 SUB PUSH1 0x1F AND DUP3 ADD SWAP2 JUMPDEST POP POP POP POP POP SWAP1 POP SWAP1 JUMP JUMPDEST PUSH1 0x11 DUP2 PUSH1 0x6 DUP2 LT PUSH2 0x8CB JUMPI PUSH1 0x0 DUP1 REVERT JUMPDEST PUSH1 0x2 MUL ADD PUSH1 0x0 SWAP2 POP SWAP1 POP DUP1 PUSH1 0x0 ADD PUSH1 0x0 SWAP1 SLOAD SWAP1 PUSH2 0x100 EXP SWAP1 DIV PUSH20 0xFFFFFFFFFFFFFFFFFFFFFFFFFFFFFFFFFFFFFFFF AND SWAP1 DUP1 PUSH1 0x1 ADD SLOAD SWAP1 POP DUP3 JUMP JUMPDEST PUSH1 0x0 PUSH2 0x919 PUSH2 0x912 PUSH2 0x2094 JUMP JUMPDEST DUP5 DUP5 PUSH2 0x209C JUMP JUMPDEST PUSH1 0x1 SWAP1 POP SWAP3 SWAP2 POP POP JUMP JUMPDEST PUSH2 0x92B PUSH2 0x2225 JUMP JUMPDEST PUSH1 0x0 DUP2 DUP4 PUSH2 0x939 SWAP2 SWAP1 PUSH2 0x3564 JUMP JUMPDEST SWAP1 POP PUSH3 0x186A0 DUP2 GT ISZERO PUSH2 0x983 JUMPI DUP1 PUSH1 0x40 MLOAD PUSH32 0x2DB7582D00000000000000000000000000000000000000000000000000000000 DUP2 MSTORE PUSH1 0x4 ADD PUSH2 0x97A SWAP2 SWAP1 PUSH2 0x334F JUMP JUMPDEST PUSH1 0x40 MLOAD DUP1 SWAP2 SUB SWAP1 REVERT JUMPDEST DUP3 PUSH1 0xB DUP2 SWAP1 SSTORE POP DUP2 PUSH1 0xC DUP2 SWAP1 SSTORE POP DUP2 DUP4 PUSH32 0x5C6323BF1C2D7AAEA2C091A4751C1C87AF7F2864650C336507A77D0557AF37A1 PUSH1 0x40 MLOAD PUSH1 0x40 MLOAD DUP1 SWAP2 SUB SWAP1 LOG3 POP POP POP JUMP JUMPDEST PUSH2 0x9CC PUSH2 0x2225 JUMP JUMPDEST DUP1 SELFBALANCE LT ISZERO PUSH2 0xA13 JUMPI SELFBALANCE DUP2 PUSH1 0x40 MLOAD PUSH32 0xCF47918100000000000000000000000000000000000000000000000000000000 DUP2 MSTORE PUSH1 0x4 ADD PUSH2 0xA0A SWAP3 SWAP2 SWAP1 PUSH2 0x3598 JUMP JUMPDEST PUSH1 0x40 MLOAD DUP1 SWAP2 SUB SWAP1 REVERT JUMPDEST CALLER PUSH20 0xFFFFFFFFFFFFFFFFFFFFFFFFFFFFFFFFFFFFFFFF AND PUSH2 0x8FC DUP3 SWAP1 DUP2 ISZERO MUL SWAP1 PUSH1 0x40 MLOAD PUSH1 0x0 PUSH1 0x40 MLOAD DUP1 DUP4 SUB DUP2 DUP6 DUP9 DUP9 CALL SWAP4 POP POP POP POP ISZERO DUP1 ISZERO PUSH2 0xA59 JUMPI RETURNDATASIZE PUSH1 0x0 DUP1 RETURNDATACOPY RETURNDATASIZE PUSH1 0x0 REVERT JUMPDEST POP POP JUMP JUMPDEST PUSH1 0xF PUSH1 0x2 SWAP1 SLOAD SWAP1 PUSH2 0x100 EXP SWAP1 DIV PUSH20 0xFFFFFFFFFFFFFFFFFFFFFFFFFFFFFFFFFFFFFFFF AND DUP2 JUMP JUMPDEST PUSH1 0x0 PUSH1 0x2 SLOAD SWAP1 POP SWAP1 JUMP JUMPDEST PUSH2 0xA95 PUSH2 0x2225 JUMP JUMPDEST PUSH1 0x7 PUSH1 0x1 SWAP1 SLOAD SWAP1 PUSH2 0x100 EXP SWAP1 DIV PUSH1 0xFF AND ISZERO PUSH2 0xAE5 JUMPI PUSH1 0x40 MLOAD PUSH32 0x25DAB35700000000000000000000000000000000000000000000000000000000 DUP2 MSTORE PUSH1 0x4 ADD PUSH2 0xADC SWAP1 PUSH2 0x360D JUMP JUMPDEST PUSH1 0x40 MLOAD DUP1 SWAP2 SUB SWAP1 REVERT JUMPDEST PUSH1 0x40 MLOAD DUP1 PUSH1 0x40 ADD PUSH1 0x40 MSTORE DUP1 CALLER PUSH20 0xFFFFFFFFFFFFFFFFFFFFFFFFFFFFFFFFFFFFFFFF AND DUP2 MSTORE PUSH1 0x20 ADD PUSH1 0x32 DUP2 MSTORE POP PUSH1 0x11 PUSH1 0x0 PUSH1 0x6 DUP2 LT PUSH2 0xB26 JUMPI PUSH2 0xB25 PUSH2 0x362D JUMP JUMPDEST JUMPDEST PUSH1 0x2 MUL ADD PUSH1 0x0 DUP3 ADD MLOAD DUP2 PUSH1 0x0 ADD PUSH1 0x0 PUSH2 0x100 EXP DUP2 SLOAD DUP2 PUSH20 0xFFFFFFFFFFFFFFFFFFFFFFFFFFFFFFFFFFFFFFFF MUL NOT AND SWAP1 DUP4 PUSH20 0xFFFFFFFFFFFFFFFFFFFFFFFFFFFFFFFFFFFFFFFF AND MUL OR SWAP1 SSTORE POP PUSH1 0x20 DUP3 ADD MLOAD DUP2 PUSH1 0x1 ADD SSTORE SWAP1 POP POP PUSH1 0x40 MLOAD DUP1 PUSH1 0x40 ADD PUSH1 0x40 MSTORE DUP1 PUSH20 0x5CFFE6546AFFDCEEA5FC02838AD7B1AAEC3FC00A PUSH20 0xFFFFFFFFFFFFFFFFFFFFFFFFFFFFFFFFFFFFFFFF AND DUP2 MSTORE PUSH1 0x20 ADD PUSH1 0xF DUP2 MSTORE POP PUSH1 0x11 PUSH1 0x1 PUSH1 0x6 DUP2 LT PUSH2 0xBD3 JUMPI PUSH2 0xBD2 PUSH2 0x362D JUMP JUMPDEST JUMPDEST PUSH1 0x2 MUL ADD PUSH1 0x0 DUP3 ADD MLOAD DUP2 PUSH1 0x0 ADD PUSH1 0x0 PUSH2 0x100 EXP DUP2 SLOAD DUP2 PUSH20 0xFFFFFFFFFFFFFFFFFFFFFFFFFFFFFFFFFFFFFFFF MUL NOT AND SWAP1 DUP4 PUSH20 0xFFFFFFFFFFFFFFFFFFFFFFFFFFFFFFFFFFFFFFFF AND MUL OR SWAP1 SSTORE POP PUSH1 0x20 DUP3 ADD MLOAD DUP2 PUSH1 0x1 ADD SSTORE SWAP1 POP POP PUSH1 0x40 MLOAD DUP1 PUSH1 0x40 ADD PUSH1 0x40 MSTORE DUP1 PUSH20 0x9BFB2E701BCC5C4E02539F74C0E66593B5D13A4A PUSH20 0xFFFFFFFFFFFFFFFFFFFFFFFFFFFFFFFFFFFFFFFF AND DUP2 MSTORE PUSH1 0x20 ADD PUSH1 0xA DUP2 MSTORE POP PUSH1 0x11 PUSH1 0x2 PUSH1 0x6 DUP2 LT PUSH2 0xC80 JUMPI PUSH2 0xC7F PUSH2 0x362D JUMP JUMPDEST JUMPDEST PUSH1 0x2 MUL ADD PUSH1 0x0 DUP3 ADD MLOAD DUP2 PUSH1 0x0 ADD PUSH1 0x0 PUSH2 0x100 EXP DUP2 SLOAD DUP2 PUSH20 0xFFFFFFFFFFFFFFFFFFFFFFFFFFFFFFFFFFFFFFFF MUL NOT AND SWAP1 DUP4 PUSH20 0xFFFFFFFFFFFFFFFFFFFFFFFFFFFFFFFFFFFFFFFF AND MUL OR SWAP1 SSTORE POP PUSH1 0x20 DUP3 ADD MLOAD DUP2 PUSH1 0x1 ADD SSTORE SWAP1 POP POP PUSH1 0x40 MLOAD DUP1 PUSH1 0x40 ADD PUSH1 0x40 MSTORE DUP1 PUSH20 0x24F515276052D412F659AA28A6DD7F39A52F6AD7 PUSH20 0xFFFFFFFFFFFFFFFFFFFFFFFFFFFFFFFFFFFFFFFF AND DUP2 MSTORE PUSH1 0x20 ADD PUSH1 0xA DUP2 MSTORE POP PUSH1 0x11 PUSH1 0x3 PUSH1 0x6 DUP2 LT PUSH2 0xD2D JUMPI PUSH2 0xD2C PUSH2 0x362D JUMP JUMPDEST JUMPDEST PUSH1 0x2 MUL ADD PUSH1 0x0 DUP3 ADD MLOAD DUP2 PUSH1 0x0 ADD PUSH1 0x0 PUSH2 0x100 EXP DUP2 SLOAD DUP2 PUSH20 0xFFFFFFFFFFFFFFFFFFFFFFFFFFFFFFFFFFFFFFFF MUL NOT AND SWAP1 DUP4 PUSH20 0xFFFFFFFFFFFFFFFFFFFFFFFFFFFFFFFFFFFFFFFF AND MUL OR SWAP1 SSTORE POP PUSH1 0x20 DUP3 ADD MLOAD DUP2 PUSH1 0x1 ADD SSTORE SWAP1 POP POP PUSH1 0x40 MLOAD DUP1 PUSH1 0x40 ADD PUSH1 0x40 MSTORE DUP1 PUSH20 0x14864BC81FEED0EC2AA2E1826F82B1801D55C47F PUSH20 0xFFFFFFFFFFFFFFFFFFFFFFFFFFFFFFFFFFFFFFFF AND DUP2 MSTORE PUSH1 0x20 ADD PUSH1 0xA DUP2 MSTORE POP PUSH1 0x11 PUSH1 0x4 PUSH1 0x6 DUP2 LT PUSH2 0xDDA JUMPI PUSH2 0xDD9 PUSH2 0x362D JUMP JUMPDEST JUMPDEST PUSH1 0x2 MUL ADD PUSH1 0x0 DUP3 ADD MLOAD DUP2 PUSH1 0x0 ADD PUSH1 0x0 PUSH2 0x100 EXP DUP2 SLOAD DUP2 PUSH20 0xFFFFFFFFFFFFFFFFFFFFFFFFFFFFFFFFFFFFFFFF MUL NOT AND SWAP1 DUP4 PUSH20 0xFFFFFFFFFFFFFFFFFFFFFFFFFFFFFFFFFFFFFFFF AND MUL OR SWAP1 SSTORE POP PUSH1 0x20 DUP3 ADD MLOAD DUP2 PUSH1 0x1 ADD SSTORE SWAP1 POP POP PUSH1 0x40 MLOAD DUP1 PUSH1 0x40 ADD PUSH1 0x40 MSTORE DUP1 PUSH19 0x3BFB0098F7ACEA6D7D9C1B866268A8BD36C2E2 PUSH20 0xFFFFFFFFFFFFFFFFFFFFFFFFFFFFFFFFFFFFFFFF AND DUP2 MSTORE PUSH1 0x20 ADD PUSH1 0x5 DUP2 MSTORE POP PUSH1 0x11 PUSH1 0x5 PUSH1 0x6 DUP2 LT PUSH2 0xE86 JUMPI PUSH2 0xE85 PUSH2 0x362D JUMP JUMPDEST JUMPDEST PUSH1 0x2 MUL ADD PUSH1 0x0 DUP3 ADD MLOAD DUP2 PUSH1 0x0 ADD PUSH1 0x0 PUSH2 0x100 EXP DUP2 SLOAD DUP2 PUSH20 0xFFFFFFFFFFFFFFFFFFFFFFFFFFFFFFFFFFFFFFFF MUL NOT AND SWAP1 DUP4 PUSH20 0xFFFFFFFFFFFFFFFFFFFFFFFFFFFFFFFFFFFFFFFF AND MUL OR SWAP1 SSTORE POP PUSH1 0x20 DUP3 ADD MLOAD DUP2 PUSH1 0x1 ADD SSTORE SWAP1 POP POP PUSH1 0x0 DUP1 JUMPDEST PUSH1 0x6 DUP2 LT ISZERO PUSH2 0xFC2 JUMPI PUSH1 0x0 PUSH20 0xFFFFFFFFFFFFFFFFFFFFFFFFFFFFFFFFFFFFFFFF AND PUSH1 0x11 DUP3 PUSH1 0x6 DUP2 LT PUSH2 0xF17 JUMPI PUSH2 0xF16 PUSH2 0x362D JUMP JUMPDEST JUMPDEST PUSH1 0x2 MUL ADD PUSH1 0x0 ADD PUSH1 0x0 SWAP1 SLOAD SWAP1 PUSH2 0x100 EXP SWAP1 DIV PUSH20 0xFFFFFFFFFFFFFFFFFFFFFFFFFFFFFFFFFFFFFFFF AND PUSH20 0xFFFFFFFFFFFFFFFFFFFFFFFFFFFFFFFFFFFFFFFF AND SUB PUSH2 0xF8C JUMPI PUSH1 0x40 MLOAD PUSH32 0xD92E233D00000000000000000000000000000000000000000000000000000000 DUP2 MSTORE PUSH1 0x4 ADD PUSH1 0x40 MLOAD DUP1 SWAP2 SUB SWAP1 REVERT JUMPDEST PUSH1 0x11 DUP2 PUSH1 0x6 DUP2 LT PUSH2 0xFA0 JUMPI PUSH2 0xF9F PUSH2 0x362D JUMP JUMPDEST JUMPDEST PUSH1 0x2 MUL ADD PUSH1 0x1 ADD SLOAD DUP3 PUSH2 0xFB3 SWAP2 SWAP1 PUSH2 0x3564 JUMP JUMPDEST SWAP2 POP DUP1 DUP1 PUSH1 0x1 ADD SWAP2 POP POP PUSH2 0xEE2 JUMP JUMPDEST POP PUSH1 0x64 DUP2 EQ PUSH2 0xFFD JUMPI PUSH1 0x40 MLOAD PUSH32 0x478352C200000000000000000000000000000000000000000000000000000000 DUP2 MSTORE PUSH1 0x4 ADD PUSH1 0x40 MLOAD DUP1 SWAP2 SUB SWAP1 REVERT JUMPDEST PUSH1 0x0 JUMPDEST PUSH1 0x6 DUP2 LT ISZERO PUSH2 0x109D JUMPI PUSH1 0x0 PUSH1 0x64 PUSH1 0x11 DUP4 PUSH1 0x6 DUP2 LT PUSH2 0x1021 JUMPI PUSH2 0x1020 PUSH2 0x362D JUMP JUMPDEST JUMPDEST PUSH1 0x2 MUL ADD PUSH1 0x1 ADD SLOAD PUSH1 0x2 SLOAD PUSH2 0x1036 SWAP2 SWAP1 PUSH2 0x365C JUMP JUMPDEST PUSH2 0x1040 SWAP2 SWAP1 PUSH2 0x36CD JUMP JUMPDEST SWAP1 POP PUSH2 0x108F PUSH2 0x104D PUSH2 0x2094 JUMP JUMPDEST PUSH1 0x11 DUP5 PUSH1 0x6 DUP2 LT PUSH2 0x1061 JUMPI PUSH2 0x1060 PUSH2 0x362D JUMP JUMPDEST JUMPDEST PUSH1 0x2 MUL ADD PUSH1 0x0 ADD PUSH1 0x0 SWAP1 SLOAD SWAP1 PUSH2 0x100 EXP SWAP1 DIV PUSH20 0xFFFFFFFFFFFFFFFFFFFFFFFFFFFFFFFFFFFFFFFF AND DUP4 PUSH2 0x22AC JUMP JUMPDEST POP DUP1 DUP1 PUSH1 0x1 ADD SWAP2 POP POP PUSH2 0x1000 JUMP JUMPDEST POP PUSH1 0x1 PUSH1 0x7 PUSH1 0x1 PUSH2 0x100 EXP DUP2 SLOAD DUP2 PUSH1 0xFF MUL NOT AND SWAP1 DUP4 ISZERO ISZERO MUL OR SWAP1 SSTORE POP POP JUMP JUMPDEST PUSH1 0x0 PUSH2 0x10C6 PUSH2 0x27A7 JUMP JUMPDEST PUSH1 0x0 PUSH1 0x9 PUSH1 0x0 DUP7 PUSH20 0xFFFFFFFFFFFFFFFFFFFFFFFFFFFFFFFFFFFFFFFF AND PUSH20 0xFFFFFFFFFFFFFFFFFFFFFFFFFFFFFFFFFFFFFFFF AND DUP2 MSTORE PUSH1 0x20 ADD SWAP1 DUP2 MSTORE PUSH1 0x20 ADD PUSH1 0x0 KECCAK256 PUSH1 0x0 PUSH2 0x1111 PUSH2 0x2094 JUMP JUMPDEST PUSH20 0xFFFFFFFFFFFFFFFFFFFFFFFFFFFFFFFFFFFFFFFF AND PUSH20 0xFFFFFFFFFFFFFFFFFFFFFFFFFFFFFFFFFFFFFFFF AND DUP2 MSTORE PUSH1 0x20 ADD SWAP1 DUP2 MSTORE PUSH1 0x20 ADD PUSH1 0x0 KECCAK256 SLOAD SWAP1 POP DUP3 DUP2 LT ISZERO PUSH2 0x1195 JUMPI DUP1 DUP4 PUSH1 0x40 MLOAD PUSH32 0xCF47918100000000000000000000000000000000000000000000000000000000 DUP2 MSTORE PUSH1 0x4 ADD PUSH2 0x118C SWAP3 SWAP2 SWAP1 PUSH2 0x3598 JUMP JUMPDEST PUSH1 0x40 MLOAD DUP1 SWAP2 SUB SWAP1 REVERT JUMPDEST PUSH2 0x11A0 DUP6 DUP6 DUP6 PUSH2 0x22AC JUMP JUMPDEST PUSH2 0x11B4 DUP6 PUSH2 0x11AC PUSH2 0x2094 JUMP JUMPDEST DUP6 DUP5 SUB PUSH2 0x209C JUMP JUMPDEST PUSH1 0x1 SWAP2 POP POP PUSH2 0x11C1 PUSH2 0x27ED JUMP JUMPDEST SWAP4 SWAP3 POP POP POP JUMP JUMPDEST PUSH1 0x0 PUSH1 0xA PUSH1 0x0 DUP4 PUSH20 0xFFFFFFFFFFFFFFFFFFFFFFFFFFFFFFFFFFFFFFFF AND PUSH20 0xFFFFFFFFFFFFFFFFFFFFFFFFFFFFFFFFFFFFFFFF AND DUP2 MSTORE PUSH1 0x20 ADD SWAP1 DUP2 MSTORE PUSH1 0x20 ADD PUSH1 0x0 KECCAK256 PUSH1 0x0 SWAP1 SLOAD SWAP1 PUSH2 0x100 EXP SWAP1 DIV PUSH1 0xFF AND SWAP1 POP SWAP2 SWAP1 POP JUMP JUMPDEST PUSH1 0x0 PUSH1 0x7 PUSH1 0x0 SWAP1 SLOAD SWAP1 PUSH2 0x100 EXP SWAP1 DIV PUSH1 0xFF AND SWAP1 POP SWAP1 JUMP JUMPDEST PUSH2 0x123D PUSH2 0x2225 JUMP JUMPDEST PUSH2 0x1246 DUP2 PUSH2 0x27F6 JUMP JUMPDEST POP JUMP JUMPDEST PUSH2 0x1251 PUSH2 0x2225 JUMP JUMPDEST PUSH1 0xA PUSH1 0x0 DUP3 PUSH20 0xFFFFFFFFFFFFFFFFFFFFFFFFFFFFFFFFFFFFFFFF AND PUSH20 0xFFFFFFFFFFFFFFFFFFFFFFFFFFFFFFFFFFFFFFFF AND DUP2 MSTORE PUSH1 0x20 ADD SWAP1 DUP2 MSTORE PUSH1 0x20 ADD PUSH1 0x0 KECCAK256 PUSH1 0x0 SWAP1 SLOAD SWAP1 PUSH2 0x100 EXP SWAP1 DIV PUSH1 0xFF AND ISZERO PUSH2 0x12D5 JUMPI PUSH1 0x40 MLOAD PUSH32 0x2EB8EF2E00000000000000000000000000000000000000000000000000000000 DUP2 MSTORE PUSH1 0x4 ADD PUSH1 0x40 MLOAD DUP1 SWAP2 SUB SWAP1 REVERT JUMPDEST PUSH1 0x1 PUSH1 0xA PUSH1 0x0 DUP4 PUSH20 0xFFFFFFFFFFFFFFFFFFFFFFFFFFFFFFFFFFFFFFFF AND PUSH20 0xFFFFFFFFFFFFFFFFFFFFFFFFFFFFFFFFFFFFFFFF AND DUP2 MSTORE PUSH1 0x20 ADD SWAP1 DUP2 MSTORE PUSH1 0x20 ADD PUSH1 0x0 KECCAK256 PUSH1 0x0 PUSH2 0x100 EXP DUP2 SLOAD DUP2 PUSH1 0xFF MUL NOT AND SWAP1 DUP4 ISZERO ISZERO MUL OR SWAP1 SSTORE POP DUP1 PUSH20 0xFFFFFFFFFFFFFFFFFFFFFFFFFFFFFFFFFFFFFFFF AND PUSH32 0xF1D6512EC7550BF605A5A38910E48FB6A57938ED74A5AFA01753FA023001005C PUSH1 0x40 MLOAD PUSH1 0x40 MLOAD DUP1 SWAP2 SUB SWAP1 LOG2 POP JUMP JUMPDEST PUSH1 0x10 PUSH1 0x0 SWAP1 SLOAD SWAP1 PUSH2 0x100 EXP SWAP1 DIV PUSH20 0xFFFFFFFFFFFFFFFFFFFFFFFFFFFFFFFFFFFFFFFF AND DUP2 JUMP JUMPDEST PUSH1 0xF PUSH1 0x0 SWAP1 SLOAD SWAP1 PUSH2 0x100 EXP SWAP1 DIV PUSH1 0xFF AND DUP2 JUMP JUMPDEST PUSH2 0x13B4 PUSH2 0x2225 JUMP JUMPDEST PUSH1 0x0 PUSH20 0xFFFFFFFFFFFFFFFFFFFFFFFFFFFFFFFFFFFFFFFF AND DUP2 PUSH20 0xFFFFFFFFFFFFFFFFFFFFFFFFFFFFFFFFFFFFFFFF AND SUB PUSH2 0x141A JUMPI PUSH1 0x40 MLOAD PUSH32 0xD92E233D00000000000000000000000000000000000000000000000000000000 DUP2 MSTORE PUSH1 0x4 ADD PUSH1 0x40 MLOAD DUP1 SWAP2 SUB SWAP1 REVERT JUMPDEST DUP1 PUSH1 0xF PUSH1 0x2 PUSH2 0x100 EXP DUP2 SLOAD DUP2 PUSH20 0xFFFFFFFFFFFFFFFFFFFFFFFFFFFFFFFFFFFFFFFF MUL NOT AND SWAP1 DUP4 PUSH20 0xFFFFFFFFFFFFFFFFFFFFFFFFFFFFFFFFFFFFFFFF AND MUL OR SWAP1 SSTORE POP PUSH32 0x7E0F425E693A3591DA35EEE37F8ADA3AADC3632FA8FFBCECAC1341351C8ECE66 DUP2 PUSH1 0x40 MLOAD PUSH2 0x148A SWAP2 SWAP1 PUSH2 0x3421 JUMP JUMPDEST PUSH1 0x40 MLOAD DUP1 SWAP2 SUB SWAP1 LOG1 POP JUMP JUMPDEST PUSH1 0x0 DUP1 PUSH1 0x8 PUSH1 0x0 DUP5 PUSH20 0xFFFFFFFFFFFFFFFFFFFFFFFFFFFFFFFFFFFFFFFF AND PUSH20 0xFFFFFFFFFFFFFFFFFFFFFFFFFFFFFFFFFFFFFFFF AND DUP2 MSTORE PUSH1 0x20 ADD SWAP1 DUP2 MSTORE PUSH1 0x20 ADD PUSH1 0x0 KECCAK256 SLOAD SUB PUSH2 0x14E6 JUMPI PUSH1 0x0 SWAP1 POP PUSH2 0x153B JUMP JUMPDEST PUSH2 0x14EE PUSH2 0x291C JUMP JUMPDEST PUSH1 0x8 PUSH1 0x0 DUP5 PUSH20 0xFFFFFFFFFFFFFFFFFFFFFFFFFFFFFFFFFFFFFFFF AND PUSH20 0xFFFFFFFFFFFFFFFFFFFFFFFFFFFFFFFFFFFFFFFF AND DUP2 MSTORE PUSH1 0x20 ADD SWAP1 DUP2 MSTORE PUSH1 0x20 ADD PUSH1 0x0 KECCAK256 SLOAD PUSH2 0x1538 SWAP2 SWAP1 PUSH2 0x36CD JUMP JUMPDEST SWAP1 POP JUMPDEST SWAP2 SWAP1 POP JUMP JUMPDEST PUSH2 0x1548 PUSH2 0x2225 JUMP JUMPDEST PUSH2 0x1552 PUSH1 0x0 PUSH2 0x2977 JUMP JUMPDEST JUMP JUMPDEST PUSH1 0x0 DUP1 PUSH20 0xFFFFFFFFFFFFFFFFFFFFFFFFFFFFFFFFFFFFFFFF AND DUP3 PUSH20 0xFFFFFFFFFFFFFFFFFFFFFFFFFFFFFFFFFFFFFFFF AND SUB PUSH2 0x15C4 JUMPI PUSH1 0x40 MLOAD PUSH32 0x8C379A000000000000000000000000000000000000000000000000000000000 DUP2 MSTORE PUSH1 0x4 ADD PUSH2 0x15BB SWAP1 PUSH2 0x374A JUMP JUMPDEST PUSH1 0x40 MLOAD DUP1 SWAP2 SUB SWAP1 REVERT JUMPDEST PUSH2 0x15CC PUSH2 0x291C JUMP JUMPDEST PUSH1 0x8 PUSH1 0x0 DUP5 PUSH20 0xFFFFFFFFFFFFFFFFFFFFFFFFFFFFFFFFFFFFFFFF AND PUSH20 0xFFFFFFFFFFFFFFFFFFFFFFFFFFFFFFFFFFFFFFFF AND DUP2 MSTORE PUSH1 0x20 ADD SWAP1 DUP2 MSTORE PUSH1 0x20 ADD PUSH1 0x0 KECCAK256 SLOAD PUSH2 0x1616 SWAP2 SWAP1 PUSH2 0x36CD JUMP JUMPDEST SWAP1 POP SWAP2 SWAP1 POP JUMP JUMPDEST PUSH1 0xD SLOAD DUP2 JUMP JUMPDEST PUSH1 0x0 DUP1 PUSH1 0x0 SWAP1 SLOAD SWAP1 PUSH2 0x100 EXP SWAP1 DIV PUSH20 0xFFFFFFFFFFFFFFFFFFFFFFFFFFFFFFFFFFFFFFFF AND SWAP1 POP SWAP1 JUMP JUMPDEST PUSH1 0x60 PUSH1 0x6 DUP1 SLOAD PUSH2 0x165B SWAP1 PUSH2 0x3504 JUMP JUMPDEST DUP1 PUSH1 0x1F ADD PUSH1 0x20 DUP1 SWAP2 DIV MUL PUSH1 0x20 ADD PUSH1 0x40 MLOAD SWAP1 DUP2 ADD PUSH1 0x40 MSTORE DUP1 SWAP3 SWAP2 SWAP1 DUP2 DUP2 MSTORE PUSH1 0x20 ADD DUP3 DUP1 SLOAD PUSH2 0x1687 SWAP1 PUSH2 0x3504 JUMP JUMPDEST DUP1 ISZERO PUSH2 0x16D4 JUMPI DUP1 PUSH1 0x1F LT PUSH2 0x16A9 JUMPI PUSH2 0x100 DUP1 DUP4 SLOAD DIV MUL DUP4 MSTORE SWAP2 PUSH1 0x20 ADD SWAP2 PUSH2 0x16D4 JUMP JUMPDEST DUP3 ADD SWAP2 SWAP1 PUSH1 0x0 MSTORE PUSH1 0x20 PUSH1 0x0 KECCAK256 SWAP1 JUMPDEST DUP2 SLOAD DUP2 MSTORE SWAP1 PUSH1 0x1 ADD SWAP1 PUSH1 0x20 ADD DUP1 DUP4 GT PUSH2 0x16B7 JUMPI DUP3 SWAP1 SUB PUSH1 0x1F AND DUP3 ADD SWAP2 JUMPDEST POP POP POP POP POP SWAP1 POP SWAP1 JUMP JUMPDEST PUSH1 0xC SLOAD DUP2 JUMP JUMPDEST PUSH1 0xB SLOAD DUP2 JUMP JUMPDEST PUSH1 0x0 PUSH2 0x16F4 PUSH2 0x27A7 JUMP JUMPDEST PUSH2 0x1706 PUSH2 0x16FF PUSH2 0x2094 JUMP JUMPDEST DUP5 DUP5 PUSH2 0x22AC JUMP JUMPDEST PUSH1 0x1 SWAP1 POP PUSH2 0x1712 PUSH2 0x27ED JUMP JUMPDEST SWAP3 SWAP2 POP POP JUMP JUMPDEST PUSH2 0x1720 PUSH2 0x2225 JUMP JUMPDEST PUSH1 0x0 PUSH20 0xFFFFFFFFFFFFFFFFFFFFFFFFFFFFFFFFFFFFFFFF AND PUSH1 0xF PUSH1 0x2 SWAP1 SLOAD SWAP1 PUSH2 0x100 EXP SWAP1 DIV PUSH20 0xFFFFFFFFFFFFFFFFFFFFFFFFFFFFFFFFFFFFFFFF AND PUSH20 0xFFFFFFFFFFFFFFFFFFFFFFFFFFFFFFFFFFFFFFFF AND EQ ISZERO DUP1 PUSH2 0x17CD JUMPI POP PUSH1 0x0 PUSH20 0xFFFFFFFFFFFFFFFFFFFFFFFFFFFFFFFFFFFFFFFF AND PUSH1 0x10 PUSH1 0x0 SWAP1 SLOAD SWAP1 PUSH2 0x100 EXP SWAP1 DIV PUSH20 0xFFFFFFFFFFFFFFFFFFFFFFFFFFFFFFFFFFFFFFFF AND PUSH20 0xFFFFFFFFFFFFFFFFFFFFFFFFFFFFFFFFFFFFFFFF AND EQ ISZERO JUMPDEST ISZERO PUSH2 0x1804 JUMPI PUSH1 0x40 MLOAD PUSH32 0x8E95803B00000000000000000000000000000000000000000000000000000000 DUP2 MSTORE PUSH1 0x4 ADD PUSH1 0x40 MLOAD DUP1 SWAP2 SUB SWAP1 REVERT JUMPDEST PUSH1 0x0 PUSH20 0xFFFFFFFFFFFFFFFFFFFFFFFFFFFFFFFFFFFFFFFF AND DUP2 PUSH20 0xFFFFFFFFFFFFFFFFFFFFFFFFFFFFFFFFFFFFFFFF AND SUB PUSH2 0x186A JUMPI PUSH1 0x40 MLOAD PUSH32 0xD92E233D00000000000000000000000000000000000000000000000000000000 DUP2 MSTORE PUSH1 0x4 ADD PUSH1 0x40 MLOAD DUP1 SWAP2 SUB SWAP1 REVERT JUMPDEST DUP1 PUSH1 0xF PUSH1 0x2 PUSH2 0x100 EXP DUP2 SLOAD DUP2 PUSH20 0xFFFFFFFFFFFFFFFFFFFFFFFFFFFFFFFFFFFFFFFF MUL NOT AND SWAP1 DUP4 PUSH20 0xFFFFFFFFFFFFFFFFFFFFFFFFFFFFFFFFFFFFFFFF AND MUL OR SWAP1 SSTORE POP PUSH1 0x0 PUSH1 0xF PUSH1 0x2 SWAP1 SLOAD SWAP1 PUSH2 0x100 EXP SWAP1 DIV PUSH20 0xFFFFFFFFFFFFFFFFFFFFFFFFFFFFFFFFFFFFFFFF AND PUSH20 0xFFFFFFFFFFFFFFFFFFFFFFFFFFFFFFFFFFFFFFFF AND PUSH4 0xC45A0155 PUSH1 0x40 MLOAD DUP2 PUSH4 0xFFFFFFFF AND PUSH1 0xE0 SHL DUP2 MSTORE PUSH1 0x4 ADD PUSH1 0x20 PUSH1 0x40 MLOAD DUP1 DUP4 SUB DUP2 DUP7 GAS STATICCALL ISZERO DUP1 ISZERO PUSH2 0x191A JUMPI RETURNDATASIZE PUSH1 0x0 DUP1 RETURNDATACOPY RETURNDATASIZE PUSH1 0x0 REVERT JUMPDEST POP POP POP POP PUSH1 0x40 MLOAD RETURNDATASIZE PUSH1 0x1F NOT PUSH1 0x1F DUP3 ADD AND DUP3 ADD DUP1 PUSH1 0x40 MSTORE POP DUP2 ADD SWAP1 PUSH2 0x193E SWAP2 SWAP1 PUSH2 0x377F JUMP JUMPDEST PUSH20 0xFFFFFFFFFFFFFFFFFFFFFFFFFFFFFFFFFFFFFFFF AND PUSH4 0xC9C65396 ADDRESS PUSH1 0xF PUSH1 0x2 SWAP1 SLOAD SWAP1 PUSH2 0x100 EXP SWAP1 DIV PUSH20 0xFFFFFFFFFFFFFFFFFFFFFFFFFFFFFFFFFFFFFFFF AND PUSH20 0xFFFFFFFFFFFFFFFFFFFFFFFFFFFFFFFFFFFFFFFF AND PUSH4 0xAD5C4648 PUSH1 0x40 MLOAD DUP2 PUSH4 0xFFFFFFFF AND PUSH1 0xE0 SHL DUP2 MSTORE PUSH1 0x4 ADD PUSH1 0x20 PUSH1 0x40 MLOAD DUP1 DUP4 SUB DUP2 DUP7 GAS STATICCALL ISZERO DUP1 ISZERO PUSH2 0x19C7 JUMPI RETURNDATASIZE PUSH1 0x0 DUP1 RETURNDATACOPY RETURNDATASIZE PUSH1 0x0 REVERT JUMPDEST POP POP POP POP PUSH1 0x40 MLOAD RETURNDATASIZE PUSH1 0x1F NOT PUSH1 0x1F DUP3 ADD AND DUP3 ADD DUP1 PUSH1 0x40 MSTORE POP DUP2 ADD SWAP1 PUSH2 0x19EB SWAP2 SWAP1 PUSH2 0x377F JUMP JUMPDEST PUSH1 0x40 MLOAD DUP4 PUSH4 0xFFFFFFFF AND PUSH1 0xE0 SHL DUP2 MSTORE PUSH1 0x4 ADD PUSH2 0x1A08 SWAP3 SWAP2 SWAP1 PUSH2 0x37AC JUMP JUMPDEST PUSH1 0x20 PUSH1 0x40 MLOAD DUP1 DUP4 SUB DUP2 PUSH1 0x0 DUP8 GAS CALL ISZERO DUP1 ISZERO PUSH2 0x1A27 JUMPI RETURNDATASIZE PUSH1 0x0 DUP1 RETURNDATACOPY RETURNDATASIZE PUSH1 0x0 REVERT JUMPDEST POP POP POP POP PUSH1 0x40 MLOAD RETURNDATASIZE PUSH1 0x1F NOT PUSH1 0x1F DUP3 ADD AND DUP3 ADD DUP1 PUSH1 0x40 MSTORE POP DUP2 ADD SWAP1 PUSH2 0x1A4B SWAP2 SWAP1 PUSH2 0x377F JUMP JUMPDEST SWAP1 POP PUSH1 0x0 PUSH20 0xFFFFFFFFFFFFFFFFFFFFFFFFFFFFFFFFFFFFFFFF AND DUP2 PUSH20 0xFFFFFFFFFFFFFFFFFFFFFFFFFFFFFFFFFFFFFFFF AND SUB PUSH2 0x1AB3 JUMPI PUSH1 0x40 MLOAD PUSH32 0xD92E233D00000000000000000000000000000000000000000000000000000000 DUP2 MSTORE PUSH1 0x4 ADD PUSH1 0x40 MLOAD DUP1 SWAP2 SUB SWAP1 REVERT JUMPDEST DUP1 PUSH1 0x10 PUSH1 0x0 PUSH2 0x100 EXP DUP2 SLOAD DUP2 PUSH20 0xFFFFFFFFFFFFFFFFFFFFFFFFFFFFFFFFFFFFFFFF MUL NOT AND SWAP1 DUP4 PUSH20 0xFFFFFFFFFFFFFFFFFFFFFFFFFFFFFFFFFFFFFFFF AND MUL OR SWAP1 SSTORE POP PUSH1 0x1 PUSH1 0xA PUSH1 0x0 DUP4 PUSH20 0xFFFFFFFFFFFFFFFFFFFFFFFFFFFFFFFFFFFFFFFF AND PUSH20 0xFFFFFFFFFFFFFFFFFFFFFFFFFFFFFFFFFFFFFFFF AND DUP2 MSTORE PUSH1 0x20 ADD SWAP1 DUP2 MSTORE PUSH1 0x20 ADD PUSH1 0x0 KECCAK256 PUSH1 0x0 PUSH2 0x100 EXP DUP2 SLOAD DUP2 PUSH1 0xFF MUL NOT AND SWAP1 DUP4 ISZERO ISZERO MUL OR SWAP1 SSTORE POP PUSH1 0x1 PUSH1 0xA PUSH1 0x0 DUP5 PUSH20 0xFFFFFFFFFFFFFFFFFFFFFFFFFFFFFFFFFFFFFFFF AND PUSH20 0xFFFFFFFFFFFFFFFFFFFFFFFFFFFFFFFFFFFFFFFF AND DUP2 MSTORE PUSH1 0x20 ADD SWAP1 DUP2 MSTORE PUSH1 0x20 ADD PUSH1 0x0 KECCAK256 PUSH1 0x0 PUSH2 0x100 EXP DUP2 SLOAD DUP2 PUSH1 0xFF MUL NOT AND SWAP1 DUP4 ISZERO ISZERO MUL OR SWAP1 SSTORE POP DUP1 PUSH20 0xFFFFFFFFFFFFFFFFFFFFFFFFFFFFFFFFFFFFFFFF AND DUP3 PUSH20 0xFFFFFFFFFFFFFFFFFFFFFFFFFFFFFFFFFFFFFFFF AND PUSH32 0xC1A9E56C8129347B63CE39A7B2CB626D8E39B9BAAE0723BEB7CBE61D73475BC0 PUSH1 0x40 MLOAD PUSH1 0x40 MLOAD DUP1 SWAP2 SUB SWAP1 LOG3 POP POP JUMP JUMPDEST PUSH2 0x1C0A PUSH2 0x2225 JUMP JUMPDEST DUP1 ISZERO ISZERO PUSH1 0xF PUSH1 0x0 SWAP1 SLOAD SWAP1 PUSH2 0x100 EXP SWAP1 DIV PUSH1 0xFF AND ISZERO ISZERO SUB PUSH2 0x1CD7 JUMPI DUP1 PUSH2 0x1C64 JUMPI PUSH1 0x40 MLOAD DUP1 PUSH1 0x40 ADD PUSH1 0x40 MSTORE DUP1 PUSH1 0x18 DUP2 MSTORE PUSH1 0x20 ADD PUSH32 0x5377617020697320616C72656164792064697361626C65640000000000000000 DUP2 MSTORE POP PUSH2 0x1C9B JUMP JUMPDEST PUSH1 0x40 MLOAD DUP1 PUSH1 0x40 ADD PUSH1 0x40 MSTORE DUP1 PUSH1 0x17 DUP2 MSTORE PUSH1 0x20 ADD PUSH32 0x5377617020697320616C726561647920656E61626C6564000000000000000000 DUP2 MSTORE POP JUMPDEST PUSH1 0x40 MLOAD PUSH32 0x8C379A000000000000000000000000000000000000000000000000000000000 DUP2 MSTORE PUSH1 0x4 ADD PUSH2 0x1CCE SWAP2 SWAP1 PUSH2 0x3126 JUMP JUMPDEST PUSH1 0x40 MLOAD DUP1 SWAP2 SUB SWAP1 REVERT JUMPDEST DUP1 PUSH1 0xF PUSH1 0x0 PUSH2 0x100 EXP DUP2 SLOAD DUP2 PUSH1 0xFF MUL NOT AND SWAP1 DUP4 ISZERO ISZERO MUL OR SWAP1 SSTORE POP PUSH32 0x53726DFCAF90650AA7EB35524F4D3220F07413C8D6CB404CC8C18BF5591BC159 DUP2 PUSH1 0x40 MLOAD PUSH2 0x1D20 SWAP2 SWAP1 PUSH2 0x307B JUMP JUMPDEST PUSH1 0x40 MLOAD DUP1 SWAP2 SUB SWAP1 LOG1 POP JUMP JUMPDEST PUSH1 0xE SLOAD DUP2 JUMP JUMPDEST PUSH1 0x0 PUSH1 0x9 PUSH1 0x0 DUP5 PUSH20 0xFFFFFFFFFFFFFFFFFFFFFFFFFFFFFFFFFFFFFFFF AND PUSH20 0xFFFFFFFFFFFFFFFFFFFFFFFFFFFFFFFFFFFFFFFF AND DUP2 MSTORE PUSH1 0x20 ADD SWAP1 DUP2 MSTORE PUSH1 0x20 ADD PUSH1 0x0 KECCAK256 PUSH1 0x0 DUP4 PUSH20 0xFFFFFFFFFFFFFFFFFFFFFFFFFFFFFFFFFFFFFFFF AND PUSH20 0xFFFFFFFFFFFFFFFFFFFFFFFFFFFFFFFFFFFFFFFF AND DUP2 MSTORE PUSH1 0x20 ADD SWAP1 DUP2 MSTORE PUSH1 0x20 ADD PUSH1 0x0 KECCAK256 SLOAD SWAP1 POP SWAP3 SWAP2 POP POP JUMP JUMPDEST PUSH2 0x1DC0 PUSH2 0x2225 JUMP JUMPDEST PUSH1 0xA PUSH1 0x0 DUP3 PUSH20 0xFFFFFFFFFFFFFFFFFFFFFFFFFFFFFFFFFFFFFFFF AND PUSH20 0xFFFFFFFFFFFFFFFFFFFFFFFFFFFFFFFFFFFFFFFF AND DUP2 MSTORE PUSH1 0x20 ADD SWAP1 DUP2 MSTORE PUSH1 0x20 ADD PUSH1 0x0 KECCAK256 PUSH1 0x0 SWAP1 SLOAD SWAP1 PUSH2 0x100 EXP SWAP1 DIV PUSH1 0xFF AND PUSH2 0x1E43 JUMPI PUSH1 0x40 MLOAD PUSH32 0x8A92E2C200000000000000000000000000000000000000000000000000000000 DUP2 MSTORE PUSH1 0x4 ADD PUSH1 0x40 MLOAD DUP1 SWAP2 SUB SWAP1 REVERT JUMPDEST PUSH1 0x0 PUSH1 0xA PUSH1 0x0 DUP4 PUSH20 0xFFFFFFFFFFFFFFFFFFFFFFFFFFFFFFFFFFFFFFFF AND PUSH20 0xFFFFFFFFFFFFFFFFFFFFFFFFFFFFFFFFFFFFFFFF AND DUP2 MSTORE PUSH1 0x20 ADD SWAP1 DUP2 MSTORE PUSH1 0x20 ADD PUSH1 0x0 KECCAK256 PUSH1 0x0 PUSH2 0x100 EXP DUP2 SLOAD DUP2 PUSH1 0xFF MUL NOT AND SWAP1 DUP4 ISZERO ISZERO MUL OR SWAP1 SSTORE POP DUP1 PUSH20 0xFFFFFFFFFFFFFFFFFFFFFFFFFFFFFFFFFFFFFFFF AND PUSH32 0x78CE087DB51D01D3E32355F2D83455D5A39F99194C8D3D1C2614893695CEE442 PUSH1 0x40 MLOAD PUSH1 0x40 MLOAD DUP1 SWAP2 SUB SWAP1 LOG2 POP JUMP JUMPDEST PUSH2 0x1EE9 PUSH2 0x2225 JUMP JUMPDEST PUSH1 0x7 PUSH1 0x0 SWAP1 SLOAD SWAP1 PUSH2 0x100 EXP SWAP1 DIV PUSH1 0xFF AND PUSH1 0xA PUSH2 0x1F05 SWAP2 SWAP1 PUSH2 0x3908 JUMP JUMPDEST DUP2 PUSH2 0x1F10 SWAP2 SWAP1 PUSH2 0x365C JUMP JUMPDEST PUSH1 0xD DUP2 SWAP1 SSTORE POP PUSH32 0x947F344D56E1E8C70DC492FB94C4DDDDD490C016AAB685F5E7E47B2E85CB44CF DUP2 PUSH1 0x40 MLOAD PUSH2 0x1F45 SWAP2 SWAP1 PUSH2 0x334F JUMP JUMPDEST PUSH1 0x40 MLOAD DUP1 SWAP2 SUB SWAP1 LOG1 POP JUMP JUMPDEST PUSH2 0x1F58 PUSH2 0x2225 JUMP JUMPDEST PUSH1 0x7 PUSH1 0x0 SWAP1 SLOAD SWAP1 PUSH2 0x100 EXP SWAP1 DIV PUSH1 0xFF AND PUSH1 0xA PUSH2 0x1F74 SWAP2 SWAP1 PUSH2 0x3908 JUMP JUMPDEST DUP2 PUSH2 0x1F7F SWAP2 SWAP1 PUSH2 0x365C JUMP JUMPDEST PUSH1 0xE DUP2 SWAP1 SSTORE POP PUSH1 0xD SLOAD PUSH1 0xE SLOAD GT ISZERO PUSH2 0x1FD4 JUMPI PUSH1 0xE SLOAD PUSH1 0xD SLOAD PUSH1 0x40 MLOAD PUSH32 0xCD1A97BB00000000000000000000000000000000000000000000000000000000 DUP2 MSTORE PUSH1 0x4 ADD PUSH2 0x1FCB SWAP3 SWAP2 SWAP1 PUSH2 0x3598 JUMP JUMPDEST PUSH1 0x40 MLOAD DUP1 SWAP2 SUB SWAP1 REVERT JUMPDEST PUSH32 0xAB1090599596CFB0C655B6424E552FBA2CEDF77457ED354FBE96E9ABF4AA1F13 DUP2 PUSH1 0x40 MLOAD PUSH2 0x2003 SWAP2 SWAP1 PUSH2 0x334F JUMP JUMPDEST PUSH1 0x40 MLOAD DUP1 SWAP2 SUB SWAP1 LOG1 POP JUMP JUMPDEST PUSH2 0x2016 PUSH2 0x2225 JUMP JUMPDEST PUSH1 0x0 PUSH20 0xFFFFFFFFFFFFFFFFFFFFFFFFFFFFFFFFFFFFFFFF AND DUP2 PUSH20 0xFFFFFFFFFFFFFFFFFFFFFFFFFFFFFFFFFFFFFFFF AND SUB PUSH2 0x2088 JUMPI PUSH1 0x0 PUSH1 0x40 MLOAD PUSH32 0x1E4FBDF700000000000000000000000000000000000000000000000000000000 DUP2 MSTORE PUSH1 0x4 ADD PUSH2 0x207F SWAP2 SWAP1 PUSH2 0x3421 JUMP JUMPDEST PUSH1 0x40 MLOAD DUP1 SWAP2 SUB SWAP1 REVERT JUMPDEST PUSH2 0x2091 DUP2 PUSH2 0x2977 JUMP JUMPDEST POP JUMP JUMPDEST PUSH1 0x0 CALLER SWAP1 POP SWAP1 JUMP JUMPDEST PUSH1 0x0 PUSH20 0xFFFFFFFFFFFFFFFFFFFFFFFFFFFFFFFFFFFFFFFF AND DUP4 PUSH20 0xFFFFFFFFFFFFFFFFFFFFFFFFFFFFFFFFFFFFFFFF AND EQ DUP1 PUSH2 0x2103 JUMPI POP PUSH1 0x0 PUSH20 0xFFFFFFFFFFFFFFFFFFFFFFFFFFFFFFFFFFFFFFFF AND DUP3 PUSH20 0xFFFFFFFFFFFFFFFFFFFFFFFFFFFFFFFFFFFFFFFF AND EQ JUMPDEST ISZERO PUSH2 0x213A JUMPI PUSH1 0x40 MLOAD PUSH32 0xD92E233D00000000000000000000000000000000000000000000000000000000 DUP2 MSTORE PUSH1 0x4 ADD PUSH1 0x40 MLOAD DUP1 SWAP2 SUB SWAP1 REVERT JUMPDEST DUP1 PUSH1 0x9 PUSH1 0x0 DUP6 PUSH20 0xFFFFFFFFFFFFFFFFFFFFFFFFFFFFFFFFFFFFFFFF AND PUSH20 0xFFFFFFFFFFFFFFFFFFFFFFFFFFFFFFFFFFFFFFFF AND DUP2 MSTORE PUSH1 0x20 ADD SWAP1 DUP2 MSTORE PUSH1 0x20 ADD PUSH1 0x0 KECCAK256 PUSH1 0x0 DUP5 PUSH20 0xFFFFFFFFFFFFFFFFFFFFFFFFFFFFFFFFFFFFFFFF AND PUSH20 0xFFFFFFFFFFFFFFFFFFFFFFFFFFFFFFFFFFFFFFFF AND DUP2 MSTORE PUSH1 0x20 ADD SWAP1 DUP2 MSTORE PUSH1 0x20 ADD PUSH1 0x0 KECCAK256 DUP2 SWAP1 SSTORE POP DUP2 PUSH20 0xFFFFFFFFFFFFFFFFFFFFFFFFFFFFFFFFFFFFFFFF AND DUP4 PUSH20 0xFFFFFFFFFFFFFFFFFFFFFFFFFFFFFFFFFFFFFFFF AND PUSH32 0x8C5BE1E5EBEC7D5BD14F71427D1E84F3DD0314C0F7B2291E5B200AC8C7C3B925 DUP4 PUSH1 0x40 MLOAD PUSH2 0x2218 SWAP2 SWAP1 PUSH2 0x334F JUMP JUMPDEST PUSH1 0x40 MLOAD DUP1 SWAP2 SUB SWAP1 LOG3 POP POP POP JUMP JUMPDEST PUSH2 0x222D PUSH2 0x2094 JUMP JUMPDEST PUSH20 0xFFFFFFFFFFFFFFFFFFFFFFFFFFFFFFFFFFFFFFFF AND PUSH2 0x224B PUSH2 0x1623 JUMP JUMPDEST PUSH20 0xFFFFFFFFFFFFFFFFFFFFFFFFFFFFFFFFFFFFFFFF AND EQ PUSH2 0x22AA JUMPI PUSH2 0x226E PUSH2 0x2094 JUMP JUMPDEST PUSH1 0x40 MLOAD PUSH32 0x118CDAA700000000000000000000000000000000000000000000000000000000 DUP2 MSTORE PUSH1 0x4 ADD PUSH2 0x22A1 SWAP2 SWAP1 PUSH2 0x3421 JUMP JUMPDEST PUSH1 0x40 MLOAD DUP1 SWAP2 SUB SWAP1 REVERT JUMPDEST JUMP JUMPDEST PUSH1 0x0 PUSH20 0xFFFFFFFFFFFFFFFFFFFFFFFFFFFFFFFFFFFFFFFF AND DUP4 PUSH20 0xFFFFFFFFFFFFFFFFFFFFFFFFFFFFFFFFFFFFFFFF AND SUB PUSH2 0x2312 JUMPI PUSH1 0x40 MLOAD PUSH32 0xD92E233D00000000000000000000000000000000000000000000000000000000 DUP2 MSTORE PUSH1 0x4 ADD PUSH1 0x40 MLOAD DUP1 SWAP2 SUB SWAP1 REVERT JUMPDEST PUSH1 0x0 PUSH20 0xFFFFFFFFFFFFFFFFFFFFFFFFFFFFFFFFFFFFFFFF AND DUP3 PUSH20 0xFFFFFFFFFFFFFFFFFFFFFFFFFFFFFFFFFFFFFFFF AND SUB PUSH2 0x2378 JUMPI PUSH1 0x40 MLOAD PUSH32 0xD92E233D00000000000000000000000000000000000000000000000000000000 DUP2 MSTORE PUSH1 0x4 ADD PUSH1 0x40 MLOAD DUP1 SWAP2 SUB SWAP1 REVERT JUMPDEST PUSH1 0x0 DUP2 SUB PUSH2 0x23B2 JUMPI PUSH1 0x40 MLOAD PUSH32 0x29A1E53700000000000000000000000000000000000000000000000000000000 DUP2 MSTORE PUSH1 0x4 ADD PUSH1 0x40 MLOAD DUP1 SWAP2 SUB SWAP1 REVERT JUMPDEST PUSH2 0x23BA PUSH2 0x1623 JUMP JUMPDEST PUSH20 0xFFFFFFFFFFFFFFFFFFFFFFFFFFFFFFFFFFFFFFFF AND DUP4 PUSH20 0xFFFFFFFFFFFFFFFFFFFFFFFFFFFFFFFFFFFFFFFF AND EQ ISZERO DUP1 ISZERO PUSH2 0x23F7 JUMPI POP PUSH1 0x0 PUSH1 0xD SLOAD GT JUMPDEST DUP1 ISZERO PUSH2 0x2404 JUMPI POP PUSH1 0xD SLOAD DUP2 GT JUMPDEST ISZERO PUSH2 0x243B JUMPI PUSH1 0x40 MLOAD PUSH32 0x46830DA900000000000000000000000000000000000000000000000000000000 DUP2 MSTORE PUSH1 0x4 ADD PUSH1 0x40 MLOAD DUP1 SWAP2 SUB SWAP1 REVERT JUMPDEST PUSH1 0x0 PUSH2 0x2446 ADDRESS PUSH2 0x1495 JUMP JUMPDEST SWAP1 POP PUSH1 0xE SLOAD DUP2 LT ISZERO DUP1 ISZERO PUSH2 0x2467 JUMPI POP PUSH1 0xF PUSH1 0x1 SWAP1 SLOAD SWAP1 PUSH2 0x100 EXP SWAP1 DIV PUSH1 0xFF AND ISZERO JUMPDEST DUP1 ISZERO PUSH2 0x24C1 JUMPI POP PUSH1 0x10 PUSH1 0x0 SWAP1 SLOAD SWAP1 PUSH2 0x100 EXP SWAP1 DIV PUSH20 0xFFFFFFFFFFFFFFFFFFFFFFFFFFFFFFFFFFFFFFFF AND PUSH20 0xFFFFFFFFFFFFFFFFFFFFFFFFFFFFFFFFFFFFFFFF AND DUP5 PUSH20 0xFFFFFFFFFFFFFFFFFFFFFFFFFFFFFFFFFFFFFFFF AND EQ ISZERO JUMPDEST ISZERO PUSH2 0x24D0 JUMPI PUSH2 0x24CF DUP2 PUSH2 0x2A3B JUMP JUMPDEST JUMPDEST PUSH1 0x0 PUSH1 0xA PUSH1 0x0 DUP7 PUSH20 0xFFFFFFFFFFFFFFFFFFFFFFFFFFFFFFFFFFFFFFFF AND PUSH20 0xFFFFFFFFFFFFFFFFFFFFFFFFFFFFFFFFFFFFFFFF AND DUP2 MSTORE PUSH1 0x20 ADD SWAP1 DUP2 MSTORE PUSH1 0x20 ADD PUSH1 0x0 KECCAK256 PUSH1 0x0 SWAP1 SLOAD SWAP1 PUSH2 0x100 EXP SWAP1 DIV PUSH1 0xFF AND ISZERO SWAP1 POP PUSH1 0x0 DUP1 PUSH1 0x0 DUP4 ISZERO PUSH2 0x2596 JUMPI PUSH3 0x186A0 PUSH1 0xB SLOAD DUP8 PUSH2 0x253F SWAP2 SWAP1 PUSH2 0x365C JUMP JUMPDEST PUSH2 0x2549 SWAP2 SWAP1 PUSH2 0x36CD JUMP JUMPDEST SWAP3 POP PUSH3 0x186A0 PUSH2 0x7530 DUP5 PUSH2 0x255D SWAP2 SWAP1 PUSH2 0x365C JUMP JUMPDEST PUSH2 0x2567 SWAP2 SWAP1 PUSH2 0x36CD JUMP JUMPDEST SWAP1 POP DUP1 DUP4 PUSH2 0x2575 SWAP2 SWAP1 PUSH2 0x3953 JUMP JUMPDEST SWAP3 POP PUSH3 0x186A0 PUSH1 0xC SLOAD DUP8 PUSH2 0x2589 SWAP2 SWAP1 PUSH2 0x365C JUMP JUMPDEST PUSH2 0x2593 SWAP2 SWAP1 PUSH2 0x36CD JUMP JUMPDEST SWAP2 POP JUMPDEST PUSH1 0x0 DUP2 DUP4 DUP6 DUP10 PUSH2 0x25A6 SWAP2 SWAP1 PUSH2 0x3953 JUMP JUMPDEST PUSH2 0x25B0 SWAP2 SWAP1 PUSH2 0x3953 JUMP JUMPDEST PUSH2 0x25BA SWAP2 SWAP1 PUSH2 0x3953 JUMP JUMPDEST SWAP1 POP PUSH2 0x25C4 PUSH2 0x291C JUMP JUMPDEST DUP8 PUSH2 0x25CF SWAP2 SWAP1 PUSH2 0x365C JUMP JUMPDEST PUSH1 0x8 PUSH1 0x0 DUP12 PUSH20 0xFFFFFFFFFFFFFFFFFFFFFFFFFFFFFFFFFFFFFFFF AND PUSH20 0xFFFFFFFFFFFFFFFFFFFFFFFFFFFFFFFFFFFFFFFF AND DUP2 MSTORE PUSH1 0x20 ADD SWAP1 DUP2 MSTORE PUSH1 0x20 ADD PUSH1 0x0 KECCAK256 PUSH1 0x0 DUP3 DUP3 SLOAD PUSH2 0x261D SWAP2 SWAP1 PUSH2 0x3953 JUMP JUMPDEST SWAP3 POP POP DUP2 SWAP1 SSTORE POP PUSH2 0x262C PUSH2 0x291C JUMP JUMPDEST DUP2 PUSH2 0x2637 SWAP2 SWAP1 PUSH2 0x365C JUMP JUMPDEST PUSH1 0x8 PUSH1 0x0 DUP11 PUSH20 0xFFFFFFFFFFFFFFFFFFFFFFFFFFFFFFFFFFFFFFFF AND PUSH20 0xFFFFFFFFFFFFFFFFFFFFFFFFFFFFFFFFFFFFFFFF AND DUP2 MSTORE PUSH1 0x20 ADD SWAP1 DUP2 MSTORE PUSH1 0x20 ADD PUSH1 0x0 KECCAK256 PUSH1 0x0 DUP3 DUP3 SLOAD PUSH2 0x2685 SWAP2 SWAP1 PUSH2 0x3564 JUMP JUMPDEST SWAP3 POP POP DUP2 SWAP1 SSTORE POP DUP5 ISZERO PUSH2 0x2737 JUMPI PUSH2 0x269B DUP5 PUSH2 0x2B36 JUMP JUMPDEST PUSH2 0x26A4 DUP4 PUSH2 0x2BBF JUMP JUMPDEST PUSH2 0x26AD DUP3 PUSH2 0x27F6 JUMP JUMPDEST PUSH32 0x312C5308F42848705A866C73DEC11FD0783C2D64AAC6A97E94467062AD3F4058 DUP5 DUP5 DUP5 PUSH1 0x40 MLOAD PUSH2 0x26E0 SWAP4 SWAP3 SWAP2 SWAP1 PUSH2 0x3987 JUMP JUMPDEST PUSH1 0x40 MLOAD DUP1 SWAP2 SUB SWAP1 LOG1 DUP9 PUSH20 0xFFFFFFFFFFFFFFFFFFFFFFFFFFFFFFFFFFFFFFFF AND PUSH32 0xFD38818F5291BF0BB3A2A48AADC06BA8757865D1DABD804585338AAB3009DCB6 DUP4 PUSH1 0x40 MLOAD PUSH2 0x272E SWAP2 SWAP1 PUSH2 0x334F JUMP JUMPDEST PUSH1 0x40 MLOAD DUP1 SWAP2 SUB SWAP1 LOG2 JUMPDEST DUP8 PUSH20 0xFFFFFFFFFFFFFFFFFFFFFFFFFFFFFFFFFFFFFFFF AND DUP10 PUSH20 0xFFFFFFFFFFFFFFFFFFFFFFFFFFFFFFFFFFFFFFFF AND PUSH32 0xDDF252AD1BE2C89B69C2B068FC378DAA952BA7F163C4A11628F55A4DF523B3EF DUP4 PUSH1 0x40 MLOAD PUSH2 0x2794 SWAP2 SWAP1 PUSH2 0x334F JUMP JUMPDEST PUSH1 0x40 MLOAD DUP1 SWAP2 SUB SWAP1 LOG3 POP POP POP POP POP POP POP POP POP JUMP JUMPDEST PUSH1 0x2 PUSH1 0x1 SLOAD SUB PUSH2 0x27E3 JUMPI PUSH1 0x40 MLOAD PUSH32 0x3EE5AEB500000000000000000000000000000000000000000000000000000000 DUP2 MSTORE PUSH1 0x4 ADD PUSH1 0x40 MLOAD DUP1 SWAP2 SUB SWAP1 REVERT JUMPDEST PUSH1 0x2 PUSH1 0x1 DUP2 SWAP1 SSTORE POP JUMP JUMPDEST PUSH1 0x1 DUP1 DUP2 SWAP1 SSTORE POP JUMP JUMPDEST PUSH1 0x2 SLOAD DUP2 GT ISZERO PUSH2 0x2841 JUMPI DUP1 PUSH1 0x2 SLOAD PUSH1 0x40 MLOAD PUSH32 0x831EBD9C00000000000000000000000000000000000000000000000000000000 DUP2 MSTORE PUSH1 0x4 ADD PUSH2 0x2838 SWAP3 SWAP2 SWAP1 PUSH2 0x3598 JUMP JUMPDEST PUSH1 0x40 MLOAD DUP1 SWAP2 SUB SWAP1 REVERT JUMPDEST PUSH1 0x0 DUP2 GT ISZERO PUSH2 0x28E7 JUMPI PUSH1 0x0 PUSH2 0x2854 PUSH2 0x291C JUMP JUMPDEST DUP3 PUSH2 0x285F SWAP2 SWAP1 PUSH2 0x365C JUMP JUMPDEST SWAP1 POP DUP1 PUSH1 0x3 PUSH1 0x0 DUP3 DUP3 SLOAD PUSH2 0x2873 SWAP2 SWAP1 PUSH2 0x3953 JUMP JUMPDEST SWAP3 POP POP DUP2 SWAP1 SSTORE POP DUP2 PUSH1 0x2 PUSH1 0x0 DUP3 DUP3 SLOAD PUSH2 0x288C SWAP2 SWAP1 PUSH2 0x3953 JUMP JUMPDEST SWAP3 POP POP DUP2 SWAP1 SSTORE POP ADDRESS PUSH20 0xFFFFFFFFFFFFFFFFFFFFFFFFFFFFFFFFFFFFFFFF AND PUSH32 0xFD38818F5291BF0BB3A2A48AADC06BA8757865D1DABD804585338AAB3009DCB6 DUP4 PUSH1 0x40 MLOAD PUSH2 0x28D9 SWAP2 SWAP1 PUSH2 0x334F JUMP JUMPDEST PUSH1 0x40 MLOAD DUP1 SWAP2 SUB SWAP1 LOG2 POP PUSH2 0x2919 JUMP JUMPDEST PUSH1 0x40 MLOAD PUSH32 0x7C946ED700000000000000000000000000000000000000000000000000000000 DUP2 MSTORE PUSH1 0x4 ADD PUSH1 0x40 MLOAD DUP1 SWAP2 SUB SWAP1 REVERT JUMPDEST POP JUMP JUMPDEST PUSH1 0x0 DUP1 PUSH1 0x2 SLOAD GT PUSH2 0x2962 JUMPI PUSH1 0x40 MLOAD PUSH32 0x8C379A000000000000000000000000000000000000000000000000000000000 DUP2 MSTORE PUSH1 0x4 ADD PUSH2 0x2959 SWAP1 PUSH2 0x3A30 JUMP JUMPDEST PUSH1 0x40 MLOAD DUP1 SWAP2 SUB SWAP1 REVERT JUMPDEST PUSH1 0x2 SLOAD PUSH1 0x3 SLOAD PUSH2 0x2972 SWAP2 SWAP1 PUSH2 0x36CD JUMP JUMPDEST SWAP1 POP SWAP1 JUMP JUMPDEST PUSH1 0x0 DUP1 PUSH1 0x0 SWAP1 SLOAD SWAP1 PUSH2 0x100 EXP SWAP1 DIV PUSH20 0xFFFFFFFFFFFFFFFFFFFFFFFFFFFFFFFFFFFFFFFF AND SWAP1 POP DUP2 PUSH1 0x0 DUP1 PUSH2 0x100 EXP DUP2 SLOAD DUP2 PUSH20 0xFFFFFFFFFFFFFFFFFFFFFFFFFFFFFFFFFFFFFFFF MUL NOT AND SWAP1 DUP4 PUSH20 0xFFFFFFFFFFFFFFFFFFFFFFFFFFFFFFFFFFFFFFFF AND MUL OR SWAP1 SSTORE POP DUP2 PUSH20 0xFFFFFFFFFFFFFFFFFFFFFFFFFFFFFFFFFFFFFFFF AND DUP2 PUSH20 0xFFFFFFFFFFFFFFFFFFFFFFFFFFFFFFFFFFFFFFFF AND PUSH32 0x8BE0079C531659141344CD1FD0A4F28419497F9722A3DAAFE3B4186F6B6457E0 PUSH1 0x40 MLOAD PUSH1 0x40 MLOAD DUP1 SWAP2 SUB SWAP1 LOG3 POP POP JUMP JUMPDEST PUSH1 0x1 PUSH1 0xF PUSH1 0x1 PUSH2 0x100 EXP DUP2 SLOAD DUP2 PUSH1 0xFF MUL NOT AND SWAP1 DUP4 ISZERO ISZERO MUL OR SWAP1 SSTORE POP PUSH1 0x0 DUP2 SUB PUSH2 0x2A90 JUMPI PUSH1 0x40 MLOAD PUSH32 0x64E2819F00000000000000000000000000000000000000000000000000000000 DUP2 MSTORE PUSH1 0x4 ADD PUSH1 0x40 MLOAD DUP1 SWAP2 SUB SWAP1 REVERT JUMPDEST PUSH1 0x0 PUSH1 0x2 DUP3 PUSH2 0x2A9F SWAP2 SWAP1 PUSH2 0x36CD JUMP JUMPDEST SWAP1 POP PUSH1 0x0 DUP2 DUP4 PUSH2 0x2AAF SWAP2 SWAP1 PUSH2 0x3953 JUMP JUMPDEST SWAP1 POP PUSH1 0x0 SELFBALANCE SWAP1 POP PUSH2 0x2ABF DUP4 PUSH2 0x2C30 JUMP JUMPDEST PUSH1 0x0 DUP2 SELFBALANCE PUSH2 0x2ACD SWAP2 SWAP1 PUSH2 0x3953 JUMP JUMPDEST SWAP1 POP PUSH2 0x2AD9 DUP4 DUP3 PUSH2 0x2E73 JUMP JUMPDEST PUSH32 0x17BBFB9A6069321B6DED73BD96327C9E6B7212A5CD51FF219CD61370ACAFB561 DUP5 DUP3 DUP6 PUSH1 0x40 MLOAD PUSH2 0x2B0C SWAP4 SWAP3 SWAP2 SWAP1 PUSH2 0x3987 JUMP JUMPDEST PUSH1 0x40 MLOAD DUP1 SWAP2 SUB SWAP1 LOG1 POP POP POP POP PUSH1 0x0 PUSH1 0xF PUSH1 0x1 PUSH2 0x100 EXP DUP2 SLOAD DUP2 PUSH1 0xFF MUL NOT AND SWAP1 DUP4 ISZERO ISZERO MUL OR SWAP1 SSTORE POP POP JUMP JUMPDEST PUSH1 0x0 PUSH2 0x2B40 PUSH2 0x291C JUMP JUMPDEST DUP3 PUSH2 0x2B4B SWAP2 SWAP1 PUSH2 0x365C JUMP JUMPDEST SWAP1 POP DUP1 PUSH1 0x3 PUSH1 0x0 DUP3 DUP3 SLOAD PUSH2 0x2B5F SWAP2 SWAP1 PUSH2 0x3953 JUMP JUMPDEST SWAP3 POP POP DUP2 SWAP1 SSTORE POP DUP2 PUSH1 0x4 PUSH1 0x0 DUP3 DUP3 SLOAD PUSH2 0x2B78 SWAP2 SWAP1 PUSH2 0x3564 JUMP JUMPDEST SWAP3 POP POP DUP2 SWAP1 SSTORE POP PUSH32 0x312C5308F42848705A866C73DEC11FD0783C2D64AAC6A97E94467062AD3F4058 DUP3 PUSH1 0x0 DUP1 PUSH1 0x40 MLOAD PUSH2 0x2BB3 SWAP4 SWAP3 SWAP2 SWAP1 PUSH2 0x3A8B JUMP JUMPDEST PUSH1 0x40 MLOAD DUP1 SWAP2 SUB SWAP1 LOG1 POP POP JUMP JUMPDEST PUSH1 0x0 PUSH2 0x2BC9 PUSH2 0x291C JUMP JUMPDEST DUP3 PUSH2 0x2BD4 SWAP2 SWAP1 PUSH2 0x365C JUMP JUMPDEST SWAP1 POP DUP1 PUSH1 0x8 PUSH1 0x0 ADDRESS PUSH20 0xFFFFFFFFFFFFFFFFFFFFFFFFFFFFFFFFFFFFFFFF AND PUSH20 0xFFFFFFFFFFFFFFFFFFFFFFFFFFFFFFFFFFFFFFFF AND DUP2 MSTORE PUSH1 0x20 ADD SWAP1 DUP2 MSTORE PUSH1 0x20 ADD PUSH1 0x0 KECCAK256 PUSH1 0x0 DUP3 DUP3 SLOAD PUSH2 0x2C25 SWAP2 SWAP1 PUSH2 0x3564 JUMP JUMPDEST SWAP3 POP POP DUP2 SWAP1 SSTORE POP POP POP JUMP JUMPDEST PUSH1 0x0 PUSH1 0x2 PUSH8 0xFFFFFFFFFFFFFFFF DUP2 GT ISZERO PUSH2 0x2C4D JUMPI PUSH2 0x2C4C PUSH2 0x3AC2 JUMP JUMPDEST JUMPDEST PUSH1 0x40 MLOAD SWAP1 DUP1 DUP3 MSTORE DUP1 PUSH1 0x20 MUL PUSH1 0x20 ADD DUP3 ADD PUSH1 0x40 MSTORE DUP1 ISZERO PUSH2 0x2C7B JUMPI DUP2 PUSH1 0x20 ADD PUSH1 0x20 DUP3 MUL DUP1 CALLDATASIZE DUP4 CALLDATACOPY DUP1 DUP3 ADD SWAP2 POP POP SWAP1 POP JUMPDEST POP SWAP1 POP ADDRESS DUP2 PUSH1 0x0 DUP2 MLOAD DUP2 LT PUSH2 0x2C93 JUMPI PUSH2 0x2C92 PUSH2 0x362D JUMP JUMPDEST JUMPDEST PUSH1 0x20 MUL PUSH1 0x20 ADD ADD SWAP1 PUSH20 0xFFFFFFFFFFFFFFFFFFFFFFFFFFFFFFFFFFFFFFFF AND SWAP1 DUP2 PUSH20 0xFFFFFFFFFFFFFFFFFFFFFFFFFFFFFFFFFFFFFFFF AND DUP2 MSTORE POP POP PUSH1 0xF PUSH1 0x2 SWAP1 SLOAD SWAP1 PUSH2 0x100 EXP SWAP1 DIV PUSH20 0xFFFFFFFFFFFFFFFFFFFFFFFFFFFFFFFFFFFFFFFF AND PUSH20 0xFFFFFFFFFFFFFFFFFFFFFFFFFFFFFFFFFFFFFFFF AND PUSH4 0xAD5C4648 PUSH1 0x40 MLOAD DUP2 PUSH4 0xFFFFFFFF AND PUSH1 0xE0 SHL DUP2 MSTORE PUSH1 0x4 ADD PUSH1 0x20 PUSH1 0x40 MLOAD DUP1 DUP4 SUB DUP2 DUP7 GAS STATICCALL ISZERO DUP1 ISZERO PUSH2 0x2D3A JUMPI RETURNDATASIZE PUSH1 0x0 DUP1 RETURNDATACOPY RETURNDATASIZE PUSH1 0x0 REVERT JUMPDEST POP POP POP POP PUSH1 0x40 MLOAD RETURNDATASIZE PUSH1 0x1F NOT PUSH1 0x1F DUP3 ADD AND DUP3 ADD DUP1 PUSH1 0x40 MSTORE POP DUP2 ADD SWAP1 PUSH2 0x2D5E SWAP2 SWAP1 PUSH2 0x377F JUMP JUMPDEST DUP2 PUSH1 0x1 DUP2 MLOAD DUP2 LT PUSH2 0x2D72 JUMPI PUSH2 0x2D71 PUSH2 0x362D JUMP JUMPDEST JUMPDEST PUSH1 0x20 MUL PUSH1 0x20 ADD ADD SWAP1 PUSH20 0xFFFFFFFFFFFFFFFFFFFFFFFFFFFFFFFFFFFFFFFF AND SWAP1 DUP2 PUSH20 0xFFFFFFFFFFFFFFFFFFFFFFFFFFFFFFFFFFFFFFFF AND DUP2 MSTORE POP POP PUSH2 0x2DD9 ADDRESS PUSH1 0xF PUSH1 0x2 SWAP1 SLOAD SWAP1 PUSH2 0x100 EXP SWAP1 DIV PUSH20 0xFFFFFFFFFFFFFFFFFFFFFFFFFFFFFFFFFFFFFFFF AND DUP5 PUSH2 0x209C JUMP JUMPDEST PUSH1 0xF PUSH1 0x2 SWAP1 SLOAD SWAP1 PUSH2 0x100 EXP SWAP1 DIV PUSH20 0xFFFFFFFFFFFFFFFFFFFFFFFFFFFFFFFFFFFFFFFF AND PUSH20 0xFFFFFFFFFFFFFFFFFFFFFFFFFFFFFFFFFFFFFFFF AND PUSH4 0x791AC947 DUP4 PUSH1 0x0 DUP5 ADDRESS TIMESTAMP PUSH1 0x40 MLOAD DUP7 PUSH4 0xFFFFFFFF AND PUSH1 0xE0 SHL DUP2 MSTORE PUSH1 0x4 ADD PUSH2 0x2E3D SWAP6 SWAP5 SWAP4 SWAP3 SWAP2 SWAP1 PUSH2 0x3BAF JUMP JUMPDEST PUSH1 0x0 PUSH1 0x40 MLOAD DUP1 DUP4 SUB DUP2 PUSH1 0x0 DUP8 DUP1 EXTCODESIZE ISZERO DUP1 ISZERO PUSH2 0x2E57 JUMPI PUSH1 0x0 DUP1 REVERT JUMPDEST POP GAS CALL ISZERO DUP1 ISZERO PUSH2 0x2E6B JUMPI RETURNDATASIZE PUSH1 0x0 DUP1 RETURNDATACOPY RETURNDATASIZE PUSH1 0x0 REVERT JUMPDEST POP POP POP POP POP POP JUMP JUMPDEST PUSH1 0x0 PUSH20 0xFFFFFFFFFFFFFFFFFFFFFFFFFFFFFFFFFFFFFFFF AND PUSH1 0xF PUSH1 0x2 SWAP1 SLOAD SWAP1 PUSH2 0x100 EXP SWAP1 DIV PUSH20 0xFFFFFFFFFFFFFFFFFFFFFFFFFFFFFFFFFFFFFFFF AND PUSH20 0xFFFFFFFFFFFFFFFFFFFFFFFFFFFFFFFFFFFFFFFF AND SUB PUSH2 0x2EFB JUMPI PUSH1 0x40 MLOAD PUSH32 0xD92E233D00000000000000000000000000000000000000000000000000000000 DUP2 MSTORE PUSH1 0x4 ADD PUSH1 0x40 MLOAD DUP1 SWAP2 SUB SWAP1 REVERT JUMPDEST PUSH2 0x2F28 ADDRESS PUSH1 0xF PUSH1 0x2 SWAP1 SLOAD SWAP1 PUSH2 0x100 EXP SWAP1 DIV PUSH20 0xFFFFFFFFFFFFFFFFFFFFFFFFFFFFFFFFFFFFFFFF AND DUP5 PUSH2 0x209C JUMP JUMPDEST PUSH1 0x0 DUP1 PUSH1 0x0 PUSH1 0xF PUSH1 0x2 SWAP1 SLOAD SWAP1 PUSH2 0x100 EXP SWAP1 DIV PUSH20 0xFFFFFFFFFFFFFFFFFFFFFFFFFFFFFFFFFFFFFFFF AND PUSH20 0xFFFFFFFFFFFFFFFFFFFFFFFFFFFFFFFFFFFFFFFF AND PUSH4 0xF305D719 DUP6 ADDRESS DUP9 PUSH1 0x0 DUP1 PUSH2 0x2F79 PUSH2 0x1623 JUMP JUMPDEST TIMESTAMP PUSH1 0x40 MLOAD DUP9 PUSH4 0xFFFFFFFF AND PUSH1 0xE0 SHL DUP2 MSTORE PUSH1 0x4 ADD PUSH2 0x2F9B SWAP7 SWAP6 SWAP5 SWAP4 SWAP3 SWAP2 SWAP1 PUSH2 0x3C09 JUMP JUMPDEST PUSH1 0x60 PUSH1 0x40 MLOAD DUP1 DUP4 SUB DUP2 DUP6 DUP9 GAS CALL ISZERO DUP1 ISZERO PUSH2 0x2FB9 JUMPI RETURNDATASIZE PUSH1 0x0 DUP1 RETURNDATACOPY RETURNDATASIZE PUSH1 0x0 REVERT JUMPDEST POP POP POP POP POP PUSH1 0x40 MLOAD RETURNDATASIZE PUSH1 0x1F NOT PUSH1 0x1F DUP3 ADD AND DUP3 ADD DUP1 PUSH1 0x40 MSTORE POP DUP2 ADD SWAP1 PUSH2 0x2FDE SWAP2 SWAP1 PUSH2 0x3C7F JUMP JUMPDEST SWAP3 POP SWAP3 POP SWAP3 POP PUSH1 0x0 DUP2 SUB PUSH2 0x301E JUMPI PUSH1 0x40 MLOAD PUSH32 0xB657FE1300000000000000000000000000000000000000000000000000000000 DUP2 MSTORE PUSH1 0x4 ADD PUSH1 0x40 MLOAD DUP1 SWAP2 SUB SWAP1 REVERT JUMPDEST PUSH32 0xD7F28048575EEAD8851D024EAD087913957DFB4FD1A02B4D1573F5352A5A2BE3 DUP4 DUP4 DUP4 PUSH1 0x40 MLOAD PUSH2 0x3051 SWAP4 SWAP3 SWAP2 SWAP1 PUSH2 0x3987 JUMP JUMPDEST PUSH1 0x40 MLOAD DUP1 SWAP2 SUB SWAP1 LOG1 POP POP POP POP POP JUMP JUMPDEST PUSH1 0x0 DUP2 ISZERO ISZERO SWAP1 POP SWAP2 SWAP1 POP JUMP JUMPDEST PUSH2 0x3075 DUP2 PUSH2 0x3060 JUMP JUMPDEST DUP3 MSTORE POP POP JUMP JUMPDEST PUSH1 0x0 PUSH1 0x20 DUP3 ADD SWAP1 POP PUSH2 0x3090 PUSH1 0x0 DUP4 ADD DUP5 PUSH2 0x306C JUMP JUMPDEST SWAP3 SWAP2 POP POP JUMP JUMPDEST PUSH1 0x0 DUP2 MLOAD SWAP1 POP SWAP2 SWAP1 POP JUMP JUMPDEST PUSH1 0x0 DUP3 DUP3 MSTORE PUSH1 0x20 DUP3 ADD SWAP1 POP SWAP3 SWAP2 POP POP JUMP JUMPDEST PUSH1 0x0 JUMPDEST DUP4 DUP2 LT ISZERO PUSH2 0x30D0 JUMPI DUP1 DUP3 ADD MLOAD DUP2 DUP5 ADD MSTORE PUSH1 0x20 DUP2 ADD SWAP1 POP PUSH2 0x30B5 JUMP JUMPDEST PUSH1 0x0 DUP5 DUP5 ADD MSTORE POP POP POP POP JUMP JUMPDEST PUSH1 0x0 PUSH1 0x1F NOT PUSH1 0x1F DUP4 ADD AND SWAP1 POP SWAP2 SWAP1 POP JUMP JUMPDEST PUSH1 0x0 PUSH2 0x30F8 DUP3 PUSH2 0x3096 JUMP JUMPDEST PUSH2 0x3102 DUP2 DUP6 PUSH2 0x30A1 JUMP JUMPDEST SWAP4 POP PUSH2 0x3112 DUP2 DUP6 PUSH1 0x20 DUP7 ADD PUSH2 0x30B2 JUMP JUMPDEST PUSH2 0x311B DUP2 PUSH2 0x30DC JUMP JUMPDEST DUP5 ADD SWAP2 POP POP SWAP3 SWAP2 POP POP JUMP JUMPDEST PUSH1 0x0 PUSH1 0x20 DUP3 ADD SWAP1 POP DUP2 DUP2 SUB PUSH1 0x0 DUP4 ADD MSTORE PUSH2 0x3140 DUP2 DUP5 PUSH2 0x30ED JUMP JUMPDEST SWAP1 POP SWAP3 SWAP2 POP POP JUMP JUMPDEST PUSH1 0x0 DUP1 REVERT JUMPDEST PUSH1 0x0 DUP2 SWAP1 POP SWAP2 SWAP1 POP JUMP JUMPDEST PUSH2 0x3160 DUP2 PUSH2 0x314D JUMP JUMPDEST DUP2 EQ PUSH2 0x316B JUMPI PUSH1 0x0 DUP1 REVERT JUMPDEST POP JUMP JUMPDEST PUSH1 0x0 DUP2 CALLDATALOAD SWAP1 POP PUSH2 0x317D DUP2 PUSH2 0x3157 JUMP JUMPDEST SWAP3 SWAP2 POP POP JUMP JUMPDEST PUSH1 0x0 PUSH1 0x20 DUP3 DUP5 SUB SLT ISZERO PUSH2 0x3199 JUMPI PUSH2 0x3198 PUSH2 0x3148 JUMP JUMPDEST JUMPDEST PUSH1 0x0 PUSH2 0x31A7 DUP5 DUP3 DUP6 ADD PUSH2 0x316E JUMP JUMPDEST SWAP2 POP POP SWAP3 SWAP2 POP POP JUMP JUMPDEST PUSH1 0x0 PUSH20 0xFFFFFFFFFFFFFFFFFFFFFFFFFFFFFFFFFFFFFFFF DUP3 AND SWAP1 POP SWAP2 SWAP1 POP JUMP JUMPDEST PUSH1 0x0 PUSH2 0x31DB DUP3 PUSH2 0x31B0 JUMP JUMPDEST SWAP1 POP SWAP2 SWAP1 POP JUMP JUMPDEST PUSH2 0x31EB DUP2 PUSH2 0x31D0 JUMP JUMPDEST DUP3 MSTORE POP POP JUMP JUMPDEST PUSH2 0x31FA DUP2 PUSH2 0x314D JUMP JUMPDEST DUP3 MSTORE POP POP JUMP JUMPDEST PUSH1 0x0 PUSH1 0x40 DUP3 ADD SWAP1 POP PUSH2 0x3215 PUSH1 0x0 DUP4 ADD DUP6 PUSH2 0x31E2 JUMP JUMPDEST PUSH2 0x3222 PUSH1 0x20 DUP4 ADD DUP5 PUSH2 0x31F1 JUMP JUMPDEST SWAP4 SWAP3 POP POP POP JUMP JUMPDEST PUSH2 0x3232 DUP2 PUSH2 0x31D0 JUMP JUMPDEST DUP2 EQ PUSH2 0x323D JUMPI PUSH1 0x0 DUP1 REVERT JUMPDEST POP JUMP JUMPDEST PUSH1 0x0 DUP2 CALLDATALOAD SWAP1 POP PUSH2 0x324F DUP2 PUSH2 0x3229 JUMP JUMPDEST SWAP3 SWAP2 POP POP JUMP JUMPDEST PUSH1 0x0 DUP1 PUSH1 0x40 DUP4 DUP6 SUB SLT ISZERO PUSH2 0x326C JUMPI PUSH2 0x326B PUSH2 0x3148 JUMP JUMPDEST JUMPDEST PUSH1 0x0 PUSH2 0x327A DUP6 DUP3 DUP7 ADD PUSH2 0x3240 JUMP JUMPDEST SWAP3 POP POP PUSH1 0x20 PUSH2 0x328B DUP6 DUP3 DUP7 ADD PUSH2 0x316E JUMP JUMPDEST SWAP2 POP POP SWAP3 POP SWAP3 SWAP1 POP JUMP JUMPDEST PUSH1 0x0 DUP1 PUSH1 0x40 DUP4 DUP6 SUB SLT ISZERO PUSH2 0x32AC JUMPI PUSH2 0x32AB PUSH2 0x3148 JUMP JUMPDEST JUMPDEST PUSH1 0x0 PUSH2 0x32BA DUP6 DUP3 DUP7 ADD PUSH2 0x316E JUMP JUMPDEST SWAP3 POP POP PUSH1 0x20 PUSH2 0x32CB DUP6 DUP3 DUP7 ADD PUSH2 0x316E JUMP JUMPDEST SWAP2 POP POP SWAP3 POP SWAP3 SWAP1 POP JUMP JUMPDEST PUSH1 0x0 DUP2 SWAP1 POP SWAP2 SWAP1 POP JUMP JUMPDEST PUSH1 0x0 PUSH2 0x32FA PUSH2 0x32F5 PUSH2 0x32F0 DUP5 PUSH2 0x31B0 JUMP JUMPDEST PUSH2 0x32D5 JUMP JUMPDEST PUSH2 0x31B0 JUMP JUMPDEST SWAP1 POP SWAP2 SWAP1 POP JUMP JUMPDEST PUSH1 0x0 PUSH2 0x330C DUP3 PUSH2 0x32DF JUMP JUMPDEST SWAP1 POP SWAP2 SWAP1 POP JUMP JUMPDEST PUSH1 0x0 PUSH2 0x331E DUP3 PUSH2 0x3301 JUMP JUMPDEST SWAP1 POP SWAP2 SWAP1 POP JUMP JUMPDEST PUSH2 0x332E DUP2 PUSH2 0x3313 JUMP JUMPDEST DUP3 MSTORE POP POP JUMP JUMPDEST PUSH1 0x0 PUSH1 0x20 DUP3 ADD SWAP1 POP PUSH2 0x3349 PUSH1 0x0 DUP4 ADD DUP5 PUSH2 0x3325 JUMP JUMPDEST SWAP3 SWAP2 POP POP JUMP JUMPDEST PUSH1 0x0 PUSH1 0x20 DUP3 ADD SWAP1 POP PUSH2 0x3364 PUSH1 0x0 DUP4 ADD DUP5 PUSH2 0x31F1 JUMP JUMPDEST SWAP3 SWAP2 POP POP JUMP JUMPDEST PUSH1 0x0 DUP1 PUSH1 0x0 PUSH1 0x60 DUP5 DUP7 SUB SLT ISZERO PUSH2 0x3383 JUMPI PUSH2 0x3382 PUSH2 0x3148 JUMP JUMPDEST JUMPDEST PUSH1 0x0 PUSH2 0x3391 DUP7 DUP3 DUP8 ADD PUSH2 0x3240 JUMP JUMPDEST SWAP4 POP POP PUSH1 0x20 PUSH2 0x33A2 DUP7 DUP3 DUP8 ADD PUSH2 0x3240 JUMP JUMPDEST SWAP3 POP POP PUSH1 0x40 PUSH2 0x33B3 DUP7 DUP3 DUP8 ADD PUSH2 0x316E JUMP JUMPDEST SWAP2 POP POP SWAP3 POP SWAP3 POP SWAP3 JUMP JUMPDEST PUSH1 0x0 PUSH1 0x20 DUP3 DUP5 SUB SLT ISZERO PUSH2 0x33D3 JUMPI PUSH2 0x33D2 PUSH2 0x3148 JUMP JUMPDEST JUMPDEST PUSH1 0x0 PUSH2 0x33E1 DUP5 DUP3 DUP6 ADD PUSH2 0x3240 JUMP JUMPDEST SWAP2 POP POP SWAP3 SWAP2 POP POP JUMP JUMPDEST PUSH1 0x0 PUSH1 0xFF DUP3 AND SWAP1 POP SWAP2 SWAP1 POP JUMP JUMPDEST PUSH2 0x3400 DUP2 PUSH2 0x33EA JUMP JUMPDEST DUP3 MSTORE POP POP JUMP JUMPDEST PUSH1 0x0 PUSH1 0x20 DUP3 ADD SWAP1 POP PUSH2 0x341B PUSH1 0x0 DUP4 ADD DUP5 PUSH2 0x33F7 JUMP JUMPDEST SWAP3 SWAP2 POP POP JUMP JUMPDEST PUSH1 0x0 PUSH1 0x20 DUP3 ADD SWAP1 POP PUSH2 0x3436 PUSH1 0x0 DUP4 ADD DUP5 PUSH2 0x31E2 JUMP JUMPDEST SWAP3 SWAP2 POP POP JUMP JUMPDEST PUSH2 0x3445 DUP2 PUSH2 0x3060 JUMP JUMPDEST DUP2 EQ PUSH2 0x3450 JUMPI PUSH1 0x0 DUP1 REVERT JUMPDEST POP JUMP JUMPDEST PUSH1 0x0 DUP2 CALLDATALOAD SWAP1 POP PUSH2 0x3462 DUP2 PUSH2 0x343C JUMP JUMPDEST SWAP3 SWAP2 POP POP JUMP JUMPDEST PUSH1 0x0 PUSH1 0x20 DUP3 DUP5 SUB SLT ISZERO PUSH2 0x347E JUMPI PUSH2 0x347D PUSH2 0x3148 JUMP JUMPDEST JUMPDEST PUSH1 0x0 PUSH2 0x348C DUP5 DUP3 DUP6 ADD PUSH2 0x3453 JUMP JUMPDEST SWAP2 POP POP SWAP3 SWAP2 POP POP JUMP JUMPDEST PUSH1 0x0 DUP1 PUSH1 0x40 DUP4 DUP6 SUB SLT ISZERO PUSH2 0x34AC JUMPI PUSH2 0x34AB PUSH2 0x3148 JUMP JUMPDEST JUMPDEST PUSH1 0x0 PUSH2 0x34BA DUP6 DUP3 DUP7 ADD PUSH2 0x3240 JUMP JUMPDEST SWAP3 POP POP PUSH1 0x20 PUSH2 0x34CB DUP6 DUP3 DUP7 ADD PUSH2 0x3240 JUMP JUMPDEST SWAP2 POP POP SWAP3 POP SWAP3 SWAP1 POP JUMP JUMPDEST PUSH32 0x4E487B7100000000000000000000000000000000000000000000000000000000 PUSH1 0x0 MSTORE PUSH1 0x22 PUSH1 0x4 MSTORE PUSH1 0x24 PUSH1 0x0 REVERT JUMPDEST PUSH1 0x0 PUSH1 0x2 DUP3 DIV SWAP1 POP PUSH1 0x1 DUP3 AND DUP1 PUSH2 0x351C JUMPI PUSH1 0x7F DUP3 AND SWAP2 POP JUMPDEST PUSH1 0x20 DUP3 LT DUP2 SUB PUSH2 0x352F JUMPI PUSH2 0x352E PUSH2 0x34D5 JUMP JUMPDEST JUMPDEST POP SWAP2 SWAP1 POP JUMP JUMPDEST PUSH32 0x4E487B7100000000000000000000000000000000000000000000000000000000 PUSH1 0x0 MSTORE PUSH1 0x11 PUSH1 0x4 MSTORE PUSH1 0x24 PUSH1 0x0 REVERT JUMPDEST PUSH1 0x0 PUSH2 0x356F DUP3 PUSH2 0x314D JUMP JUMPDEST SWAP2 POP PUSH2 0x357A DUP4 PUSH2 0x314D JUMP JUMPDEST SWAP3 POP DUP3 DUP3 ADD SWAP1 POP DUP1 DUP3 GT ISZERO PUSH2 0x3592 JUMPI PUSH2 0x3591 PUSH2 0x3535 JUMP JUMPDEST JUMPDEST SWAP3 SWAP2 POP POP JUMP JUMPDEST PUSH1 0x0 PUSH1 0x40 DUP3 ADD SWAP1 POP PUSH2 0x35AD PUSH1 0x0 DUP4 ADD DUP6 PUSH2 0x31F1 JUMP JUMPDEST PUSH2 0x35BA PUSH1 0x20 DUP4 ADD DUP5 PUSH2 0x31F1 JUMP JUMPDEST SWAP4 SWAP3 POP POP POP JUMP JUMPDEST PUSH32 0x546F6B656E6F6D69637320616C726561647920696E697469616C697A65642100 PUSH1 0x0 DUP3 ADD MSTORE POP JUMP JUMPDEST PUSH1 0x0 PUSH2 0x35F7 PUSH1 0x1F DUP4 PUSH2 0x30A1 JUMP JUMPDEST SWAP2 POP PUSH2 0x3602 DUP3 PUSH2 0x35C1 JUMP JUMPDEST PUSH1 0x20 DUP3 ADD SWAP1 POP SWAP2 SWAP1 POP JUMP JUMPDEST PUSH1 0x0 PUSH1 0x20 DUP3 ADD SWAP1 POP DUP2 DUP2 SUB PUSH1 0x0 DUP4 ADD MSTORE PUSH2 0x3626 DUP2 PUSH2 0x35EA JUMP JUMPDEST SWAP1 POP SWAP2 SWAP1 POP JUMP JUMPDEST PUSH32 0x4E487B7100000000000000000000000000000000000000000000000000000000 PUSH1 0x0 MSTORE PUSH1 0x32 PUSH1 0x4 MSTORE PUSH1 0x24 PUSH1 0x0 REVERT JUMPDEST PUSH1 0x0 PUSH2 0x3667 DUP3 PUSH2 0x314D JUMP JUMPDEST SWAP2 POP PUSH2 0x3672 DUP4 PUSH2 0x314D JUMP JUMPDEST SWAP3 POP DUP3 DUP3 MUL PUSH2 0x3680 DUP2 PUSH2 0x314D JUMP JUMPDEST SWAP2 POP DUP3 DUP3 DIV DUP5 EQ DUP4 ISZERO OR PUSH2 0x3697 JUMPI PUSH2 0x3696 PUSH2 0x3535 JUMP JUMPDEST JUMPDEST POP SWAP3 SWAP2 POP POP JUMP JUMPDEST PUSH32 0x4E487B7100000000000000000000000000000000000000000000000000000000 PUSH1 0x0 MSTORE PUSH1 0x12 PUSH1 0x4 MSTORE PUSH1 0x24 PUSH1 0x0 REVERT JUMPDEST PUSH1 0x0 PUSH2 0x36D8 DUP3 PUSH2 0x314D JUMP JUMPDEST SWAP2 POP PUSH2 0x36E3 DUP4 PUSH2 0x314D JUMP JUMPDEST SWAP3 POP DUP3 PUSH2 0x36F3 JUMPI PUSH2 0x36F2 PUSH2 0x369E JUMP JUMPDEST JUMPDEST DUP3 DUP3 DIV SWAP1 POP SWAP3 SWAP2 POP POP JUMP JUMPDEST PUSH32 0x5A65726F20616464726573730000000000000000000000000000000000000000 PUSH1 0x0 DUP3 ADD MSTORE POP JUMP JUMPDEST PUSH1 0x0 PUSH2 0x3734 PUSH1 0xC DUP4 PUSH2 0x30A1 JUMP JUMPDEST SWAP2 POP PUSH2 0x373F DUP3 PUSH2 0x36FE JUMP JUMPDEST PUSH1 0x20 DUP3 ADD SWAP1 POP SWAP2 SWAP1 POP JUMP JUMPDEST PUSH1 0x0 PUSH1 0x20 DUP3 ADD SWAP1 POP DUP2 DUP2 SUB PUSH1 0x0 DUP4 ADD MSTORE PUSH2 0x3763 DUP2 PUSH2 0x3727 JUMP JUMPDEST SWAP1 POP SWAP2 SWAP1 POP JUMP JUMPDEST PUSH1 0x0 DUP2 MLOAD SWAP1 POP PUSH2 0x3779 DUP2 PUSH2 0x3229 JUMP JUMPDEST SWAP3 SWAP2 POP POP JUMP JUMPDEST PUSH1 0x0 PUSH1 0x20 DUP3 DUP5 SUB SLT ISZERO PUSH2 0x3795 JUMPI PUSH2 0x3794 PUSH2 0x3148 JUMP JUMPDEST JUMPDEST PUSH1 0x0 PUSH2 0x37A3 DUP5 DUP3 DUP6 ADD PUSH2 0x376A JUMP JUMPDEST SWAP2 POP POP SWAP3 SWAP2 POP POP JUMP JUMPDEST PUSH1 0x0 PUSH1 0x40 DUP3 ADD SWAP1 POP PUSH2 0x37C1 PUSH1 0x0 DUP4 ADD DUP6 PUSH2 0x31E2 JUMP JUMPDEST PUSH2 0x37CE PUSH1 0x20 DUP4 ADD DUP5 PUSH2 0x31E2 JUMP JUMPDEST SWAP4 SWAP3 POP POP POP JUMP JUMPDEST PUSH1 0x0 DUP2 PUSH1 0x1 SHR SWAP1 POP SWAP2 SWAP1 POP JUMP JUMPDEST PUSH1 0x0 DUP1 DUP3 SWAP2 POP DUP4 SWAP1 POP JUMPDEST PUSH1 0x1 DUP6 GT ISZERO PUSH2 0x382C JUMPI DUP1 DUP7 DIV DUP2 GT ISZERO PUSH2 0x3808 JUMPI PUSH2 0x3807 PUSH2 0x3535 JUMP JUMPDEST JUMPDEST PUSH1 0x1 DUP6 AND ISZERO PUSH2 0x3817 JUMPI DUP1 DUP3 MUL SWAP2 POP JUMPDEST DUP1 DUP2 MUL SWAP1 POP PUSH2 0x3825 DUP6 PUSH2 0x37D5 JUMP JUMPDEST SWAP5 POP PUSH2 0x37EC JUMP JUMPDEST SWAP5 POP SWAP5 SWAP3 POP POP POP JUMP JUMPDEST PUSH1 0x0 DUP3 PUSH2 0x3845 JUMPI PUSH1 0x1 SWAP1 POP PUSH2 0x3901 JUMP JUMPDEST DUP2 PUSH2 0x3853 JUMPI PUSH1 0x0 SWAP1 POP PUSH2 0x3901 JUMP JUMPDEST DUP2 PUSH1 0x1 DUP2 EQ PUSH2 0x3869 JUMPI PUSH1 0x2 DUP2 EQ PUSH2 0x3873 JUMPI PUSH2 0x38A2 JUMP JUMPDEST PUSH1 0x1 SWAP2 POP POP PUSH2 0x3901 JUMP JUMPDEST PUSH1 0xFF DUP5 GT ISZERO PUSH2 0x3885 JUMPI PUSH2 0x3884 PUSH2 0x3535 JUMP JUMPDEST JUMPDEST DUP4 PUSH1 0x2 EXP SWAP2 POP DUP5 DUP3 GT ISZERO PUSH2 0x389C JUMPI PUSH2 0x389B PUSH2 0x3535 JUMP JUMPDEST JUMPDEST POP PUSH2 0x3901 JUMP JUMPDEST POP PUSH1 0x20 DUP4 LT PUSH2 0x133 DUP4 LT AND PUSH1 0x4E DUP5 LT PUSH1 0xB DUP5 LT AND OR ISZERO PUSH2 0x38D7 JUMPI DUP3 DUP3 EXP SWAP1 POP DUP4 DUP2 GT ISZERO PUSH2 0x38D2 JUMPI PUSH2 0x38D1 PUSH2 0x3535 JUMP JUMPDEST JUMPDEST PUSH2 0x3901 JUMP JUMPDEST PUSH2 0x38E4 DUP5 DUP5 DUP5 PUSH1 0x1 PUSH2 0x37E2 JUMP JUMPDEST SWAP3 POP SWAP1 POP DUP2 DUP5 DIV DUP2 GT ISZERO PUSH2 0x38FB JUMPI PUSH2 0x38FA PUSH2 0x3535 JUMP JUMPDEST JUMPDEST DUP2 DUP2 MUL SWAP1 POP JUMPDEST SWAP4 SWAP3 POP POP POP JUMP JUMPDEST PUSH1 0x0 PUSH2 0x3913 DUP3 PUSH2 0x314D JUMP JUMPDEST SWAP2 POP PUSH2 0x391E DUP4 PUSH2 0x33EA JUMP JUMPDEST SWAP3 POP PUSH2 0x394B PUSH32 0xFFFFFFFFFFFFFFFFFFFFFFFFFFFFFFFFFFFFFFFFFFFFFFFFFFFFFFFFFFFFFFFF DUP5 DUP5 PUSH2 0x3835 JUMP JUMPDEST SWAP1 POP SWAP3 SWAP2 POP POP JUMP JUMPDEST PUSH1 0x0 PUSH2 0x395E DUP3 PUSH2 0x314D JUMP JUMPDEST SWAP2 POP PUSH2 0x3969 DUP4 PUSH2 0x314D JUMP JUMPDEST SWAP3 POP DUP3 DUP3 SUB SWAP1 POP DUP2 DUP2 GT ISZERO PUSH2 0x3981 JUMPI PUSH2 0x3980 PUSH2 0x3535 JUMP JUMPDEST JUMPDEST SWAP3 SWAP2 POP POP JUMP JUMPDEST PUSH1 0x0 PUSH1 0x60 DUP3 ADD SWAP1 POP PUSH2 0x399C PUSH1 0x0 DUP4 ADD DUP7 PUSH2 0x31F1 JUMP JUMPDEST PUSH2 0x39A9 PUSH1 0x20 DUP4 ADD DUP6 PUSH2 0x31F1 JUMP JUMPDEST PUSH2 0x39B6 PUSH1 0x40 DUP4 ADD DUP5 PUSH2 0x31F1 JUMP JUMPDEST SWAP5 SWAP4 POP POP POP POP JUMP JUMPDEST PUSH32 0x546F74616C20737570706C79206D757374206265206772656174657220746861 PUSH1 0x0 DUP3 ADD MSTORE PUSH32 0x6E207A65726F0000000000000000000000000000000000000000000000000000 PUSH1 0x20 DUP3 ADD MSTORE POP JUMP JUMPDEST PUSH1 0x0 PUSH2 0x3A1A PUSH1 0x26 DUP4 PUSH2 0x30A1 JUMP JUMPDEST SWAP2 POP PUSH2 0x3A25 DUP3 PUSH2 0x39BE JUMP JUMPDEST PUSH1 0x40 DUP3 ADD SWAP1 POP SWAP2 SWAP1 POP JUMP JUMPDEST PUSH1 0x0 PUSH1 0x20 DUP3 ADD SWAP1 POP DUP2 DUP2 SUB PUSH1 0x0 DUP4 ADD MSTORE PUSH2 0x3A49 DUP2 PUSH2 0x3A0D JUMP JUMPDEST SWAP1 POP SWAP2 SWAP1 POP JUMP JUMPDEST PUSH1 0x0 DUP2 SWAP1 POP SWAP2 SWAP1 POP JUMP JUMPDEST PUSH1 0x0 PUSH2 0x3A75 PUSH2 0x3A70 PUSH2 0x3A6B DUP5 PUSH2 0x3A50 JUMP JUMPDEST PUSH2 0x32D5 JUMP JUMPDEST PUSH2 0x314D JUMP JUMPDEST SWAP1 POP SWAP2 SWAP1 POP JUMP JUMPDEST PUSH2 0x3A85 DUP2 PUSH2 0x3A5A JUMP JUMPDEST DUP3 MSTORE POP POP JUMP JUMPDEST PUSH1 0x0 PUSH1 0x60 DUP3 ADD SWAP1 POP PUSH2 0x3AA0 PUSH1 0x0 DUP4 ADD DUP7 PUSH2 0x31F1 JUMP JUMPDEST PUSH2 0x3AAD PUSH1 0x20 DUP4 ADD DUP6 PUSH2 0x3A7C JUMP JUMPDEST PUSH2 0x3ABA PUSH1 0x40 DUP4 ADD DUP5 PUSH2 0x3A7C JUMP JUMPDEST SWAP5 SWAP4 POP POP POP POP JUMP JUMPDEST PUSH32 0x4E487B7100000000000000000000000000000000000000000000000000000000 PUSH1 0x0 MSTORE PUSH1 0x41 PUSH1 0x4 MSTORE PUSH1 0x24 PUSH1 0x0 REVERT JUMPDEST PUSH1 0x0 DUP2 MLOAD SWAP1 POP SWAP2 SWAP1 POP JUMP JUMPDEST PUSH1 0x0 DUP3 DUP3 MSTORE PUSH1 0x20 DUP3 ADD SWAP1 POP SWAP3 SWAP2 POP POP JUMP JUMPDEST PUSH1 0x0 DUP2 SWAP1 POP PUSH1 0x20 DUP3 ADD SWAP1 POP SWAP2 SWAP1 POP JUMP JUMPDEST PUSH2 0x3B26 DUP2 PUSH2 0x31D0 JUMP JUMPDEST DUP3 MSTORE POP POP JUMP JUMPDEST PUSH1 0x0 PUSH2 0x3B38 DUP4 DUP4 PUSH2 0x3B1D JUMP JUMPDEST PUSH1 0x20 DUP4 ADD SWAP1 POP SWAP3 SWAP2 POP POP JUMP JUMPDEST PUSH1 0x0 PUSH1 0x20 DUP3 ADD SWAP1 POP SWAP2 SWAP1 POP JUMP JUMPDEST PUSH1 0x0 PUSH2 0x3B5C DUP3 PUSH2 0x3AF1 JUMP JUMPDEST PUSH2 0x3B66 DUP2 DUP6 PUSH2 0x3AFC JUMP JUMPDEST SWAP4 POP PUSH2 0x3B71 DUP4 PUSH2 0x3B0D JUMP JUMPDEST DUP1 PUSH1 0x0 JUMPDEST DUP4 DUP2 LT ISZERO PUSH2 0x3BA2 JUMPI DUP2 MLOAD PUSH2 0x3B89 DUP9 DUP3 PUSH2 0x3B2C JUMP JUMPDEST SWAP8 POP PUSH2 0x3B94 DUP4 PUSH2 0x3B44 JUMP JUMPDEST SWAP3 POP POP PUSH1 0x1 DUP2 ADD SWAP1 POP PUSH2 0x3B75 JUMP JUMPDEST POP DUP6 SWAP4 POP POP POP POP SWAP3 SWAP2 POP POP JUMP JUMPDEST PUSH1 0x0 PUSH1 0xA0 DUP3 ADD SWAP1 POP PUSH2 0x3BC4 PUSH1 0x0 DUP4 ADD DUP9 PUSH2 0x31F1 JUMP JUMPDEST PUSH2 0x3BD1 PUSH1 0x20 DUP4 ADD DUP8 PUSH2 0x3A7C JUMP JUMPDEST DUP2 DUP2 SUB PUSH1 0x40 DUP4 ADD MSTORE PUSH2 0x3BE3 DUP2 DUP7 PUSH2 0x3B51 JUMP JUMPDEST SWAP1 POP PUSH2 0x3BF2 PUSH1 0x60 DUP4 ADD DUP6 PUSH2 0x31E2 JUMP JUMPDEST PUSH2 0x3BFF PUSH1 0x80 DUP4 ADD DUP5 PUSH2 0x31F1 JUMP JUMPDEST SWAP7 SWAP6 POP POP POP POP POP POP JUMP JUMPDEST PUSH1 0x0 PUSH1 0xC0 DUP3 ADD SWAP1 POP PUSH2 0x3C1E PUSH1 0x0 DUP4 ADD DUP10 PUSH2 0x31E2 JUMP JUMPDEST PUSH2 0x3C2B PUSH1 0x20 DUP4 ADD DUP9 PUSH2 0x31F1 JUMP JUMPDEST PUSH2 0x3C38 PUSH1 0x40 DUP4 ADD DUP8 PUSH2 0x3A7C JUMP JUMPDEST PUSH2 0x3C45 PUSH1 0x60 DUP4 ADD DUP7 PUSH2 0x3A7C JUMP JUMPDEST PUSH2 0x3C52 PUSH1 0x80 DUP4 ADD DUP6 PUSH2 0x31E2 JUMP JUMPDEST PUSH2 0x3C5F PUSH1 0xA0 DUP4 ADD DUP5 PUSH2 0x31F1 JUMP JUMPDEST SWAP8 SWAP7 POP POP POP POP POP POP POP JUMP JUMPDEST PUSH1 0x0 DUP2 MLOAD SWAP1 POP PUSH2 0x3C79 DUP2 PUSH2 0x3157 JUMP JUMPDEST SWAP3 SWAP2 POP POP JUMP JUMPDEST PUSH1 0x0 DUP1 PUSH1 0x0 PUSH1 0x60 DUP5 DUP7 SUB SLT ISZERO PUSH2 0x3C98 JUMPI PUSH2 0x3C97 PUSH2 0x3148 JUMP JUMPDEST JUMPDEST PUSH1 0x0 PUSH2 0x3CA6 DUP7 DUP3 DUP8 ADD PUSH2 0x3C6A JUMP JUMPDEST SWAP4 POP POP PUSH1 0x20 PUSH2 0x3CB7 DUP7 DUP3 DUP8 ADD PUSH2 0x3C6A JUMP JUMPDEST SWAP3 POP POP PUSH1 0x40 PUSH2 0x3CC8 DUP7 DUP3 DUP8 ADD PUSH2 0x3C6A JUMP JUMPDEST SWAP2 POP POP SWAP3 POP SWAP3 POP SWAP3 JUMP INVALID LOG2 PUSH5 0x6970667358 0x22 SLT KECCAK256 0x27 MUL DUP3 SWAP8 DIV CODESIZE 0xEE LOG3 RETURNDATASIZE SWAP10 0xE7 PUSH23 0x6CBB8ABFCFFD213C2B8A44DC172DA332D7539FE964736F PUSH13 0x634300081A0033000000000000 "},"methodIdentifiers":{"allowance(address,address)":"dd62ed3e","approve(address,uint256)":"095ea7b3","balanceOf(address)":"70a08231","burn(uint256)":"42966c68","configureSwapProtocol(address)":"bd90fc4e","decimals()":"313ce567","excludeFromFee(address)":"437823ec","includeInFee(address)":"ea2f0b37","initializeTokenomics()":"1e352ab5","isAccountExcludedFromFree(address)":"2e664829","isSwapAndLiquifyEnabled()":"04f377f8","liquidityFee()":"98118cb4","maxTxAmount()":"8c0b5e22","name()":"06fdde03","numTokensSellToAddToLiquidity()":"d12a7688","owner()":"8da5cb5b","reflectionBalanceOf(address)":"84aa9fb6","renounceOwnership()":"715018a6","setFees(uint256,uint256)":"0b78f9c0","setMaxTxAmount(uint256)":"ec28438a","setNumTokensSellToAddToLiquidity(uint256)":"f0f165af","setSwapAndLiquifyEnabled(bool)":"c49b9a80","swapAndLiquifyEnabled()":"4a74bb02","symbol()":"95d89b41","taxFee()":"a071dcf4","tokenomics(uint256)":"087a2daf","totalSupply()":"18160ddd","transfer(address,uint256)":"a9059cbb","transferFrom(address,address,uint256)":"23b872dd","transferOwnership(address)":"f2fde38b","uniswapV2Pair()":"49bd5a5e","uniswapV2Router()":"1694505e","updateUniswapV2Router(address)":"65b8dbc0","withdrawBNB(uint256)":"127f4b2e"}},"storageLayout":{"storage":[{"astId":8,"contract":"contracts/Caramelo.sol:Caramelo","label":"_owner","offset":0,"slot":"0","type":"t_address"},{"astId":180,"contract":"contracts/Caramelo.sol:Caramelo","label":"_status","offset":0,"slot":"1","type":"t_uint256"},{"astId":288,"contract":"contracts/Caramelo.sol:Caramelo","label":"_tTotal","offset":0,"slot":"2","type":"t_uint256"},{"astId":290,"contract":"contracts/Caramelo.sol:Caramelo","label":"_rTotal","offset":0,"slot":"3","type":"t_uint256"},{"astId":292,"contract":"contracts/Caramelo.sol:Caramelo","label":"_tFeeTotal","offset":0,"slot":"4","type":"t_uint256"},{"astId":294,"contract":"contracts/Caramelo.sol:Caramelo","label":"_name","offset":0,"slot":"5","type":"t_string_storage"},{"astId":296,"contract":"contracts/Caramelo.sol:Caramelo","label":"_symbol","offset":0,"slot":"6","type":"t_string_storage"},{"astId":298,"contract":"contracts/Caramelo.sol:Caramelo","label":"_decimals","offset":0,"slot":"7","type":"t_uint8"},{"astId":301,"contract":"contracts/Caramelo.sol:Caramelo","label":"initTokenomics","offset":1,"slot":"7","type":"t_bool"},{"astId":305,"contract":"contracts/Caramelo.sol:Caramelo","label":"_rOwned","offset":0,"slot":"8","type":"t_mapping(t_address,t_uint256)"},{"astId":311,"contract":"contracts/Caramelo.sol:Caramelo","label":"_allowances","offset":0,"slot":"9","type":"t_mapping(t_address,t_mapping(t_address,t_uint256))"},{"astId":315,"contract":"contracts/Caramelo.sol:Caramelo","label":"_isExcludedFromFee","offset":0,"slot":"10","type":"t_mapping(t_address,t_bool)"},{"astId":317,"contract":"contracts/Caramelo.sol:Caramelo","label":"taxFee","offset":0,"slot":"11","type":"t_uint256"},{"astId":319,"contract":"contracts/Caramelo.sol:Caramelo","label":"liquidityFee","offset":0,"slot":"12","type":"t_uint256"},{"astId":321,"contract":"contracts/Caramelo.sol:Caramelo","label":"maxTxAmount","offset":0,"slot":"13","type":"t_uint256"},{"astId":323,"contract":"contracts/Caramelo.sol:Caramelo","label":"numTokensSellToAddToLiquidity","offset":0,"slot":"14","type":"t_uint256"},{"astId":326,"contract":"contracts/Caramelo.sol:Caramelo","label":"swapAndLiquifyEnabled","offset":0,"slot":"15","type":"t_bool"},{"astId":329,"contract":"contracts/Caramelo.sol:Caramelo","label":"inSwapAndLiquify","offset":1,"slot":"15","type":"t_bool"},{"astId":332,"contract":"contracts/Caramelo.sol:Caramelo","label":"uniswapV2Router","offset":2,"slot":"15","type":"t_contract(IUniswapV2Router02)2893"},{"astId":334,"contract":"contracts/Caramelo.sol:Caramelo","label":"uniswapV2Pair","offset":0,"slot":"16","type":"t_address"},{"astId":442,"contract":"contracts/Caramelo.sol:Caramelo","label":"tokenomics","offset":0,"slot":"17","type":"t_array(t_struct(TokenomicsConfig)436_storage)6_storage"}],"types":{"t_address":{"encoding":"inplace","label":"address","numberOfBytes":"20"},"t_array(t_struct(TokenomicsConfig)436_storage)6_storage":{"base":"t_struct(TokenomicsConfig)436_storage","encoding":"inplace","label":"struct Caramelo.TokenomicsConfig[6]","numberOfBytes":"384"},"t_bool":{"encoding":"inplace","label":"bool","numberOfBytes":"1"},"t_contract(IUniswapV2Router02)2893":{"encoding":"inplace","label":"contract IUniswapV2Router02","numberOfBytes":"20"},"t_mapping(t_address,t_bool)":{"encoding":"mapping","key":"t_address","label":"mapping(address => bool)","numberOfBytes":"32","value":"t_bool"},"t_mapping(t_address,t_mapping(t_address,t_uint256))":{"encoding":"mapping","key":"t_address","label":"mapping(address => mapping(address => uint256))","numberOfBytes":"32","value":"t_mapping(t_address,t_uint256)"},"t_mapping(t_address,t_uint256)":{"encoding":"mapping","key":"t_address","label":"mapping(address => uint256)","numberOfBytes":"32","value":"t_uint256"},"t_string_storage":{"encoding":"bytes","label":"string","numberOfBytes":"32"},"t_struct(TokenomicsConfig)436_storage":{"encoding":"inplace","label":"struct Caramelo.TokenomicsConfig","members":[{"astId":433,"contract":"contracts/Caramelo.sol:Caramelo","label":"wallet","offset":0,"slot":"0","type":"t_address"},{"astId":435,"contract":"contracts/Caramelo.sol:Caramelo","label":"percentage","offset":0,"slot":"1","type":"t_uint256"}],"numberOfBytes":"64"},"t_uint256":{"encoding":"inplace","label":"uint256","numberOfBytes":"32"},"t_uint8":{"encoding":"inplace","label":"uint8","numberOfBytes":"1"}}}}}}