{"abi":[{"type":"constructor","inputs":[],"stateMutability":"nonpayable"},{"type":"receive","stateMutability":"payable"},{"type":"function","name":"allowance","inputs":[{"name":"owner","type":"address","internalType":"address"},{"name":"spender","type":"address","internalType":"address"}],"outputs":[{"name":"","type":"uint256","internalType":"uint256"}],"stateMutability":"view"},{"type":"function","name":"approve","inputs":[{"name":"spender","type":"address","internalType":"address"},{"name":"amount","type":"uint256","internalType":"uint256"}],"outputs":[{"name":"","type":"bool","internalType":"bool"}],"stateMutability":"nonpayable"},{"type":"function","name":"balanceOf","inputs":[{"name":"account","type":"address","internalType":"address"}],"outputs":[{"name":"","type":"uint256","internalType":"uint256"}],"stateMutability":"view"},{"type":"function","name":"burnFee","inputs":[],"outputs":[{"name":"","type":"uint256","internalType":"uint256"}],"stateMutability":"view"},{"type":"function","name":"configureUniswap","inputs":[{"name":"routerAddress","type":"address","internalType":"address"}],"outputs":[],"stateMutability":"nonpayable"},{"type":"function","name":"contractVersion","inputs":[],"outputs":[{"name":"","type":"string","internalType":"string"}],"stateMutability":"view"},{"type":"function","name":"decimals","inputs":[],"outputs":[{"name":"","type":"uint8","internalType":"uint8"}],"stateMutability":"view"},{"type":"function","name":"excludeFromFee","inputs":[{"name":"account","type":"address","internalType":"address"}],"outputs":[],"stateMutability":"nonpayable"},{"type":"function","name":"freezeUpgrades","inputs":[],"outputs":[],"stateMutability":"nonpayable"},{"type":"function","name":"getImplementation","inputs":[],"outputs":[{"name":"","type":"address","internalType":"address"}],"stateMutability":"view"},{"type":"function","name":"includeInFee","inputs":[{"name":"account","type":"address","internalType":"address"}],"outputs":[],"stateMutability":"nonpayable"},{"type":"function","name":"initialize","inputs":[{"name":"tokenName","type":"string","internalType":"string"},{"name":"tokenSymbol","type":"string","internalType":"string"},{"name":"_totalSupply","type":"uint256","internalType":"uint256"},{"name":"_token_decimals","type":"uint8","internalType":"uint8"},{"name":"_taxFee","type":"uint256","internalType":"uint256"},{"name":"_liquidityFee","type":"uint256","internalType":"uint256"},{"name":"_burnFee","type":"uint256","internalType":"uint256"},{"name":"_maxTokensTXAmount","type":"uint256","internalType":"uint256"},{"name":"_numTokensSellToAddToLiquidity","type":"uint256","internalType":"uint256"},{"name":"version","type":"string","internalType":"string"}],"outputs":[],"stateMutability":"nonpayable"},{"type":"function","name":"isAccountExcludedFromFree","inputs":[{"name":"account","type":"address","internalType":"address"}],"outputs":[{"name":"","type":"bool","internalType":"bool"}],"stateMutability":"view"},{"type":"function","name":"isSwapAndLiquifyEnabled","inputs":[],"outputs":[{"name":"","type":"bool","internalType":"bool"}],"stateMutability":"view"},{"type":"function","name":"liquidityFee","inputs":[],"outputs":[{"name":"","type":"uint256","internalType":"uint256"}],"stateMutability":"view"},{"type":"function","name":"maxTxAmount","inputs":[],"outputs":[{"name":"","type":"uint256","internalType":"uint256"}],"stateMutability":"view"},{"type":"function","name":"name","inputs":[],"outputs":[{"name":"","type":"string","internalType":"string"}],"stateMutability":"view"},{"type":"function","name":"numTokensSellToAddToLiquidity","inputs":[],"outputs":[{"name":"","type":"uint256","internalType":"uint256"}],"stateMutability":"view"},{"type":"function","name":"owner","inputs":[],"outputs":[{"name":"","type":"address","internalType":"address"}],"stateMutability":"view"},{"type":"function","name":"proxiableUUID","inputs":[],"outputs":[{"name":"","type":"bytes32","internalType":"bytes32"}],"stateMutability":"view"},{"type":"function","name":"reflectionBalanceOf","inputs":[{"name":"account","type":"address","internalType":"address"}],"outputs":[{"name":"","type":"uint256","internalType":"uint256"}],"stateMutability":"view"},{"type":"function","name":"renounceOwnership","inputs":[],"outputs":[],"stateMutability":"nonpayable"},{"type":"function","name":"setFees","inputs":[{"name":"_taxFee","type":"uint256","internalType":"uint256"},{"name":"_liquidityFee","type":"uint256","internalType":"uint256"},{"name":"_burnFee","type":"uint256","internalType":"uint256"}],"outputs":[],"stateMutability":"nonpayable"},{"type":"function","name":"setMaxTxAmount","inputs":[{"name":"newMaxTxAmount","type":"uint256","internalType":"uint256"}],"outputs":[],"stateMutability":"nonpayable"},{"type":"function","name":"setNumTokensSellToAddToLiquidity","inputs":[{"name":"newNumTokensSellToAddToLiquidity","type":"uint256","internalType":"uint256"}],"outputs":[],"stateMutability":"nonpayable"},{"type":"function","name":"setSwapAndLiquifyEnabled","inputs":[{"name":"_enabled","type":"bool","internalType":"bool"}],"outputs":[],"stateMutability":"nonpayable"},{"type":"function","name":"swapAndLiquifyEnabled","inputs":[],"outputs":[{"name":"","type":"bool","internalType":"bool"}],"stateMutability":"view"},{"type":"function","name":"symbol","inputs":[],"outputs":[{"name":"","type":"string","internalType":"string"}],"stateMutability":"view"},{"type":"function","name":"taxFee","inputs":[],"outputs":[{"name":"","type":"uint256","internalType":"uint256"}],"stateMutability":"view"},{"type":"function","name":"totalSupply","inputs":[],"outputs":[{"name":"","type":"uint256","internalType":"uint256"}],"stateMutability":"view"},{"type":"function","name":"transfer","inputs":[{"name":"recipient","type":"address","internalType":"address"},{"name":"amount","type":"uint256","internalType":"uint256"}],"outputs":[{"name":"","type":"bool","internalType":"bool"}],"stateMutability":"nonpayable"},{"type":"function","name":"transferFrom","inputs":[{"name":"sender","type":"address","internalType":"address"},{"name":"recipient","type":"address","internalType":"address"},{"name":"amount","type":"uint256","internalType":"uint256"}],"outputs":[{"name":"","type":"bool","internalType":"bool"}],"stateMutability":"nonpayable"},{"type":"function","name":"transferOwnership","inputs":[{"name":"newOwner","type":"address","internalType":"address"}],"outputs":[],"stateMutability":"nonpayable"},{"type":"function","name":"uniswapV2Pair","inputs":[],"outputs":[{"name":"","type":"address","internalType":"address"}],"stateMutability":"view"},{"type":"function","name":"uniswapV2Router","inputs":[],"outputs":[{"name":"","type":"address","internalType":"contract IUniswapV2Router02"}],"stateMutability":"view"},{"type":"function","name":"updateUniswapV2Router","inputs":[{"name":"newRouter","type":"address","internalType":"address"}],"outputs":[],"stateMutability":"nonpayable"},{"type":"function","name":"upgradeTo","inputs":[{"name":"newImplementation","type":"address","internalType":"address"}],"outputs":[],"stateMutability":"nonpayable"},{"type":"function","name":"upgradeToAndCall","inputs":[{"name":"newImplementation","type":"address","internalType":"address"},{"name":"data","type":"bytes","internalType":"bytes"}],"outputs":[],"stateMutability":"payable"},{"type":"event","name":"AdminChanged","inputs":[{"name":"previousAdmin","type":"address","indexed":false,"internalType":"address"},{"name":"newAdmin","type":"address","indexed":false,"internalType":"address"}],"anonymous":false},{"type":"event","name":"Approval","inputs":[{"name":"owner","type":"address","indexed":true,"internalType":"address"},{"name":"spender","type":"address","indexed":true,"internalType":"address"},{"name":"value","type":"uint256","indexed":false,"internalType":"uint256"}],"anonymous":false},{"type":"event","name":"BeaconUpgraded","inputs":[{"name":"beacon","type":"address","indexed":true,"internalType":"address"}],"anonymous":false},{"type":"event","name":"ExcludedFromFee","inputs":[{"name":"account","type":"address","indexed":true,"internalType":"address"}],"anonymous":false},{"type":"event","name":"FeesDistributed","inputs":[{"name":"reflectionFee","type":"uint256","indexed":false,"internalType":"uint256"},{"name":"liquidityFee","type":"uint256","indexed":false,"internalType":"uint256"},{"name":"burnFee","type":"uint256","indexed":false,"internalType":"uint256"}],"anonymous":false},{"type":"event","name":"FeesUpdated","inputs":[{"name":"_taxFee","type":"uint256","indexed":true,"internalType":"uint256"},{"name":"_liquidityFee","type":"uint256","indexed":true,"internalType":"uint256"},{"name":"_burnFee","type":"uint256","indexed":true,"internalType":"uint256"}],"anonymous":false},{"type":"event","name":"IncludedInFee","inputs":[{"name":"account","type":"address","indexed":true,"internalType":"address"}],"anonymous":false},{"type":"event","name":"Initialized","inputs":[{"name":"version","type":"uint8","indexed":false,"internalType":"uint8"}],"anonymous":false},{"type":"event","name":"MaxTxAmountUpdated","inputs":[{"name":"newMaxTxAmount","type":"uint256","indexed":false,"internalType":"uint256"}],"anonymous":false},{"type":"event","name":"NumTokensSellToAddToLiquidityUpdated","inputs":[{"name":"newNumTokensSellToAddToLiquidity","type":"uint256","indexed":false,"internalType":"uint256"}],"anonymous":false},{"type":"event","name":"OwnershipTransferred","inputs":[{"name":"previousOwner","type":"address","indexed":true,"internalType":"address"},{"name":"newOwner","type":"address","indexed":true,"internalType":"address"}],"anonymous":false},{"type":"event","name":"SwapAndLiquify","inputs":[{"name":"tokensSwapped","type":"uint256","indexed":false,"internalType":"uint256"},{"name":"ethReceived","type":"uint256","indexed":false,"internalType":"uint256"},{"name":"tokensAddedToLiquidity","type":"uint256","indexed":false,"internalType":"uint256"}],"anonymous":false},{"type":"event","name":"SwapAndLiquifyEnabledUpdated","inputs":[{"name":"enabled","type":"bool","indexed":false,"internalType":"bool"}],"anonymous":false},{"type":"event","name":"TokensBurned","inputs":[{"name":"burner","type":"address","indexed":true,"internalType":"address"},{"name":"burnAmount","type":"uint256","indexed":false,"internalType":"uint256"}],"anonymous":false},{"type":"event","name":"Transfer","inputs":[{"name":"from","type":"address","indexed":true,"internalType":"address"},{"name":"to","type":"address","indexed":true,"internalType":"address"},{"name":"value","type":"uint256","indexed":false,"internalType":"uint256"}],"anonymous":false},{"type":"event","name":"UniswapConfigured","inputs":[{"name":"router","type":"address","indexed":true,"internalType":"address"},{"name":"pair","type":"address","indexed":true,"internalType":"address"}],"anonymous":false},{"type":"event","name":"UniswapV2RouterUpdated","inputs":[{"name":"newRouter","type":"address","indexed":false,"internalType":"address"}],"anonymous":false},{"type":"event","name":"Upgraded","inputs":[{"name":"implementation","type":"address","indexed":true,"internalType":"address"}],"anonymous":false},{"type":"error","name":"AlreadyExcluded","inputs":[]},{"type":"error","name":"FeesExceeded","inputs":[{"name":"totalFees","type":"uint256","internalType":"uint256"}]},{"type":"error","name":"InsufficientBalance","inputs":[{"name":"available","type":"uint256","internalType":"uint256"},{"name":"required","type":"uint256","internalType":"uint256"}]},{"type":"error","name":"InvalidAmount","inputs":[]},{"type":"error","name":"InvalidImplementation","inputs":[]},{"type":"error","name":"MaxTransactionExceeded","inputs":[{"name":"maxTxAmount","type":"uint256","internalType":"uint256"},{"name":"attemptedAmount","type":"uint256","internalType":"uint256"}]},{"type":"error","name":"NotExcluded","inputs":[]},{"type":"error","name":"NumTokensSellToAddToLiquidityFailed","inputs":[{"name":"currentAmount","type":"uint256","internalType":"uint256"},{"name":"newAmount","type":"uint256","internalType":"uint256"}]},{"type":"error","name":"TokenBalanceZero","inputs":[]},{"type":"error","name":"UniswapAlreadyConfigured","inputs":[]},{"type":"error","name":"UpgradesAreFrozen","inputs":[]},{"type":"error","name":"ZeroAddress","inputs":[]}],"bytecode":{"object":"0x60a06040523073ffffffffffffffffffffffffffffffffffffffff1660809073ffffffffffffffffffffffffffffffffffffffff16815250600060d760006101000a81548160ff021916908315150217905550600060d760016101000a81548160ff02191690831515021790555034801561007957600080fd5b506080516150086100b160003960008181610b4e01528181610bdc01528181610e3901528181610ec70152610f7701526150086000f3fe6080604052600436106102295760003560e01c806389429ddf11610123578063c49b9a80116100ab578063ec28438a1161006f578063ec28438a146107f9578063f0f165af14610822578063f2fde38b1461084b578063f685a28b14610874578063fce589d81461089d57610230565b8063c49b9a8014610716578063cec10c111461073f578063d12a768814610768578063dd62ed3e14610793578063ea2f0b37146107d057610230565b806398118cb4116100f257806398118cb41461062d578063a071dcf414610658578063a0a8e46014610683578063a9059cbb146106ae578063aaf10f42146106eb57610230565b806389429ddf146105835780638c0b5e22146105ac5780638da5cb5b146105d757806395d89b411461060257610230565b80633659cfe6116101b157806352d1902d1161017557806352d1902d1461049e57806365b8dbc0146104c957806370a08231146104f2578063715018a61461052f57806384aa9fb61461054657610230565b80633659cfe6146103da578063437823ec1461040357806349bd5a5e1461042c5780634a74bb02146104575780634f1ef2861461048257610230565b80631694505e116101f85780631694505e146102df57806318160ddd1461030a57806323b872dd146103355780632e66482914610372578063313ce567146103af57610230565b806304f377f81461023557806306fdde0314610260578063095ea7b31461028b578063152d0731146102c857610230565b3661023057005b600080fd5b34801561024157600080fd5b5061024a6108c8565b604051610257919061363a565b60405180910390f35b34801561026c57600080fd5b506102756108df565b60405161028291906136e5565b60405180910390f35b34801561029757600080fd5b506102b260048036038101906102ad91906137af565b610971565b6040516102bf919061363a565b60405180910390f35b3480156102d457600080fd5b506102dd61098f565b005b3480156102eb57600080fd5b506102f46109b4565b604051610301919061384e565b60405180910390f35b34801561031657600080fd5b5061031f6109da565b60405161032c9190613878565b60405180910390f35b34801561034157600080fd5b5061035c60048036038101906103579190613893565b6109e4565b604051610369919061363a565b60405180910390f35b34801561037e57600080fd5b50610399600480360381019061039491906138e6565b610adf565b6040516103a6919061363a565b60405180910390f35b3480156103bb57600080fd5b506103c4610b35565b6040516103d1919061392f565b60405180910390f35b3480156103e657600080fd5b5061040160048036038101906103fc91906138e6565b610b4c565b005b34801561040f57600080fd5b5061042a600480360381019061042591906138e6565b610cd4565b005b34801561043857600080fd5b50610441610dfe565b60405161044e9190613959565b60405180910390f35b34801561046357600080fd5b5061046c610e24565b604051610479919061363a565b60405180910390f35b61049c60048036038101906104979190613aa9565b610e37565b005b3480156104aa57600080fd5b506104b3610f73565b6040516104c09190613b1e565b60405180910390f35b3480156104d557600080fd5b506104f060048036038101906104eb91906138e6565b61102c565b005b3480156104fe57600080fd5b50610519600480360381019061051491906138e6565b611115565b6040516105269190613878565b60405180910390f35b34801561053b57600080fd5b50610544611170565b005b34801561055257600080fd5b5061056d600480360381019061056891906138e6565b611184565b60405161057a9190613878565b60405180910390f35b34801561058f57600080fd5b506105aa60048036038101906105a59190613c06565b61124d565b005b3480156105b857600080fd5b506105c161168f565b6040516105ce9190613878565b60405180910390f35b3480156105e357600080fd5b506105ec611695565b6040516105f99190613959565b60405180910390f35b34801561060e57600080fd5b506106176116bf565b60405161062491906136e5565b60405180910390f35b34801561063957600080fd5b50610642611751565b60405161064f9190613878565b60405180910390f35b34801561066457600080fd5b5061066d611757565b60405161067a9190613878565b60405180910390f35b34801561068f57600080fd5b5061069861175d565b6040516106a591906136e5565b60405180910390f35b3480156106ba57600080fd5b506106d560048036038101906106d091906137af565b6117eb565b6040516106e2919061363a565b60405180910390f35b3480156106f757600080fd5b50610700611809565b60405161070d9190613959565b60405180910390f35b34801561072257600080fd5b5061073d60048036038101906107389190613d65565b611818565b005b34801561074b57600080fd5b5061076660048036038101906107619190613d92565b611941565b005b34801561077457600080fd5b5061077d611a04565b60405161078a9190613878565b60405180910390f35b34801561079f57600080fd5b506107ba60048036038101906107b59190613de5565b611a0a565b6040516107c79190613878565b60405180910390f35b3480156107dc57600080fd5b506107f760048036038101906107f291906138e6565b611a91565b005b34801561080557600080fd5b50610820600480360381019061081b9190613e25565b611bba565b005b34801561082e57600080fd5b5061084960048036038101906108449190613e25565b611c29565b005b34801561085757600080fd5b50610872600480360381019061086d91906138e6565b611ce7565b005b34801561088057600080fd5b5061089b600480360381019061089691906138e6565b611d6a565b005b3480156108a957600080fd5b506108b26121ee565b6040516108bf9190613878565b60405180910390f35b600060d760009054906101000a900460ff16905090565b606060cc80546108ee90613e81565b80601f016020809104026020016040519081016040528092919081815260200182805461091a90613e81565b80156109675780601f1061093c57610100808354040283529160200191610967565b820191906000526020600020905b81548152906001019060200180831161094a57829003601f168201915b5050505050905090565b600061098561097e6121f4565b84846121fc565b6001905092915050565b610997612385565b600160da60006101000a81548160ff021916908315150217905550565b60d760029054906101000a900473ffffffffffffffffffffffffffffffffffffffff1681565b600060c954905090565b60008060d060008673ffffffffffffffffffffffffffffffffffffffff1673ffffffffffffffffffffffffffffffffffffffff1681526020019081526020016000206000610a306121f4565b73ffffffffffffffffffffffffffffffffffffffff1673ffffffffffffffffffffffffffffffffffffffff16815260200190815260200160002054905082811015610ab45780836040517fcf479181000000000000000000000000000000000000000000000000000000008152600401610aab929190613eb2565b60405180910390fd5b610abf858585612403565b610ad385610acb6121f4565b8584036121fc565b60019150509392505050565b600060d160008373ffffffffffffffffffffffffffffffffffffffff1673ffffffffffffffffffffffffffffffffffffffff16815260200190815260200160002060009054906101000a900460ff169050919050565b600060ce60009054906101000a900460ff16905090565b7f000000000000000000000000000000000000000000000000000000000000000073ffffffffffffffffffffffffffffffffffffffff163073ffffffffffffffffffffffffffffffffffffffff1603610bda576040517f08c379a0000000000000000000000000000000000000000000000000000000008152600401610bd190613f4d565b60405180910390fd5b7f000000000000000000000000000000000000000000000000000000000000000073ffffffffffffffffffffffffffffffffffffffff16610c196127f5565b73ffffffffffffffffffffffffffffffffffffffff1614610c6f576040517f08c379a0000000000000000000000000000000000000000000000000000000008152600401610c6690613fdf565b60405180910390fd5b610c788161284c565b610cd181600067ffffffffffffffff811115610c9757610c9661397e565b5b6040519080825280601f01601f191660200182016040528015610cc95781602001600182028036833780820191505090505b5060006129ea565b50565b610cdc612385565b60d160008273ffffffffffffffffffffffffffffffffffffffff1673ffffffffffffffffffffffffffffffffffffffff16815260200190815260200160002060009054906101000a900460ff1615610d60576040517f2eb8ef2e00000000000000000000000000000000000000000000000000000000815260040160405180910390fd5b600160d160008373ffffffffffffffffffffffffffffffffffffffff1673ffffffffffffffffffffffffffffffffffffffff16815260200190815260200160002060006101000a81548160ff0219169083151502179055508073ffffffffffffffffffffffffffffffffffffffff167ff1d6512ec7550bf605a5a38910e48fb6a57938ed74a5afa01753fa023001005c60405160405180910390a250565b60d860009054906101000a900473ffffffffffffffffffffffffffffffffffffffff1681565b60d760009054906101000a900460ff1681565b7f000000000000000000000000000000000000000000000000000000000000000073ffffffffffffffffffffffffffffffffffffffff163073ffffffffffffffffffffffffffffffffffffffff1603610ec5576040517f08c379a0000000000000000000000000000000000000000000000000000000008152600401610ebc90613f4d565b60405180910390fd5b7f000000000000000000000000000000000000000000000000000000000000000073ffffffffffffffffffffffffffffffffffffffff16610f046127f5565b73ffffffffffffffffffffffffffffffffffffffff1614610f5a576040517f08c379a0000000000000000000000000000000000000000000000000000000008152600401610f5190613fdf565b60405180910390fd5b610f638261284c565b610f6f828260016129ea565b5050565b60007f000000000000000000000000000000000000000000000000000000000000000073ffffffffffffffffffffffffffffffffffffffff163073ffffffffffffffffffffffffffffffffffffffff1614611003576040517f08c379a0000000000000000000000000000000000000000000000000000000008152600401610ffa90614071565b60405180910390fd5b7f360894a13ba1a3210667c828492db98dca3e2076cc3735a920a3ca505d382bbc60001b905090565b611034612385565b600073ffffffffffffffffffffffffffffffffffffffff168173ffffffffffffffffffffffffffffffffffffffff160361109a576040517fd92e233d00000000000000000000000000000000000000000000000000000000815260040160405180910390fd5b8060d760026101000a81548173ffffffffffffffffffffffffffffffffffffffff021916908373ffffffffffffffffffffffffffffffffffffffff1602179055507f7e0f425e693a3591da35eee37f8ada3aadc3632fa8ffbcecac1341351c8ece668160405161110a9190613959565b60405180910390a150565b600061111f612b58565b60cf60008473ffffffffffffffffffffffffffffffffffffffff1673ffffffffffffffffffffffffffffffffffffffff1681526020019081526020016000205461116991906140ef565b9050919050565b611178612385565b6111826000612bb3565b565b60008073ffffffffffffffffffffffffffffffffffffffff168273ffffffffffffffffffffffffffffffffffffffff16036111f4576040517f08c379a00000000000000000000000000000000000000000000000000000000081526004016111eb9061416c565b60405180910390fd5b6111fc612b58565b60cf60008473ffffffffffffffffffffffffffffffffffffffff1673ffffffffffffffffffffffffffffffffffffffff1681526020019081526020016000205461124691906140ef565b9050919050565b60008060019054906101000a900460ff1615905080801561127e5750600160008054906101000a900460ff1660ff16105b806112ab575061128d30612c79565b1580156112aa5750600160008054906101000a900460ff1660ff16145b5b6112ea576040517f08c379a00000000000000000000000000000000000000000000000000000000081526004016112e1906141fe565b60405180910390fd5b60016000806101000a81548160ff021916908360ff1602179055508015611327576001600060016101000a81548160ff0219169083151502179055505b6064858789611336919061421e565b611340919061421e565b111561139957848688611353919061421e565b61135d919061421e565b6040517f2db7582d0000000000000000000000000000000000000000000000000000000081526004016113909190613878565b60405180910390fd5b6113a1612c9c565b6113a9612cf5565b8a60cc90816113b891906143f4565b508960cd90816113c891906143f4565b508760ce60006101000a81548160ff021916908360ff16021790555060ce60009054906101000a900460ff1660ff16600a61140391906145f9565b8961140e9190614644565b60c98190555060c9546000196114249190614686565b60001961143191906146b7565b60ca819055508660d2819055508560d3819055508460d48190555060ce60009054906101000a900460ff16600a61146891906146eb565b846114739190614644565b60d58190555060ce60009054906101000a900460ff16600a61149591906146eb565b836114a09190614644565b60d68190555060ca5460cf60006114b56121f4565b73ffffffffffffffffffffffffffffffffffffffff1673ffffffffffffffffffffffffffffffffffffffff16815260200190815260200160002081905550600160d160006115016121f4565b73ffffffffffffffffffffffffffffffffffffffff1673ffffffffffffffffffffffffffffffffffffffff16815260200190815260200160002060006101000a81548160ff021916908315150217905550600160d160003073ffffffffffffffffffffffffffffffffffffffff1673ffffffffffffffffffffffffffffffffffffffff16815260200190815260200160002060006101000a81548160ff0219169083151502179055508160d990816115b991906143f4565b506115c26121f4565b73ffffffffffffffffffffffffffffffffffffffff16600073ffffffffffffffffffffffffffffffffffffffff167fddf252ad1be2c89b69c2b068fc378daa952ba7f163c4a11628f55a4df523b3ef60c9546040516116219190613878565b60405180910390a380156116825760008060016101000a81548160ff0219169083151502179055507f7f26b83ff96e1f2b6a682f133852f6798a09c465da95921460cefb384740249860016040516116799190614771565b60405180910390a15b5050505050505050505050565b60d55481565b6000609760009054906101000a900473ffffffffffffffffffffffffffffffffffffffff16905090565b606060cd80546116ce90613e81565b80601f01602080910402602001604051908101604052809291908181526020018280546116fa90613e81565b80156117475780601f1061171c57610100808354040283529160200191611747565b820191906000526020600020905b81548152906001019060200180831161172a57829003601f168201915b5050505050905090565b60d35481565b60d25481565b60d9805461176a90613e81565b80601f016020809104026020016040519081016040528092919081815260200182805461179690613e81565b80156117e35780601f106117b8576101008083540402835291602001916117e3565b820191906000526020600020905b8154815290600101906020018083116117c657829003601f168201915b505050505081565b60006117ff6117f86121f4565b8484612403565b6001905092915050565b60006118136127f5565b905090565b611820612385565b80151560d760009054906101000a900460ff161515036118ed578061187a576040518060400160405280601881526020017f5377617020697320616c72656164792064697361626c656400000000000000008152506118b1565b6040518060400160405280601781526020017f5377617020697320616c726561647920656e61626c65640000000000000000008152505b6040517f08c379a00000000000000000000000000000000000000000000000000000000081526004016118e491906136e5565b60405180910390fd5b8060d760006101000a81548160ff0219169083151502179055507f53726dfcaf90650aa7eb35524f4d3220f07413c8d6cb404cc8c18bf5591bc15981604051611936919061363a565b60405180910390a150565b611949612385565b6064818385611958919061421e565b611962919061421e565b11156119bb57808284611975919061421e565b61197f919061421e565b6040517f2db7582d0000000000000000000000000000000000000000000000000000000081526004016119b29190613878565b60405180910390fd5b8260d2819055508160d3819055508060d4819055508082847fcf8a1e1d5f09cf3c97dbb653cd9a4d7aace9292fbc1bb8211febf2d400febbdd60405160405180910390a4505050565b60d65481565b600060d060008473ffffffffffffffffffffffffffffffffffffffff1673ffffffffffffffffffffffffffffffffffffffff16815260200190815260200160002060008373ffffffffffffffffffffffffffffffffffffffff1673ffffffffffffffffffffffffffffffffffffffff16815260200190815260200160002054905092915050565b611a99612385565b60d160008273ffffffffffffffffffffffffffffffffffffffff1673ffffffffffffffffffffffffffffffffffffffff16815260200190815260200160002060009054906101000a900460ff16611b1c576040517f8a92e2c200000000000000000000000000000000000000000000000000000000815260040160405180910390fd5b600060d160008373ffffffffffffffffffffffffffffffffffffffff1673ffffffffffffffffffffffffffffffffffffffff16815260200190815260200160002060006101000a81548160ff0219169083151502179055508073ffffffffffffffffffffffffffffffffffffffff167f78ce087db51d01d3e32355f2d83455d5a39f99194c8d3d1c2614893695cee44260405160405180910390a250565b611bc2612385565b60ce60009054906101000a900460ff16600a611bde91906146eb565b81611be99190614644565b60d5819055507f947f344d56e1e8c70dc492fb94c4ddddd490c016aab685f5e7e47b2e85cb44cf81604051611c1e9190613878565b60405180910390a150565b611c31612385565b60ce60009054906101000a900460ff16600a611c4d91906146eb565b81611c589190614644565b60d68190555060d55460d6541115611cad5760d65460d5546040517fcd1a97bb000000000000000000000000000000000000000000000000000000008152600401611ca4929190613eb2565b60405180910390fd5b7fab1090599596cfb0c655b6424e552fba2cedf77457ed354fbe96e9abf4aa1f1381604051611cdc9190613878565b60405180910390a150565b611cef612385565b600073ffffffffffffffffffffffffffffffffffffffff168173ffffffffffffffffffffffffffffffffffffffff1603611d5e576040517f08c379a0000000000000000000000000000000000000000000000000000000008152600401611d55906147fe565b60405180910390fd5b611d6781612bb3565b50565b611d72612385565b600073ffffffffffffffffffffffffffffffffffffffff1660d760029054906101000a900473ffffffffffffffffffffffffffffffffffffffff1673ffffffffffffffffffffffffffffffffffffffff16141580611e1f5750600073ffffffffffffffffffffffffffffffffffffffff1660d860009054906101000a900473ffffffffffffffffffffffffffffffffffffffff1673ffffffffffffffffffffffffffffffffffffffff1614155b15611e56576040517fd6150e9500000000000000000000000000000000000000000000000000000000815260040160405180910390fd5b600073ffffffffffffffffffffffffffffffffffffffff168173ffffffffffffffffffffffffffffffffffffffff1603611ebc576040517fd92e233d00000000000000000000000000000000000000000000000000000000815260040160405180910390fd5b8060d760026101000a81548173ffffffffffffffffffffffffffffffffffffffff021916908373ffffffffffffffffffffffffffffffffffffffff160217905550600060d760029054906101000a900473ffffffffffffffffffffffffffffffffffffffff1673ffffffffffffffffffffffffffffffffffffffff1663c45a01556040518163ffffffff1660e01b8152600401602060405180830381865afa158015611f6c573d6000803e3d6000fd5b505050506040513d601f19601f82011682018060405250810190611f909190614833565b73ffffffffffffffffffffffffffffffffffffffff1663c9c653963060d760029054906101000a900473ffffffffffffffffffffffffffffffffffffffff1673ffffffffffffffffffffffffffffffffffffffff1663ad5c46486040518163ffffffff1660e01b8152600401602060405180830381865afa158015612019573d6000803e3d6000fd5b505050506040513d601f19601f8201168201806040525081019061203d9190614833565b6040518363ffffffff1660e01b815260040161205a929190614860565b6020604051808303816000875af1158015612079573d6000803e3d6000fd5b505050506040513d601f19601f8201168201806040525081019061209d9190614833565b90508060d860006101000a81548173ffffffffffffffffffffffffffffffffffffffff021916908373ffffffffffffffffffffffffffffffffffffffff160217905550600160d160008373ffffffffffffffffffffffffffffffffffffffff1673ffffffffffffffffffffffffffffffffffffffff16815260200190815260200160002060006101000a81548160ff021916908315150217905550600160d160008473ffffffffffffffffffffffffffffffffffffffff1673ffffffffffffffffffffffffffffffffffffffff16815260200190815260200160002060006101000a81548160ff0219169083151502179055508073ffffffffffffffffffffffffffffffffffffffff168273ffffffffffffffffffffffffffffffffffffffff167fc1a9e56c8129347b63ce39a7b2cb626d8e39b9baae0723beb7cbe61d73475bc060405160405180910390a35050565b60d45481565b600033905090565b600073ffffffffffffffffffffffffffffffffffffffff168373ffffffffffffffffffffffffffffffffffffffff1614806122635750600073ffffffffffffffffffffffffffffffffffffffff168273ffffffffffffffffffffffffffffffffffffffff16145b1561229a576040517fd92e233d00000000000000000000000000000000000000000000000000000000815260040160405180910390fd5b8060d060008573ffffffffffffffffffffffffffffffffffffffff1673ffffffffffffffffffffffffffffffffffffffff16815260200190815260200160002060008473ffffffffffffffffffffffffffffffffffffffff1673ffffffffffffffffffffffffffffffffffffffff168152602001908152602001600020819055508173ffffffffffffffffffffffffffffffffffffffff168373ffffffffffffffffffffffffffffffffffffffff167f8c5be1e5ebec7d5bd14f71427d1e84f3dd0314c0f7b2291e5b200ac8c7c3b925836040516123789190613878565b60405180910390a3505050565b61238d6121f4565b73ffffffffffffffffffffffffffffffffffffffff166123ab611695565b73ffffffffffffffffffffffffffffffffffffffff1614612401576040517f08c379a00000000000000000000000000000000000000000000000000000000081526004016123f8906148d5565b60405180910390fd5b565b600073ffffffffffffffffffffffffffffffffffffffff168373ffffffffffffffffffffffffffffffffffffffff16148061246a5750600073ffffffffffffffffffffffffffffffffffffffff168273ffffffffffffffffffffffffffffffffffffffff16145b156124a1576040517fd92e233d00000000000000000000000000000000000000000000000000000000815260040160405180910390fd5b600081036124db576040517f2c5211c600000000000000000000000000000000000000000000000000000000815260040160405180910390fd5b60d5548111156125265760d554816040517ffede3a4300000000000000000000000000000000000000000000000000000000815260040161251d929190613eb2565b60405180910390fd5b600061253130611115565b905060d6548110158015612552575060d760019054906101000a900460ff16155b80156125ac575060d860009054906101000a900473ffffffffffffffffffffffffffffffffffffffff1673ffffffffffffffffffffffffffffffffffffffff168473ffffffffffffffffffffffffffffffffffffffff1614155b156125bb576125ba81612d46565b5b600060d160008673ffffffffffffffffffffffffffffffffffffffff1673ffffffffffffffffffffffffffffffffffffffff16815260200190815260200160002060009054906101000a900460ff161590506000806000831561266d57606460d254876126289190614644565b61263291906140ef565b9250606460d354876126449190614644565b61264e91906140ef565b9150606460d454876126609190614644565b61266a91906140ef565b90505b60008183858961267d91906146b7565b61268791906146b7565b61269191906146b7565b905061269b612b58565b876126a69190614644565b60cf60008b73ffffffffffffffffffffffffffffffffffffffff1673ffffffffffffffffffffffffffffffffffffffff16815260200190815260200160002060008282546126f491906146b7565b92505081905550612703612b58565b8161270e9190614644565b60cf60008a73ffffffffffffffffffffffffffffffffffffffff1673ffffffffffffffffffffffffffffffffffffffff168152602001908152602001600020600082825461275c919061421e565b9250508190555084156127855761277284612e41565b61277b83612eca565b61278482612f3b565b5b8773ffffffffffffffffffffffffffffffffffffffff168973ffffffffffffffffffffffffffffffffffffffff167fddf252ad1be2c89b69c2b068fc378daa952ba7f163c4a11628f55a4df523b3ef836040516127e29190613878565b60405180910390a3505050505050505050565b60006128237f360894a13ba1a3210667c828492db98dca3e2076cc3735a920a3ca505d382bbc60001b612fd6565b60000160009054906101000a900473ffffffffffffffffffffffffffffffffffffffff16905090565b612854612385565b60da60009054906101000a900460ff161561289b576040517fb60e7ed800000000000000000000000000000000000000000000000000000000815260040160405180910390fd5b60008173ffffffffffffffffffffffffffffffffffffffff163b036128ec576040517f68155f9a00000000000000000000000000000000000000000000000000000000815260040160405180910390fd5b8073ffffffffffffffffffffffffffffffffffffffff166352d1902d6040518163ffffffff1660e01b8152600401602060405180830381865afa92505050801561295457506040513d601f19601f820116820180604052508101906129519190614921565b60015b61298a576040517f68155f9a00000000000000000000000000000000000000000000000000000000815260040160405180910390fd5b7f360894a13ba1a3210667c828492db98dca3e2076cc3735a920a3ca505d382bbc60001b81146129e6576040517f68155f9a00000000000000000000000000000000000000000000000000000000815260040160405180910390fd5b5050565b612a167f4910fdfa16fed3260ed0e7147f7cc6da11a60208b5b9406d12a635614ffd914360001b612fe0565b60000160009054906101000a900460ff1615612a3a57612a3583612fea565b612b53565b8273ffffffffffffffffffffffffffffffffffffffff166352d1902d6040518163ffffffff1660e01b8152600401602060405180830381865afa925050508015612aa257506040513d601f19601f82011682018060405250810190612a9f9190614921565b60015b612ae1576040517f08c379a0000000000000000000000000000000000000000000000000000000008152600401612ad8906149c0565b60405180910390fd5b7f360894a13ba1a3210667c828492db98dca3e2076cc3735a920a3ca505d382bbc60001b8114612b46576040517f08c379a0000000000000000000000000000000000000000000000000000000008152600401612b3d90614a52565b60405180910390fd5b50612b528383836130a3565b5b505050565b60008060c95411612b9e576040517f08c379a0000000000000000000000000000000000000000000000000000000008152600401612b9590614ae4565b60405180910390fd5b60c95460ca54612bae91906140ef565b905090565b6000609760009054906101000a900473ffffffffffffffffffffffffffffffffffffffff16905081609760006101000a81548173ffffffffffffffffffffffffffffffffffffffff021916908373ffffffffffffffffffffffffffffffffffffffff1602179055508173ffffffffffffffffffffffffffffffffffffffff168173ffffffffffffffffffffffffffffffffffffffff167f8be0079c531659141344cd1fd0a4f28419497f9722a3daafe3b4186f6b6457e060405160405180910390a35050565b6000808273ffffffffffffffffffffffffffffffffffffffff163b119050919050565b600060019054906101000a900460ff16612ceb576040517f08c379a0000000000000000000000000000000000000000000000000000000008152600401612ce290614b76565b60405180910390fd5b612cf36130cf565b565b600060019054906101000a900460ff16612d44576040517f08c379a0000000000000000000000000000000000000000000000000000000008152600401612d3b90614b76565b60405180910390fd5b565b600160d760016101000a81548160ff02191690831515021790555060008103612d9b576040517f64e2819f00000000000000000000000000000000000000000000000000000000815260040160405180910390fd5b6000600282612daa91906140ef565b905060008183612dba91906146b7565b90506000479050612dca83613130565b60008147612dd891906146b7565b9050612de48382613373565b7f17bbfb9a6069321b6ded73bd96327c9e6b7212a5cd51ff219cd61370acafb561848285604051612e1793929190614b96565b60405180910390a150505050600060d760016101000a81548160ff02191690831515021790555050565b6000612e4b612b58565b82612e569190614644565b90508060ca6000828254612e6a91906146b7565b925050819055508160cb6000828254612e83919061421e565b925050819055507f312c5308f42848705a866c73dec11fd0783c2d64aac6a97e94467062ad3f405882600080604051612ebe93929190614c08565b60405180910390a15050565b6000612ed4612b58565b82612edf9190614644565b90508060cf60003073ffffffffffffffffffffffffffffffffffffffff1673ffffffffffffffffffffffffffffffffffffffff1681526020019081526020016000206000828254612f30919061421e565b925050819055505050565b6000612f45612b58565b82612f509190614644565b90508060ca6000828254612f6491906146b7565b925050819055508160c96000828254612f7d91906146b7565b925050819055503073ffffffffffffffffffffffffffffffffffffffff167ffd38818f5291bf0bb3a2a48aadc06ba8757865d1dabd804585338aab3009dcb683604051612fca9190613878565b60405180910390a25050565b6000819050919050565b6000819050919050565b612ff381612c79565b613032576040517f08c379a000000000000000000000000000000000000000000000000000000000815260040161302990614cb1565b60405180910390fd5b8061305f7f360894a13ba1a3210667c828492db98dca3e2076cc3735a920a3ca505d382bbc60001b612fd6565b60000160006101000a81548173ffffffffffffffffffffffffffffffffffffffff021916908373ffffffffffffffffffffffffffffffffffffffff16021790555050565b6130ac83613458565b6000825111806130b95750805b156130ca576130c883836134a7565b505b505050565b600060019054906101000a900460ff1661311e576040517f08c379a000000000000000000000000000000000000000000000000000000000815260040161311590614b76565b60405180910390fd5b61312e6131296121f4565b612bb3565b565b6000600267ffffffffffffffff81111561314d5761314c61397e565b5b60405190808252806020026020018201604052801561317b5781602001602082028036833780820191505090505b509050308160008151811061319357613192614cd1565b5b602002602001019073ffffffffffffffffffffffffffffffffffffffff16908173ffffffffffffffffffffffffffffffffffffffff168152505060d760029054906101000a900473ffffffffffffffffffffffffffffffffffffffff1673ffffffffffffffffffffffffffffffffffffffff1663ad5c46486040518163ffffffff1660e01b8152600401602060405180830381865afa15801561323a573d6000803e3d6000fd5b505050506040513d601f19601f8201168201806040525081019061325e9190614833565b8160018151811061327257613271614cd1565b5b602002602001019073ffffffffffffffffffffffffffffffffffffffff16908173ffffffffffffffffffffffffffffffffffffffff16815250506132d93060d760029054906101000a900473ffffffffffffffffffffffffffffffffffffffff16846121fc565b60d760029054906101000a900473ffffffffffffffffffffffffffffffffffffffff1673ffffffffffffffffffffffffffffffffffffffff1663791ac9478360008430426040518663ffffffff1660e01b815260040161333d959493929190614dbe565b600060405180830381600087803b15801561335757600080fd5b505af115801561336b573d6000803e3d6000fd5b505050505050565b6133a03060d760029054906101000a900473ffffffffffffffffffffffffffffffffffffffff16846121fc565b60d760029054906101000a900473ffffffffffffffffffffffffffffffffffffffff1673ffffffffffffffffffffffffffffffffffffffff1663f305d7198230856000806133ec611695565b426040518863ffffffff1660e01b815260040161340e96959493929190614e18565b60606040518083038185885af115801561342c573d6000803e3d6000fd5b50505050506040513d601f19601f820116820180604052508101906134519190614e8e565b5050505050565b61346181612fea565b8073ffffffffffffffffffffffffffffffffffffffff167fbc7cd75a20ee27fd9adebab32041f755214dbc6bffa90cc0225b39da2e5c2d3b60405160405180910390a250565b60606134cc8383604051806060016040528060278152602001614fac602791396134d4565b905092915050565b60606000808573ffffffffffffffffffffffffffffffffffffffff16856040516134fe9190614f28565b600060405180830381855af49150503d8060008114613539576040519150601f19603f3d011682016040523d82523d6000602084013e61353e565b606091505b509150915061354f8683838761355a565b925050509392505050565b606083156135bc5760008351036135b45761357485612c79565b6135b3576040517f08c379a00000000000000000000000000000000000000000000000000000000081526004016135aa90614f8b565b60405180910390fd5b5b8290506135c7565b6135c683836135cf565b5b949350505050565b6000825111156135e25781518083602001fd5b806040517f08c379a000000000000000000000000000000000000000000000000000000000815260040161361691906136e5565b60405180910390fd5b60008115159050919050565b6136348161361f565b82525050565b600060208201905061364f600083018461362b565b92915050565b600081519050919050565b600082825260208201905092915050565b60005b8381101561368f578082015181840152602081019050613674565b60008484015250505050565b6000601f19601f8301169050919050565b60006136b782613655565b6136c18185613660565b93506136d1818560208601613671565b6136da8161369b565b840191505092915050565b600060208201905081810360008301526136ff81846136ac565b905092915050565b6000604051905090565b600080fd5b600080fd5b600073ffffffffffffffffffffffffffffffffffffffff82169050919050565b60006137468261371b565b9050919050565b6137568161373b565b811461376157600080fd5b50565b6000813590506137738161374d565b92915050565b6000819050919050565b61378c81613779565b811461379757600080fd5b50565b6000813590506137a981613783565b92915050565b600080604083850312156137c6576137c5613711565b5b60006137d485828601613764565b92505060206137e58582860161379a565b9150509250929050565b6000819050919050565b600061381461380f61380a8461371b565b6137ef565b61371b565b9050919050565b6000613826826137f9565b9050919050565b60006138388261381b565b9050919050565b6138488161382d565b82525050565b6000602082019050613863600083018461383f565b92915050565b61387281613779565b82525050565b600060208201905061388d6000830184613869565b92915050565b6000806000606084860312156138ac576138ab613711565b5b60006138ba86828701613764565b93505060206138cb86828701613764565b92505060406138dc8682870161379a565b9150509250925092565b6000602082840312156138fc576138fb613711565b5b600061390a84828501613764565b91505092915050565b600060ff82169050919050565b61392981613913565b82525050565b60006020820190506139446000830184613920565b92915050565b6139538161373b565b82525050565b600060208201905061396e600083018461394a565b92915050565b600080fd5b600080fd5b7f4e487b7100000000000000000000000000000000000000000000000000000000600052604160045260246000fd5b6139b68261369b565b810181811067ffffffffffffffff821117156139d5576139d461397e565b5b80604052505050565b60006139e8613707565b90506139f482826139ad565b919050565b600067ffffffffffffffff821115613a1457613a1361397e565b5b613a1d8261369b565b9050602081019050919050565b82818337600083830152505050565b6000613a4c613a47846139f9565b6139de565b905082815260208101848484011115613a6857613a67613979565b5b613a73848285613a2a565b509392505050565b600082601f830112613a9057613a8f613974565b5b8135613aa0848260208601613a39565b91505092915050565b60008060408385031215613ac057613abf613711565b5b6000613ace85828601613764565b925050602083013567ffffffffffffffff811115613aef57613aee613716565b5b613afb85828601613a7b565b9150509250929050565b6000819050919050565b613b1881613b05565b82525050565b6000602082019050613b336000830184613b0f565b92915050565b600067ffffffffffffffff821115613b5457613b5361397e565b5b613b5d8261369b565b9050602081019050919050565b6000613b7d613b7884613b39565b6139de565b905082815260208101848484011115613b9957613b98613979565b5b613ba4848285613a2a565b509392505050565b600082601f830112613bc157613bc0613974565b5b8135613bd1848260208601613b6a565b91505092915050565b613be381613913565b8114613bee57600080fd5b50565b600081359050613c0081613bda565b92915050565b6000806000806000806000806000806101408b8d031215613c2a57613c29613711565b5b60008b013567ffffffffffffffff811115613c4857613c47613716565b5b613c548d828e01613bac565b9a505060208b013567ffffffffffffffff811115613c7557613c74613716565b5b613c818d828e01613bac565b9950506040613c928d828e0161379a565b9850506060613ca38d828e01613bf1565b9750506080613cb48d828e0161379a565b96505060a0613cc58d828e0161379a565b95505060c0613cd68d828e0161379a565b94505060e0613ce78d828e0161379a565b935050610100613cf98d828e0161379a565b9250506101208b013567ffffffffffffffff811115613d1b57613d1a613716565b5b613d278d828e01613bac565b9150509295989b9194979a5092959850565b613d428161361f565b8114613d4d57600080fd5b50565b600081359050613d5f81613d39565b92915050565b600060208284031215613d7b57613d7a613711565b5b6000613d8984828501613d50565b91505092915050565b600080600060608486031215613dab57613daa613711565b5b6000613db98682870161379a565b9350506020613dca8682870161379a565b9250506040613ddb8682870161379a565b9150509250925092565b60008060408385031215613dfc57613dfb613711565b5b6000613e0a85828601613764565b9250506020613e1b85828601613764565b9150509250929050565b600060208284031215613e3b57613e3a613711565b5b6000613e498482850161379a565b91505092915050565b7f4e487b7100000000000000000000000000000000000000000000000000000000600052602260045260246000fd5b60006002820490506001821680613e9957607f821691505b602082108103613eac57613eab613e52565b5b50919050565b6000604082019050613ec76000830185613869565b613ed46020830184613869565b9392505050565b7f46756e6374696f6e206d7573742062652063616c6c6564207468726f7567682060008201527f64656c656761746563616c6c0000000000000000000000000000000000000000602082015250565b6000613f37602c83613660565b9150613f4282613edb565b604082019050919050565b60006020820190508181036000830152613f6681613f2a565b9050919050565b7f46756e6374696f6e206d7573742062652063616c6c6564207468726f7567682060008201527f6163746976652070726f78790000000000000000000000000000000000000000602082015250565b6000613fc9602c83613660565b9150613fd482613f6d565b604082019050919050565b60006020820190508181036000830152613ff881613fbc565b9050919050565b7f555550535570677261646561626c653a206d757374206e6f742062652063616c60008201527f6c6564207468726f7567682064656c656761746563616c6c0000000000000000602082015250565b600061405b603883613660565b915061406682613fff565b604082019050919050565b6000602082019050818103600083015261408a8161404e565b9050919050565b7f4e487b7100000000000000000000000000000000000000000000000000000000600052601260045260246000fd5b7f4e487b7100000000000000000000000000000000000000000000000000000000600052601160045260246000fd5b60006140fa82613779565b915061410583613779565b92508261411557614114614091565b5b828204905092915050565b7f5a65726f20616464726573730000000000000000000000000000000000000000600082015250565b6000614156600c83613660565b915061416182614120565b602082019050919050565b6000602082019050818103600083015261418581614149565b9050919050565b7f496e697469616c697a61626c653a20636f6e747261637420697320616c72656160008201527f647920696e697469616c697a6564000000000000000000000000000000000000602082015250565b60006141e8602e83613660565b91506141f38261418c565b604082019050919050565b60006020820190508181036000830152614217816141db565b9050919050565b600061422982613779565b915061423483613779565b925082820190508082111561424c5761424b6140c0565b5b92915050565b60008190508160005260206000209050919050565b60006020601f8301049050919050565b600082821b905092915050565b6000600883026142b47fffffffffffffffffffffffffffffffffffffffffffffffffffffffffffffffff82614277565b6142be8683614277565b95508019841693508086168417925050509392505050565b60006142f16142ec6142e784613779565b6137ef565b613779565b9050919050565b6000819050919050565b61430b836142d6565b61431f614317826142f8565b848454614284565b825550505050565b600090565b614334614327565b61433f818484614302565b505050565b5b818110156143635761435860008261432c565b600181019050614345565b5050565b601f8211156143a85761437981614252565b61438284614267565b81016020851015614391578190505b6143a561439d85614267565b830182614344565b50505b505050565b600082821c905092915050565b60006143cb600019846008026143ad565b1980831691505092915050565b60006143e483836143ba565b9150826002028217905092915050565b6143fd82613655565b67ffffffffffffffff8111156144165761441561397e565b5b6144208254613e81565b61442b828285614367565b600060209050601f83116001811461445e576000841561444c578287015190505b61445685826143d8565b8655506144be565b601f19841661446c86614252565b60005b828110156144945784890151825560018201915060208501945060208101905061446f565b868310156144b157848901516144ad601f8916826143ba565b8355505b6001600288020188555050505b505050505050565b60008160011c9050919050565b6000808291508390505b600185111561451d578086048111156144f9576144f86140c0565b5b60018516156145085780820291505b8081029050614516856144c6565b94506144dd565b94509492505050565b60008261453657600190506145f2565b8161454457600090506145f2565b816001811461455a576002811461456457614593565b60019150506145f2565b60ff841115614576576145756140c0565b5b8360020a91508482111561458d5761458c6140c0565b5b506145f2565b5060208310610133831016604e8410600b84101617156145c85782820a9050838111156145c3576145c26140c0565b5b6145f2565b6145d584848460016144d3565b925090508184048111156145ec576145eb6140c0565b5b81810290505b9392505050565b600061460482613779565b915061460f83613779565b925061463c7fffffffffffffffffffffffffffffffffffffffffffffffffffffffffffffffff8484614526565b905092915050565b600061464f82613779565b915061465a83613779565b925082820261466881613779565b9150828204841483151761467f5761467e6140c0565b5b5092915050565b600061469182613779565b915061469c83613779565b9250826146ac576146ab614091565b5b828206905092915050565b60006146c282613779565b91506146cd83613779565b92508282039050818111156146e5576146e46140c0565b5b92915050565b60006146f682613779565b915061470183613913565b925061472e7fffffffffffffffffffffffffffffffffffffffffffffffffffffffffffffffff8484614526565b905092915050565b6000819050919050565b600061475b61475661475184614736565b6137ef565b613913565b9050919050565b61476b81614740565b82525050565b60006020820190506147866000830184614762565b92915050565b7f4f776e61626c653a206e6577206f776e657220697320746865207a65726f206160008201527f6464726573730000000000000000000000000000000000000000000000000000602082015250565b60006147e8602683613660565b91506147f38261478c565b604082019050919050565b60006020820190508181036000830152614817816147db565b9050919050565b60008151905061482d8161374d565b92915050565b60006020828403121561484957614848613711565b5b60006148578482850161481e565b91505092915050565b6000604082019050614875600083018561394a565b614882602083018461394a565b9392505050565b7f4f776e61626c653a2063616c6c6572206973206e6f7420746865206f776e6572600082015250565b60006148bf602083613660565b91506148ca82614889565b602082019050919050565b600060208201905081810360008301526148ee816148b2565b9050919050565b6148fe81613b05565b811461490957600080fd5b50565b60008151905061491b816148f5565b92915050565b60006020828403121561493757614936613711565b5b60006149458482850161490c565b91505092915050565b7f45524331393637557067726164653a206e657720696d706c656d656e7461746960008201527f6f6e206973206e6f742055555053000000000000000000000000000000000000602082015250565b60006149aa602e83613660565b91506149b58261494e565b604082019050919050565b600060208201905081810360008301526149d98161499d565b9050919050565b7f45524331393637557067726164653a20756e737570706f727465642070726f7860008201527f6961626c65555549440000000000000000000000000000000000000000000000602082015250565b6000614a3c602983613660565b9150614a47826149e0565b604082019050919050565b60006020820190508181036000830152614a6b81614a2f565b9050919050565b7f546f74616c20737570706c79206d75737420626520677265617465722074686160008201527f6e207a65726f0000000000000000000000000000000000000000000000000000602082015250565b6000614ace602683613660565b9150614ad982614a72565b604082019050919050565b60006020820190508181036000830152614afd81614ac1565b9050919050565b7f496e697469616c697a61626c653a20636f6e7472616374206973206e6f74206960008201527f6e697469616c697a696e67000000000000000000000000000000000000000000602082015250565b6000614b60602b83613660565b9150614b6b82614b04565b604082019050919050565b60006020820190508181036000830152614b8f81614b53565b9050919050565b6000606082019050614bab6000830186613869565b614bb86020830185613869565b614bc56040830184613869565b949350505050565b6000819050919050565b6000614bf2614bed614be884614bcd565b6137ef565b613779565b9050919050565b614c0281614bd7565b82525050565b6000606082019050614c1d6000830186613869565b614c2a6020830185614bf9565b614c376040830184614bf9565b949350505050565b7f455243313936373a206e657720696d706c656d656e746174696f6e206973206e60008201527f6f74206120636f6e747261637400000000000000000000000000000000000000602082015250565b6000614c9b602d83613660565b9150614ca682614c3f565b604082019050919050565b60006020820190508181036000830152614cca81614c8e565b9050919050565b7f4e487b7100000000000000000000000000000000000000000000000000000000600052603260045260246000fd5b600081519050919050565b600082825260208201905092915050565b6000819050602082019050919050565b614d358161373b565b82525050565b6000614d478383614d2c565b60208301905092915050565b6000602082019050919050565b6000614d6b82614d00565b614d758185614d0b565b9350614d8083614d1c565b8060005b83811015614db1578151614d988882614d3b565b9750614da383614d53565b925050600181019050614d84565b5085935050505092915050565b600060a082019050614dd36000830188613869565b614de06020830187614bf9565b8181036040830152614df28186614d60565b9050614e01606083018561394a565b614e0e6080830184613869565b9695505050505050565b600060c082019050614e2d600083018961394a565b614e3a6020830188613869565b614e476040830187614bf9565b614e546060830186614bf9565b614e61608083018561394a565b614e6e60a0830184613869565b979650505050505050565b600081519050614e8881613783565b92915050565b600080600060608486031215614ea757614ea6613711565b5b6000614eb586828701614e79565b9350506020614ec686828701614e79565b9250506040614ed786828701614e79565b9150509250925092565b600081519050919050565b600081905092915050565b6000614f0282614ee1565b614f0c8185614eec565b9350614f1c818560208601613671565b80840191505092915050565b6000614f348284614ef7565b915081905092915050565b7f416464726573733a2063616c6c20746f206e6f6e2d636f6e7472616374000000600082015250565b6000614f75601d83613660565b9150614f8082614f3f565b602082019050919050565b60006020820190508181036000830152614fa481614f68565b905091905056fe416464726573733a206c6f772d6c6576656c2064656c65676174652063616c6c206661696c6564a26469706673582212205176bb515a5d2a8e6336005c5fd8e2167751e836bcc58a030c523ecc336423a164736f6c63430008160033","linkReferences":{}},"methodIdentifiers":{"allowance(address,address)":"dd62ed3e","approve(address,uint256)":"095ea7b3","balanceOf(address)":"70a08231","burnFee()":"fce589d8","configureUniswap(address)":"f685a28b","contractVersion()":"a0a8e460","decimals()":"313ce567","excludeFromFee(address)":"437823ec","freezeUpgrades()":"152d0731","getImplementation()":"aaf10f42","includeInFee(address)":"ea2f0b37","initialize(string,string,uint256,uint8,uint256,uint256,uint256,uint256,uint256,string)":"89429ddf","isAccountExcludedFromFree(address)":"2e664829","isSwapAndLiquifyEnabled()":"04f377f8","liquidityFee()":"98118cb4","maxTxAmount()":"8c0b5e22","name()":"06fdde03","numTokensSellToAddToLiquidity()":"d12a7688","owner()":"8da5cb5b","proxiableUUID()":"52d1902d","reflectionBalanceOf(address)":"84aa9fb6","renounceOwnership()":"715018a6","setFees(uint256,uint256,uint256)":"cec10c11","setMaxTxAmount(uint256)":"ec28438a","setNumTokensSellToAddToLiquidity(uint256)":"f0f165af","setSwapAndLiquifyEnabled(bool)":"c49b9a80","swapAndLiquifyEnabled()":"4a74bb02","symbol()":"95d89b41","taxFee()":"a071dcf4","totalSupply()":"18160ddd","transfer(address,uint256)":"a9059cbb","transferFrom(address,address,uint256)":"23b872dd","transferOwnership(address)":"f2fde38b","uniswapV2Pair()":"49bd5a5e","uniswapV2Router()":"1694505e","updateUniswapV2Router(address)":"65b8dbc0","upgradeTo(address)":"3659cfe6","upgradeToAndCall(address,bytes)":"4f1ef286"},"id":1}