{"abi":[{"type":"constructor","inputs":[],"stateMutability":"nonpayable"},{"type":"receive","stateMutability":"payable"},{"type":"function","name":"allowance","inputs":[{"name":"owner","type":"address","internalType":"address"},{"name":"spender","type":"address","internalType":"address"}],"outputs":[{"name":"","type":"uint256","internalType":"uint256"}],"stateMutability":"view"},{"type":"function","name":"approve","inputs":[{"name":"spender","type":"address","internalType":"address"},{"name":"amount","type":"uint256","internalType":"uint256"}],"outputs":[{"name":"","type":"bool","internalType":"bool"}],"stateMutability":"nonpayable"},{"type":"function","name":"balanceOf","inputs":[{"name":"account","type":"address","internalType":"address"}],"outputs":[{"name":"","type":"uint256","internalType":"uint256"}],"stateMutability":"view"},{"type":"function","name":"configureUniswap","inputs":[{"name":"routerAddress","type":"address","internalType":"address"}],"outputs":[],"stateMutability":"nonpayable"},{"type":"function","name":"contractVersion","inputs":[],"outputs":[{"name":"","type":"string","internalType":"string"}],"stateMutability":"view"},{"type":"function","name":"decimals","inputs":[],"outputs":[{"name":"","type":"uint8","internalType":"uint8"}],"stateMutability":"view"},{"type":"function","name":"excludeFromFee","inputs":[{"name":"account","type":"address","internalType":"address"}],"outputs":[],"stateMutability":"nonpayable"},{"type":"function","name":"freezeUpgrades","inputs":[],"outputs":[],"stateMutability":"nonpayable"},{"type":"function","name":"getImplementation","inputs":[],"outputs":[{"name":"","type":"address","internalType":"address"}],"stateMutability":"view"},{"type":"function","name":"includeInFee","inputs":[{"name":"account","type":"address","internalType":"address"}],"outputs":[],"stateMutability":"nonpayable"},{"type":"function","name":"initialize","inputs":[{"name":"tokenName","type":"string","internalType":"string"},{"name":"tokenSymbol","type":"string","internalType":"string"},{"name":"_totalSupply","type":"uint256","internalType":"uint256"},{"name":"_token_decimals","type":"uint8","internalType":"uint8"},{"name":"_taxFee","type":"uint256","internalType":"uint256"},{"name":"_liquidityFee","type":"uint256","internalType":"uint256"},{"name":"_maxTokensTXAmount","type":"uint256","internalType":"uint256"},{"name":"_numTokensSellToAddToLiquidity","type":"uint256","internalType":"uint256"},{"name":"version","type":"string","internalType":"string"}],"outputs":[],"stateMutability":"nonpayable"},{"type":"function","name":"isAccountExcludedFromFree","inputs":[{"name":"account","type":"address","internalType":"address"}],"outputs":[{"name":"","type":"bool","internalType":"bool"}],"stateMutability":"view"},{"type":"function","name":"isSwapAndLiquifyEnabled","inputs":[],"outputs":[{"name":"","type":"bool","internalType":"bool"}],"stateMutability":"view"},{"type":"function","name":"liquidityFee","inputs":[],"outputs":[{"name":"","type":"uint256","internalType":"uint256"}],"stateMutability":"view"},{"type":"function","name":"maxTxAmount","inputs":[],"outputs":[{"name":"","type":"uint256","internalType":"uint256"}],"stateMutability":"view"},{"type":"function","name":"name","inputs":[],"outputs":[{"name":"","type":"string","internalType":"string"}],"stateMutability":"view"},{"type":"function","name":"numTokensSellToAddToLiquidity","inputs":[],"outputs":[{"name":"","type":"uint256","internalType":"uint256"}],"stateMutability":"view"},{"type":"function","name":"owner","inputs":[],"outputs":[{"name":"","type":"address","internalType":"address"}],"stateMutability":"view"},{"type":"function","name":"proxiableUUID","inputs":[],"outputs":[{"name":"","type":"bytes32","internalType":"bytes32"}],"stateMutability":"view"},{"type":"function","name":"reflectionBalanceOf","inputs":[{"name":"account","type":"address","internalType":"address"}],"outputs":[{"name":"","type":"uint256","internalType":"uint256"}],"stateMutability":"view"},{"type":"function","name":"renounceOwnership","inputs":[],"outputs":[],"stateMutability":"nonpayable"},{"type":"function","name":"setFees","inputs":[{"name":"_taxFee","type":"uint256","internalType":"uint256"},{"name":"_liquidityFee","type":"uint256","internalType":"uint256"}],"outputs":[],"stateMutability":"nonpayable"},{"type":"function","name":"setMaxTxAmount","inputs":[{"name":"newMaxTxAmount","type":"uint256","internalType":"uint256"}],"outputs":[],"stateMutability":"nonpayable"},{"type":"function","name":"setNumTokensSellToAddToLiquidity","inputs":[{"name":"newNumTokensSellToAddToLiquidity","type":"uint256","internalType":"uint256"}],"outputs":[],"stateMutability":"nonpayable"},{"type":"function","name":"setSwapAndLiquifyEnabled","inputs":[{"name":"_enabled","type":"bool","internalType":"bool"}],"outputs":[],"stateMutability":"nonpayable"},{"type":"function","name":"swapAndLiquifyEnabled","inputs":[],"outputs":[{"name":"","type":"bool","internalType":"bool"}],"stateMutability":"view"},{"type":"function","name":"symbol","inputs":[],"outputs":[{"name":"","type":"string","internalType":"string"}],"stateMutability":"view"},{"type":"function","name":"taxFee","inputs":[],"outputs":[{"name":"","type":"uint256","internalType":"uint256"}],"stateMutability":"view"},{"type":"function","name":"totalSupply","inputs":[],"outputs":[{"name":"","type":"uint256","internalType":"uint256"}],"stateMutability":"view"},{"type":"function","name":"transfer","inputs":[{"name":"recipient","type":"address","internalType":"address"},{"name":"amount","type":"uint256","internalType":"uint256"}],"outputs":[{"name":"","type":"bool","internalType":"bool"}],"stateMutability":"nonpayable"},{"type":"function","name":"transferFrom","inputs":[{"name":"sender","type":"address","internalType":"address"},{"name":"recipient","type":"address","internalType":"address"},{"name":"amount","type":"uint256","internalType":"uint256"}],"outputs":[{"name":"","type":"bool","internalType":"bool"}],"stateMutability":"nonpayable"},{"type":"function","name":"transferOwnership","inputs":[{"name":"newOwner","type":"address","internalType":"address"}],"outputs":[],"stateMutability":"nonpayable"},{"type":"function","name":"uniswapV2Pair","inputs":[],"outputs":[{"name":"","type":"address","internalType":"address"}],"stateMutability":"view"},{"type":"function","name":"uniswapV2Router","inputs":[],"outputs":[{"name":"","type":"address","internalType":"contract IUniswapV2Router02"}],"stateMutability":"view"},{"type":"function","name":"updateUniswapV2Router","inputs":[{"name":"newRouter","type":"address","internalType":"address"}],"outputs":[],"stateMutability":"nonpayable"},{"type":"function","name":"upgradeTo","inputs":[{"name":"newImplementation","type":"address","internalType":"address"}],"outputs":[],"stateMutability":"nonpayable"},{"type":"function","name":"upgradeToAndCall","inputs":[{"name":"newImplementation","type":"address","internalType":"address"},{"name":"data","type":"bytes","internalType":"bytes"}],"outputs":[],"stateMutability":"payable"},{"type":"event","name":"AdminChanged","inputs":[{"name":"previousAdmin","type":"address","indexed":false,"internalType":"address"},{"name":"newAdmin","type":"address","indexed":false,"internalType":"address"}],"anonymous":false},{"type":"event","name":"Approval","inputs":[{"name":"owner","type":"address","indexed":true,"internalType":"address"},{"name":"spender","type":"address","indexed":true,"internalType":"address"},{"name":"value","type":"uint256","indexed":false,"internalType":"uint256"}],"anonymous":false},{"type":"event","name":"BeaconUpgraded","inputs":[{"name":"beacon","type":"address","indexed":true,"internalType":"address"}],"anonymous":false},{"type":"event","name":"ExcludedFromFee","inputs":[{"name":"account","type":"address","indexed":true,"internalType":"address"}],"anonymous":false},{"type":"event","name":"FeesDistributed","inputs":[{"name":"reflectionFee","type":"uint256","indexed":false,"internalType":"uint256"},{"name":"liquidityFee","type":"uint256","indexed":false,"internalType":"uint256"},{"name":"burnFee","type":"uint256","indexed":false,"internalType":"uint256"}],"anonymous":false},{"type":"event","name":"FeesUpdated","inputs":[{"name":"_taxFee","type":"uint256","indexed":true,"internalType":"uint256"},{"name":"_liquidityFee","type":"uint256","indexed":true,"internalType":"uint256"}],"anonymous":false},{"type":"event","name":"IncludedInFee","inputs":[{"name":"account","type":"address","indexed":true,"internalType":"address"}],"anonymous":false},{"type":"event","name":"Initialized","inputs":[{"name":"version","type":"uint8","indexed":false,"internalType":"uint8"}],"anonymous":false},{"type":"event","name":"LiquidityAdded","inputs":[{"name":"tokenAmount","type":"uint256","indexed":false,"internalType":"uint256"},{"name":"ethAmount","type":"uint256","indexed":false,"internalType":"uint256"},{"name":"liquidity","type":"uint256","indexed":false,"internalType":"uint256"}],"anonymous":false},{"type":"event","name":"MaxTxAmountUpdated","inputs":[{"name":"newMaxTxAmount","type":"uint256","indexed":false,"internalType":"uint256"}],"anonymous":false},{"type":"event","name":"NumTokensSellToAddToLiquidityUpdated","inputs":[{"name":"newNumTokensSellToAddToLiquidity","type":"uint256","indexed":false,"internalType":"uint256"}],"anonymous":false},{"type":"event","name":"OwnershipTransferred","inputs":[{"name":"previousOwner","type":"address","indexed":true,"internalType":"address"},{"name":"newOwner","type":"address","indexed":true,"internalType":"address"}],"anonymous":false},{"type":"event","name":"SwapAndLiquify","inputs":[{"name":"tokensSwapped","type":"uint256","indexed":false,"internalType":"uint256"},{"name":"ethReceived","type":"uint256","indexed":false,"internalType":"uint256"},{"name":"tokensAddedToLiquidity","type":"uint256","indexed":false,"internalType":"uint256"}],"anonymous":false},{"type":"event","name":"SwapAndLiquifyEnabledUpdated","inputs":[{"name":"enabled","type":"bool","indexed":false,"internalType":"bool"}],"anonymous":false},{"type":"event","name":"TokensBurned","inputs":[{"name":"burner","type":"address","indexed":true,"internalType":"address"},{"name":"burnAmount","type":"uint256","indexed":false,"internalType":"uint256"}],"anonymous":false},{"type":"event","name":"Transfer","inputs":[{"name":"from","type":"address","indexed":true,"internalType":"address"},{"name":"to","type":"address","indexed":true,"internalType":"address"},{"name":"value","type":"uint256","indexed":false,"internalType":"uint256"}],"anonymous":false},{"type":"event","name":"UniswapConfigured","inputs":[{"name":"router","type":"address","indexed":true,"internalType":"address"},{"name":"pair","type":"address","indexed":true,"internalType":"address"}],"anonymous":false},{"type":"event","name":"UniswapV2RouterUpdated","inputs":[{"name":"newRouter","type":"address","indexed":false,"internalType":"address"}],"anonymous":false},{"type":"event","name":"Upgraded","inputs":[{"name":"implementation","type":"address","indexed":true,"internalType":"address"}],"anonymous":false},{"type":"error","name":"AlreadyExcluded","inputs":[]},{"type":"error","name":"AlreadyInitialized","inputs":[]},{"type":"error","name":"FeesExceeded","inputs":[{"name":"totalFees","type":"uint256","internalType":"uint256"}]},{"type":"error","name":"InsufficientBalance","inputs":[{"name":"available","type":"uint256","internalType":"uint256"},{"name":"required","type":"uint256","internalType":"uint256"}]},{"type":"error","name":"InvalidImplementation","inputs":[]},{"type":"error","name":"LiquidityAdditionFailed","inputs":[]},{"type":"error","name":"NotExcluded","inputs":[]},{"type":"error","name":"NumTokensSellToAddToLiquidityFailed","inputs":[{"name":"currentAmount","type":"uint256","internalType":"uint256"},{"name":"newAmount","type":"uint256","internalType":"uint256"}]},{"type":"error","name":"TokenBalanceZero","inputs":[]},{"type":"error","name":"TransferAmountExceedsMax","inputs":[]},{"type":"error","name":"TransferAmountZero","inputs":[]},{"type":"error","name":"UniswapAlreadyConfigured","inputs":[]},{"type":"error","name":"UpgradesAreFrozen","inputs":[]},{"type":"error","name":"ZeroAddress","inputs":[]},{"type":"error","name":"ZeroValue","inputs":[]}],"bytecode":{"object":"0x60a0806040523461003d5730608052610108805461ffff19169055612b7490816100438239608051818181610bcf01528181610cdb01526110fb0152f35b600080fdfe608080604052600436101561001d575b50361561001b57600080fd5b005b60003560e01c90816304f377f814611e635750806306fdde0314611dbb578063095ea7b314611d8a5780630b78f9c014611d0f578063152d073114611ce65780631694505e14611cbb57806318160ddd14611c9d57806323b872dd14611c105780632e66482914611bd05780632efa1faf1461142b578063313ce567146114095780633659cfe6146110d5578063437823ec1461104357806349bd5a5e1461101b5780634a74bb0214610ff75780634f1ef28614610c8a57806352d1902d14610bb457806365b8dbc014610b2f57806370a0823114610b0c578063715018a614610ab857806384aa9fb614610a325780638c0b5e2214610a135780638da5cb5b146109ec57806395d89b411461091957806398118cb4146108fa578063a071dcf4146108db578063a0a8e460146107f3578063a9059cbb146107b5578063aaf10f421461076f578063c49b9a8014610662578063d12a768814610643578063dd62ed3e146105f0578063ea2f0b3714610560578063ec28438a14610502578063f0f165af14610473578063f2fde38b146103e65763f685a28b146101c1573861000f565b346103e1576020806003193601126103e1576101db611ecd565b6101e36121bb565b6101088054916001600160a01b0391828460101c16158015906103d3575b6103c1578282169384156103395775ffffffffffffffffffffffffffffffffffffffff00001916601092831b62010000600160b01b0316179081905560405163c45a015560e01b8152911c8216908481600481855afa9081156103785785906000926103a1575b506040516315ab88c960e31b81529192829060049082905afa801561037857604484918793600091610384575b5060008360405196879586946364e329cb60e11b8652306004870152166024850152165af19081156103785760009161034b575b50169182156103395761010390610109846001600160a01b03198254161790558360005252604060002060ff19906001828254161790558160005260016040600020918254161790557fc1a9e56c8129347b63ce39a7b2cb626d8e39b9baae0723beb7cbe61d73475bc0600080a3005b60405163d92e233d60e01b8152600490fd5b61036b9150843d8611610371575b6103638183611f31565b81019061212b565b386102c9565b503d610359565b6040513d6000823e3d90fd5b61039b9150843d8611610371576103638183611f31565b38610295565b600492506103bb90823d8411610371576103638183611f31565b91610268565b60405163d6150e9560e01b8152600490fd5b508261010954161515610201565b600080fd5b346103e15760203660031901126103e1576103ff611ecd565b6104076121bb565b6001600160a01b0381161561041f5761001b906129c7565b60405162461bcd60e51b815260206004820152602660248201527f4f776e61626c653a206e6577206f776e657220697320746865207a65726f206160448201526564647265737360d01b6064820152608490fd5b346103e15760203660031901126103e15760043561048f6121bb565b6104a76104a160ff610100541661202b565b8261200b565b8061010755610106548082116104e4577fab1090599596cfb0c655b6424e552fba2cedf77457ed354fbe96e9abf4aa1f13602084604051908152a1005b604492506040519163cd1a97bb60e01b835260048301526024820152fd5b346103e15760203660031901126103e1577f947f344d56e1e8c70dc492fb94c4ddddd490c016aab685f5e7e47b2e85cb44cf60206004356105416121bb565b6105536104a160ff610100541661202b565b61010655604051908152a1005b346103e15760203660031901126103e1576001600160a01b03610581611ecd565b6105896121bb565b16806000526101038060205260ff60406000205416156105de5781600052602052604060002060ff1981541690557f78ce087db51d01d3e32355f2d83455d5a39f99194c8d3d1c2614893695cee442600080a2005b604051634549716160e11b8152600490fd5b346103e15760403660031901126103e157610609611ecd565b610611611ee3565b906001600160a01b03809116600052610102602052604060002091166000526020526020604060002054604051908152f35b346103e15760003660031901126103e157602061010754604051908152f35b346103e15760203660031901126103e157600435801515908181036103e1576106896121bb565b610108908154908360ff83161515146106d65760ff19821660ff85161783556040518481527f53726dfcaf90650aa7eb35524f4d3220f07413c8d6cb404cc8c18bf5591bc15990602090a1005b156107315761072d6040516106ea81611f15565b601781527f5377617020697320616c726561647920656e61626c656400000000000000000060208201525b60405162461bcd60e51b815291829160048301611e84565b0390fd5b61072d60405161074081611f15565b601881527f5377617020697320616c72656164792064697361626c656400000000000000006020820152610715565b346103e15760003660031901126103e15760206001600160a01b037f360894a13ba1a3210667c828492db98dca3e2076cc3735a920a3ca505d382bbc5416604051908152f35b346103e15760403660031901126103e1576107e36107d1611ecd565b6107d9612213565b6024359033612269565b600160c955602060405160018152f35b346103e15760003660031901126103e157604051600061010a80549061081882611fc4565b808552916020916001918281169081156108ae5750600114610855575b6108518661084581880382611f31565b60405191829182611e84565b0390f35b600090815293507fc588bd85af64879c0999911852d2549e38c750e7e4e194eb8891b0913e93b12c5b83851061089b575050505081016020016108458261085185610835565b805486860184015293820193810161087e565b90508695506108519693506020925061084594915060ff191682840152151560051b820101929385610835565b346103e15760003660031901126103e157602061010454604051908152f35b346103e15760003660031901126103e157602061010554604051908152f35b346103e15760003660031901126103e157604051600060ff5461093b81611fc4565b808452906020906001908181169081156109c25750600114610968575b6108518561084581870382611f31565b60ff600090815293507fe08ec2af2cfc251225e1968fd6ca21e4044f129bffa95bac3503be8bdb30a3675b8385106109af5750505050810160200161084582610851610958565b8054868601840152938201938101610993565b8695506108519693506020925061084594915060ff191682840152151560051b8201019293610958565b346103e15760003660031901126103e15760206001600160a01b0360975416604051908152f35b346103e15760003660031901126103e157602061010654604051908152f35b346103e15760203660031901126103e1576001600160a01b03610a53611ecd565b168015610a84576000526101016020526020610a7c604060002054610a7661295e565b906120fe565b604051908152f35b60405162461bcd60e51b815260206004820152600c60248201526b5a65726f206164647265737360a01b6044820152606490fd5b346103e15760003660031901126103e157610ad16121bb565b60006001600160a01b0360975481198116609755167f8be0079c531659141344cd1fd0a4f28419497f9722a3daafe3b4186f6b6457e08280a3005b346103e15760203660031901126103e1576020610a7c610b2a611ecd565b612108565b346103e15760203660031901126103e157610b48611ecd565b610b506121bb565b6001600160a01b038116908115610339577f7e0f425e693a3591da35eee37f8ada3aadc3632fa8ffbcecac1341351c8ece66916020916101089062010000600160b01b0382549160101b169062010000600160b01b031916179055604051908152a1005b346103e15760003660031901126103e1576001600160a01b037f0000000000000000000000000000000000000000000000000000000000000000163003610c1f5760206040517f360894a13ba1a3210667c828492db98dca3e2076cc3735a920a3ca505d382bbc8152f35b60405162461bcd60e51b815260206004820152603860248201527f555550535570677261646561626c653a206d757374206e6f742062652063616c60448201527f6c6564207468726f7567682064656c656761746563616c6c00000000000000006064820152608490fd5b60403660031901126103e157610c9e611ecd565b60243567ffffffffffffffff81116103e157366023820112156103e157610ccf903690602481600401359101611f6f565b6001600160a01b0390817f00000000000000000000000000000000000000000000000000000000000000001691610d088330141561203c565b610d377f360894a13ba1a3210667c828492db98dca3e2076cc3735a920a3ca505d382bbc93828554161461209d565b610d3f6121bb565b60ff61010b5416610fe557833b15610fa4578316604051926352d1902d60e01b8085526020948581600481875afa60009181610fb6575b50610d8d5760405163340aafcd60e11b8152600490fd5b8203610fa4577f4910fdfa16fed3260ed0e7147f7cc6da11a60208b5b9406d12a635614ffd91435460ff1615610dcb57505050505061001b90612a0f565b6040519081528481600481865afa60009181610f75575b50610e435760405162461bcd60e51b815260048101869052602e60248201527f45524331393637557067726164653a206e657720696d706c656d656e7461746960448201526d6f6e206973206e6f74205555505360901b6064820152608490fd5b93929303610f1e57610e5484612a0f565b7fbc7cd75a20ee27fd9adebab32041f755214dbc6bffa90cc0225b39da2e5c2d3b600080a2815115801590610f16575b610e8a57005b61001b9260008060405194610e9e86611ef9565b602786527f416464726573733a206c6f772d6c6576656c2064656c65676174652063616c6c85870152660819985a5b195960ca1b60408701528481519101845af4903d15610f0d573d610ef081611f53565b90610efe6040519283611f31565b8152600081943d92013e612aad565b60609250612aad565b506001610e84565b60405162461bcd60e51b815260048101839052602960248201527f45524331393637557067726164653a20756e737570706f727465642070726f786044820152681a58589b195555525160ba1b6064820152608490fd5b9091508581813d8311610f9d575b610f8d8183611f31565b810103126103e157519087610de2565b503d610f83565b60405163340aafcd60e11b8152600490fd5b9091508681813d8311610fde575b610fce8183611f31565b810103126103e157519088610d76565b503d610fc4565b6040516316c1cfdb60e31b8152600490fd5b346103e15760003660031901126103e157602060ff61010854166040519015158152f35b346103e15760003660031901126103e15760206001600160a01b036101095416604051908152f35b346103e15760203660031901126103e1576001600160a01b03611064611ecd565b61106c6121bb565b16806000526101038060205260ff604060002054166110c357816000526020526040600020600160ff198254161790557ff1d6512ec7550bf605a5a38910e48fb6a57938ed74a5afa01753fa023001005c600080a2005b60405163175c779760e11b8152600490fd5b346103e1576020806003193601126103e1576110ef611ecd565b6001600160a01b0391827f000000000000000000000000000000000000000000000000000000000000000016926111288430141561203c565b6111577f360894a13ba1a3210667c828492db98dca3e2076cc3735a920a3ca505d382bbc94828654161461209d565b61115f6121bb565b60ff61010b5416610fe557823b15610fa4576040516352d1902d60e01b80825294918416908381600481855afa600091816113da575b506111ac5760405163340aafcd60e11b8152600490fd5b8203610fa457604051918383019583871067ffffffffffffffff8811176113c457866040526000845260ff7f4910fdfa16fed3260ed0e7147f7cc6da11a60208b5b9406d12a635614ffd9143541660001461121057505050505061001b9150612a0f565b604095939495519081528581600481865afa60009181611395575b5061128c5760405162461bcd60e51b815260048101879052602e60248201527f45524331393637557067726164653a206e657720696d706c656d656e7461746960448201526d6f6e206973206e6f74205555505360901b6064820152608490fd5b9493940361133e5761129d82612a0f565b7fbc7cd75a20ee27fd9adebab32041f755214dbc6bffa90cc0225b39da2e5c2d3b600080a2825115801590611336575b6112d357005b60008061001b95604051956112e787611ef9565b602787527f416464726573733a206c6f772d6c6576656c2064656c65676174652063616c6c86880152660819985a5b195960ca1b60408801525190845af4903d15610f0d573d610ef081611f53565b5060006112cd565b60405162461bcd60e51b815260048101849052602960248201527f45524331393637557067726164653a20756e737570706f727465642070726f786044820152681a58589b195555525160ba1b6064820152608490fd5b9091508681813d83116113bd575b6113ad8183611f31565b810103126103e15751908861122b565b503d6113a3565b634e487b7160e01b600052604160045260246000fd5b9091508481813d8311611402575b6113f28183611f31565b810103126103e157519087611195565b503d6113e8565b346103e15760003660031901126103e157602060ff6101005416604051908152f35b346103e1576101203660031901126103e15760043567ffffffffffffffff81116103e15761145d903690600401611fa6565b60243567ffffffffffffffff81116103e15761147d903690600401611fa6565b906064359060ff821682036103e1576101043567ffffffffffffffff81116103e1576114ad903690600401611fa6565b916000549160ff8360081c161592838094611bc3575b8015611bac575b15611b505760ff19811660011760005583611b3e575b506001600160a01b0360975416611b2d57606461150160a435608435611ffe565b11611b085761152060ff60005460081c1661151b816128fe565b6128fe565b611529336129c7565b61154760ff60005460081c1661153e816128fe565b61151b816128fe565b600160c95580519067ffffffffffffffff82116113c457819061156b60fe54611fc4565b601f8111611a5e575b50602090601f83116001146119d4576000926119c9575b50508160011b916000199060031b1c19161760fe555b835167ffffffffffffffff81116113c4576115bd60ff54611fc4565b601f811161192a575b506020601f82116001146118a3578192939495600092611898575b50508160011b916000199060031b1c19161760ff555b61010060ff821660ff19825416179055604d60ff8216116118825761162460ff8216600a0a60443561200b565b908160fb55811561186c5761167961167160ff60001994850619938460fc556084356101045560a4356101055561166761165f83831661202b565b60c43561200b565b610106551661202b565b60e43561200b565b61010755336000526101016020526040600020556101036020526040600020600160ff19825416179055306000526040600020600160ff19825416179055825167ffffffffffffffff81116113c45761010a916116d68354611fc4565b601f8111611808575b50602094601f831160011461178657948293949560009361177b575b50508260011b9260031b1c19161790555b60fb5460405190815260007fddf252ad1be2c89b69c2b068fc378daa952ba7f163c4a11628f55a4df523b3ef60203393a361174357005b61ff0019600054166000557f7f26b83ff96e1f2b6a682f133852f6798a09c465da95921460cefb3847402498602060405160018152a1005b0151915085806116fb565b90601f19831695846000527fc588bd85af64879c0999911852d2549e38c750e7e4e194eb8891b0913e93b12c9260005b8881106117f05750846001969798106117d8575b50505050811b01905561170c565b01519060f88460031b161c19169055848080806117ca565b919360206001819287850151815501950192016117b6565b836000527fc588bd85af64879c0999911852d2549e38c750e7e4e194eb8891b0913e93b12c601f840160051c81019160208510611862575b601f0160051c01905b81811061185657506116df565b60008155600101611849565b9091508190611840565b634e487b7160e01b600052601260045260246000fd5b634e487b7160e01b600052601160045260246000fd5b0151905085806115e1565b60ff6000527fe08ec2af2cfc251225e1968fd6ca21e4044f129bffa95bac3503be8bdb30a3679060005b601f1984168110611912575060019394959683601f198116106118f9575b505050811b0160ff556115f7565b015160001960f88460031b161c191690558580806118eb565b9091602060018192858b0151815501930191016118cd565b60ff600052601f820160051c7fe08ec2af2cfc251225e1968fd6ca21e4044f129bffa95bac3503be8bdb30a36701602083106119a2575b601f820160051c7fe08ec2af2cfc251225e1968fd6ca21e4044f129bffa95bac3503be8bdb30a36701811061199657506115c6565b60008155600101611961565b507fe08ec2af2cfc251225e1968fd6ca21e4044f129bffa95bac3503be8bdb30a367611961565b01519050868061158b565b925060fe6000527f54075df80ec1ae6ac9100e1fd0ebf3246c17f5c933137af392011f4c5f61513a906000935b601f1984168510611a43576001945083601f19811610611a2a575b505050811b0160fe556115a1565b015160001960f88460031b161c19169055868080611a1c565b81810151835560209485019460019093019290910190611a01565b90915060fe600052601f830160051c7f54075df80ec1ae6ac9100e1fd0ebf3246c17f5c933137af392011f4c5f61513a0160208410611ae1575b908392915b601f820160051c7f54075df80ec1ae6ac9100e1fd0ebf3246c17f5c933137af392011f4c5f61513a018110611ad25750611574565b60008155849350600101611a9d565b507f54075df80ec1ae6ac9100e1fd0ebf3246c17f5c933137af392011f4c5f61513a611a98565b6024611b1860a435608435611ffe565b60405190632db7582d60e01b82526004820152fd5b60405162dc149f60e41b8152600490fd5b61ffff191661010117600055856114e0565b60405162461bcd60e51b815260206004820152602e60248201527f496e697469616c697a61626c653a20636f6e747261637420697320616c72656160448201526d191e481a5b9a5d1a585b1a5e995960921b6064820152608490fd5b50303b1580156114ca5750600160ff8216146114ca565b50600160ff8216106114c3565b346103e15760203660031901126103e1576001600160a01b03611bf1611ecd565b16600052610103602052602060ff604060002054166040519015158152f35b346103e15760603660031901126103e157611c29611ecd565b611c31611ee3565b90604435611c3d612213565b6001600160a01b038216600052610102602052604060002033600052602052604060002054818110611c8057611c77826107e39585612269565b0390339061214a565b6044916040519163cf47918160e01b835260048301526024820152fd5b346103e15760003660031901126103e157602060fb54604051908152f35b346103e15760003660031901126103e15760206001600160a01b036101085460101c16604051908152f35b346103e15760003660031901126103e157611cff6121bb565b61010b805460ff19166001179055005b346103e15760403660031901126103e157602435600435611d2e6121bb565b611d388282611ffe565b60648111611d725750806101045581610105557f5c6323bf1c2d7aaea2c091a4751c1c87af7f2864650c336507a77d0557af37a1600080a3005b60249060405190632db7582d60e01b82526004820152fd5b346103e15760403660031901126103e157611db0611da6611ecd565b602435903361214a565b602060405160018152f35b346103e15760003660031901126103e157604051600060fe54611ddd81611fc4565b808452906020906001908181169081156109c25750600114611e09576108518561084581870382611f31565b60fe600090815293507f54075df80ec1ae6ac9100e1fd0ebf3246c17f5c933137af392011f4c5f61513a5b838510611e505750505050810160200161084582610851610958565b8054868601840152938201938101611e34565b346103e15760003660031901126103e15760209060ff610108541615158152f35b6020808252825181830181905290939260005b828110611eb957505060409293506000838284010152601f8019910116010190565b818101860151848201604001528501611e97565b600435906001600160a01b03821682036103e157565b602435906001600160a01b03821682036103e157565b6060810190811067ffffffffffffffff8211176113c457604052565b6040810190811067ffffffffffffffff8211176113c457604052565b90601f8019910116810190811067ffffffffffffffff8211176113c457604052565b67ffffffffffffffff81116113c457601f01601f191660200190565b929192611f7b82611f53565b91611f896040519384611f31565b8294818452818301116103e1578281602093846000960137010152565b9080601f830112156103e157816020611fc193359101611f6f565b90565b90600182811c92168015611ff4575b6020831014611fde57565b634e487b7160e01b600052602260045260246000fd5b91607f1691611fd3565b9190820180921161188257565b8181029291811591840414171561188257565b9190820391821161188257565b60ff16604d811161188257600a0a90565b1561204357565b60405162461bcd60e51b815260206004820152602c60248201527f46756e6374696f6e206d7573742062652063616c6c6564207468726f7567682060448201526b19195b1959d85d1958d85b1b60a21b6064820152608490fd5b156120a457565b60405162461bcd60e51b815260206004820152602c60248201527f46756e6374696f6e206d7573742062652063616c6c6564207468726f7567682060448201526b6163746976652070726f787960a01b6064820152608490fd5b811561186c570490565b6001600160a01b0316600052610101602052611fc1604060002054610a7661295e565b908160209103126103e157516001600160a01b03811681036103e15790565b90916001600160a01b0380921691821580156121b1575b610339577f8c5be1e5ebec7d5bd14f71427d1e84f3dd0314c0f7b2291e5b200ac8c7c3b92591602091846000526101028352604060002095169485600052825280604060002055604051908152a3565b5080841615612161565b6001600160a01b036097541633036121cf57565b606460405162461bcd60e51b815260206004820152602060248201527f4f776e61626c653a2063616c6c6572206973206e6f7420746865206f776e65726044820152fd5b600260c9541461222457600260c955565b60405162461bcd60e51b815260206004820152601f60248201527f5265656e7472616e637947756172643a207265656e7472616e742063616c6c006044820152606490fd5b6001600160a01b0360009116918215610339576001600160a01b03169283156103395780156128ec576101065480151590816128e2575b506128d0576122ae30612108565b61010754811015806128bf575b806128a9575b612526575b508282526020906101038252604060ff8185205416158485908287936124c7575b612310612301856122fc866122fc878c61201e565b61201e565b9661230a61295e565b9061200b565b9089895261010191828952612329878b2091825461201e565b905561233c61233661295e565b8861200b565b8b8a52828952612350878b20918254611ffe565b9055612385575b505050507fddf252ad1be2c89b69c2b068fc378daa952ba7f163c4a11628f55a4df523b3ef935051908152a3565b61240c85606095969798996123ac6123a461239e61295e565b8761200b565b60fc5461201e565b60fc556123bb8560fd54611ffe565b60fd558151858152818c82015281838201527f312c5308f42848705a866c73dec11fd0783c2d64aac6a97e94467062ad3f4058978891a16123fd61239e61295e565b933082528b5220918254611ffe565b905583156124b657958095949388937ffd38818f5291bf0bb3a2a48aadc06ba8757865d1dabd804585338aab3009dcb6937fddf252ad1be2c89b69c2b068fc378daa952ba7f163c4a11628f55a4df523b3ef996124736123a461246d61295e565b8661200b565b60fc556124828460fb5461201e565b60fb55875184815286863092a28751908152602081019190915260408101839052606090a18451908152a238808080612357565b8451637c946ed760e01b8152600490fd5b9250505060646124da610104548561200b565b0490601e8202828104601e14831517156125125760646124fc9104809361201e565b606461250b610105548761200b565b04916122e7565b634e487b7160e01b87526011600452602487fd5b61010061ff001961010854161790816101085580156128975761254c8160011c8261201e565b904760405161255a81611ef9565b60028152602094858201906040368337825115612883576001600160a01b039030835260101c166040516315ab88c960e31b81528781600481855afa908115612878578a9161285b575b5083516001101561284757906001600160a01b036125cd921660408501528560011c903061214a565b6001600160a01b036101085460101c1690813b156128435791889160405193849263791ac94760e01b845260a48401908860011c600486015285602486015260a060448601525180915260c484019190855b8b82821061282057505050508383809230606483015242608483015203925af180156127e3576127ee575b50612655904761201e565b926001600160a01b036101085460101c16928315610339576126798186953061214a565b60606001600160a01b036101085460101c1660c46001600160a01b0360975416604051988993849263f305d71960e01b84523060048501528760248501528d60448501528d606485015260848401524260a48401525af180156127e35787928896899261279c575b5050801561278a577f17bbfb9a6069321b6ded73bd96327c9e6b7212a5cd51ff219cd61370acafb56195612774936127517fd7f28048575eead8851d024ead087913957dfb4fd1a02b4d1573f5352a5a2be393604051938493846040919493926060820195825260208201520152565b0390a160405193849360011c846040919493926060820195825260208201520152565b0390a161ff0019610108541661010855386122c6565b60405163b657fe1360e01b8152600490fd5b93509550506060823d6060116127db575b816127ba60609383611f31565b810103126127d757604082519583015192015194919438806126e1565b8680fd5b3d91506127ad565b6040513d89823e3d90fd5b67ffffffffffffffff819792971161280c576040529461265561264a565b634e487b7160e01b82526041600452602482fd5b83516001600160a01b031685528e9750889650938401939092019160010161261f565b8880fd5b634e487b7160e01b8a52603260045260248afd5b6128729150883d8a11610371576103638183611f31565b386125a4565b6040513d8c823e3d90fd5b634e487b7160e01b89526032600452602489fd5b6040516364e2819f60e01b8152600490fd5b506001600160a01b0361010954168414156122c1565b5060ff6101085460081c16156122bb565b6040516346830da960e01b8152600490fd5b90508111386122a0565b6040516329a1e53760e01b8152600490fd5b1561290557565b60405162461bcd60e51b815260206004820152602b60248201527f496e697469616c697a61626c653a20636f6e7472616374206973206e6f74206960448201526a6e697469616c697a696e6760a81b6064820152608490fd5b60fb54801561297357611fc19060fc546120fe565b60405162461bcd60e51b815260206004820152602660248201527f546f74616c20737570706c79206d7573742062652067726561746572207468616044820152656e207a65726f60d01b6064820152608490fd5b609754906001600160a01b0380911691826001600160a01b0319821617609755167f8be0079c531659141344cd1fd0a4f28419497f9722a3daafe3b4186f6b6457e0600080a3565b803b15612a52576001600160a01b037f360894a13ba1a3210667c828492db98dca3e2076cc3735a920a3ca505d382bbc91166001600160a01b0319825416179055565b60405162461bcd60e51b815260206004820152602d60248201527f455243313936373a206e657720696d706c656d656e746174696f6e206973206e60448201526c1bdd08184818dbdb9d1c9858dd609a1b6064820152608490fd5b91929015612b0f5750815115612ac1575090565b3b15612aca5790565b60405162461bcd60e51b815260206004820152601d60248201527f416464726573733a2063616c6c20746f206e6f6e2d636f6e74726163740000006044820152606490fd5b825190915015612b225750805190602001fd5b60405162461bcd60e51b815290819061072d9060048301611e8456fea26469706673582212206eccc41d88b13df9d09ff08b260d31b97a74eed964c7a1d027b31d0da18c159564736f6c63430008160033","linkReferences":{}},"methodIdentifiers":{"allowance(address,address)":"dd62ed3e","approve(address,uint256)":"095ea7b3","balanceOf(address)":"70a08231","configureUniswap(address)":"f685a28b","contractVersion()":"a0a8e460","decimals()":"313ce567","excludeFromFee(address)":"437823ec","freezeUpgrades()":"152d0731","getImplementation()":"aaf10f42","includeInFee(address)":"ea2f0b37","initialize(string,string,uint256,uint8,uint256,uint256,uint256,uint256,string)":"2efa1faf","isAccountExcludedFromFree(address)":"2e664829","isSwapAndLiquifyEnabled()":"04f377f8","liquidityFee()":"98118cb4","maxTxAmount()":"8c0b5e22","name()":"06fdde03","numTokensSellToAddToLiquidity()":"d12a7688","owner()":"8da5cb5b","proxiableUUID()":"52d1902d","reflectionBalanceOf(address)":"84aa9fb6","renounceOwnership()":"715018a6","setFees(uint256,uint256)":"0b78f9c0","setMaxTxAmount(uint256)":"ec28438a","setNumTokensSellToAddToLiquidity(uint256)":"f0f165af","setSwapAndLiquifyEnabled(bool)":"c49b9a80","swapAndLiquifyEnabled()":"4a74bb02","symbol()":"95d89b41","taxFee()":"a071dcf4","totalSupply()":"18160ddd","transfer(address,uint256)":"a9059cbb","transferFrom(address,address,uint256)":"23b872dd","transferOwnership(address)":"f2fde38b","uniswapV2Pair()":"49bd5a5e","uniswapV2Router()":"1694505e","updateUniswapV2Router(address)":"65b8dbc0","upgradeTo(address)":"3659cfe6","upgradeToAndCall(address,bytes)":"4f1ef286"},"id":1}