{"abi":[{"type":"constructor","inputs":[],"stateMutability":"nonpayable"},{"type":"receive","stateMutability":"payable"},{"type":"function","name":"allowance","inputs":[{"name":"owner","type":"address","internalType":"address"},{"name":"spender","type":"address","internalType":"address"}],"outputs":[{"name":"","type":"uint256","internalType":"uint256"}],"stateMutability":"view"},{"type":"function","name":"approve","inputs":[{"name":"spender","type":"address","internalType":"address"},{"name":"amount","type":"uint256","internalType":"uint256"}],"outputs":[{"name":"","type":"bool","internalType":"bool"}],"stateMutability":"nonpayable"},{"type":"function","name":"balanceOf","inputs":[{"name":"account","type":"address","internalType":"address"}],"outputs":[{"name":"","type":"uint256","internalType":"uint256"}],"stateMutability":"view"},{"type":"function","name":"burnFee","inputs":[],"outputs":[{"name":"","type":"uint256","internalType":"uint256"}],"stateMutability":"view"},{"type":"function","name":"configureUniswap","inputs":[{"name":"routerAddress","type":"address","internalType":"address"}],"outputs":[],"stateMutability":"nonpayable"},{"type":"function","name":"contractVersion","inputs":[],"outputs":[{"name":"","type":"string","internalType":"string"}],"stateMutability":"view"},{"type":"function","name":"decimals","inputs":[],"outputs":[{"name":"","type":"uint8","internalType":"uint8"}],"stateMutability":"view"},{"type":"function","name":"excludeFromFee","inputs":[{"name":"account","type":"address","internalType":"address"}],"outputs":[],"stateMutability":"nonpayable"},{"type":"function","name":"freezeUpgrades","inputs":[],"outputs":[],"stateMutability":"nonpayable"},{"type":"function","name":"getImplementation","inputs":[],"outputs":[{"name":"","type":"address","internalType":"address"}],"stateMutability":"view"},{"type":"function","name":"includeInFee","inputs":[{"name":"account","type":"address","internalType":"address"}],"outputs":[],"stateMutability":"nonpayable"},{"type":"function","name":"initialize","inputs":[{"name":"tokenName","type":"string","internalType":"string"},{"name":"tokenSymbol","type":"string","internalType":"string"},{"name":"_totalSupply","type":"uint256","internalType":"uint256"},{"name":"_token_decimals","type":"uint8","internalType":"uint8"},{"name":"_taxFee","type":"uint256","internalType":"uint256"},{"name":"_liquidityFee","type":"uint256","internalType":"uint256"},{"name":"_burnFee","type":"uint256","internalType":"uint256"},{"name":"_maxTokensTXAmount","type":"uint256","internalType":"uint256"},{"name":"_numTokensSellToAddToLiquidity","type":"uint256","internalType":"uint256"},{"name":"version","type":"string","internalType":"string"}],"outputs":[],"stateMutability":"nonpayable"},{"type":"function","name":"isAccountExcludedFromFree","inputs":[{"name":"account","type":"address","internalType":"address"}],"outputs":[{"name":"","type":"bool","internalType":"bool"}],"stateMutability":"view"},{"type":"function","name":"isSwapAndLiquifyEnabled","inputs":[],"outputs":[{"name":"","type":"bool","internalType":"bool"}],"stateMutability":"view"},{"type":"function","name":"liquidityFee","inputs":[],"outputs":[{"name":"","type":"uint256","internalType":"uint256"}],"stateMutability":"view"},{"type":"function","name":"maxTxAmount","inputs":[],"outputs":[{"name":"","type":"uint256","internalType":"uint256"}],"stateMutability":"view"},{"type":"function","name":"name","inputs":[],"outputs":[{"name":"","type":"string","internalType":"string"}],"stateMutability":"view"},{"type":"function","name":"numTokensSellToAddToLiquidity","inputs":[],"outputs":[{"name":"","type":"uint256","internalType":"uint256"}],"stateMutability":"view"},{"type":"function","name":"owner","inputs":[],"outputs":[{"name":"","type":"address","internalType":"address"}],"stateMutability":"view"},{"type":"function","name":"proxiableUUID","inputs":[],"outputs":[{"name":"","type":"bytes32","internalType":"bytes32"}],"stateMutability":"view"},{"type":"function","name":"reflectionBalanceOf","inputs":[{"name":"account","type":"address","internalType":"address"}],"outputs":[{"name":"","type":"uint256","internalType":"uint256"}],"stateMutability":"view"},{"type":"function","name":"renounceOwnership","inputs":[],"outputs":[],"stateMutability":"nonpayable"},{"type":"function","name":"setFees","inputs":[{"name":"_taxFee","type":"uint256","internalType":"uint256"},{"name":"_liquidityFee","type":"uint256","internalType":"uint256"},{"name":"_burnFee","type":"uint256","internalType":"uint256"}],"outputs":[],"stateMutability":"nonpayable"},{"type":"function","name":"setMaxTxAmount","inputs":[{"name":"newMaxTxAmount","type":"uint256","internalType":"uint256"}],"outputs":[],"stateMutability":"nonpayable"},{"type":"function","name":"setNumTokensSellToAddToLiquidity","inputs":[{"name":"newNumTokensSellToAddToLiquidity","type":"uint256","internalType":"uint256"}],"outputs":[],"stateMutability":"nonpayable"},{"type":"function","name":"setSwapAndLiquifyEnabled","inputs":[{"name":"_enabled","type":"bool","internalType":"bool"}],"outputs":[],"stateMutability":"nonpayable"},{"type":"function","name":"swapAndLiquifyEnabled","inputs":[],"outputs":[{"name":"","type":"bool","internalType":"bool"}],"stateMutability":"view"},{"type":"function","name":"symbol","inputs":[],"outputs":[{"name":"","type":"string","internalType":"string"}],"stateMutability":"view"},{"type":"function","name":"taxFee","inputs":[],"outputs":[{"name":"","type":"uint256","internalType":"uint256"}],"stateMutability":"view"},{"type":"function","name":"totalSupply","inputs":[],"outputs":[{"name":"","type":"uint256","internalType":"uint256"}],"stateMutability":"view"},{"type":"function","name":"transfer","inputs":[{"name":"recipient","type":"address","internalType":"address"},{"name":"amount","type":"uint256","internalType":"uint256"}],"outputs":[{"name":"","type":"bool","internalType":"bool"}],"stateMutability":"nonpayable"},{"type":"function","name":"transferFrom","inputs":[{"name":"sender","type":"address","internalType":"address"},{"name":"recipient","type":"address","internalType":"address"},{"name":"amount","type":"uint256","internalType":"uint256"}],"outputs":[{"name":"","type":"bool","internalType":"bool"}],"stateMutability":"nonpayable"},{"type":"function","name":"transferOwnership","inputs":[{"name":"newOwner","type":"address","internalType":"address"}],"outputs":[],"stateMutability":"nonpayable"},{"type":"function","name":"uniswapV2Pair","inputs":[],"outputs":[{"name":"","type":"address","internalType":"address"}],"stateMutability":"view"},{"type":"function","name":"uniswapV2Router","inputs":[],"outputs":[{"name":"","type":"address","internalType":"contract IUniswapV2Router02"}],"stateMutability":"view"},{"type":"function","name":"updateUniswapV2Router","inputs":[{"name":"newRouter","type":"address","internalType":"address"}],"outputs":[],"stateMutability":"nonpayable"},{"type":"function","name":"upgradeTo","inputs":[{"name":"newImplementation","type":"address","internalType":"address"}],"outputs":[],"stateMutability":"nonpayable"},{"type":"function","name":"upgradeToAndCall","inputs":[{"name":"newImplementation","type":"address","internalType":"address"},{"name":"data","type":"bytes","internalType":"bytes"}],"outputs":[],"stateMutability":"payable"},{"type":"event","name":"AdminChanged","inputs":[{"name":"previousAdmin","type":"address","indexed":false,"internalType":"address"},{"name":"newAdmin","type":"address","indexed":false,"internalType":"address"}],"anonymous":false},{"type":"event","name":"Approval","inputs":[{"name":"owner","type":"address","indexed":true,"internalType":"address"},{"name":"spender","type":"address","indexed":true,"internalType":"address"},{"name":"value","type":"uint256","indexed":false,"internalType":"uint256"}],"anonymous":false},{"type":"event","name":"BeaconUpgraded","inputs":[{"name":"beacon","type":"address","indexed":true,"internalType":"address"}],"anonymous":false},{"type":"event","name":"ExcludedFromFee","inputs":[{"name":"account","type":"address","indexed":true,"internalType":"address"}],"anonymous":false},{"type":"event","name":"FeesDistributed","inputs":[{"name":"reflectionFee","type":"uint256","indexed":false,"internalType":"uint256"},{"name":"liquidityFee","type":"uint256","indexed":false,"internalType":"uint256"},{"name":"burnFee","type":"uint256","indexed":false,"internalType":"uint256"}],"anonymous":false},{"type":"event","name":"FeesUpdated","inputs":[{"name":"_taxFee","type":"uint256","indexed":true,"internalType":"uint256"},{"name":"_liquidityFee","type":"uint256","indexed":true,"internalType":"uint256"},{"name":"_burnFee","type":"uint256","indexed":true,"internalType":"uint256"}],"anonymous":false},{"type":"event","name":"IncludedInFee","inputs":[{"name":"account","type":"address","indexed":true,"internalType":"address"}],"anonymous":false},{"type":"event","name":"Initialized","inputs":[{"name":"version","type":"uint8","indexed":false,"internalType":"uint8"}],"anonymous":false},{"type":"event","name":"LiquidityAdded","inputs":[{"name":"tokenAmount","type":"uint256","indexed":false,"internalType":"uint256"},{"name":"ethAmount","type":"uint256","indexed":false,"internalType":"uint256"},{"name":"liquidity","type":"uint256","indexed":false,"internalType":"uint256"}],"anonymous":false},{"type":"event","name":"MaxTxAmountUpdated","inputs":[{"name":"newMaxTxAmount","type":"uint256","indexed":false,"internalType":"uint256"}],"anonymous":false},{"type":"event","name":"NumTokensSellToAddToLiquidityUpdated","inputs":[{"name":"newNumTokensSellToAddToLiquidity","type":"uint256","indexed":false,"internalType":"uint256"}],"anonymous":false},{"type":"event","name":"OwnershipTransferred","inputs":[{"name":"previousOwner","type":"address","indexed":true,"internalType":"address"},{"name":"newOwner","type":"address","indexed":true,"internalType":"address"}],"anonymous":false},{"type":"event","name":"SwapAndLiquify","inputs":[{"name":"tokensSwapped","type":"uint256","indexed":false,"internalType":"uint256"},{"name":"ethReceived","type":"uint256","indexed":false,"internalType":"uint256"},{"name":"tokensAddedToLiquidity","type":"uint256","indexed":false,"internalType":"uint256"}],"anonymous":false},{"type":"event","name":"SwapAndLiquifyEnabledUpdated","inputs":[{"name":"enabled","type":"bool","indexed":false,"internalType":"bool"}],"anonymous":false},{"type":"event","name":"TokensBurned","inputs":[{"name":"burner","type":"address","indexed":true,"internalType":"address"},{"name":"burnAmount","type":"uint256","indexed":false,"internalType":"uint256"}],"anonymous":false},{"type":"event","name":"Transfer","inputs":[{"name":"from","type":"address","indexed":true,"internalType":"address"},{"name":"to","type":"address","indexed":true,"internalType":"address"},{"name":"value","type":"uint256","indexed":false,"internalType":"uint256"}],"anonymous":false},{"type":"event","name":"UniswapConfigured","inputs":[{"name":"router","type":"address","indexed":true,"internalType":"address"},{"name":"pair","type":"address","indexed":true,"internalType":"address"}],"anonymous":false},{"type":"event","name":"UniswapV2RouterUpdated","inputs":[{"name":"newRouter","type":"address","indexed":false,"internalType":"address"}],"anonymous":false},{"type":"event","name":"Upgraded","inputs":[{"name":"implementation","type":"address","indexed":true,"internalType":"address"}],"anonymous":false},{"type":"error","name":"AlreadyExcluded","inputs":[]},{"type":"error","name":"AlreadyInitialized","inputs":[]},{"type":"error","name":"FeesExceeded","inputs":[{"name":"totalFees","type":"uint256","internalType":"uint256"}]},{"type":"error","name":"InsufficientBalance","inputs":[{"name":"available","type":"uint256","internalType":"uint256"},{"name":"required","type":"uint256","internalType":"uint256"}]},{"type":"error","name":"InvalidImplementation","inputs":[]},{"type":"error","name":"LiquidityAdditionFailed","inputs":[]},{"type":"error","name":"NotExcluded","inputs":[]},{"type":"error","name":"NumTokensSellToAddToLiquidityFailed","inputs":[{"name":"currentAmount","type":"uint256","internalType":"uint256"},{"name":"newAmount","type":"uint256","internalType":"uint256"}]},{"type":"error","name":"TokenBalanceZero","inputs":[]},{"type":"error","name":"TransferAmountExceedsMax","inputs":[]},{"type":"error","name":"TransferAmountZero","inputs":[]},{"type":"error","name":"UniswapAlreadyConfigured","inputs":[]},{"type":"error","name":"UpgradesAreFrozen","inputs":[]},{"type":"error","name":"ZeroAddress","inputs":[]}],"bytecode":{"object":"0x60a060405230608052610109805461ffff1916905534801561002057600080fd5b50608051612ec76100586000396000818161083b015281816108c001528181610a3401528181610ab90152610b910152612ec76000f3fe6080604052600436106102295760003560e01c806389429ddf11610123578063c49b9a80116100ab578063ec28438a1161006f578063ec28438a1461064c578063f0f165af1461066c578063f2fde38b1461068c578063f685a28b146106ac578063fce589d8146106cc57600080fd5b8063c49b9a801461058e578063cec10c11146105ae578063d12a7688146105ce578063dd62ed3e146105e5578063ea2f0b371461062c57600080fd5b806398118cb4116100f257806398118cb414610516578063a071dcf41461052d578063a0a8e46014610544578063a9059cbb14610559578063aaf10f421461057957600080fd5b806389429ddf146104ac5780638c0b5e22146104cc5780638da5cb5b146104e357806395d89b411461050157600080fd5b80633659cfe6116101b157806352d1902d1161017557806352d1902d1461042257806365b8dbc01461043757806370a0823114610457578063715018a61461047757806384aa9fb61461048c57600080fd5b80633659cfe614610393578063437823ec146103b357806349bd5a5e146103d35780634a74bb02146103f45780634f1ef2861461040f57600080fd5b80631694505e116101f85780631694505e146102b857806318160ddd146102f757806323b872dd146103165780632e66482914610336578063313ce5671461037057600080fd5b806304f377f81461023557806306fdde031461025f578063095ea7b314610281578063152d0731146102a157600080fd5b3661023057005b600080fd5b34801561024157600080fd5b506101095460ff165b60405190151581526020015b60405180910390f35b34801561026b57600080fd5b506102746106e3565b60405161025691906126b7565b34801561028d57600080fd5b5061024a61029c3660046126ff565b610775565b3480156102ad57600080fd5b506102b661078c565b005b3480156102c457600080fd5b50610109546102df906201000090046001600160a01b031681565b6040516001600160a01b039091168152602001610256565b34801561030357600080fd5b5060fb545b604051908152602001610256565b34801561032257600080fd5b5061024a61033136600461272b565b6107a4565b34801561034257600080fd5b5061024a61035136600461276c565b6001600160a01b03166000908152610103602052604090205460ff1690565b34801561037c57600080fd5b506101005460405160ff9091168152602001610256565b34801561039f57600080fd5b506102b66103ae36600461276c565b610831565b3480156103bf57600080fd5b506102b66103ce36600461276c565b61099a565b3480156103df57600080fd5b5061010a546102df906001600160a01b031681565b34801561040057600080fd5b506101095461024a9060ff1681565b6102b661041d366004612815565b610a2a565b34801561042e57600080fd5b50610308610b84565b34801561044357600080fd5b506102b661045236600461276c565b610c37565b34801561046357600080fd5b5061030861047236600461276c565b610cd3565b34801561048357600080fd5b506102b6610d01565b34801561049857600080fd5b506103086104a736600461276c565b610d15565b3480156104b857600080fd5b506102b66104c73660046128af565b610d64565b3480156104d857600080fd5b506103086101075481565b3480156104ef57600080fd5b506097546001600160a01b03166102df565b34801561050d57600080fd5b50610274611054565b34801561052257600080fd5b506103086101055481565b34801561053957600080fd5b506103086101045481565b34801561055057600080fd5b50610274611063565b34801561056557600080fd5b5061024a6105743660046126ff565b6110f2565b34801561058557600080fd5b506102df611114565b34801561059a57600080fd5b506102b66105a9366004612984565b61113a565b3480156105ba57600080fd5b506102b66105c93660046129a6565b611227565b3480156105da57600080fd5b506103086101085481565b3480156105f157600080fd5b506103086106003660046129d2565b6001600160a01b0391821660009081526101026020908152604080832093909416825291909152205490565b34801561063857600080fd5b506102b661064736600461276c565b61129d565b34801561065857600080fd5b506102b6610667366004612a0b565b611329565b34801561067857600080fd5b506102b6610687366004612a0b565b611381565b34801561069857600080fd5b506102b66106a736600461276c565b61140f565b3480156106b857600080fd5b506102b66106c736600461276c565b611485565b3480156106d857600080fd5b506103086101065481565b606060fe80546106f290612a24565b80601f016020809104026020016040519081016040528092919081815260200182805461071e90612a24565b801561076b5780601f106107405761010080835404028352916020019161076b565b820191906000526020600020905b81548152906001019060200180831161074e57829003601f168201915b5050505050905090565b6000610782338484611740565b5060015b92915050565b6107946117dd565b61010c805460ff19166001179055565b60006107ae611837565b6001600160a01b038416600090815261010260209081526040808320338452909152902054828110156108035760405163cf47918160e01b815260048101829052602481018490526044015b60405180910390fd5b61080e858585611890565b61081b8533858403611740565b600191505061082a600160c955565b9392505050565b6001600160a01b037f00000000000000000000000000000000000000000000000000000000000000001630036108be5760405162461bcd60e51b815260206004820152602c60248201527f46756e6374696f6e206d7573742062652063616c6c6564207468726f7567682060448201526b19195b1959d85d1958d85b1b60a21b60648201526084016107fa565b7f00000000000000000000000000000000000000000000000000000000000000006001600160a01b0316610907600080516020612e4b833981519152546001600160a01b031690565b6001600160a01b0316146109725760405162461bcd60e51b815260206004820152602c60248201527f46756e6374696f6e206d7573742062652063616c6c6564207468726f7567682060448201526b6163746976652070726f787960a01b60648201526084016107fa565b61097b81611b28565b6040805160008082526020820190925261099791839190611c25565b50565b6109a26117dd565b6001600160a01b0381166000908152610103602052604090205460ff16156109dd5760405163175c779760e11b815260040160405180910390fd5b6001600160a01b03811660008181526101036020526040808220805460ff19166001179055517ff1d6512ec7550bf605a5a38910e48fb6a57938ed74a5afa01753fa023001005c9190a250565b6001600160a01b037f0000000000000000000000000000000000000000000000000000000000000000163003610ab75760405162461bcd60e51b815260206004820152602c60248201527f46756e6374696f6e206d7573742062652063616c6c6564207468726f7567682060448201526b19195b1959d85d1958d85b1b60a21b60648201526084016107fa565b7f00000000000000000000000000000000000000000000000000000000000000006001600160a01b0316610b00600080516020612e4b833981519152546001600160a01b031690565b6001600160a01b031614610b6b5760405162461bcd60e51b815260206004820152602c60248201527f46756e6374696f6e206d7573742062652063616c6c6564207468726f7567682060448201526b6163746976652070726f787960a01b60648201526084016107fa565b610b7482611b28565b610b8082826001611c25565b5050565b6000306001600160a01b037f00000000000000000000000000000000000000000000000000000000000000001614610c245760405162461bcd60e51b815260206004820152603860248201527f555550535570677261646561626c653a206d757374206e6f742062652063616c60448201527f6c6564207468726f7567682064656c656761746563616c6c000000000000000060648201526084016107fa565b50600080516020612e4b83398151915290565b610c3f6117dd565b6001600160a01b038116610c665760405163d92e233d60e01b815260040160405180910390fd5b610109805475ffffffffffffffffffffffffffffffffffffffff00001916620100006001600160a01b038416908102919091179091556040519081527f7e0f425e693a3591da35eee37f8ada3aadc3632fa8ffbcecac1341351c8ece66906020015b60405180910390a150565b6000610cdd611d95565b6001600160a01b038316600090815261010160205260409020546107869190612a8a565b610d096117dd565b610d136000611e07565b565b60006001600160a01b038216610d5c5760405162461bcd60e51b815260206004820152600c60248201526b5a65726f206164647265737360a01b60448201526064016107fa565b610cdd611d95565b600054610100900460ff1615808015610d845750600054600160ff909116105b80610d9e5750303b158015610d9e575060005460ff166001145b610e015760405162461bcd60e51b815260206004820152602e60248201527f496e697469616c697a61626c653a20636f6e747261637420697320616c72656160448201526d191e481a5b9a5d1a585b1a5e995960921b60648201526084016107fa565b6000805460ff191660011790558015610e24576000805461ff0019166101001790555b6000610e386097546001600160a01b031690565b6001600160a01b031614610e5e5760405162dc149f60e41b815260040160405180910390fd5b606485610e6b888a612a9e565b610e759190612a9e565b1115610eac5784610e868789612a9e565b610e909190612a9e565b604051632db7582d60e01b81526004016107fa91815260200190565b610eb4611e59565b610ebc611e88565b610ec4611eaf565b60fe610ed08c82612af9565b5060ff610edd8b82612af9565b50610100805460ff191660ff8a16908117909155610efc90600a612c9d565b610f06908a612ca9565b60fb819055610f1790600019612cc0565b610f2390600019612cd4565b60fc5561010487905561010586905561010685905561010054610f4a9060ff16600a612ce7565b610f549085612ca9565b6101075561010054610f6a9060ff16600a612ce7565b610f749084612ca9565b6101085560fc54336000908152610101602090815260408083209390935561010390528181208054600160ff19918216811790925530835292909120805490921617905561010b610fc58382612af9565b5060fb5460405190815233906000907fddf252ad1be2c89b69c2b068fc378daa952ba7f163c4a11628f55a4df523b3ef9060200160405180910390a38015611047576000805461ff0019169055604051600181527f7f26b83ff96e1f2b6a682f133852f6798a09c465da95921460cefb38474024989060200160405180910390a15b5050505050505050505050565b606060ff80546106f290612a24565b61010b805461107190612a24565b80601f016020809104026020016040519081016040528092919081815260200182805461109d90612a24565b80156110ea5780601f106110bf576101008083540402835291602001916110ea565b820191906000526020600020905b8154815290600101906020018083116110cd57829003601f168201915b505050505081565b60006110fc611837565b611107338484611890565b506001610786600160c955565b6000611135600080516020612e4b833981519152546001600160a01b031690565b905090565b6111426117dd565b6101095481151560ff9091161515036111e55780611195576040518060400160405280601881526020017f5377617020697320616c72656164792064697361626c656400000000000000008152506111cc565b6040518060400160405280601781526020017f5377617020697320616c726561647920656e61626c65640000000000000000008152505b60405162461bcd60e51b81526004016107fa91906126b7565b610109805460ff19168215159081179091556040519081527f53726dfcaf90650aa7eb35524f4d3220f07413c8d6cb404cc8c18bf5591bc15990602001610cc8565b61122f6117dd565b60648161123c8486612a9e565b6112469190612a9e565b11156112575780610e868385612a9e565b6101048390556101058290556101068190556040518190839085907fcf8a1e1d5f09cf3c97dbb653cd9a4d7aace9292fbc1bb8211febf2d400febbdd90600090a4505050565b6112a56117dd565b6001600160a01b0381166000908152610103602052604090205460ff166112df57604051634549716160e11b815260040160405180910390fd5b6001600160a01b03811660008181526101036020526040808220805460ff19169055517f78ce087db51d01d3e32355f2d83455d5a39f99194c8d3d1c2614893695cee4429190a250565b6113316117dd565b610100546113439060ff16600a612ce7565b61134d9082612ca9565b610107556040518181527f947f344d56e1e8c70dc492fb94c4ddddd490c016aab685f5e7e47b2e85cb44cf90602001610cc8565b6113896117dd565b6101005461139b9060ff16600a612ce7565b6113a59082612ca9565b6101088190556101075410156113df57610108546101075460405163cd1a97bb60e01b8152600481019290925260248201526044016107fa565b6040518181527fab1090599596cfb0c655b6424e552fba2cedf77457ed354fbe96e9abf4aa1f1390602001610cc8565b6114176117dd565b6001600160a01b03811661147c5760405162461bcd60e51b815260206004820152602660248201527f4f776e61626c653a206e6577206f776e657220697320746865207a65726f206160448201526564647265737360d01b60648201526084016107fa565b61099781611e07565b61148d6117dd565b610109546201000090046001600160a01b03161515806114b8575061010a546001600160a01b031615155b156114d65760405163d6150e9560e01b815260040160405180910390fd5b6001600160a01b0381166114fd5760405163d92e233d60e01b815260040160405180910390fd5b8061010960026101000a8154816001600160a01b0302191690836001600160a01b03160217905550600061010960029054906101000a90046001600160a01b03166001600160a01b031663c45a01556040518163ffffffff1660e01b8152600401602060405180830381865afa15801561157b573d6000803e3d6000fd5b505050506040513d601f19601f8201168201806040525081019061159f9190612cf6565b6001600160a01b031663c9c653963061010960029054906101000a90046001600160a01b03166001600160a01b031663ad5c46486040518163ffffffff1660e01b8152600401602060405180830381865afa158015611602573d6000803e3d6000fd5b505050506040513d601f19601f820116820180604052508101906116269190612cf6565b6040516001600160e01b031960e085901b1681526001600160a01b039283166004820152911660248201526044016020604051808303816000875af1158015611673573d6000803e3d6000fd5b505050506040513d601f19601f820116820180604052508101906116979190612cf6565b90506001600160a01b0381166116c05760405163d92e233d60e01b815260040160405180910390fd5b61010a80546001600160a01b0319166001600160a01b0383811691821790925560008181526101036020526040808220805460ff1990811660019081179092559487168084528284208054909616909117909455519192917fc1a9e56c8129347b63ce39a7b2cb626d8e39b9baae0723beb7cbe61d73475bc09190a35050565b6001600160a01b038316158061175d57506001600160a01b038216155b1561177b5760405163d92e233d60e01b815260040160405180910390fd5b6001600160a01b038381166000818152610102602090815260408083209487168084529482529182902085905590518481527f8c5be1e5ebec7d5bd14f71427d1e84f3dd0314c0f7b2291e5b200ac8c7c3b925910160405180910390a3505050565b6097546001600160a01b03163314610d135760405162461bcd60e51b815260206004820181905260248201527f4f776e61626c653a2063616c6c6572206973206e6f7420746865206f776e657260448201526064016107fa565b600260c954036118895760405162461bcd60e51b815260206004820152601f60248201527f5265656e7472616e637947756172643a207265656e7472616e742063616c6c0060448201526064016107fa565b600260c955565b6001600160a01b0383166118b75760405163d92e233d60e01b815260040160405180910390fd5b6001600160a01b0382166118de5760405163d92e233d60e01b815260040160405180910390fd5b806000036118ff576040516329a1e53760e01b815260040160405180910390fd5b60006101075411801561191457506101075481115b15611932576040516346830da960e01b815260040160405180910390fd5b600061193d30610cd3565b905061010854811015801561195b575061010954610100900460ff16155b8015611976575061010a546001600160a01b03858116911614155b156119845761198481611ede565b6001600160a01b0384166000908152610103602052604081205460ff16159080808315611a0357606461010454876119bc9190612ca9565b6119c69190612a8a565b9250606461010554876119d99190612ca9565b6119e39190612a8a565b9150606461010654876119f69190612ca9565b611a009190612a8a565b90505b60008183611a11868a612cd4565b611a1b9190612cd4565b611a259190612cd4565b9050611a2f611d95565b611a399088612ca9565b6001600160a01b038a166000908152610101602052604081208054909190611a62908490612cd4565b90915550611a709050611d95565b611a7a9082612ca9565b6001600160a01b0389166000908152610101602052604081208054909190611aa3908490612a9e565b90915550508415611ac957611ab784611fa3565b611ac08361202d565b611ac98261206f565b876001600160a01b0316896001600160a01b03167fddf252ad1be2c89b69c2b068fc378daa952ba7f163c4a11628f55a4df523b3ef83604051611b0e91815260200190565b60405180910390a3505050505050505050565b600160c955565b611b306117dd565b61010c5460ff1615611b55576040516316c1cfdb60e31b815260040160405180910390fd5b806001600160a01b03163b600003611b805760405163340aafcd60e11b815260040160405180910390fd5b806001600160a01b03166352d1902d6040518163ffffffff1660e01b8152600401602060405180830381865afa925050508015611bda575060408051601f3d908101601f19168201909252611bd791810190612d13565b60015b611bf75760405163340aafcd60e11b815260040160405180910390fd5b600080516020612e4b8339815191528114610b805760405163340aafcd60e11b815260040160405180910390fd5b7f4910fdfa16fed3260ed0e7147f7cc6da11a60208b5b9406d12a635614ffd91435460ff1615611c5d57611c58836120ee565b505050565b826001600160a01b03166352d1902d6040518163ffffffff1660e01b8152600401602060405180830381865afa925050508015611cb7575060408051601f3d908101601f19168201909252611cb491810190612d13565b60015b611d1a5760405162461bcd60e51b815260206004820152602e60248201527f45524331393637557067726164653a206e657720696d706c656d656e7461746960448201526d6f6e206973206e6f74205555505360901b60648201526084016107fa565b600080516020612e4b8339815191528114611d895760405162461bcd60e51b815260206004820152602960248201527f45524331393637557067726164653a20756e737570706f727465642070726f786044820152681a58589b195555525160ba1b60648201526084016107fa565b50611c5883838361218a565b60008060fb5411611df75760405162461bcd60e51b815260206004820152602660248201527f546f74616c20737570706c79206d7573742062652067726561746572207468616044820152656e207a65726f60d01b60648201526084016107fa565b60fb5460fc546111359190612a8a565b609780546001600160a01b038381166001600160a01b0319831681179093556040519116919082907f8be0079c531659141344cd1fd0a4f28419497f9722a3daafe3b4186f6b6457e090600090a35050565b600054610100900460ff16611e805760405162461bcd60e51b81526004016107fa90612d2c565b610d136121b5565b600054610100900460ff16610d135760405162461bcd60e51b81526004016107fa90612d2c565b600054610100900460ff16611ed65760405162461bcd60e51b81526004016107fa90612d2c565b610d136121e5565b610109805461ff0019166101001790556000819003611f10576040516364e2819f60e01b815260040160405180910390fd5b6000611f1d600283612a8a565b90506000611f2b8284612cd4565b905047611f378361220c565b6000611f438247612cd4565b9050611f4f838261238e565b60408051858152602081018390529081018490527f17bbfb9a6069321b6ded73bd96327c9e6b7212a5cd51ff219cd61370acafb5619060600160405180910390a15050610109805461ff0019169055505050565b6000611fad611d95565b611fb79083612ca9565b90508060fc6000828254611fcb9190612cd4565b925050819055508160fd6000828254611fe49190612a9e565b9091555050604080518381526000602082018190528183015290517f312c5308f42848705a866c73dec11fd0783c2d64aac6a97e94467062ad3f40589181900360600190a15050565b6000612037611d95565b6120419083612ca9565b3060009081526101016020526040812080549293508392909190612066908490612a9e565b90915550505050565b6000612079611d95565b6120839083612ca9565b90508060fc60008282546120979190612cd4565b925050819055508160fb60008282546120b09190612cd4565b909155505060405182815230907ffd38818f5291bf0bb3a2a48aadc06ba8757865d1dabd804585338aab3009dcb69060200160405180910390a25050565b6001600160a01b0381163b61215b5760405162461bcd60e51b815260206004820152602d60248201527f455243313936373a206e657720696d706c656d656e746174696f6e206973206e60448201526c1bdd08184818dbdb9d1c9858dd609a1b60648201526084016107fa565b600080516020612e4b83398151915280546001600160a01b0319166001600160a01b0392909216919091179055565b61219383612510565b6000825111806121a05750805b15611c58576121af8383612550565b50505050565b600054610100900460ff166121dc5760405162461bcd60e51b81526004016107fa90612d2c565b610d1333611e07565b600054610100900460ff16611b215760405162461bcd60e51b81526004016107fa90612d2c565b604080516002808252606082018352600092602083019080368337019050509050308160008151811061224157612241612d77565b60200260200101906001600160a01b031690816001600160a01b03168152505061010960029054906101000a90046001600160a01b03166001600160a01b031663ad5c46486040518163ffffffff1660e01b8152600401602060405180830381865afa1580156122b5573d6000803e3d6000fd5b505050506040513d601f19601f820116820180604052508101906122d99190612cf6565b816001815181106122ec576122ec612d77565b6001600160a01b039283166020918202929092010152610109546123199130916201000090041684611740565b6101095460405163791ac94760e01b8152620100009091046001600160a01b03169063791ac94790612358908590600090869030904290600401612d8d565b600060405180830381600087803b15801561237257600080fd5b505af1158015612386573d6000803e3d6000fd5b505050505050565b610109546201000090046001600160a01b03166123be5760405163d92e233d60e01b815260040160405180910390fd5b610109546123dd9030906201000090046001600160a01b031684611740565b61010954600090819081906001600160a01b03620100009091041663f305d71985308885806124146097546001600160a01b031690565b60405160e088901b6001600160e01b03191681526001600160a01b03958616600482015260248101949094526044840192909252606483015290911660848201524260a482015260c40160606040518083038185885af115801561247c573d6000803e3d6000fd5b50505050506040513d601f19601f820116820180604052508101906124a19190612e00565b925092509250806000036124c85760405163b657fe1360e01b815260040160405180910390fd5b60408051848152602081018490529081018290527fd7f28048575eead8851d024ead087913957dfb4fd1a02b4d1573f5352a5a2be39060600160405180910390a15050505050565b612519816120ee565b6040516001600160a01b038216907fbc7cd75a20ee27fd9adebab32041f755214dbc6bffa90cc0225b39da2e5c2d3b90600090a250565b606061082a8383604051806060016040528060278152602001612e6b602791396060600080856001600160a01b03168560405161258d9190612e2e565b600060405180830381855af49150503d80600081146125c8576040519150601f19603f3d011682016040523d82523d6000602084013e6125cd565b606091505b50915091506125de868383876125e8565b9695505050505050565b60608315612657578251600003612650576001600160a01b0385163b6126505760405162461bcd60e51b815260206004820152601d60248201527f416464726573733a2063616c6c20746f206e6f6e2d636f6e747261637400000060448201526064016107fa565b5081612661565b6126618383612669565b949350505050565b8151156126795781518083602001fd5b8060405162461bcd60e51b81526004016107fa91906126b7565b60005b838110156126ae578181015183820152602001612696565b50506000910152565b60208152600082518060208401526126d6816040850160208701612693565b601f01601f19169190910160400192915050565b6001600160a01b038116811461099757600080fd5b6000806040838503121561271257600080fd5b823561271d816126ea565b946020939093013593505050565b60008060006060848603121561274057600080fd5b833561274b816126ea565b9250602084013561275b816126ea565b929592945050506040919091013590565b60006020828403121561277e57600080fd5b813561082a816126ea565b634e487b7160e01b600052604160045260246000fd5b600067ffffffffffffffff808411156127ba576127ba612789565b604051601f8501601f19908116603f011681019082821181831017156127e2576127e2612789565b816040528093508581528686860111156127fb57600080fd5b858560208301376000602087830101525050509392505050565b6000806040838503121561282857600080fd5b8235612833816126ea565b9150602083013567ffffffffffffffff81111561284f57600080fd5b8301601f8101851361286057600080fd5b61286f8582356020840161279f565b9150509250929050565b600082601f83011261288a57600080fd5b61082a8383356020850161279f565b803560ff811681146128aa57600080fd5b919050565b6000806000806000806000806000806101408b8d0312156128cf57600080fd5b8a3567ffffffffffffffff808211156128e757600080fd5b6128f38e838f01612879565b9b5060208d013591508082111561290957600080fd5b6129158e838f01612879565b9a5060408d0135995061292a60608e01612899565b985060808d0135975060a08d0135965060c08d0135955060e08d013594506101008d013593506101208d013591508082111561296557600080fd5b506129728d828e01612879565b9150509295989b9194979a5092959850565b60006020828403121561299657600080fd5b8135801515811461082a57600080fd5b6000806000606084860312156129bb57600080fd5b505081359360208301359350604090920135919050565b600080604083850312156129e557600080fd5b82356129f0816126ea565b91506020830135612a00816126ea565b809150509250929050565b600060208284031215612a1d57600080fd5b5035919050565b600181811c90821680612a3857607f821691505b602082108103612a5857634e487b7160e01b600052602260045260246000fd5b50919050565b634e487b7160e01b600052601260045260246000fd5b634e487b7160e01b600052601160045260246000fd5b600082612a9957612a99612a5e565b500490565b8082018082111561078657610786612a74565b601f821115611c58576000816000526020600020601f850160051c81016020861015612ada5750805b601f850160051c820191505b8181101561238657828155600101612ae6565b815167ffffffffffffffff811115612b1357612b13612789565b612b2781612b218454612a24565b84612ab1565b602080601f831160018114612b5c5760008415612b445750858301515b600019600386901b1c1916600185901b178555612386565b600085815260208120601f198616915b82811015612b8b57888601518255948401946001909101908401612b6c565b5085821015612ba95787850151600019600388901b60f8161c191681555b5050505050600190811b01905550565b600181815b80851115612bf4578160001904821115612bda57612bda612a74565b80851615612be757918102915b93841c9390800290612bbe565b509250929050565b600082612c0b57506001610786565b81612c1857506000610786565b8160018114612c2e5760028114612c3857612c54565b6001915050610786565b60ff841115612c4957612c49612a74565b50506001821b610786565b5060208310610133831016604e8410600b8410161715612c77575081810a610786565b612c818383612bb9565b8060001904821115612c9557612c95612a74565b029392505050565b600061082a8383612bfc565b808202811582820484141761078657610786612a74565b600082612ccf57612ccf612a5e565b500690565b8181038181111561078657610786612a74565b600061082a60ff841683612bfc565b600060208284031215612d0857600080fd5b815161082a816126ea565b600060208284031215612d2557600080fd5b5051919050565b6020808252602b908201527f496e697469616c697a61626c653a20636f6e7472616374206973206e6f74206960408201526a6e697469616c697a696e6760a81b606082015260800190565b634e487b7160e01b600052603260045260246000fd5b600060a08201878352602087602085015260a0604085015281875180845260c08601915060208901935060005b81811015612ddf5784516001600160a01b031683529383019391830191600101612dba565b50506001600160a01b03969096166060850152505050608001529392505050565b600080600060608486031215612e1557600080fd5b8351925060208401519150604084015190509250925092565b60008251612e40818460208701612693565b919091019291505056fe360894a13ba1a3210667c828492db98dca3e2076cc3735a920a3ca505d382bbc416464726573733a206c6f772d6c6576656c2064656c65676174652063616c6c206661696c6564a26469706673582212206d539a2aa352c3cb97768c78872c14e7c81dfea1df6868dfc63cfa48ef6800c264736f6c63430008160033","linkReferences":{}},"methodIdentifiers":{"allowance(address,address)":"dd62ed3e","approve(address,uint256)":"095ea7b3","balanceOf(address)":"70a08231","burnFee()":"fce589d8","configureUniswap(address)":"f685a28b","contractVersion()":"a0a8e460","decimals()":"313ce567","excludeFromFee(address)":"437823ec","freezeUpgrades()":"152d0731","getImplementation()":"aaf10f42","includeInFee(address)":"ea2f0b37","initialize(string,string,uint256,uint8,uint256,uint256,uint256,uint256,uint256,string)":"89429ddf","isAccountExcludedFromFree(address)":"2e664829","isSwapAndLiquifyEnabled()":"04f377f8","liquidityFee()":"98118cb4","maxTxAmount()":"8c0b5e22","name()":"06fdde03","numTokensSellToAddToLiquidity()":"d12a7688","owner()":"8da5cb5b","proxiableUUID()":"52d1902d","reflectionBalanceOf(address)":"84aa9fb6","renounceOwnership()":"715018a6","setFees(uint256,uint256,uint256)":"cec10c11","setMaxTxAmount(uint256)":"ec28438a","setNumTokensSellToAddToLiquidity(uint256)":"f0f165af","setSwapAndLiquifyEnabled(bool)":"c49b9a80","swapAndLiquifyEnabled()":"4a74bb02","symbol()":"95d89b41","taxFee()":"a071dcf4","totalSupply()":"18160ddd","transfer(address,uint256)":"a9059cbb","transferFrom(address,address,uint256)":"23b872dd","transferOwnership(address)":"f2fde38b","uniswapV2Pair()":"49bd5a5e","uniswapV2Router()":"1694505e","updateUniswapV2Router(address)":"65b8dbc0","upgradeTo(address)":"3659cfe6","upgradeToAndCall(address,bytes)":"4f1ef286"},"id":1}