{"abi":[{"type":"constructor","inputs":[{"name":"tokenName","type":"string","internalType":"string"},{"name":"tokenSymbol","type":"string","internalType":"string"},{"name":"_totalSupply","type":"uint256","internalType":"uint256"},{"name":"_token_decimals","type":"uint8","internalType":"uint8"},{"name":"_taxFee","type":"uint256","internalType":"uint256"},{"name":"_liquidityFee","type":"uint256","internalType":"uint256"},{"name":"_maxTokensTXAmount","type":"uint256","internalType":"uint256"},{"name":"_numTokensSellToAddToLiquidity","type":"uint256","internalType":"uint256"}],"stateMutability":"nonpayable"},{"type":"receive","stateMutability":"payable"},{"type":"function","name":"allowance","inputs":[{"name":"owner","type":"address","internalType":"address"},{"name":"spender","type":"address","internalType":"address"}],"outputs":[{"name":"","type":"uint256","internalType":"uint256"}],"stateMutability":"view"},{"type":"function","name":"approve","inputs":[{"name":"spender","type":"address","internalType":"address"},{"name":"amount","type":"uint256","internalType":"uint256"}],"outputs":[{"name":"","type":"bool","internalType":"bool"}],"stateMutability":"nonpayable"},{"type":"function","name":"balanceOf","inputs":[{"name":"account","type":"address","internalType":"address"}],"outputs":[{"name":"","type":"uint256","internalType":"uint256"}],"stateMutability":"view"},{"type":"function","name":"configureUniswap","inputs":[{"name":"routerAddress","type":"address","internalType":"address"}],"outputs":[],"stateMutability":"nonpayable"},{"type":"function","name":"contractVersion","inputs":[],"outputs":[{"name":"","type":"string","internalType":"string"}],"stateMutability":"view"},{"type":"function","name":"decimals","inputs":[],"outputs":[{"name":"","type":"uint8","internalType":"uint8"}],"stateMutability":"view"},{"type":"function","name":"excludeFromFee","inputs":[{"name":"account","type":"address","internalType":"address"}],"outputs":[],"stateMutability":"nonpayable"},{"type":"function","name":"freezeUpgrades","inputs":[],"outputs":[],"stateMutability":"nonpayable"},{"type":"function","name":"includeInFee","inputs":[{"name":"account","type":"address","internalType":"address"}],"outputs":[],"stateMutability":"nonpayable"},{"type":"function","name":"isAccountExcludedFromFree","inputs":[{"name":"account","type":"address","internalType":"address"}],"outputs":[{"name":"","type":"bool","internalType":"bool"}],"stateMutability":"view"},{"type":"function","name":"isSwapAndLiquifyEnabled","inputs":[],"outputs":[{"name":"","type":"bool","internalType":"bool"}],"stateMutability":"view"},{"type":"function","name":"liquidityFee","inputs":[],"outputs":[{"name":"","type":"uint256","internalType":"uint256"}],"stateMutability":"view"},{"type":"function","name":"maxTxAmount","inputs":[],"outputs":[{"name":"","type":"uint256","internalType":"uint256"}],"stateMutability":"view"},{"type":"function","name":"name","inputs":[],"outputs":[{"name":"","type":"string","internalType":"string"}],"stateMutability":"view"},{"type":"function","name":"numTokensSellToAddToLiquidity","inputs":[],"outputs":[{"name":"","type":"uint256","internalType":"uint256"}],"stateMutability":"view"},{"type":"function","name":"owner","inputs":[],"outputs":[{"name":"","type":"address","internalType":"address"}],"stateMutability":"view"},{"type":"function","name":"reflectionBalanceOf","inputs":[{"name":"account","type":"address","internalType":"address"}],"outputs":[{"name":"","type":"uint256","internalType":"uint256"}],"stateMutability":"view"},{"type":"function","name":"renounceOwnership","inputs":[],"outputs":[],"stateMutability":"nonpayable"},{"type":"function","name":"setFees","inputs":[{"name":"_taxFee","type":"uint256","internalType":"uint256"},{"name":"_liquidityFee","type":"uint256","internalType":"uint256"}],"outputs":[],"stateMutability":"nonpayable"},{"type":"function","name":"setMaxTxAmount","inputs":[{"name":"newMaxTxAmount","type":"uint256","internalType":"uint256"}],"outputs":[],"stateMutability":"nonpayable"},{"type":"function","name":"setNumTokensSellToAddToLiquidity","inputs":[{"name":"newNumTokensSellToAddToLiquidity","type":"uint256","internalType":"uint256"}],"outputs":[],"stateMutability":"nonpayable"},{"type":"function","name":"setSwapAndLiquifyEnabled","inputs":[{"name":"_enabled","type":"bool","internalType":"bool"}],"outputs":[],"stateMutability":"nonpayable"},{"type":"function","name":"swapAndLiquifyEnabled","inputs":[],"outputs":[{"name":"","type":"bool","internalType":"bool"}],"stateMutability":"view"},{"type":"function","name":"symbol","inputs":[],"outputs":[{"name":"","type":"string","internalType":"string"}],"stateMutability":"view"},{"type":"function","name":"taxFee","inputs":[],"outputs":[{"name":"","type":"uint256","internalType":"uint256"}],"stateMutability":"view"},{"type":"function","name":"totalSupply","inputs":[],"outputs":[{"name":"","type":"uint256","internalType":"uint256"}],"stateMutability":"view"},{"type":"function","name":"transfer","inputs":[{"name":"recipient","type":"address","internalType":"address"},{"name":"amount","type":"uint256","internalType":"uint256"}],"outputs":[{"name":"","type":"bool","internalType":"bool"}],"stateMutability":"nonpayable"},{"type":"function","name":"transferFrom","inputs":[{"name":"sender","type":"address","internalType":"address"},{"name":"recipient","type":"address","internalType":"address"},{"name":"amount","type":"uint256","internalType":"uint256"}],"outputs":[{"name":"","type":"bool","internalType":"bool"}],"stateMutability":"nonpayable"},{"type":"function","name":"transferOwnership","inputs":[{"name":"newOwner","type":"address","internalType":"address"}],"outputs":[],"stateMutability":"nonpayable"},{"type":"function","name":"uniswapV2Pair","inputs":[],"outputs":[{"name":"","type":"address","internalType":"address"}],"stateMutability":"view"},{"type":"function","name":"uniswapV2Router","inputs":[],"outputs":[{"name":"","type":"address","internalType":"contract IUniswapV2Router02"}],"stateMutability":"view"},{"type":"function","name":"updateUniswapV2Router","inputs":[{"name":"newRouter","type":"address","internalType":"address"}],"outputs":[],"stateMutability":"nonpayable"},{"type":"function","name":"withdrawBNB","inputs":[{"name":"amount","type":"uint256","internalType":"uint256"}],"outputs":[],"stateMutability":"nonpayable"},{"type":"event","name":"Approval","inputs":[{"name":"owner","type":"address","indexed":true,"internalType":"address"},{"name":"spender","type":"address","indexed":true,"internalType":"address"},{"name":"value","type":"uint256","indexed":false,"internalType":"uint256"}],"anonymous":false},{"type":"event","name":"ExcludedFromFee","inputs":[{"name":"account","type":"address","indexed":true,"internalType":"address"}],"anonymous":false},{"type":"event","name":"FeesDistributed","inputs":[{"name":"reflectionFee","type":"uint256","indexed":false,"internalType":"uint256"},{"name":"liquidityFee","type":"uint256","indexed":false,"internalType":"uint256"},{"name":"burnFee","type":"uint256","indexed":false,"internalType":"uint256"}],"anonymous":false},{"type":"event","name":"FeesUpdated","inputs":[{"name":"_taxFee","type":"uint256","indexed":true,"internalType":"uint256"},{"name":"_liquidityFee","type":"uint256","indexed":true,"internalType":"uint256"}],"anonymous":false},{"type":"event","name":"IncludedInFee","inputs":[{"name":"account","type":"address","indexed":true,"internalType":"address"}],"anonymous":false},{"type":"event","name":"LiquidityAdded","inputs":[{"name":"tokenAmount","type":"uint256","indexed":false,"internalType":"uint256"},{"name":"ethAmount","type":"uint256","indexed":false,"internalType":"uint256"},{"name":"liquidity","type":"uint256","indexed":false,"internalType":"uint256"}],"anonymous":false},{"type":"event","name":"MaxTxAmountUpdated","inputs":[{"name":"newMaxTxAmount","type":"uint256","indexed":false,"internalType":"uint256"}],"anonymous":false},{"type":"event","name":"NumTokensSellToAddToLiquidityUpdated","inputs":[{"name":"newNumTokensSellToAddToLiquidity","type":"uint256","indexed":false,"internalType":"uint256"}],"anonymous":false},{"type":"event","name":"OwnershipTransferred","inputs":[{"name":"previousOwner","type":"address","indexed":true,"internalType":"address"},{"name":"newOwner","type":"address","indexed":true,"internalType":"address"}],"anonymous":false},{"type":"event","name":"SwapAndLiquify","inputs":[{"name":"tokensSwapped","type":"uint256","indexed":false,"internalType":"uint256"},{"name":"ethReceived","type":"uint256","indexed":false,"internalType":"uint256"},{"name":"tokensAddedToLiquidity","type":"uint256","indexed":false,"internalType":"uint256"}],"anonymous":false},{"type":"event","name":"SwapAndLiquifyEnabledUpdated","inputs":[{"name":"enabled","type":"bool","indexed":false,"internalType":"bool"}],"anonymous":false},{"type":"event","name":"TokensBurned","inputs":[{"name":"burner","type":"address","indexed":true,"internalType":"address"},{"name":"burnAmount","type":"uint256","indexed":false,"internalType":"uint256"}],"anonymous":false},{"type":"event","name":"Transfer","inputs":[{"name":"from","type":"address","indexed":true,"internalType":"address"},{"name":"to","type":"address","indexed":true,"internalType":"address"},{"name":"value","type":"uint256","indexed":false,"internalType":"uint256"}],"anonymous":false},{"type":"event","name":"UniswapConfigured","inputs":[{"name":"router","type":"address","indexed":true,"internalType":"address"},{"name":"pair","type":"address","indexed":true,"internalType":"address"}],"anonymous":false},{"type":"event","name":"UniswapV2RouterUpdated","inputs":[{"name":"newRouter","type":"address","indexed":false,"internalType":"address"}],"anonymous":false},{"type":"error","name":"AlreadyExcluded","inputs":[]},{"type":"error","name":"FeesExceeded","inputs":[{"name":"totalFees","type":"uint256","internalType":"uint256"}]},{"type":"error","name":"InsufficientBalance","inputs":[{"name":"available","type":"uint256","internalType":"uint256"},{"name":"required","type":"uint256","internalType":"uint256"}]},{"type":"error","name":"LiquidityAdditionFailed","inputs":[]},{"type":"error","name":"NotExcluded","inputs":[]},{"type":"error","name":"NumTokensSellToAddToLiquidityFailed","inputs":[{"name":"currentAmount","type":"uint256","internalType":"uint256"},{"name":"newAmount","type":"uint256","internalType":"uint256"}]},{"type":"error","name":"OwnableInvalidOwner","inputs":[{"name":"owner","type":"address","internalType":"address"}]},{"type":"error","name":"OwnableUnauthorizedAccount","inputs":[{"name":"account","type":"address","internalType":"address"}]},{"type":"error","name":"ReentrancyGuardReentrantCall","inputs":[]},{"type":"error","name":"TokenBalanceZero","inputs":[]},{"type":"error","name":"TransferAmountExceedsMax","inputs":[]},{"type":"error","name":"TransferAmountZero","inputs":[]},{"type":"error","name":"UniswapAlreadyConfigured","inputs":[]},{"type":"error","name":"ZeroAddress","inputs":[]},{"type":"error","name":"ZeroValue","inputs":[]}],"bytecode":{"object":"0x6080604052600f805461ffff191690553480156200001c57600080fd5b5060405162002506380380620025068339810160408190526200003f916200030c565b33806200006757604051631e4fbdf760e01b8152600060048201526024015b60405180910390fd5b6200007281620001f4565b50600180556064620000858486620003d6565b1115620000b557620000988385620003d6565b604051632db7582d60e01b81526004016200005e91815260200190565b6005620000c3898262000483565b506006620000d2888262000483565b506007805460ff191660ff8716908117909155620000f290600a6200064c565b620000fe908762000661565b600281905562000111906000196200067b565b6200011f906000196200069e565b600355600b849055600c8390556007546200013f9060ff16600a620006b4565b6200014b908362000661565b600d55600754620001619060ff16600a620006b4565b6200016d908262000661565b600e5560035433600081815260086020908152604080832094909455600a81528382208054600160ff199182168117909255308452858420805490911690911790556002549351938452919290917fddf252ad1be2c89b69c2b068fc378daa952ba7f163c4a11628f55a4df523b3ef910160405180910390a35050505050505050620006c5565b600080546001600160a01b038381166001600160a01b0319831681178455604051919092169283917f8be0079c531659141344cd1fd0a4f28419497f9722a3daafe3b4186f6b6457e09190a35050565b634e487b7160e01b600052604160045260246000fd5b600082601f8301126200026c57600080fd5b81516001600160401b038082111562000289576200028962000244565b604051601f8301601f19908116603f01168101908282118183101715620002b457620002b462000244565b8160405283815260209250866020858801011115620002d257600080fd5b600091505b83821015620002f65785820183015181830184015290820190620002d7565b6000602085830101528094505050505092915050565b600080600080600080600080610100898b0312156200032a57600080fd5b88516001600160401b03808211156200034257600080fd5b620003508c838d016200025a565b995060208b01519150808211156200036757600080fd5b50620003768b828c016200025a565b97505060408901519550606089015160ff811681146200039557600080fd5b60808a015160a08b015160c08c015160e0909c01519a9d999c50979a91999098919650945092505050565b634e487b7160e01b600052601160045260246000fd5b80820180821115620003ec57620003ec620003c0565b92915050565b600181811c908216806200040757607f821691505b6020821081036200042857634e487b7160e01b600052602260045260246000fd5b50919050565b601f8211156200047e576000816000526020600020601f850160051c81016020861015620004595750805b601f850160051c820191505b818110156200047a5782815560010162000465565b5050505b505050565b81516001600160401b038111156200049f576200049f62000244565b620004b781620004b08454620003f2565b846200042e565b602080601f831160018114620004ef5760008415620004d65750858301515b600019600386901b1c1916600185901b1785556200047a565b600085815260208120601f198616915b828110156200052057888601518255948401946001909101908401620004ff565b50858210156200053f5787850151600019600388901b60f8161c191681555b5050505050600190811b01905550565b600181815b8085111562000590578160001904821115620005745762000574620003c0565b808516156200058257918102915b93841c939080029062000554565b509250929050565b600082620005a957506001620003ec565b81620005b857506000620003ec565b8160018114620005d15760028114620005dc57620005fc565b6001915050620003ec565b60ff841115620005f057620005f0620003c0565b50506001821b620003ec565b5060208310610133831016604e8410600b841016171562000621575081810a620003ec565b6200062d83836200054f565b8060001904821115620006445762000644620003c0565b029392505050565b60006200065a838362000598565b9392505050565b8082028115828204841417620003ec57620003ec620003c0565b6000826200069957634e487b7160e01b600052601260045260246000fd5b500690565b81810381811115620003ec57620003ec620003c0565b60006200065a60ff84168362000598565b611e3180620006d56000396000f3fe6080604052600436106101f25760003560e01c8063715018a61161010d578063a9059cbb116100a0578063ea2f0b371161006f578063ea2f0b371461058d578063ec28438a146105ad578063f0f165af146105cd578063f2fde38b146105ed578063f685a28b1461060d57600080fd5b8063a9059cbb146104f1578063c49b9a8014610511578063d12a768814610531578063dd62ed3e1461054757600080fd5b806395d89b41116100dc57806395d89b411461049b57806398118cb4146104b0578063a071dcf4146104c6578063a0a8e460146104dc57600080fd5b8063715018a61461043257806384aa9fb6146104475780638c0b5e22146104675780638da5cb5b1461047d57600080fd5b806323b872dd1161018557806349bd5a5e1161015457806349bd5a5e146103b85780634a74bb02146103d857806365b8dbc0146103f257806370a082311461041257600080fd5b806323b872dd1461031d5780632e6648291461033d578063313ce56714610376578063437823ec1461039857600080fd5b8063127f4b2e116101c1578063127f4b2e1461028b578063152d0731146102ab5780631694505e146102c057806318160ddd146102fe57600080fd5b806304f377f8146101fe57806306fdde0314610227578063095ea7b3146102495780630b78f9c01461026957600080fd5b366101f957005b600080fd5b34801561020a57600080fd5b50600f5460ff165b60405190151581526020015b60405180910390f35b34801561023357600080fd5b5061023c61062d565b60405161021e9190611a01565b34801561025557600080fd5b50610212610264366004611a65565b6106bf565b34801561027557600080fd5b50610289610284366004611a91565b6106d6565b005b34801561029757600080fd5b506102896102a6366004611ab3565b610752565b3480156102b757600080fd5b506102896107b5565b3480156102cc57600080fd5b50600f546102e6906201000090046001600160a01b031681565b6040516001600160a01b03909116815260200161021e565b34801561030a57600080fd5b506002545b60405190815260200161021e565b34801561032957600080fd5b50610212610338366004611acc565b6107cc565b34801561034957600080fd5b50610212610358366004611b0d565b6001600160a01b03166000908152600a602052604090205460ff1690565b34801561038257600080fd5b5060075460405160ff909116815260200161021e565b3480156103a457600080fd5b506102896103b3366004611b0d565b61084c565b3480156103c457600080fd5b506010546102e6906001600160a01b031681565b3480156103e457600080fd5b50600f546102129060ff1681565b3480156103fe57600080fd5b5061028961040d366004611b0d565b6108da565b34801561041e57600080fd5b5061030f61042d366004611b0d565b610975565b34801561043e57600080fd5b506102896109a2565b34801561045357600080fd5b5061030f610462366004611b0d565b6109b6565b34801561047357600080fd5b5061030f600d5481565b34801561048957600080fd5b506000546001600160a01b03166102e6565b3480156104a757600080fd5b5061023c610a05565b3480156104bc57600080fd5b5061030f600c5481565b3480156104d257600080fd5b5061030f600b5481565b3480156104e857600080fd5b5061023c610a14565b3480156104fd57600080fd5b5061021261050c366004611a65565b610aa2565b34801561051d57600080fd5b5061028961052c366004611b2a565b610ac3565b34801561053d57600080fd5b5061030f600e5481565b34801561055357600080fd5b5061030f610562366004611b4c565b6001600160a01b03918216600090815260096020908152604080832093909416825291909152205490565b34801561059957600080fd5b506102896105a8366004611b0d565b610bae565b3480156105b957600080fd5b506102896105c8366004611ab3565b610c38565b3480156105d957600080fd5b506102896105e8366004611ab3565b610c8e565b3480156105f957600080fd5b50610289610608366004611b0d565b610d17565b34801561061957600080fd5b50610289610628366004611b0d565b610d55565b60606005805461063c90611b85565b80601f016020809104026020016040519081016040528092919081815260200182805461066890611b85565b80156106b55780601f1061068a576101008083540402835291602001916106b5565b820191906000526020600020905b81548152906001019060200180831161069857829003601f168201915b5050505050905090565b60006106cc338484611009565b5060015b92915050565b6106de6110a5565b60006106ea8284611bd5565b9050606481111561071657604051632db7582d60e01b8152600481018290526024015b60405180910390fd5b600b839055600c829055604051829084907f5c6323bf1c2d7aaea2c091a4751c1c87af7f2864650c336507a77d0557af37a190600090a3505050565b61075a6110a5565b804710156107845760405163cf47918160e01b81524760048201526024810182905260440161070d565b604051339082156108fc029083906000818181858888f193505050501580156107b1573d6000803e3d6000fd5b5050565b6107bd6110a5565b6012805460ff19166001179055565b60006107d66110d2565b6001600160a01b0384166000908152600960209081526040808320338452909152902054828110156108255760405163cf47918160e01b8152600481018290526024810184905260440161070d565b6108308585856110fc565b61083d8533858403611009565b505060018080555b9392505050565b6108546110a5565b6001600160a01b0381166000908152600a602052604090205460ff161561088e5760405163175c779760e11b815260040160405180910390fd5b6001600160a01b0381166000818152600a6020526040808220805460ff19166001179055517ff1d6512ec7550bf605a5a38910e48fb6a57938ed74a5afa01753fa023001005c9190a250565b6108e26110a5565b6001600160a01b0381166109095760405163d92e233d60e01b815260040160405180910390fd5b600f805475ffffffffffffffffffffffffffffffffffffffff00001916620100006001600160a01b038416908102919091179091556040519081527f7e0f425e693a3591da35eee37f8ada3aadc3632fa8ffbcecac1341351c8ece66906020015b60405180910390a150565b600061097f611410565b6001600160a01b0383166000908152600860205260409020546106d09190611be8565b6109aa6110a5565b6109b46000611487565b565b60006001600160a01b0382166109fd5760405162461bcd60e51b815260206004820152600c60248201526b5a65726f206164647265737360a01b604482015260640161070d565b61097f611410565b60606006805461063c90611b85565b60118054610a2190611b85565b80601f0160208091040260200160405190810160405280929190818152602001828054610a4d90611b85565b8015610a9a5780601f10610a6f57610100808354040283529160200191610a9a565b820191906000526020600020905b815481529060010190602001808311610a7d57829003601f168201915b505050505081565b6000610aac6110d2565b610ab73384846110fc565b5060016106d060018055565b610acb6110a5565b600f5481151560ff909116151503610b6d5780610b1d576040518060400160405280601881526020017f5377617020697320616c72656164792064697361626c65640000000000000000815250610b54565b6040518060400160405280601781526020017f5377617020697320616c726561647920656e61626c65640000000000000000008152505b60405162461bcd60e51b815260040161070d9190611a01565b600f805460ff19168215159081179091556040519081527f53726dfcaf90650aa7eb35524f4d3220f07413c8d6cb404cc8c18bf5591bc1599060200161096a565b610bb66110a5565b6001600160a01b0381166000908152600a602052604090205460ff16610bef57604051634549716160e11b815260040160405180910390fd5b6001600160a01b0381166000818152600a6020526040808220805460ff19169055517f78ce087db51d01d3e32355f2d83455d5a39f99194c8d3d1c2614893695cee4429190a250565b610c406110a5565b600754610c519060ff16600a611cee565b610c5b9082611cfd565b600d556040518181527f947f344d56e1e8c70dc492fb94c4ddddd490c016aab685f5e7e47b2e85cb44cf9060200161096a565b610c966110a5565b600754610ca79060ff16600a611cee565b610cb19082611cfd565b600e819055600d541015610ce757600e54600d5460405163cd1a97bb60e01b81526004810192909252602482015260440161070d565b6040518181527fab1090599596cfb0c655b6424e552fba2cedf77457ed354fbe96e9abf4aa1f139060200161096a565b610d1f6110a5565b6001600160a01b038116610d4957604051631e4fbdf760e01b81526000600482015260240161070d565b610d5281611487565b50565b610d5d6110a5565b600f546201000090046001600160a01b0316151580610d8657506010546001600160a01b031615155b15610da45760405163d6150e9560e01b815260040160405180910390fd5b6001600160a01b038116610dcb5760405163d92e233d60e01b815260040160405180910390fd5b80600f60026101000a8154816001600160a01b0302191690836001600160a01b031602179055506000600f60029054906101000a90046001600160a01b03166001600160a01b031663c45a01556040518163ffffffff1660e01b8152600401602060405180830381865afa158015610e47573d6000803e3d6000fd5b505050506040513d601f19601f82011682018060405250810190610e6b9190611d14565b6001600160a01b031663c9c6539630600f60029054906101000a90046001600160a01b03166001600160a01b031663ad5c46486040518163ffffffff1660e01b8152600401602060405180830381865afa158015610ecd573d6000803e3d6000fd5b505050506040513d601f19601f82011682018060405250810190610ef19190611d14565b6040516001600160e01b031960e085901b1681526001600160a01b039283166004820152911660248201526044016020604051808303816000875af1158015610f3e573d6000803e3d6000fd5b505050506040513d601f19601f82011682018060405250810190610f629190611d14565b90506001600160a01b038116610f8b5760405163d92e233d60e01b815260040160405180910390fd5b601080546001600160a01b0319166001600160a01b038381169182179092556000818152600a6020526040808220805460ff1990811660019081179092559487168084528284208054909616909117909455519192917fc1a9e56c8129347b63ce39a7b2cb626d8e39b9baae0723beb7cbe61d73475bc09190a35050565b6001600160a01b038316158061102657506001600160a01b038216155b156110445760405163d92e233d60e01b815260040160405180910390fd5b6001600160a01b0383811660008181526009602090815260408083209487168084529482529182902085905590518481527f8c5be1e5ebec7d5bd14f71427d1e84f3dd0314c0f7b2291e5b200ac8c7c3b925910160405180910390a3505050565b6000546001600160a01b031633146109b45760405163118cdaa760e01b815233600482015260240161070d565b6002600154036110f557604051633ee5aeb560e01b815260040160405180910390fd5b6002600155565b6001600160a01b0383166111235760405163d92e233d60e01b815260040160405180910390fd5b6001600160a01b03821661114a5760405163d92e233d60e01b815260040160405180910390fd5b8060000361116b576040516329a1e53760e01b815260040160405180910390fd5b6000600d5411801561117e5750600d5481115b1561119c576040516346830da960e01b815260040160405180910390fd5b60006111a730610975565b9050600e5481101580156111c35750600f54610100900460ff16155b80156111dd57506010546001600160a01b03858116911614155b156111eb576111eb816114d7565b6001600160a01b0384166000908152600a602052604081205460ff1615908080831561126f576064600b54876112219190611cfd565b61122b9190611be8565b9250606461123a84601e611cfd565b6112449190611be8565b90506112508184611d31565b92506064600c54876112629190611cfd565b61126c9190611be8565b91505b6000818361127d868a611d31565b6112879190611d31565b6112919190611d31565b905061129b611410565b6112a59088611cfd565b6001600160a01b038a16600090815260086020526040812080549091906112cd908490611d31565b909155506112db9050611410565b6112e59082611cfd565b6001600160a01b0389166000908152600860205260408120805490919061130d908490611bd5565b909155505084156113b8576113218461159a565b61132a83611624565b61133382611665565b60408051858152602081018590529081018390527f312c5308f42848705a866c73dec11fd0783c2d64aac6a97e94467062ad3f40589060600160405180910390a1886001600160a01b03167ffd38818f5291bf0bb3a2a48aadc06ba8757865d1dabd804585338aab3009dcb6836040516113af91815260200190565b60405180910390a25b876001600160a01b0316896001600160a01b03167fddf252ad1be2c89b69c2b068fc378daa952ba7f163c4a11628f55a4df523b3ef836040516113fd91815260200190565b60405180910390a3505050505050505050565b600080600254116114725760405162461bcd60e51b815260206004820152602660248201527f546f74616c20737570706c79206d7573742062652067726561746572207468616044820152656e207a65726f60d01b606482015260840161070d565b6002546003546114829190611be8565b905090565b600080546001600160a01b038381166001600160a01b0319831681178455604051919092169283917f8be0079c531659141344cd1fd0a4f28419497f9722a3daafe3b4186f6b6457e09190a35050565b600f805461ff0019166101001790556000819003611508576040516364e2819f60e01b815260040160405180910390fd5b6000611515600283611be8565b905060006115238284611d31565b90504761152f83611703565b600061153b8247611d31565b90506115478382611882565b60408051858152602081018390529081018490527f17bbfb9a6069321b6ded73bd96327c9e6b7212a5cd51ff219cd61370acafb5619060600160405180910390a15050600f805461ff0019169055505050565b60006115a4611410565b6115ae9083611cfd565b905080600360008282546115c29190611d31565b9250508190555081600460008282546115db9190611bd5565b9091555050604080518381526000602082018190528183015290517f312c5308f42848705a866c73dec11fd0783c2d64aac6a97e94467062ad3f40589181900360600190a15050565b600061162e611410565b6116389083611cfd565b3060009081526008602052604081208054929350839290919061165c908490611bd5565b90915550505050565b80156116ea576000611675611410565b61167f9083611cfd565b905080600360008282546116939190611d31565b9250508190555081600260008282546116ac9190611d31565b909155505060405182815230907ffd38818f5291bf0bb3a2a48aadc06ba8757865d1dabd804585338aab3009dcb69060200160405180910390a25050565b604051637c946ed760e01b815260040160405180910390fd5b604080516002808252606082018352600092602083019080368337019050509050308160008151811061173857611738611d44565b60200260200101906001600160a01b031690816001600160a01b031681525050600f60029054906101000a90046001600160a01b03166001600160a01b031663ad5c46486040518163ffffffff1660e01b8152600401602060405180830381865afa1580156117ab573d6000803e3d6000fd5b505050506040513d601f19601f820116820180604052508101906117cf9190611d14565b816001815181106117e2576117e2611d44565b6001600160a01b039283166020918202929092010152600f5461180e9130916201000090041684611009565b600f5460405163791ac94760e01b8152620100009091046001600160a01b03169063791ac9479061184c908590600090869030904290600401611d5a565b600060405180830381600087803b15801561186657600080fd5b505af115801561187a573d6000803e3d6000fd5b505050505050565b600f546201000090046001600160a01b03166118b15760405163d92e233d60e01b815260040160405180910390fd5b600f546118cf9030906201000090046001600160a01b031684611009565b600f54600090819081906001600160a01b03620100009091041663f305d71985308885806119056000546001600160a01b031690565b60405160e088901b6001600160e01b03191681526001600160a01b03958616600482015260248101949094526044840192909252606483015290911660848201524260a482015260c40160606040518083038185885af115801561196d573d6000803e3d6000fd5b50505050506040513d601f19601f820116820180604052508101906119929190611dcd565b925092509250806000036119b95760405163b657fe1360e01b815260040160405180910390fd5b60408051848152602081018490529081018290527fd7f28048575eead8851d024ead087913957dfb4fd1a02b4d1573f5352a5a2be39060600160405180910390a15050505050565b60006020808352835180602085015260005b81811015611a2f57858101830151858201604001528201611a13565b506000604082860101526040601f19601f8301168501019250505092915050565b6001600160a01b0381168114610d5257600080fd5b60008060408385031215611a7857600080fd5b8235611a8381611a50565b946020939093013593505050565b60008060408385031215611aa457600080fd5b50508035926020909101359150565b600060208284031215611ac557600080fd5b5035919050565b600080600060608486031215611ae157600080fd5b8335611aec81611a50565b92506020840135611afc81611a50565b929592945050506040919091013590565b600060208284031215611b1f57600080fd5b813561084581611a50565b600060208284031215611b3c57600080fd5b8135801515811461084557600080fd5b60008060408385031215611b5f57600080fd5b8235611b6a81611a50565b91506020830135611b7a81611a50565b809150509250929050565b600181811c90821680611b9957607f821691505b602082108103611bb957634e487b7160e01b600052602260045260246000fd5b50919050565b634e487b7160e01b600052601160045260246000fd5b808201808211156106d0576106d0611bbf565b600082611c0557634e487b7160e01b600052601260045260246000fd5b500490565b600181815b80851115611c45578160001904821115611c2b57611c2b611bbf565b80851615611c3857918102915b93841c9390800290611c0f565b509250929050565b600082611c5c575060016106d0565b81611c69575060006106d0565b8160018114611c7f5760028114611c8957611ca5565b60019150506106d0565b60ff841115611c9a57611c9a611bbf565b50506001821b6106d0565b5060208310610133831016604e8410600b8410161715611cc8575081810a6106d0565b611cd28383611c0a565b8060001904821115611ce657611ce6611bbf565b029392505050565b600061084560ff841683611c4d565b80820281158282048414176106d0576106d0611bbf565b600060208284031215611d2657600080fd5b815161084581611a50565b818103818111156106d0576106d0611bbf565b634e487b7160e01b600052603260045260246000fd5b600060a08201878352602087602085015260a0604085015281875180845260c08601915060208901935060005b81811015611dac5784516001600160a01b031683529383019391830191600101611d87565b50506001600160a01b03969096166060850152505050608001529392505050565b600080600060608486031215611de257600080fd5b835192506020840151915060408401519050925092509256fea26469706673582212202c69efae4b02044a75230d99026044633edd2085a5bdcb5a1afec5606a72c00264736f6c63430008160033","linkReferences":{}},"methodIdentifiers":{"allowance(address,address)":"dd62ed3e","approve(address,uint256)":"095ea7b3","balanceOf(address)":"70a08231","configureUniswap(address)":"f685a28b","contractVersion()":"a0a8e460","decimals()":"313ce567","excludeFromFee(address)":"437823ec","freezeUpgrades()":"152d0731","includeInFee(address)":"ea2f0b37","isAccountExcludedFromFree(address)":"2e664829","isSwapAndLiquifyEnabled()":"04f377f8","liquidityFee()":"98118cb4","maxTxAmount()":"8c0b5e22","name()":"06fdde03","numTokensSellToAddToLiquidity()":"d12a7688","owner()":"8da5cb5b","reflectionBalanceOf(address)":"84aa9fb6","renounceOwnership()":"715018a6","setFees(uint256,uint256)":"0b78f9c0","setMaxTxAmount(uint256)":"ec28438a","setNumTokensSellToAddToLiquidity(uint256)":"f0f165af","setSwapAndLiquifyEnabled(bool)":"c49b9a80","swapAndLiquifyEnabled()":"4a74bb02","symbol()":"95d89b41","taxFee()":"a071dcf4","totalSupply()":"18160ddd","transfer(address,uint256)":"a9059cbb","transferFrom(address,address,uint256)":"23b872dd","transferOwnership(address)":"f2fde38b","uniswapV2Pair()":"49bd5a5e","uniswapV2Router()":"1694505e","updateUniswapV2Router(address)":"65b8dbc0","withdrawBNB(uint256)":"127f4b2e"},"id":1}