{"abi":[{"type":"constructor","inputs":[],"stateMutability":"nonpayable"},{"type":"receive","stateMutability":"payable"},{"type":"function","name":"allowance","inputs":[{"name":"owner","type":"address","internalType":"address"},{"name":"spender","type":"address","internalType":"address"}],"outputs":[{"name":"","type":"uint256","internalType":"uint256"}],"stateMutability":"view"},{"type":"function","name":"approve","inputs":[{"name":"spender","type":"address","internalType":"address"},{"name":"amount","type":"uint256","internalType":"uint256"}],"outputs":[{"name":"","type":"bool","internalType":"bool"}],"stateMutability":"nonpayable"},{"type":"function","name":"balanceOf","inputs":[{"name":"account","type":"address","internalType":"address"}],"outputs":[{"name":"","type":"uint256","internalType":"uint256"}],"stateMutability":"view"},{"type":"function","name":"burnFee","inputs":[],"outputs":[{"name":"","type":"uint256","internalType":"uint256"}],"stateMutability":"view"},{"type":"function","name":"configureUniswap","inputs":[{"name":"routerAddress","type":"address","internalType":"address"}],"outputs":[],"stateMutability":"nonpayable"},{"type":"function","name":"contractVersion","inputs":[],"outputs":[{"name":"","type":"string","internalType":"string"}],"stateMutability":"view"},{"type":"function","name":"decimals","inputs":[],"outputs":[{"name":"","type":"uint8","internalType":"uint8"}],"stateMutability":"view"},{"type":"function","name":"excludeFromFee","inputs":[{"name":"account","type":"address","internalType":"address"}],"outputs":[],"stateMutability":"nonpayable"},{"type":"function","name":"includeInFee","inputs":[{"name":"account","type":"address","internalType":"address"}],"outputs":[],"stateMutability":"nonpayable"},{"type":"function","name":"initialize","inputs":[{"name":"tokenName","type":"string","internalType":"string"},{"name":"tokenSymbol","type":"string","internalType":"string"},{"name":"_totalSupply","type":"uint256","internalType":"uint256"},{"name":"_token_decimals","type":"uint8","internalType":"uint8"},{"name":"_taxFee","type":"uint256","internalType":"uint256"},{"name":"_liquidityFee","type":"uint256","internalType":"uint256"},{"name":"_burnFee","type":"uint256","internalType":"uint256"},{"name":"_maxTokensTXAmount","type":"uint256","internalType":"uint256"},{"name":"_numTokensSellToAddToLiquidity","type":"uint256","internalType":"uint256"},{"name":"version","type":"string","internalType":"string"}],"outputs":[],"stateMutability":"nonpayable"},{"type":"function","name":"isAccountExcludedFromFree","inputs":[{"name":"account","type":"address","internalType":"address"}],"outputs":[{"name":"","type":"bool","internalType":"bool"}],"stateMutability":"view"},{"type":"function","name":"isSwapAndLiquifyEnabled","inputs":[],"outputs":[{"name":"","type":"bool","internalType":"bool"}],"stateMutability":"view"},{"type":"function","name":"liquidityFee","inputs":[],"outputs":[{"name":"","type":"uint256","internalType":"uint256"}],"stateMutability":"view"},{"type":"function","name":"maxTxAmount","inputs":[],"outputs":[{"name":"","type":"uint256","internalType":"uint256"}],"stateMutability":"view"},{"type":"function","name":"name","inputs":[],"outputs":[{"name":"","type":"string","internalType":"string"}],"stateMutability":"view"},{"type":"function","name":"numTokensSellToAddToLiquidity","inputs":[],"outputs":[{"name":"","type":"uint256","internalType":"uint256"}],"stateMutability":"view"},{"type":"function","name":"owner","inputs":[],"outputs":[{"name":"","type":"address","internalType":"address"}],"stateMutability":"view"},{"type":"function","name":"proxiableUUID","inputs":[],"outputs":[{"name":"","type":"bytes32","internalType":"bytes32"}],"stateMutability":"view"},{"type":"function","name":"reflectionBalanceOf","inputs":[{"name":"account","type":"address","internalType":"address"}],"outputs":[{"name":"","type":"uint256","internalType":"uint256"}],"stateMutability":"view"},{"type":"function","name":"renounceOwnership","inputs":[],"outputs":[],"stateMutability":"nonpayable"},{"type":"function","name":"setFees","inputs":[{"name":"_taxFee","type":"uint256","internalType":"uint256"},{"name":"_liquidityFee","type":"uint256","internalType":"uint256"},{"name":"_burnFee","type":"uint256","internalType":"uint256"}],"outputs":[],"stateMutability":"nonpayable"},{"type":"function","name":"setMaxTxAmount","inputs":[{"name":"newMaxTxAmount","type":"uint256","internalType":"uint256"}],"outputs":[],"stateMutability":"nonpayable"},{"type":"function","name":"setNumTokensSellToAddToLiquidity","inputs":[{"name":"newNumTokensSellToAddToLiquidity","type":"uint256","internalType":"uint256"}],"outputs":[],"stateMutability":"nonpayable"},{"type":"function","name":"setSwapAndLiquifyEnabled","inputs":[{"name":"_enabled","type":"bool","internalType":"bool"}],"outputs":[],"stateMutability":"nonpayable"},{"type":"function","name":"swapAndLiquifyEnabled","inputs":[],"outputs":[{"name":"","type":"bool","internalType":"bool"}],"stateMutability":"view"},{"type":"function","name":"symbol","inputs":[],"outputs":[{"name":"","type":"string","internalType":"string"}],"stateMutability":"view"},{"type":"function","name":"taxFee","inputs":[],"outputs":[{"name":"","type":"uint256","internalType":"uint256"}],"stateMutability":"view"},{"type":"function","name":"totalSupply","inputs":[],"outputs":[{"name":"","type":"uint256","internalType":"uint256"}],"stateMutability":"view"},{"type":"function","name":"transfer","inputs":[{"name":"recipient","type":"address","internalType":"address"},{"name":"amount","type":"uint256","internalType":"uint256"}],"outputs":[{"name":"","type":"bool","internalType":"bool"}],"stateMutability":"nonpayable"},{"type":"function","name":"transferFrom","inputs":[{"name":"sender","type":"address","internalType":"address"},{"name":"recipient","type":"address","internalType":"address"},{"name":"amount","type":"uint256","internalType":"uint256"}],"outputs":[{"name":"","type":"bool","internalType":"bool"}],"stateMutability":"nonpayable"},{"type":"function","name":"transferOwnership","inputs":[{"name":"newOwner","type":"address","internalType":"address"}],"outputs":[],"stateMutability":"nonpayable"},{"type":"function","name":"uniswapV2Pair","inputs":[],"outputs":[{"name":"","type":"address","internalType":"address"}],"stateMutability":"view"},{"type":"function","name":"uniswapV2Router","inputs":[],"outputs":[{"name":"","type":"address","internalType":"contract IUniswapV2Router02"}],"stateMutability":"view"},{"type":"function","name":"updateUniswapV2Router","inputs":[{"name":"newRouter","type":"address","internalType":"address"}],"outputs":[],"stateMutability":"nonpayable"},{"type":"function","name":"upgradeTo","inputs":[{"name":"newImplementation","type":"address","internalType":"address"}],"outputs":[],"stateMutability":"nonpayable"},{"type":"function","name":"upgradeToAndCall","inputs":[{"name":"newImplementation","type":"address","internalType":"address"},{"name":"data","type":"bytes","internalType":"bytes"}],"outputs":[],"stateMutability":"payable"},{"type":"event","name":"AdminChanged","inputs":[{"name":"previousAdmin","type":"address","indexed":false,"internalType":"address"},{"name":"newAdmin","type":"address","indexed":false,"internalType":"address"}],"anonymous":false},{"type":"event","name":"Approval","inputs":[{"name":"owner","type":"address","indexed":true,"internalType":"address"},{"name":"spender","type":"address","indexed":true,"internalType":"address"},{"name":"value","type":"uint256","indexed":false,"internalType":"uint256"}],"anonymous":false},{"type":"event","name":"BeaconUpgraded","inputs":[{"name":"beacon","type":"address","indexed":true,"internalType":"address"}],"anonymous":false},{"type":"event","name":"ExcludedFromFee","inputs":[{"name":"account","type":"address","indexed":true,"internalType":"address"}],"anonymous":false},{"type":"event","name":"FeesDistributed","inputs":[{"name":"reflectionFee","type":"uint256","indexed":false,"internalType":"uint256"},{"name":"liquidityFee","type":"uint256","indexed":false,"internalType":"uint256"},{"name":"burnFee","type":"uint256","indexed":false,"internalType":"uint256"}],"anonymous":false},{"type":"event","name":"FeesUpdated","inputs":[{"name":"_taxFee","type":"uint256","indexed":true,"internalType":"uint256"},{"name":"_liquidityFee","type":"uint256","indexed":true,"internalType":"uint256"},{"name":"_burnFee","type":"uint256","indexed":true,"internalType":"uint256"}],"anonymous":false},{"type":"event","name":"IncludedInFee","inputs":[{"name":"account","type":"address","indexed":true,"internalType":"address"}],"anonymous":false},{"type":"event","name":"Initialized","inputs":[{"name":"version","type":"uint8","indexed":false,"internalType":"uint8"}],"anonymous":false},{"type":"event","name":"MaxTxAmountUpdated","inputs":[{"name":"newMaxTxAmount","type":"uint256","indexed":false,"internalType":"uint256"}],"anonymous":false},{"type":"event","name":"NumTokensSellToAddToLiquidityUpdated","inputs":[{"name":"newNumTokensSellToAddToLiquidity","type":"uint256","indexed":false,"internalType":"uint256"}],"anonymous":false},{"type":"event","name":"OwnershipTransferred","inputs":[{"name":"previousOwner","type":"address","indexed":true,"internalType":"address"},{"name":"newOwner","type":"address","indexed":true,"internalType":"address"}],"anonymous":false},{"type":"event","name":"SwapAndLiquify","inputs":[{"name":"tokensSwapped","type":"uint256","indexed":false,"internalType":"uint256"},{"name":"ethReceived","type":"uint256","indexed":false,"internalType":"uint256"},{"name":"tokensAddedToLiquidity","type":"uint256","indexed":false,"internalType":"uint256"}],"anonymous":false},{"type":"event","name":"SwapAndLiquifyEnabledUpdated","inputs":[{"name":"enabled","type":"bool","indexed":false,"internalType":"bool"}],"anonymous":false},{"type":"event","name":"TokensBurned","inputs":[{"name":"burner","type":"address","indexed":true,"internalType":"address"},{"name":"burnAmount","type":"uint256","indexed":false,"internalType":"uint256"}],"anonymous":false},{"type":"event","name":"Transfer","inputs":[{"name":"from","type":"address","indexed":true,"internalType":"address"},{"name":"to","type":"address","indexed":true,"internalType":"address"},{"name":"value","type":"uint256","indexed":false,"internalType":"uint256"}],"anonymous":false},{"type":"event","name":"UniswapConfigured","inputs":[{"name":"router","type":"address","indexed":true,"internalType":"address"},{"name":"pair","type":"address","indexed":true,"internalType":"address"}],"anonymous":false},{"type":"event","name":"UniswapV2RouterUpdated","inputs":[{"name":"newRouter","type":"address","indexed":false,"internalType":"address"}],"anonymous":false},{"type":"event","name":"Upgraded","inputs":[{"name":"implementation","type":"address","indexed":true,"internalType":"address"}],"anonymous":false},{"type":"error","name":"AlreadyExcluded","inputs":[]},{"type":"error","name":"FeesExceeded","inputs":[{"name":"totalFees","type":"uint256","internalType":"uint256"}]},{"type":"error","name":"InsufficientBalance","inputs":[{"name":"available","type":"uint256","internalType":"uint256"},{"name":"required","type":"uint256","internalType":"uint256"}]},{"type":"error","name":"InvalidAmount","inputs":[]},{"type":"error","name":"MaxTransactionExceeded","inputs":[{"name":"maxTxAmount","type":"uint256","internalType":"uint256"},{"name":"attemptedAmount","type":"uint256","internalType":"uint256"}]},{"type":"error","name":"NotExcluded","inputs":[]},{"type":"error","name":"NumTokensSellToAddToLiquidityFailed","inputs":[{"name":"currentAmount","type":"uint256","internalType":"uint256"},{"name":"newAmount","type":"uint256","internalType":"uint256"}]},{"type":"error","name":"UniswapAlreadyConfigured","inputs":[]},{"type":"error","name":"ZeroAddress","inputs":[]}],"bytecode":{"object":"0x60a0806040523461003c573060805261ffff1960d7541660d7556127fd908161004282396080518181816113630152818161146f01526117f10152f35b600080fdfe608080604052600436101561001d575b50361561001b57600080fd5b005b60003560e01c90816304f377f814611c685750806306fdde0314611bc0578063095ea7b314611b9a5780631694505e14611b7057806318160ddd14611b5257806323b872dd14611ace5780632e66482914611a8f578063313ce56714611a6e5780633659cfe6146117cb578063437823ec1461173957806349bd5a5e146117125780634a74bb02146116ef5780634f1ef2861461141e57806352d1902d1461134857806365b8dbc0146112c557806370a08231146112a2578063715018a61461124e57806384aa9fb6146111c257806389429ddf14610a445780638c0b5e2214610a265780638da5cb5b146109ff57806395d89b411461095757806398118cb414610939578063a071dcf41461091b578063a0a8e46014610838578063a9059cbb14610807578063c49b9a80146106fc578063cec10c1114610668578063d12a76881461064a578063dd62ed3e146105f8578063ea2f0b3714610568578063ec28438a1461050c578063f0f165af14610480578063f2fde38b146103f3578063f685a28b146101d95763fce589d8146101b6573861000f565b346101d45760003660031901126101d457602060d454604051908152f35b600080fd5b346101d4576020806003193601126101d4576101f3611cd4565b6101fb612598565b60d754906001600160a01b0390818360101c16158015906103e6575b6103d4578181169283156103c25775ffffffffffffffffffffffffffffffffffffffff00001916601091821b62010000600160b01b03161760d781905560405163c45a015560e01b8152911c821691908481600481865afa92831561037557859160009461039e575b506040516315ab88c960e31b81529190829060049082905afa801561037557604483918793600091610381575b5060008360405197889586946364e329cb60e11b8652306004870152166024850152165af180156103755760d192600091610348575b501692836001600160a01b031960d854161760d8558360005252604060002060ff19906001828254161790558160005260016040600020918254161790557fc1a9e56c8129347b63ce39a7b2cb626d8e39b9baae0723beb7cbe61d73475bc0600080a3005b6103689150853d871161036e575b6103608183611d38565b810190611f38565b856102e3565b503d610356565b6040513d6000823e3d90fd5b6103989150843d861161036e576103608183611d38565b886102ad565b829194506103ba906004933d841161036e576103608183611d38565b939091610280565b60405163d92e233d60e01b8152600490fd5b60405163d6150e9560e01b8152600490fd5b508160d854161515610217565b346101d45760203660031901126101d45761040c611cd4565b610414612598565b6001600160a01b0381161561042c5761001b906125f0565b60405162461bcd60e51b815260206004820152602660248201527f4f776e61626c653a206e6577206f776e657220697320746865207a65726f206160448201526564647265737360d01b6064820152608490fd5b346101d45760203660031901126101d45760043561049c612598565b6104b36104ad60ff60ce5416611f27565b82611f07565b8060d65560d5548082116104ee577fab1090599596cfb0c655b6424e552fba2cedf77457ed354fbe96e9abf4aa1f13602084604051908152a1005b604492506040519163cd1a97bb60e01b835260048301526024820152fd5b346101d45760203660031901126101d4577f947f344d56e1e8c70dc492fb94c4ddddd490c016aab685f5e7e47b2e85cb44cf602060043561054b612598565b61055c6104ad60ff60ce5416611f27565b60d555604051908152a1005b346101d45760203660031901126101d4576001600160a01b03610589611cd4565b610591612598565b168060005260d160205260ff60406000205416156105e6578060005260d1602052604060002060ff1981541690557f78ce087db51d01d3e32355f2d83455d5a39f99194c8d3d1c2614893695cee442600080a2005b604051634549716160e11b8152600490fd5b346101d45760403660031901126101d457610611611cd4565b610619611cea565b906001600160a01b0380911660005260d0602052604060002091166000526020526020604060002054604051908152f35b346101d45760003660031901126101d457602060d654604051908152f35b346101d45760603660031901126101d45760443560243560043561068a612598565b606461069f8461069a8585611efa565b611efa565b116106d7578060d2558160d3558260d4557fcf8a1e1d5f09cf3c97dbb653cd9a4d7aace9292fbc1bb8211febf2d400febbdd600080a4005b9161069a6106e792602494611efa565b60405190632db7582d60e01b82526004820152fd5b346101d45760203660031901126101d457600435801515908181036101d457610723612598565b60d754908260ff831615151461076e5760ff19821660ff84161760d7556040518381527f53726dfcaf90650aa7eb35524f4d3220f07413c8d6cb404cc8c18bf5591bc15990602090a1005b156107c9576107c560405161078281611d1c565b601781527f5377617020697320616c726561647920656e61626c656400000000000000000060208201525b60405162461bcd60e51b815291829160048301611c8b565b0390fd5b6107c56040516107d881611d1c565b601881527f5377617020697320616c72656164792064697361626c6564000000000000000060208201526107ad565b346101d45760403660031901126101d45761082d610823611cd4565b6024359033611fc7565b602060405160018152f35b346101d45760003660031901126101d457604051600060d95461085a81611dcb565b808452906020906001908181169081156108f15750600114610897575b6108938561088781870382611d38565b60405191829182611c8b565b0390f35b60d9600090815293507fcc6782fd46dd71c5f512301ab049782450b4eaf79fdac5443d93d274d39167865b8385106108de5750505050810160200161088782610893610877565b80548686018401529382019381016108c2565b8695506108939693506020925061088794915060ff191682840152151560051b8201019293610877565b346101d45760003660031901126101d457602060d254604051908152f35b346101d45760003660031901126101d457602060d354604051908152f35b346101d45760003660031901126101d457604051600060cd5461097981611dcb565b808452906020906001908181169081156108f157506001146109a5576108938561088781870382611d38565b60cd600090815293507f83978b4c69c48dd978ab43fe30f077615294f938fb7f936d9eb340e51ea7db2e5b8385106109ec5750505050810160200161088782610893610877565b80548686018401529382019381016109d0565b346101d45760003660031901126101d45760206001600160a01b0360975416604051908152f35b346101d45760003660031901126101d457602060d554604051908152f35b346101d4576101403660031901126101d45760043567ffffffffffffffff81116101d457610a76903690600401611dad565b60243567ffffffffffffffff81116101d457610a96903690600401611dad565b906064359060ff821682036101d4576101243567ffffffffffffffff81116101d457610ac6903690600401611dad565b916000549160ff8360081c1615928380946111b5575b801561119e575b156111425760ff19811660011760005583611130575b506064610b1060c43561069a60a435608435611efa565b1161111a57610b2f60ff60005460081c16610b2a81612638565b612638565b610b38336125f0565b610b4960ff60005460081c16612638565b80519067ffffffffffffffff8211610e68578190610b6860cc54611dcb565b601f8111611070575b50602090601f8311600114610fe657600092610fdb575b50508160011b916000199060031b1c19161760cc555b835167ffffffffffffffff8111610e6857610bba60cd54611dcb565b601f8111610f3c575b506020601f8211600114610eb5578192939495600092610eaa575b50508160011b916000199060031b1c19161760cd555b60ff811660ff1960ce54161760ce55604d60ff821611610e9457610c2060ff8216600a0a604435611f07565b908160c9558115610e7e57610c79610c7060ff60001994850619938460ca5560843560d25560a43560d35560c43560d455610c67610c5f838316611f27565b60e435611f07565b60d55516611f27565b61010435611f07565b60d6553360005260cf60205260406000205560d16020526040600020600160ff19825416179055306000526040600020600160ff1982541617905582519067ffffffffffffffff8211610e6857610cd160d954611dcb565b601f8111610e03575b506020601f8311600114610d7f57829394600093610d74575b50508260011b9260031b1c19161760d9555b60c95460405190815260007fddf252ad1be2c89b69c2b068fc378daa952ba7f163c4a11628f55a4df523b3ef60203393a3610d3c57005b61ff0019600054166000557f7f26b83ff96e1f2b6a682f133852f6798a09c465da95921460cefb3847402498602060405160018152a1005b015191508480610cf3565b90601f1983169160d96000527fcc6782fd46dd71c5f512301ab049782450b4eaf79fdac5443d93d274d39167869260005b818110610deb575095846001969710610dd3575b50505050811b0160d955610d05565b01519060f88460031b161c1916905583808080610dc4565b9193602060018192878b015181550195019201610db0565b60d96000527fcc6782fd46dd71c5f512301ab049782450b4eaf79fdac5443d93d274d3916786601f840160051c81019160208510610e5e575b601f0160051c01905b818110610e525750610cda565b60008155600101610e45565b9091508190610e3c565b634e487b7160e01b600052604160045260246000fd5b634e487b7160e01b600052601260045260246000fd5b634e487b7160e01b600052601160045260246000fd5b015190508580610bde565b60cd6000527f83978b4c69c48dd978ab43fe30f077615294f938fb7f936d9eb340e51ea7db2e9060005b601f1984168110610f24575060019394959683601f19811610610f0b575b505050811b0160cd55610bf4565b015160001960f88460031b161c19169055858080610efd565b9091602060018192858b015181550193019101610edf565b60cd600052601f820160051c7f83978b4c69c48dd978ab43fe30f077615294f938fb7f936d9eb340e51ea7db2e0160208310610fb4575b601f820160051c7f83978b4c69c48dd978ab43fe30f077615294f938fb7f936d9eb340e51ea7db2e018110610fa85750610bc3565b60008155600101610f73565b507f83978b4c69c48dd978ab43fe30f077615294f938fb7f936d9eb340e51ea7db2e610f73565b015190508680610b88565b925060cc6000527f47197230e1e4b29fc0bd84d7d78966c0925452aff72a2a121538b102457e9ebe906000935b601f1984168510611055576001945083601f1981161061103c575b505050811b0160cc55610b9e565b015160001960f88460031b161c1916905586808061102e565b81810151835560209485019460019093019290910190611013565b90915060cc600052601f830160051c7f47197230e1e4b29fc0bd84d7d78966c0925452aff72a2a121538b102457e9ebe01602084106110f3575b908392915b601f820160051c7f47197230e1e4b29fc0bd84d7d78966c0925452aff72a2a121538b102457e9ebe0181106110e45750610b71565b600081558493506001016110af565b507f47197230e1e4b29fc0bd84d7d78966c0925452aff72a2a121538b102457e9ebe6110aa565b60246106e760c43561069a60a435608435611efa565b61ffff19166101011760005585610af9565b60405162461bcd60e51b815260206004820152602e60248201527f496e697469616c697a61626c653a20636f6e747261637420697320616c72656160448201526d191e481a5b9a5d1a585b1a5e995960921b6064820152608490fd5b50303b158015610ae35750600160ff821614610ae3565b50600160ff821610610adc565b346101d45760203660031901126101d4576001600160a01b036111e3611cd4565b16801561121a5760005260cf602052602061121260406000205461120c60ca5460c95490611ec7565b90611ec7565b604051908152f35b60405162461bcd60e51b815260206004820152600c60248201526b5a65726f206164647265737360a01b6044820152606490fd5b346101d45760003660031901126101d457611267612598565b60006001600160a01b0360975481198116609755167f8be0079c531659141344cd1fd0a4f28419497f9722a3daafe3b4186f6b6457e08280a3005b346101d45760203660031901126101d45760206112126112c0611cd4565b611ed1565b346101d45760203660031901126101d4576112de611cd4565b6112e6612598565b6001600160a01b0381169081156103c2577f7e0f425e693a3591da35eee37f8ada3aadc3632fa8ffbcecac1341351c8ece669160209162010000600160b01b0360d7549160101b169062010000600160b01b0319161760d755604051908152a1005b346101d45760003660031901126101d4576001600160a01b037f00000000000000000000000000000000000000000000000000000000000000001630036113b35760206040517f360894a13ba1a3210667c828492db98dca3e2076cc3735a920a3ca505d382bbc8152f35b60405162461bcd60e51b815260206004820152603860248201527f555550535570677261646561626c653a206d757374206e6f742062652063616c60448201527f6c6564207468726f7567682064656c656761746563616c6c00000000000000006064820152608490fd5b60403660031901126101d457611432611cd4565b60243567ffffffffffffffff81116101d457366023820112156101d457611463903690602481600401359101611d76565b6001600160a01b0390817f0000000000000000000000000000000000000000000000000000000000000000169161149c83301415611e05565b6114cb7f360894a13ba1a3210667c828492db98dca3e2076cc3735a920a3ca505d382bbc938285541614611e66565b6114d3612598565b7f4910fdfa16fed3260ed0e7147f7cc6da11a60208b5b9406d12a635614ffd91435460ff16156115095750505061001b90612698565b8316604051926352d1902d60e01b84526020938481600481865afa600091816116c0575b5061158e5760405162461bcd60e51b815260048101869052602e60248201527f45524331393637557067726164653a206e657720696d706c656d656e7461746960448201526d6f6e206973206e6f74205555505360901b6064820152608490fd5b939293036116695761159f84612698565b7fbc7cd75a20ee27fd9adebab32041f755214dbc6bffa90cc0225b39da2e5c2d3b600080a2815115801590611661575b6115d557005b61001b92600080604051946115e986611d00565b602786527f416464726573733a206c6f772d6c6576656c2064656c65676174652063616c6c85870152660819985a5b195960ca1b60408701528481519101845af4903d15611658573d61163b81611d5a565b906116496040519283611d38565b8152600081943d92013e612736565b60609250612736565b5060016115cf565b60405162461bcd60e51b815260048101839052602960248201527f45524331393637557067726164653a20756e737570706f727465642070726f786044820152681a58589b195555525160ba1b6064820152608490fd5b9091508581813d83116116e8575b6116d88183611d38565b810103126101d45751908761152d565b503d6116ce565b346101d45760003660031901126101d457602060ff60d754166040519015158152f35b346101d45760003660031901126101d45760206001600160a01b0360d85416604051908152f35b346101d45760203660031901126101d4576001600160a01b0361175a611cd4565b611762612598565b168060005260d160205260ff604060002054166117b9578060005260d16020526040600020600160ff198254161790557ff1d6512ec7550bf605a5a38910e48fb6a57938ed74a5afa01753fa023001005c600080a2005b60405163175c779760e11b8152600490fd5b346101d4576020806003193601126101d4576117e5611cd4565b6001600160a01b0391827f00000000000000000000000000000000000000000000000000000000000000001661181d81301415611e05565b61184c7f360894a13ba1a3210667c828492db98dca3e2076cc3735a920a3ca505d382bbc918583541614611e66565b611854612598565b604051908282019482861067ffffffffffffffff871117610e6857856040526000835260ff7f4910fdfa16fed3260ed0e7147f7cc6da11a60208b5b9406d12a635614ffd914354166000146118b1575050505061001b9150612698565b8492939416906040516352d1902d60e01b81528581600481865afa60009181611a3f575b506119365760405162461bcd60e51b815260048101879052602e60248201527f45524331393637557067726164653a206e657720696d706c656d656e7461746960448201526d6f6e206973206e6f74205555505360901b6064820152608490fd5b949394036119e85761194782612698565b7fbc7cd75a20ee27fd9adebab32041f755214dbc6bffa90cc0225b39da2e5c2d3b600080a28251158015906119e0575b61197d57005b60008061001b956040519561199187611d00565b602787527f416464726573733a206c6f772d6c6576656c2064656c65676174652063616c6c86880152660819985a5b195960ca1b60408801525190845af4903d15611658573d61163b81611d5a565b506000611977565b60405162461bcd60e51b815260048101849052602960248201527f45524331393637557067726164653a20756e737570706f727465642070726f786044820152681a58589b195555525160ba1b6064820152608490fd5b9091508681813d8311611a67575b611a578183611d38565b810103126101d4575190886118d5565b503d611a4d565b346101d45760003660031901126101d457602060ff60ce5416604051908152f35b346101d45760203660031901126101d4576001600160a01b03611ab0611cd4565b1660005260d1602052602060ff604060002054166040519015158152f35b346101d45760603660031901126101d457611ae7611cd4565b611aef611cea565b906044356001600160a01b03821660005260d0602052604060002033600052602052604060002054818110611b3557611b2c8261082d9585611fc7565b03903390611f57565b6044916040519163cf47918160e01b835260048301526024820152fd5b346101d45760003660031901126101d457602060c954604051908152f35b346101d45760003660031901126101d45760206001600160a01b0360d75460101c16604051908152f35b346101d45760403660031901126101d45761082d611bb6611cd4565b6024359033611f57565b346101d45760003660031901126101d457604051600060cc54611be281611dcb565b808452906020906001908181169081156108f15750600114611c0e576108938561088781870382611d38565b60cc600090815293507f47197230e1e4b29fc0bd84d7d78966c0925452aff72a2a121538b102457e9ebe5b838510611c555750505050810160200161088782610893610877565b8054868601840152938201938101611c39565b346101d45760003660031901126101d45760209060ff60d75460081c1615158152f35b6020808252825181830181905290939260005b828110611cc057505060409293506000838284010152601f8019910116010190565b818101860151848201604001528501611c9e565b600435906001600160a01b03821682036101d457565b602435906001600160a01b03821682036101d457565b6060810190811067ffffffffffffffff821117610e6857604052565b6040810190811067ffffffffffffffff821117610e6857604052565b90601f8019910116810190811067ffffffffffffffff821117610e6857604052565b67ffffffffffffffff8111610e6857601f01601f191660200190565b929192611d8282611d5a565b91611d906040519384611d38565b8294818452818301116101d4578281602093846000960137010152565b9080601f830112156101d457816020611dc893359101611d76565b90565b90600182811c92168015611dfb575b6020831014611de557565b634e487b7160e01b600052602260045260246000fd5b91607f1691611dda565b15611e0c57565b60405162461bcd60e51b815260206004820152602c60248201527f46756e6374696f6e206d7573742062652063616c6c6564207468726f7567682060448201526b19195b1959d85d1958d85b1b60a21b6064820152608490fd5b15611e6d57565b60405162461bcd60e51b815260206004820152602c60248201527f46756e6374696f6e206d7573742062652063616c6c6564207468726f7567682060448201526b6163746976652070726f787960a01b6064820152608490fd5b8115610e7e570490565b6001600160a01b031660005260cf602052611dc860406000205461120c60ca5460c95490611ec7565b91908201809211610e9457565b81810292918115918404141715610e9457565b91908203918211610e9457565b60ff16604d8111610e9457600a0a90565b908160209103126101d457516001600160a01b03811681036101d45790565b90916001600160a01b038092169182158015611fbd575b6103c2577f8c5be1e5ebec7d5bd14f71427d1e84f3dd0314c0f7b2291e5b200ac8c7c3b925916020918460005260d08352604060002095169485600052825280604060002055604051908152a3565b5080841615611f6e565b91909160006001600160a01b038216158015612587575b6103c25782156125755760d5548084116125575750611ffc30611ed1565b60d65481101580612547575b80612529575b612216575b50916001600160a01b03826120c494827fddf252ad1be2c89b69c2b068fc378daa952ba7f163c4a11628f55a4df523b3ef9516815260209360d185528460409260ff84822054161592818092868683976121da575b8a6120808961207b8961207b888b611f1a565b611f1a565b9e8f8c8361209e60ca9a6120988c5460c95490611ec7565b90611f07565b9116885260cf8b526120b4868920918254611f1a565b9055612098885460c95490611ec7565b9f169e8f855260cf88526120dc838620918254611efa565b90556120f3575b50505050505050519485521692a3565b61217087956120986121a198877f312c5308f42848705a866c73dec11fd0783c2d64aac6a97e94467062ad3f40586060612181988a84549561214b60c9549761214561213f8a83611ec7565b86611f07565b90611f1a565b80965561215a8360cb54611efa565b60cb558a519283528201528a89820152a1611ec7565b9230815260cf8c5220918254611efa565b905580549061219a60c9549261214561213f8583611ec7565b9055611f1a565b60c95581519081527ffd38818f5291bf0bb3a2a48aadc06ba8757865d1dabd804585338aab3009dcb6853092a2388481808080866120e3565b96505050915060646121ee60d25483611f07565b049160646121fe60d35484611f07565b049286606461220f60d45486611f07565b0496612068565b61010061ff001960d75416178060d7556122338260011c83611f1a565b9047906040519061224382611d00565b600282526040366020840137815115612515573060208301526040516315ab88c960e31b81526020816004816001600160a01b038660101c165afa90811561250a5787916124eb575b508251600110156124d757906001600160a01b036122c1921660408401526001600160a01b038660011c9160101c1630611f57565b6001600160a01b0360d75460101c16803b156124d35790859060405192839163791ac94760e01b835260a483018860011c600485015284602485015260a060448501528151809152602060c48501920190855b8181106124ae575050508383809230606483015242608483015203925af180156124715761247c575b506123489047611f1a565b612361826001600160a01b0360d75460101c1630611f57565b8060606001600160a01b0360d75460101c1660c46001600160a01b0360975416604051948593849263f305d71960e01b84523060048501528960248501528b60448501528b606485015260848401524260a48401525af1801561247157612442575b50927f17bbfb9a6069321b6ded73bd96327c9e6b7212a5cd51ff219cd61370acafb56160606001600160a01b03947fddf252ad1be2c89b69c2b068fc378daa952ba7f163c4a11628f55a4df523b3ef97946120c499976040519260011c835260208301526040820152a161ff001960d7541660d7559294509250612013565b606090813d831161246a575b6124588183611d38565b8101031261246657386123c3565b8380fd5b503d61244e565b6040513d87823e3d90fd5b67ffffffffffffffff819592951161249a576040529261234861233d565b634e487b7160e01b82526041600452602482fd5b82516001600160a01b031684528b965087955060209384019390920191600101612314565b8580fd5b634e487b7160e01b87526032600452602487fd5b612504915060203d60201161036e576103608183611d38565b3861228c565b6040513d89823e3d90fd5b634e487b7160e01b86526032600452602486fd5b506001600160a01b0360d854166001600160a01b038416141561200e565b5060ff60d75460081c1615612008565b604490846040519163fede3a4360e01b835260048301526024820152fd5b60405163162908e360e11b8152600490fd5b506001600160a01b03841615611fde565b6001600160a01b036097541633036125ac57565b606460405162461bcd60e51b815260206004820152602060248201527f4f776e61626c653a2063616c6c6572206973206e6f7420746865206f776e65726044820152fd5b609754906001600160a01b0380911691826001600160a01b0319821617609755167f8be0079c531659141344cd1fd0a4f28419497f9722a3daafe3b4186f6b6457e0600080a3565b1561263f57565b60405162461bcd60e51b815260206004820152602b60248201527f496e697469616c697a61626c653a20636f6e7472616374206973206e6f74206960448201526a6e697469616c697a696e6760a81b6064820152608490fd5b803b156126db576001600160a01b037f360894a13ba1a3210667c828492db98dca3e2076cc3735a920a3ca505d382bbc91166001600160a01b0319825416179055565b60405162461bcd60e51b815260206004820152602d60248201527f455243313936373a206e657720696d706c656d656e746174696f6e206973206e60448201526c1bdd08184818dbdb9d1c9858dd609a1b6064820152608490fd5b91929015612798575081511561274a575090565b3b156127535790565b60405162461bcd60e51b815260206004820152601d60248201527f416464726573733a2063616c6c20746f206e6f6e2d636f6e74726163740000006044820152606490fd5b8251909150156127ab5750805190602001fd5b60405162461bcd60e51b81529081906107c59060048301611c8b56fea2646970667358221220c6c34fc232e5889520418d04cba94d7c9c9445453f1054c66b69c1a21bd06dec64736f6c63430008160033","linkReferences":{}},"methodIdentifiers":{"allowance(address,address)":"dd62ed3e","approve(address,uint256)":"095ea7b3","balanceOf(address)":"70a08231","burnFee()":"fce589d8","configureUniswap(address)":"f685a28b","contractVersion()":"a0a8e460","decimals()":"313ce567","excludeFromFee(address)":"437823ec","includeInFee(address)":"ea2f0b37","initialize(string,string,uint256,uint8,uint256,uint256,uint256,uint256,uint256,string)":"89429ddf","isAccountExcludedFromFree(address)":"2e664829","isSwapAndLiquifyEnabled()":"04f377f8","liquidityFee()":"98118cb4","maxTxAmount()":"8c0b5e22","name()":"06fdde03","numTokensSellToAddToLiquidity()":"d12a7688","owner()":"8da5cb5b","proxiableUUID()":"52d1902d","reflectionBalanceOf(address)":"84aa9fb6","renounceOwnership()":"715018a6","setFees(uint256,uint256,uint256)":"cec10c11","setMaxTxAmount(uint256)":"ec28438a","setNumTokensSellToAddToLiquidity(uint256)":"f0f165af","setSwapAndLiquifyEnabled(bool)":"c49b9a80","swapAndLiquifyEnabled()":"4a74bb02","symbol()":"95d89b41","taxFee()":"a071dcf4","totalSupply()":"18160ddd","transfer(address,uint256)":"a9059cbb","transferFrom(address,address,uint256)":"23b872dd","transferOwnership(address)":"f2fde38b","uniswapV2Pair()":"49bd5a5e","uniswapV2Router()":"1694505e","updateUniswapV2Router(address)":"65b8dbc0","upgradeTo(address)":"3659cfe6","upgradeToAndCall(address,bytes)":"4f1ef286"},"id":0}