{"abi":[{"type":"constructor","inputs":[],"stateMutability":"nonpayable"},{"type":"function","name":"allowance","inputs":[{"name":"owner","type":"address","internalType":"address"},{"name":"spender","type":"address","internalType":"address"}],"outputs":[{"name":"","type":"uint256","internalType":"uint256"}],"stateMutability":"view"},{"type":"function","name":"approve","inputs":[{"name":"spender","type":"address","internalType":"address"},{"name":"amount","type":"uint256","internalType":"uint256"}],"outputs":[{"name":"","type":"bool","internalType":"bool"}],"stateMutability":"nonpayable"},{"type":"function","name":"balanceOf","inputs":[{"name":"account","type":"address","internalType":"address"}],"outputs":[{"name":"","type":"uint256","internalType":"uint256"}],"stateMutability":"view"},{"type":"function","name":"burn","inputs":[{"name":"amount","type":"uint256","internalType":"uint256"}],"outputs":[],"stateMutability":"nonpayable"},{"type":"function","name":"burnFee","inputs":[],"outputs":[{"name":"","type":"uint256","internalType":"uint256"}],"stateMutability":"view"},{"type":"function","name":"decimals","inputs":[],"outputs":[{"name":"","type":"uint8","internalType":"uint8"}],"stateMutability":"view"},{"type":"function","name":"getRate","inputs":[],"outputs":[{"name":"","type":"uint256","internalType":"uint256"}],"stateMutability":"view"},{"type":"function","name":"initialize","inputs":[{"name":"tokenName","type":"string","internalType":"string"},{"name":"tokenSymbol","type":"string","internalType":"string"},{"name":"_totalSupply","type":"uint256","internalType":"uint256"},{"name":"_taxFee","type":"uint256","internalType":"uint256"},{"name":"_liquidityFee","type":"uint256","internalType":"uint256"},{"name":"_burnFee","type":"uint256","internalType":"uint256"},{"name":"_maxTxAmount","type":"uint256","internalType":"uint256"},{"name":"_numTokensSellToAddToLiquidity","type":"uint256","internalType":"uint256"},{"name":"routerAddress","type":"address","internalType":"address"}],"outputs":[],"stateMutability":"nonpayable"},{"type":"function","name":"isExcludedFromFee","inputs":[{"name":"account","type":"address","internalType":"address"}],"outputs":[{"name":"","type":"bool","internalType":"bool"}],"stateMutability":"view"},{"type":"function","name":"liquidityFee","inputs":[],"outputs":[{"name":"","type":"uint256","internalType":"uint256"}],"stateMutability":"view"},{"type":"function","name":"manualAddLiquidity","inputs":[],"outputs":[],"stateMutability":"nonpayable"},{"type":"function","name":"maxTxAmount","inputs":[],"outputs":[{"name":"","type":"uint256","internalType":"uint256"}],"stateMutability":"view"},{"type":"function","name":"name","inputs":[],"outputs":[{"name":"","type":"string","internalType":"string"}],"stateMutability":"view"},{"type":"function","name":"numTokensSellToAddToLiquidity","inputs":[],"outputs":[{"name":"","type":"uint256","internalType":"uint256"}],"stateMutability":"view"},{"type":"function","name":"owner","inputs":[],"outputs":[{"name":"","type":"address","internalType":"address"}],"stateMutability":"view"},{"type":"function","name":"proxiableUUID","inputs":[],"outputs":[{"name":"","type":"bytes32","internalType":"bytes32"}],"stateMutability":"view"},{"type":"function","name":"recoverTokensAndETH","inputs":[{"name":"tokenAmount","type":"uint256","internalType":"uint256"},{"name":"ethAmount","type":"uint256","internalType":"uint256"}],"outputs":[],"stateMutability":"nonpayable"},{"type":"function","name":"renounceOwnership","inputs":[],"outputs":[],"stateMutability":"nonpayable"},{"type":"function","name":"setExcludedFromFee","inputs":[{"name":"account","type":"address","internalType":"address"},{"name":"excluded","type":"bool","internalType":"bool"}],"outputs":[],"stateMutability":"nonpayable"},{"type":"function","name":"setExcludedFromFeeBatch","inputs":[{"name":"accounts","type":"address[]","internalType":"address[]"},{"name":"excluded","type":"bool","internalType":"bool"}],"outputs":[],"stateMutability":"nonpayable"},{"type":"function","name":"setMaxTxAmount","inputs":[{"name":"_maxTxPercent","type":"uint256","internalType":"uint256"}],"outputs":[],"stateMutability":"nonpayable"},{"type":"function","name":"setTaxFees","inputs":[{"name":"_newTaxFee","type":"uint256","internalType":"uint256"},{"name":"_newLiquidityFee","type":"uint256","internalType":"uint256"},{"name":"_newBurnFee","type":"uint256","internalType":"uint256"}],"outputs":[],"stateMutability":"nonpayable"},{"type":"function","name":"swapAndLiquifyEnabled","inputs":[],"outputs":[{"name":"","type":"bool","internalType":"bool"}],"stateMutability":"view"},{"type":"function","name":"symbol","inputs":[],"outputs":[{"name":"","type":"string","internalType":"string"}],"stateMutability":"view"},{"type":"function","name":"taxFee","inputs":[],"outputs":[{"name":"","type":"uint256","internalType":"uint256"}],"stateMutability":"view"},{"type":"function","name":"tokenFromReflection","inputs":[{"name":"rAmount","type":"uint256","internalType":"uint256"}],"outputs":[{"name":"","type":"uint256","internalType":"uint256"}],"stateMutability":"view"},{"type":"function","name":"totalFeesDistributed","inputs":[],"outputs":[{"name":"","type":"uint256","internalType":"uint256"}],"stateMutability":"view"},{"type":"function","name":"totalSupply","inputs":[],"outputs":[{"name":"","type":"uint256","internalType":"uint256"}],"stateMutability":"view"},{"type":"function","name":"transfer","inputs":[{"name":"recipient","type":"address","internalType":"address"},{"name":"amount","type":"uint256","internalType":"uint256"}],"outputs":[{"name":"","type":"bool","internalType":"bool"}],"stateMutability":"nonpayable"},{"type":"function","name":"transferFrom","inputs":[{"name":"sender","type":"address","internalType":"address"},{"name":"recipient","type":"address","internalType":"address"},{"name":"amount","type":"uint256","internalType":"uint256"}],"outputs":[{"name":"","type":"bool","internalType":"bool"}],"stateMutability":"nonpayable"},{"type":"function","name":"transferOwnership","inputs":[{"name":"newOwner","type":"address","internalType":"address"}],"outputs":[],"stateMutability":"nonpayable"},{"type":"function","name":"uniswapV2Pair","inputs":[],"outputs":[{"name":"","type":"address","internalType":"address"}],"stateMutability":"view"},{"type":"function","name":"uniswapV2Router","inputs":[],"outputs":[{"name":"","type":"address","internalType":"contract IUniswapV2Router02"}],"stateMutability":"view"},{"type":"function","name":"upgradeTo","inputs":[{"name":"newImplementation","type":"address","internalType":"address"}],"outputs":[],"stateMutability":"nonpayable"},{"type":"function","name":"upgradeToAndCall","inputs":[{"name":"newImplementation","type":"address","internalType":"address"},{"name":"data","type":"bytes","internalType":"bytes"}],"outputs":[],"stateMutability":"payable"},{"type":"event","name":"AdminChanged","inputs":[{"name":"previousAdmin","type":"address","indexed":false,"internalType":"address"},{"name":"newAdmin","type":"address","indexed":false,"internalType":"address"}],"anonymous":false},{"type":"event","name":"Approval","inputs":[{"name":"owner","type":"address","indexed":true,"internalType":"address"},{"name":"spender","type":"address","indexed":true,"internalType":"address"},{"name":"value","type":"uint256","indexed":false,"internalType":"uint256"}],"anonymous":false},{"type":"event","name":"BeaconUpgraded","inputs":[{"name":"beacon","type":"address","indexed":true,"internalType":"address"}],"anonymous":false},{"type":"event","name":"Initialized","inputs":[{"name":"version","type":"uint8","indexed":false,"internalType":"uint8"}],"anonymous":false},{"type":"event","name":"OwnershipTransferred","inputs":[{"name":"previousOwner","type":"address","indexed":true,"internalType":"address"},{"name":"newOwner","type":"address","indexed":true,"internalType":"address"}],"anonymous":false},{"type":"event","name":"TokensAndETHRecovered","inputs":[{"name":"tokenAmount","type":"uint256","indexed":false,"internalType":"uint256"},{"name":"ethAmount","type":"uint256","indexed":false,"internalType":"uint256"}],"anonymous":false},{"type":"event","name":"Transfer","inputs":[{"name":"from","type":"address","indexed":true,"internalType":"address"},{"name":"to","type":"address","indexed":true,"internalType":"address"},{"name":"value","type":"uint256","indexed":false,"internalType":"uint256"}],"anonymous":false},{"type":"event","name":"Upgraded","inputs":[{"name":"implementation","type":"address","indexed":true,"internalType":"address"}],"anonymous":false}],"bytecode":{"object":"0x60a080604052346100315730608052612675908161003782396080518181816108ae015281816109ae01526114890152f35b600080fdfe608080604052600436101561001357600080fd5b60003560e01c90816306fdde031461180a57508063095ea7b3146117e45780631694505e146117b757806318160ddd1461179957806323b872dd146117345780632d83811914611716578063313ce567146116f55780633659cfe61461146457806342966c6814611327578063449ad6fb14610c6a57806349bd5a5e14610c415780634a74bb0214610c1e5780634f1ef2861461095f57806352d1902d1461089b5780635342acb41461085c5780636612e66f14610809578063679aefce146107e757806370a08231146107bc578063715018a61461075f5780638582c913146107415780638c0b5e22146107235780638da5cb5b146106fa57806395d89b41146106295780639758f61d146105dd57806398118cb4146105bf578063a071dcf4146105a1578063a12c9687146104a4578063a9059cbb14610473578063c112694b14610311578063d12a7688146102f3578063dd62ed3e146102a2578063e395382b14610281578063ec28438a14610252578063f2fde38b146101c35763fce589d8146101a057600080fd5b346101be5760003660031901126101be57602060d754604051908152f35b600080fd5b346101be5760203660031901126101be576101dc6118e6565b6101e4612113565b6001600160a01b038116156101fe576101fc9061216b565b005b60405162461bcd60e51b815260206004820152602660248201527f4f776e61626c653a206e6577206f776e657220697320746865207a65726f206160448201526564647265737360d01b6064820152608490fd5b346101be5760203660031901126101be5761026b612113565b606461027b60043560c954611b5c565b0460d855005b346101be5760003660031901126101be5761029a612113565b6101fc6121b4565b346101be5760403660031901126101be576102bb6118e6565b6102c36118fc565b9060018060a01b0380911660005260d1602052604060002091166000526020526020604060002054604051908152f35b346101be5760003660031901126101be57602060d954604051908152f35b346101be5760403660031901126101be57600435602435610330612113565b816103f8575b80158015610371575b7fbb99502bbb5b82314b7d97de4843417e975d2abacd250e4d9398e9704160b3486040848482519182526020820152a1005b8147106103b3576000808084819460018060a01b03609754169083906103aa575bf11561039e578261033f565b6040513d6000823e3d90fd5b506108fc610392565b60405162461bcd60e51b815260206004820152601e60248201527f4e6f7420656e6f7567682045544820696e2074686520636f6e747261637400006044820152606490fd5b8161040230611be7565b106104245760975461041f9083906001600160a01b031630611d11565b610336565b60405162461bcd60e51b815260206004820152602160248201527f4e6f7420656e6f75676820746f6b656e7320696e2074686520636f6e747261636044820152601d60fa1b6064820152608490fd5b346101be5760403660031901126101be5761049961048f6118e6565b6024359033611d11565b602060405160018152f35b346101be5760403660031901126101be5760043567ffffffffffffffff8082116101be57366023830112156101be57816004013590811161058b5760058160051b92602093604051936104f98683018661192e565b8452602485850191830101913683116101be57602401905b82821061056c575050506105236119c1565b61052b612113565b60005b83518110156101fc5780831b84018501516001600160a01b0316600090815260d2865260409020805460ff191660ff8415151617905560010161052e565b81356001600160a01b03811681036101be578152908501908501610511565b634e487b7160e01b600052604160045260246000fd5b346101be5760003660031901126101be57602060d554604051908152f35b346101be5760003660031901126101be57602060d654604051908152f35b346101be5760603660031901126101be576044356024356004356105ff612113565b61061e6064610617856106128686611b6f565b611b6f565b1115611b7c565b60d55560d65560d755005b346101be5760003660031901126101be57604051600060cd5461064b816119d0565b808452906020906001908181169081156106d05750600114610688575b610684856106788187038261192e565b6040519182918261189d565b0390f35b60cd600090815293506000805160206125c08339815191525b8385106106bd5750505050810160200161067882610684610668565b80548686018401529382019381016106a1565b8695506106849693506020925061067894915060ff191682840152151560051b8201019293610668565b346101be5760003660031901126101be576097546040516001600160a01b039091168152602090f35b346101be5760003660031901126101be57602060d854604051908152f35b346101be5760003660031901126101be57602060cb54604051908152f35b346101be5760003660031901126101be57610778612113565b609780546001600160a01b031981169091556000906001600160a01b03167f8be0079c531659141344cd1fd0a4f28419497f9722a3daafe3b4186f6b6457e08280a3005b346101be5760203660031901126101be5760206107df6107da6118e6565b611be7565b604051908152f35b346101be5760003660031901126101be5760206107df60ca5460c95490611a17565b346101be5760403660031901126101be576101fc6108256118e6565b61082d6119c1565b90610836612113565b60018060a01b031660005260d260205260406000209060ff801983541691151516179055565b346101be5760203660031901126101be576001600160a01b0361087d6118e6565b1660005260d2602052602060ff604060002054166040519015158152f35b346101be5760003660031901126101be577f00000000000000000000000000000000000000000000000000000000000000006001600160a01b031630036108f45760206040516000805160206125e08339815191528152f35b60405162461bcd60e51b815260206004820152603860248201527f555550535570677261646561626c653a206d757374206e6f742062652063616c60448201527f6c6564207468726f7567682064656c656761746563616c6c00000000000000006064820152608490fd5b60403660031901126101be576109736118e6565b60243567ffffffffffffffff81116101be57366023820112156101be576109a490369060248160040135910161196c565b6001600160a01b037f0000000000000000000000000000000000000000000000000000000000000000811691906109dd30841415611a9a565b6109fa6000805160206125e0833981519152938285541614611afb565b610a02612113565b7f4910fdfa16fed3260ed0e7147f7cc6da11a60208b5b9406d12a635614ffd91435460ff1615610a38575050506101fc9061249a565b8316604051926352d1902d60e01b84526020938481600481865afa60009181610bef575b50610abd5760405162461bcd60e51b815260048101869052602e60248201527f45524331393637557067726164653a206e657720696d706c656d656e7461746960448201526d6f6e206973206e6f74205555505360901b6064820152608490fd5b93929303610b9857610ace8461249a565b7fbc7cd75a20ee27fd9adebab32041f755214dbc6bffa90cc0225b39da2e5c2d3b600080a2815115801590610b90575b610b0457005b6101fc9260008060405194610b1886611912565b602786527f416464726573733a206c6f772d6c6576656c2064656c65676174652063616c6c85870152660819985a5b195960ca1b60408701528481519101845af4903d15610b87573d610b6a81611950565b90610b78604051928361192e565b8152600081943d92013e61252a565b6060925061252a565b506001610afe565b60405162461bcd60e51b815260048101839052602960248201527f45524331393637557067726164653a20756e737570706f727465642070726f786044820152681a58589b195555525160ba1b6064820152608490fd5b9091508581813d8311610c17575b610c07818361192e565b810103126101be57519087610a5c565b503d610bfd565b346101be5760003660031901126101be57602060ff60da54166040519015158152f35b346101be5760003660031901126101be5760db546040516001600160a01b039091168152602090f35b346101be576101203660031901126101be5760043567ffffffffffffffff81116101be57610c9c9036906004016119a3565b60243567ffffffffffffffff81116101be57610cbc9036906004016119a3565b610104356001600160a01b03811690036101be576000549060ff8260081c16159182809361131a575b8015611303575b156112a75760ff19811660011760005582611295575b50610d1b606461061760a4356106126084358435611b6f565b610d3560ff60005460081c16610d30816120b3565b6120b3565b610d3e3361216b565b610d4f60ff60005460081c166120b3565b825167ffffffffffffffff811161058b57610d6b60cc546119d0565b601f811161122c575b506020601f82116001146111b857819293946000926111ad575b50508160011b916000199060031b1c19161760cc555b80519067ffffffffffffffff821161058b578190610dc360cd546119d0565b601f8111611139575b50602090601f83116001146110c1576000926110b6575b50508160011b916000199060031b1c19161760cd555b600660ff1960ce54161760ce55620f424080604435026044358104821460443515171561108a578060c95580156110a0576000190619908160ca5560643560d55560843560d65560a43560d7558060c4350260c4358104821460c43515171561108a5760d85560e43580820291811591830414171561108a5760d95533600090815260cf60209081526040918290209290925560da805462010000600160b01b03191661010435601090811b62010000600160b01b03169190911791829055915163c45a015560e01b815292911c6001600160a01b03169082600481845afa90811561039e57600492600092611068575b50602090604051938480926315ab88c960e31b82525afa90811561039e576044602092600094859161104b575b506040516364e329cb60e11b81523060048201526001600160a01b0391821660248201529485938492165af190811561039e5760009161101c575b5060018060a01b03166bffffffffffffffffffffffff60a01b60db54161760db553360005260d26020526040600020600160ff19825416179055306000526040600020600160ff1982541617905560018060a01b0361010435166000526040600020600160ff1982541617905560c954604051908152600060008051602061260083398151915260203393a3610fe457005b61ff0019600054166000557f7f26b83ff96e1f2b6a682f133852f6798a09c465da95921460cefb3847402498602060405160018152a1005b61103e915060203d602011611044575b611036818361192e565b810190611bc8565b82610f52565b503d61102c565b6110629150843d861161104457611036818361192e565b86610f17565b602091925061108390823d841161104457611036818361192e565b9190610eea565b634e487b7160e01b600052601160045260246000fd5b634e487b7160e01b600052601260045260246000fd5b015190508380610de3565b925060cd6000526000805160206125c0833981519152906000935b601f198416851061111e576001945083601f19811610611105575b505050811b0160cd55610df9565b015160001960f88460031b161c191690558380806110f7565b818101518355602094850194600190930192909101906110dc565b90915060cd600052601f830160051c6000805160206125c08339815191520160208410611198575b908392915b601f820160051c6000805160206125c08339815191520181106111895750610dcc565b60008155849350600101611166565b506000805160206125c0833981519152611161565b015190508480610d8e565b60cc6000526000805160206126208339815191529060005b601f19841681106112145750600193949583601f198116106111fb575b505050811b0160cc55610da4565b015160001960f88460031b161c191690558480806111ed565b9091602060018192858a0151815501930191016111d0565b60cc600052601f820160051c6000805160206126208339815191520160208310611280575b601f820160051c6000805160206126208339815191520181106112745750610d74565b60008155600101611251565b50600080516020612620833981519152611251565b61ffff19166101011760005583610d02565b60405162461bcd60e51b815260206004820152602e60248201527f496e697469616c697a61626c653a20636f6e747261637420697320616c72656160448201526d191e481a5b9a5d1a585b1a5e995960921b6064820152608490fd5b50303b158015610cec5750600160ff821614610cec565b50600160ff821610610ce5565b346101be576020806003193601126101be5760043580156114115761135a61135460ca5460c95490611a17565b82611b5c565b3360005260cf835280604060002054106113c1576000926113b36000805160206126008339815191529233865260cf83526040862061139a828254611a0a565b90556113a88560c954611a0a565b60c95560ca54611a0a565b60ca556040519283523392a3005b60405162461bcd60e51b815260048101849052602260248201527f45524332303a206275726e20616d6f756e7420657863656564732062616c616e604482015261636560f01b6064820152608490fd5b60405162461bcd60e51b815260048101839052602560248201527f4275726e20616d6f756e74206d7573742062652067726561746572207468616e604482015264207a65726f60d81b6064820152608490fd5b346101be576020806003193601126101be5761147e6118e6565b6001600160a01b03917f000000000000000000000000000000000000000000000000000000000000000083166114b630821415611a9a565b6114d36000805160206125e0833981519152918583541614611afb565b6114db612113565b604051908282019482861067ffffffffffffffff87111761058b57856040526000835260ff7f4910fdfa16fed3260ed0e7147f7cc6da11a60208b5b9406d12a635614ffd9143541660001461153857505050506101fc915061249a565b8492939416906040516352d1902d60e01b81528581600481865afa600091816116c6575b506115bd5760405162461bcd60e51b815260048101879052602e60248201527f45524331393637557067726164653a206e657720696d706c656d656e7461746960448201526d6f6e206973206e6f74205555505360901b6064820152608490fd5b9493940361166f576115ce8261249a565b7fbc7cd75a20ee27fd9adebab32041f755214dbc6bffa90cc0225b39da2e5c2d3b600080a2825115801590611667575b61160457005b6000806101fc956040519561161887611912565b602787527f416464726573733a206c6f772d6c6576656c2064656c65676174652063616c6c86880152660819985a5b195960ca1b60408801525190845af4903d15610b87573d610b6a81611950565b5060006115fe565b60405162461bcd60e51b815260048101849052602960248201527f45524331393637557067726164653a20756e737570706f727465642070726f786044820152681a58589b195555525160ba1b6064820152608490fd5b9091508681813d83116116ee575b6116de818361192e565b810103126101be5751908861155c565b503d6116d4565b346101be5760003660031901126101be57602060ff60ce5416604051908152f35b346101be5760203660031901126101be5760206107df600435611a21565b346101be5760603660031901126101be576104996117506118e6565b61179161175b6118fc565b611769604435809285611d11565b60018060a01b03831660005260d1602052604060002033600052602052604060002054611a0a565b903390611c27565b346101be5760003660031901126101be57602060c954604051908152f35b346101be5760003660031901126101be5760da5460405160109190911c6001600160a01b03168152602090f35b346101be5760403660031901126101be576104996118006118e6565b6024359033611c27565b346101be5760003660031901126101be57600060cc54611829816119d0565b808452906020906001908181169081156106d0575060011461185557610684856106788187038261192e565b60cc600090815293506000805160206126208339815191525b83851061188a5750505050810160200161067882610684610668565b805486860184015293820193810161186e565b6020808252825181830181905290939260005b8281106118d257505060409293506000838284010152601f8019910116010190565b8181018601518482016040015285016118b0565b600435906001600160a01b03821682036101be57565b602435906001600160a01b03821682036101be57565b6060810190811067ffffffffffffffff82111761058b57604052565b90601f8019910116810190811067ffffffffffffffff82111761058b57604052565b67ffffffffffffffff811161058b57601f01601f191660200190565b92919261197882611950565b91611986604051938461192e565b8294818452818301116101be578281602093846000960137010152565b9080601f830112156101be578160206119be9335910161196c565b90565b6024359081151582036101be57565b90600182811c92168015611a00575b60208310146119ea57565b634e487b7160e01b600052602260045260246000fd5b91607f16916119df565b9190820391821161108a57565b81156110a0570490565b60ca5490818111611a4257611a3c6119be9260c95490611a17565b90611a17565b60405162461bcd60e51b815260206004820152602a60248201527f416d6f756e74206d757374206265206c657373207468616e20746f74616c207260448201526965666c656374696f6e7360b01b6064820152608490fd5b15611aa157565b60405162461bcd60e51b815260206004820152602c60248201527f46756e6374696f6e206d7573742062652063616c6c6564207468726f7567682060448201526b19195b1959d85d1958d85b1b60a21b6064820152608490fd5b15611b0257565b60405162461bcd60e51b815260206004820152602c60248201527f46756e6374696f6e206d7573742062652063616c6c6564207468726f7567682060448201526b6163746976652070726f787960a01b6064820152608490fd5b8181029291811591840414171561108a57565b9190820180921161108a57565b15611b8357565b60405162461bcd60e51b815260206004820152601f60248201527f546f74616c2066656573206d757374206e6f74206578636565642031303025006044820152606490fd5b908160209103126101be57516001600160a01b03811681036101be5790565b6001600160a01b0316600090815260d3602052604090205460ff16611c195760cf6020526119be604060002054611a21565b60d060205260406000205490565b6001600160a01b03908116918215611ccd5716918215611c885760207f8c5be1e5ebec7d5bd14f71427d1e84f3dd0314c0f7b2291e5b200ac8c7c3b925918360005260d18252604060002085600052825280604060002055604051908152a3565b60405162461bcd60e51b815260206004820152601e60248201527f45524332303a20617070726f766520746f207a65726f206164647265737300006044820152606490fd5b606460405162461bcd60e51b815260206004820152602060248201527f45524332303a20617070726f76652066726f6d207a65726f20616464726573736044820152fd5b9192916001600160a01b039190821690811561206457821691821561201f578415611fc85760da549060ff82169182611fb9575b5081611faa575b5080611f96575b611f89575b600081815260209060d28252604060ff8183205416159182611f77575b8792611df4575b611da760008051602061260083398151915295969798611da160ca5460c95490611a17565b90611b5c565b86825260cf8552611dbc838320918254611a0a565b9055611deb82611dda611dd460ca5460c95490611a17565b86611b5c565b9289815260cf875220918254611b6f565b905551908152a3565b91506064611e0460d55489611b5c565b04916064611e1460d6548a611b5c565b046064611e2360d7548b611b5c565b0490611e33826106128388611b6f565b8a8111611f295787611da7938c93611e5e87946000805160206126008339815191529c9d9e9f611a0a565b9880611ef6575b5080611ec6575b508881611e83575b50505050989796955050611d7c565b81611eb48c9360ca54611eac60c95491611ea6611ea08483611a17565b85611b5c565b90611a0a565b60ca55611a0a565b60c9558851908152a382883888611e74565b611ed990611da160ca5460c95490611a17565b30845260cf8a52611eee888520918254611b6f565b905538611e6c565b611f2090611f1560ca54611ea6611f0f60c95483611a17565b84611b5c565b60ca5560cb54611b6f565b60cb5538611e65565b845162461bcd60e51b815260048101889052602160248201527f546f74616c206665657320657863656564207472616e7366657220616d6f756e6044820152601d60fa1b6064820152608490fd5b8581528181205460ff16159250611d75565b611f916121b4565b611d58565b50611fa030611be7565b60d9541115611d53565b905060db541681141538611d4c565b60081c60ff1615915038611d45565b60405162461bcd60e51b815260206004820152602960248201527f5472616e7366657220616d6f756e74206d7573742062652067726561746572206044820152687468616e207a65726f60b81b6064820152608490fd5b60405162461bcd60e51b815260206004820152601f60248201527f45524332303a207472616e7366657220746f207a65726f2061646472657373006044820152606490fd5b60405162461bcd60e51b815260206004820152602160248201527f45524332303a207472616e736665722066726f6d207a65726f206164647265736044820152607360f81b6064820152608490fd5b156120ba57565b60405162461bcd60e51b815260206004820152602b60248201527f496e697469616c697a61626c653a20636f6e7472616374206973206e6f74206960448201526a6e697469616c697a696e6760a81b6064820152608490fd5b6097546001600160a01b0316330361212757565b606460405162461bcd60e51b815260206004820152602060248201527f4f776e61626c653a2063616c6c6572206973206e6f7420746865206f776e65726044820152fd5b609780546001600160a01b039283166001600160a01b0319821681179092559091167f8be0079c531659141344cd1fd0a4f28419497f9722a3daafe3b4186f6b6457e0600080a3565b6121bd30611be7565b60d95490816000911061245f576001916121db8160011c8092611a0a565b9047926040928351946121ed86611912565b60028652602095868101948636873781511561244b5730865260da5487516315ab88c960e31b815260049a6001600160a01b039892909160109190911c8916908b818e81855afa908115612441578991612424575b508551600110156124115761225f918a8692168c88015230611c27565b8760da5460101c1692833b1561240d57895163791ac94760e01b8152808d01919091526024810188905260a06044820152935160a4850181905287938593909260c4850192868e5b8282106123f15750505050508383809230606483015242608483015203925af180156123e7576123b8575b509060c46122e260609347611a0a565b916122f5818760da5460101c1630611c27565b8560da5460101c169560975416928751968794859363f305d71960e01b8552308d860152602485015287604485015287606485015260848401524260a48401525af1918261238a575b5050612385575162461bcd60e51b815291820152601960248201527f4c6971756964697479206164646974696f6e206661696c656400000000000000604482015260649150fd5b505050565b606090813d83116123b1575b6123a0818361192e565b810103126123ae578061233e565b80fd5b503d612396565b67ffffffffffffffff81949294116123d45785529160c46122d2565b634e487b7160e01b825260418852602482fd5b86513d86823e3d90fd5b84518e1686528c9850899750948501949093019282018e6122a7565b8780fd5b634e487b7160e01b895260328d52602489fd5b61243b91508c8d3d1061104457611036818361192e565b38612242565b8b513d8b823e3d90fd5b634e487b7160e01b85526032600452602485fd5b60405162461bcd60e51b8152602060048201526013602482015272496e73756666696369656e7420746f6b656e7360681b6044820152606490fd5b803b156124cf576000805160206125e083398151915280546001600160a01b0319166001600160a01b03909216919091179055565b60405162461bcd60e51b815260206004820152602d60248201527f455243313936373a206e657720696d706c656d656e746174696f6e206973206e60448201526c1bdd08184818dbdb9d1c9858dd609a1b6064820152608490fd5b9192901561258c575081511561253e575090565b3b156125475790565b60405162461bcd60e51b815260206004820152601d60248201527f416464726573733a2063616c6c20746f206e6f6e2d636f6e74726163740000006044820152606490fd5b82519091501561259f5750805190602001fd5b60405162461bcd60e51b81529081906125bb906004830161189d565b0390fdfe83978b4c69c48dd978ab43fe30f077615294f938fb7f936d9eb340e51ea7db2e360894a13ba1a3210667c828492db98dca3e2076cc3735a920a3ca505d382bbcddf252ad1be2c89b69c2b068fc378daa952ba7f163c4a11628f55a4df523b3ef47197230e1e4b29fc0bd84d7d78966c0925452aff72a2a121538b102457e9ebea2646970667358221220c1aa8bf9406439ff9f4f0997a78e12e2816bab5620c87843f51f137a135a3ca264736f6c63430008160033","linkReferences":{}},"methodIdentifiers":{"allowance(address,address)":"dd62ed3e","approve(address,uint256)":"095ea7b3","balanceOf(address)":"70a08231","burn(uint256)":"42966c68","burnFee()":"fce589d8","decimals()":"313ce567","getRate()":"679aefce","initialize(string,string,uint256,uint256,uint256,uint256,uint256,uint256,address)":"449ad6fb","isExcludedFromFee(address)":"5342acb4","liquidityFee()":"98118cb4","manualAddLiquidity()":"e395382b","maxTxAmount()":"8c0b5e22","name()":"06fdde03","numTokensSellToAddToLiquidity()":"d12a7688","owner()":"8da5cb5b","proxiableUUID()":"52d1902d","recoverTokensAndETH(uint256,uint256)":"c112694b","renounceOwnership()":"715018a6","setExcludedFromFee(address,bool)":"6612e66f","setExcludedFromFeeBatch(address[],bool)":"a12c9687","setMaxTxAmount(uint256)":"ec28438a","setTaxFees(uint256,uint256,uint256)":"9758f61d","swapAndLiquifyEnabled()":"4a74bb02","symbol()":"95d89b41","taxFee()":"a071dcf4","tokenFromReflection(uint256)":"2d838119","totalFeesDistributed()":"8582c913","totalSupply()":"18160ddd","transfer(address,uint256)":"a9059cbb","transferFrom(address,address,uint256)":"23b872dd","transferOwnership(address)":"f2fde38b","uniswapV2Pair()":"49bd5a5e","uniswapV2Router()":"1694505e","upgradeTo(address)":"3659cfe6","upgradeToAndCall(address,bytes)":"4f1ef286"},"id":0}