{"abi":[{"type":"constructor","inputs":[{"name":"tokenAddress","type":"address","internalType":"address"},{"name":"ratePhase1","type":"uint256","internalType":"uint256"},{"name":"ratePhase2","type":"uint256","internalType":"uint256"},{"name":"ratePhase3","type":"uint256","internalType":"uint256"},{"name":"_tokensAvailable","type":"uint256","internalType":"uint256"},{"name":"_maxTokensBuy","type":"uint256","internalType":"uint256"}],"stateMutability":"nonpayable"},{"type":"receive","stateMutability":"payable"},{"type":"function","name":"addToWhitelist","inputs":[{"name":"account","type":"address","internalType":"address"}],"outputs":[],"stateMutability":"nonpayable"},{"type":"function","name":"buyTokens","inputs":[],"outputs":[],"stateMutability":"payable"},{"type":"function","name":"currentPhase","inputs":[],"outputs":[{"name":"","type":"uint8","internalType":"enum Phase"}],"stateMutability":"view"},{"type":"function","name":"endPreSale","inputs":[],"outputs":[],"stateMutability":"nonpayable"},{"type":"function","name":"initializePreSale","inputs":[],"outputs":[],"stateMutability":"nonpayable"},{"type":"function","name":"maxTokensBuy","inputs":[],"outputs":[{"name":"","type":"uint256","internalType":"uint256"}],"stateMutability":"view"},{"type":"function","name":"owner","inputs":[],"outputs":[{"name":"","type":"address","internalType":"address"}],"stateMutability":"view"},{"type":"function","name":"phaseRates","inputs":[{"name":"","type":"uint8","internalType":"enum Phase"}],"outputs":[{"name":"","type":"uint256","internalType":"uint256"}],"stateMutability":"view"},{"type":"function","name":"preSaleInitialized","inputs":[],"outputs":[{"name":"","type":"bool","internalType":"bool"}],"stateMutability":"view"},{"type":"function","name":"removeFromWhitelist","inputs":[{"name":"account","type":"address","internalType":"address"}],"outputs":[],"stateMutability":"nonpayable"},{"type":"function","name":"renounceOwnership","inputs":[],"outputs":[],"stateMutability":"nonpayable"},{"type":"function","name":"token","inputs":[],"outputs":[{"name":"","type":"address","internalType":"contract IERC20"}],"stateMutability":"view"},{"type":"function","name":"tokensAvailable","inputs":[],"outputs":[{"name":"","type":"uint256","internalType":"uint256"}],"stateMutability":"view"},{"type":"function","name":"tokensPurchasedByAddress","inputs":[{"name":"","type":"address","internalType":"address"}],"outputs":[{"name":"","type":"uint256","internalType":"uint256"}],"stateMutability":"view"},{"type":"function","name":"tokensRemaining","inputs":[],"outputs":[{"name":"","type":"uint256","internalType":"uint256"}],"stateMutability":"view"},{"type":"function","name":"tokensSold","inputs":[],"outputs":[{"name":"","type":"uint256","internalType":"uint256"}],"stateMutability":"view"},{"type":"function","name":"totalBNBReceived","inputs":[],"outputs":[{"name":"","type":"uint256","internalType":"uint256"}],"stateMutability":"view"},{"type":"function","name":"transferOwnership","inputs":[{"name":"newOwner","type":"address","internalType":"address"}],"outputs":[],"stateMutability":"nonpayable"},{"type":"function","name":"updateMaxTokensBuy","inputs":[{"name":"newLimit","type":"uint256","internalType":"uint256"}],"outputs":[],"stateMutability":"nonpayable"},{"type":"function","name":"updatePhase","inputs":[{"name":"newPhase","type":"uint8","internalType":"enum Phase"}],"outputs":[],"stateMutability":"nonpayable"},{"type":"function","name":"updatePhaseRate","inputs":[{"name":"phase","type":"uint8","internalType":"enum Phase"},{"name":"newRate","type":"uint256","internalType":"uint256"}],"outputs":[],"stateMutability":"nonpayable"},{"type":"function","name":"whitelist","inputs":[{"name":"","type":"address","internalType":"address"}],"outputs":[{"name":"","type":"bool","internalType":"bool"}],"stateMutability":"view"},{"type":"function","name":"withdrawFunds","inputs":[],"outputs":[],"stateMutability":"nonpayable"},{"type":"event","name":"AddressWhitelisted","inputs":[{"name":"account","type":"address","indexed":true,"internalType":"address"}],"anonymous":false},{"type":"event","name":"FundsWithdrawn","inputs":[{"name":"owner","type":"address","indexed":true,"internalType":"address"},{"name":"amount","type":"uint256","indexed":false,"internalType":"uint256"}],"anonymous":false},{"type":"event","name":"MaxTokensBuyUpdated","inputs":[{"name":"newLimit","type":"uint256","indexed":false,"internalType":"uint256"}],"anonymous":false},{"type":"event","name":"OwnershipTransferred","inputs":[{"name":"previousOwner","type":"address","indexed":true,"internalType":"address"},{"name":"newOwner","type":"address","indexed":true,"internalType":"address"}],"anonymous":false},{"type":"event","name":"PhaseUpdated","inputs":[{"name":"newPhase","type":"uint8","indexed":false,"internalType":"enum Phase"}],"anonymous":false},{"type":"event","name":"PreSaleEnded","inputs":[],"anonymous":false},{"type":"event","name":"PreSaleInitialized","inputs":[{"name":"tokensAvailable","type":"uint256","indexed":false,"internalType":"uint256"}],"anonymous":false},{"type":"event","name":"TokensPurchased","inputs":[{"name":"buyer","type":"address","indexed":true,"internalType":"address"},{"name":"amount","type":"uint256","indexed":false,"internalType":"uint256"},{"name":"cost","type":"uint256","indexed":false,"internalType":"uint256"}],"anonymous":false},{"type":"event","name":"WhitelistUpdated","inputs":[{"name":"account","type":"address","indexed":true,"internalType":"address"},{"name":"status","type":"bool","indexed":false,"internalType":"bool"}],"anonymous":false},{"type":"error","name":"InsufficientFunds","inputs":[{"name":"required","type":"uint256","internalType":"uint256"},{"name":"available","type":"uint256","internalType":"uint256"}]},{"type":"error","name":"InvalidPhase","inputs":[{"name":"message","type":"string","internalType":"string"},{"name":"phase","type":"uint8","internalType":"enum Phase"}]},{"type":"error","name":"InvalidPhaseRate","inputs":[{"name":"message","type":"string","internalType":"string"},{"name":"rate","type":"uint256","internalType":"uint256"}]},{"type":"error","name":"InvalidTokenAmount","inputs":[{"name":"message","type":"string","internalType":"string"},{"name":"amount","type":"uint256","internalType":"uint256"}]},{"type":"error","name":"MaxTokensBuyExceeded","inputs":[{"name":"allowed","type":"uint256","internalType":"uint256"},{"name":"attempted","type":"uint256","internalType":"uint256"}]},{"type":"error","name":"NoTokensAvailable","inputs":[{"name":"message","type":"string","internalType":"string"},{"name":"available","type":"uint256","internalType":"uint256"},{"name":"requested","type":"uint256","internalType":"uint256"}]},{"type":"error","name":"OwnableInvalidOwner","inputs":[{"name":"owner","type":"address","internalType":"address"}]},{"type":"error","name":"OwnableUnauthorizedAccount","inputs":[{"name":"account","type":"address","internalType":"address"}]},{"type":"error","name":"PreSaleAlreadyInitialized","inputs":[{"name":"message","type":"string","internalType":"string"},{"name":"tokensAvailable","type":"uint256","internalType":"uint256"}]},{"type":"error","name":"PreSaleNotActive","inputs":[]},{"type":"error","name":"ReentrancyGuardReentrantCall","inputs":[]},{"type":"error","name":"WithdrawalFailed","inputs":[]},{"type":"error","name":"ZeroAddress","inputs":[]}],"bytecode":{"object":"0x60803461014957601f61126b38819003918201601f191683019291906001600160401b0384118385101761014e578160c092849260409687528339810103126101495780516001600160a01b039190828116808203610149576020830151858401519060608501519360a060808701519601519633156101315760008054336001600160a01b03198216811783558b51929792939091167f8be0079c531659141344cd1fd0a4f28419497f9722a3daafe3b4186f6b6457e08880a360018055156101225750908793929160025490610100600160a81b039060081b1690610100600160a81b031916176002558280526005602052838320556001825282822055600281522055600355600a5560ff19600254166002555161110690816101658239f35b63d92e233d60e01b8152600490fd5b8851631e4fbdf760e01b815260006004820152602490fd5b600080fd5b634e487b7160e01b600052604160045260246000fdfe608060409080825260049081361015610362575b50361561001f57600080fd5b610027611081565b60ff600254168181101561034d576003811461033e5734156103225761004c8161100d565b549081156102d1575080340290348204036102bc57670de0b6b3a76400009004916003548084116102505760003381526020916008835260ff8483205416600014610248576000195b60098452806100a7888786205461105e565b116102185750858103908111610205576003556100c585855461105e565b84556100d33460065461105e565b600655338152600982528281206100eb86825461105e565b905580826001600160a01b0360025460081c16604486518095819363a9059cbb60e01b8352338b8401528b60248401525af19182156101f95781926101b8575b505015610168577f8fafebcaf9d154343dad25669bfa277f4fbacd7ac6b0c4fed522580e040a0f339250815193845234908401523392a260018055005b506101b490519283926393255a7360e01b845283019190604083526016604084015275024b73b30b634b2103a37b5b2b71030b6b7bab73a1d160551b6060840152602060808401930152565b0390fd5b9091508281813d83116101f2575b6101d08183611026565b810103126101ee57519081151582036101eb5750388061012b565b80fd5b5080fd5b503d6101c6565b508351903d90823e3d90fd5b634e487b7160e01b825260118552602482fd5b926044969150610231926009869233835252205461105e565b9151631227f42760e31b8152928301526024820152fd5b600a54610095565b606060c49492519363186c356d60e21b8552840152603560648401527f496e73756666696369656e7420746f6b656e7320617661696c61626c6520696e608484015274010383932b9b0b632971020bb30b4b630b136329d1605d1b60a484015260248301526044820152fd5b601182634e487b7160e01b6000525260246000fd5b6103209150836084945193634fa8b6f760e11b8552840152601e60448401527f496e76616c6964207068617365207261746520666f722070686173653a20000060648401526024830190610fea565bfd5b506001604492519162fae2d560e21b8352820152346024820152fd5b5090516371e1355f60e11b8152fd5b602182634e487b7160e01b6000525260246000fd5b600090813560e01c908163055ad42e14610fc457508063103d6ed314610f925780631477095914610f6e57806324600fc314610e7c578063287294c814610e5d578063518ab2a814610e3e57806358ed2cc314610def57806360659a9214610c24578063715018a614610d9d5780638ab1d68114610d305780638da5cb5b14610d0a5780639b19251a14610ccb5780639e4137af14610c43578063c8b0812514610c24578063cf3d8e5314610b24578063d0febe4c146107fc578063ded362fe146107dd578063e43252d714610772578063ed3193d214610738578063ee2d2c68146105b4578063ee889ed01461052f578063f2fde38b146104925763fc0c546a036100135782346101ee57816003193601126101ee576020906001600160a01b0360025460081c169051908152f35b50913461052b57602036600319011261052b578135916001600160a01b0391828416809403610527576104c36110a4565b8315610511575050825473ffffffffffffffffffffffffffffffffffffffff19811683178455167f8be0079c531659141344cd1fd0a4f28419497f9722a3daafe3b4186f6b6457e08380a380f35b51631e4fbdf760e01b8152908101849052602490fd5b8480fd5b8280fd5b5091903461052b578260031936011261052b5761054a6110a4565b6002549160ff8316828110156105a1576003146105945760ff198316600317600255837fc82e6055d31de9b552cd0014f23a8b8ce120c288ed1afce01adb97150efc01858180a180f35b516371e1355f60e11b8152fd5b634e487b7160e01b855260218352602485fd5b50913461052b578260031936011261052b576105ce6110a4565b60075460ff81166106dd57602460206001600160a01b0360025460081c168451928380926370a0823160e01b825230898301525afa9081156106d35785916106a1575b506003549384821061065657857f52662d1a3131f7ba0d800fc07f2bc63113061f8c1307e917016493a232bc81506020878760018860ff19161760075551908152a180f35b6101b484519283926393255a7360e01b845283019190604083526016604084015275024b73b30b634b2103a37b5b2b71030b6b7bab73a1d160551b6060840152602060808401930152565b90506020813d6020116106cb575b816106bc60209383611026565b81010312610527575138610611565b3d91506106af565b83513d87823e3d90fd5b60a483836003549080519263ff61f1f360e01b8452830152602660448301527f5468652070726573616c6520416c726561647920696e697469616c697a65642060648301526503bb4ba341d160d51b60848301526024820152fd5b5091903461052b57602036600319011261052b57356001600160a01b03811680910361052b57828291602094526009845220549051908152f35b5091903461052b57602036600319011261052b5735906001600160a01b03821680920361052b576107a16110a4565b81835260086020528220805460ff191660011790557f4f783c179409b4127238bc9c990bc99b9a651666a0d20b51d6c42849eb88466d8280a280f35b5082346101ee57816003193601126101ee57602090600a549051908152f35b50918260031936011261052b57610811611081565b60ff6002541682811015610b115760038114610b03573415610ae7576108368161100d565b54908115610a9757508034029034820403610a8457670de0b6b3a764000090049160035490818411610a17573385526020916008835260ff8487205416600014610a0f576000195b600984528061089087878a205461105e565b116109f657508481039081116109e3576003556108ae84825461105e565b81556108bc3460065461105e565b600655338552600982528285206108d485825461105e565b905584826001600160a01b0360025460081c16604486518094819363a9059cbb60e01b835233888401528a60248401525af19081156109d957869161099f575b50156109525750907f8fafebcaf9d154343dad25669bfa277f4fbacd7ac6b0c4fed522580e040a0f3391815193845234908401523392a26001805580f35b916101b49150519283926393255a7360e01b845283019190604083526016604084015275024b73b30b634b2103a37b5b2b71030b6b7bab73a1d160551b6060840152602060808401930152565b90508281813d83116109d2575b6109b68183611026565b810103126109ce575180151581036109ce5738610914565b8580fd5b503d6109ac565b84513d88823e3d90fd5b634e487b7160e01b865260118252602486fd5b849150610231868389600960449833835252205461105e565b600a5461087e565b8360c492606085519363186c356d60e21b8552840152603560648401527f496e73756666696369656e7420746f6b656e7320617661696c61626c6520696e608484015274010383932b9b0b632971020bb30b4b630b136329d1605d1b60a484015260248301526044820152fd5b634e487b7160e01b845260118352602484fd5b8251634fa8b6f760e11b8152808501849052601e60448201527f496e76616c6964207068617365207261746520666f722070686173653a2000006064820152608491610320906024830190610fea565b815162fae2d560e21b8152600181850152346024820152604490fd5b50516371e1355f60e11b8152fd5b634e487b7160e01b845260218352602484fd5b50913461052b57602036600319011261052b5781359180831015610c2057610b4a6110a4565b6002549060ff821681811015610c0d5760038114610bfe578411801590610bf4575b610bb3575060ff191660ff831617600255517f05ac19f4e6db6fd8b645dd056e4842cd2f63e0c6f0568176c17ef60e3c16732d9160209190610baf908290610fea565ba180f35b8251634fa8b6f760e11b8152908101839052600f60448201526e024b73b30b634b210383430b9b29d1608d1b60648201526084906103206024820186610fea565b5060038414610b6c565b5082516371e1355f60e11b8152fd5b634e487b7160e01b865260218252602486fd5b8380fd5b5082346101ee57816003193601126101ee576020906003549051908152f35b5091903461052b578160031936011261052b5780359080821015610c205760243592610c6d6110a4565b8315610c82575050610c7e9061100d565b5580f35b805163c60dd43d60e01b815291820152601460448201527f496e76616c696420706861736520726174653a20000000000000000000000000606482015260248101839052608490fd5b5091903461052b57602036600319011261052b57356001600160a01b03811680910361052b57818360ff92602095526008855220541690519015158152f35b5082346101ee57816003193601126101ee576001600160a01b0360209254169051908152f35b5091903461052b57602036600319011261052b5735906001600160a01b03821680920361052b5760207ff93f9a76c1bf3444d22400a00cb9fe990e6abe9dbb333fda48859cfee864543d91610d836110a4565b83855260088252808520805460ff1916905551848152a280f35b50346101eb57806003193601126101eb57610db66110a4565b806001600160a01b038154811981168355167f8be0079c531659141344cd1fd0a4f28419497f9722a3daafe3b4186f6b6457e08280a380f35b5091903461052b57602036600319011261052b577fd62ff6c5039086f4f370d050bc58ed17716234ac8dfc95cf9b02b8d9fa162282916020913590610e326110a4565b81600a5551908152a180f35b5091903461052b578260031936011261052b5760209250549051908152f35b5082346101ee57816003193601126101ee576020906006549051908152f35b5091903461052b578260031936011261052b57610e97611081565b610e9f6110a4565b47908115610f53576001600160a01b03908480808086868254165af13d15610f4e573d67ffffffffffffffff8111610f3b57855190610ee8601f8201601f191660200183611026565b81528660203d92013e5b15610f2d57507feaff4b37086828766ad3268786972c0cd24259d4c87a80f9d3963a3c3d999b0d916020918554169351908152a26001805580f35b83516327fcd9d160e01b8152fd5b634e487b7160e01b875260418352602487fd5b610ef2565b906001604493519262fae2d560e21b84528301526024820152fd5b5082346101ee57816003193601126101ee5760209060ff6007541690519015158152f35b508290346101eb5760203660031901126101eb578235928310156101eb5750610fbc60209261100d565b549051908152f35b9050346101ee57816003193601126101ee5780610fe860209260ff60025416610fea565bf35b906004821015610ff75752565b634e487b7160e01b600052602160045260246000fd5b6004811015610ff7576000526005602052604060002090565b90601f8019910116810190811067ffffffffffffffff82111761104857604052565b634e487b7160e01b600052604160045260246000fd5b9190820180921161106b57565b634e487b7160e01b600052601160045260246000fd5b600260015414611092576002600155565b604051633ee5aeb560e01b8152600490fd5b6001600160a01b036000541633036110b857565b60405163118cdaa760e01b8152336004820152602490fdfea2646970667358221220941162b833a38657dac9a66beb82824fe3d489b7eb01abe30c175e34b1f6711364736f6c63430008160033","linkReferences":{}},"methodIdentifiers":{"addToWhitelist(address)":"e43252d7","buyTokens()":"d0febe4c","currentPhase()":"055ad42e","endPreSale()":"ee889ed0","initializePreSale()":"ee2d2c68","maxTokensBuy()":"ded362fe","owner()":"8da5cb5b","phaseRates(uint8)":"103d6ed3","preSaleInitialized()":"14770959","removeFromWhitelist(address)":"8ab1d681","renounceOwnership()":"715018a6","token()":"fc0c546a","tokensAvailable()":"60659a92","tokensPurchasedByAddress(address)":"ed3193d2","tokensRemaining()":"c8b08125","tokensSold()":"518ab2a8","totalBNBReceived()":"287294c8","transferOwnership(address)":"f2fde38b","updateMaxTokensBuy(uint256)":"58ed2cc3","updatePhase(uint8)":"cf3d8e53","updatePhaseRate(uint8,uint256)":"9e4137af","whitelist(address)":"9b19251a","withdrawFunds()":"24600fc3"},"id":2}