{"abi":[{"type":"constructor","inputs":[{"name":"tokenAddress","type":"address","internalType":"address"},{"name":"ratePhase1","type":"uint256","internalType":"uint256"},{"name":"ratePhase2","type":"uint256","internalType":"uint256"},{"name":"ratePhase3","type":"uint256","internalType":"uint256"},{"name":"_tokensAvailable","type":"uint256","internalType":"uint256"}],"stateMutability":"nonpayable"},{"type":"receive","stateMutability":"payable"},{"type":"function","name":"buyTokens","inputs":[],"outputs":[],"stateMutability":"payable"},{"type":"function","name":"currentPhase","inputs":[],"outputs":[{"name":"","type":"uint8","internalType":"enum CarameloPreSale.Phase"}],"stateMutability":"view"},{"type":"function","name":"endPreSale","inputs":[],"outputs":[],"stateMutability":"nonpayable"},{"type":"function","name":"initializePreSale","inputs":[],"outputs":[],"stateMutability":"nonpayable"},{"type":"function","name":"owner","inputs":[],"outputs":[{"name":"","type":"address","internalType":"address"}],"stateMutability":"view"},{"type":"function","name":"phaseRates","inputs":[{"name":"","type":"uint8","internalType":"enum CarameloPreSale.Phase"}],"outputs":[{"name":"","type":"uint256","internalType":"uint256"}],"stateMutability":"view"},{"type":"function","name":"preSaleInitialized","inputs":[],"outputs":[{"name":"","type":"bool","internalType":"bool"}],"stateMutability":"view"},{"type":"function","name":"renounceOwnership","inputs":[],"outputs":[],"stateMutability":"nonpayable"},{"type":"function","name":"token","inputs":[],"outputs":[{"name":"","type":"address","internalType":"contract IERC20"}],"stateMutability":"view"},{"type":"function","name":"tokensAvailable","inputs":[],"outputs":[{"name":"","type":"uint256","internalType":"uint256"}],"stateMutability":"view"},{"type":"function","name":"tokensRemaining","inputs":[],"outputs":[{"name":"","type":"uint256","internalType":"uint256"}],"stateMutability":"view"},{"type":"function","name":"tokensSold","inputs":[],"outputs":[{"name":"","type":"uint256","internalType":"uint256"}],"stateMutability":"view"},{"type":"function","name":"totalBNBReceived","inputs":[],"outputs":[{"name":"","type":"uint256","internalType":"uint256"}],"stateMutability":"view"},{"type":"function","name":"transferOwnership","inputs":[{"name":"newOwner","type":"address","internalType":"address"}],"outputs":[],"stateMutability":"nonpayable"},{"type":"function","name":"updatePhase","inputs":[{"name":"newPhase","type":"uint8","internalType":"enum CarameloPreSale.Phase"}],"outputs":[],"stateMutability":"nonpayable"},{"type":"function","name":"withdrawFunds","inputs":[],"outputs":[],"stateMutability":"nonpayable"},{"type":"event","name":"FundsWithdrawn","inputs":[{"name":"owner","type":"address","indexed":true,"internalType":"address"},{"name":"amount","type":"uint256","indexed":false,"internalType":"uint256"}],"anonymous":false},{"type":"event","name":"OwnershipTransferred","inputs":[{"name":"previousOwner","type":"address","indexed":true,"internalType":"address"},{"name":"newOwner","type":"address","indexed":true,"internalType":"address"}],"anonymous":false},{"type":"event","name":"PhaseUpdated","inputs":[{"name":"newPhase","type":"uint8","indexed":false,"internalType":"enum CarameloPreSale.Phase"}],"anonymous":false},{"type":"event","name":"PreSaleEnded","inputs":[],"anonymous":false},{"type":"event","name":"PreSaleInitialized","inputs":[{"name":"tokensAvailable","type":"uint256","indexed":false,"internalType":"uint256"}],"anonymous":false},{"type":"event","name":"TokensPurchased","inputs":[{"name":"buyer","type":"address","indexed":true,"internalType":"address"},{"name":"amount","type":"uint256","indexed":false,"internalType":"uint256"},{"name":"cost","type":"uint256","indexed":false,"internalType":"uint256"}],"anonymous":false},{"type":"error","name":"InsufficientFunds","inputs":[{"name":"required","type":"uint256","internalType":"uint256"},{"name":"available","type":"uint256","internalType":"uint256"}]},{"type":"error","name":"InvalidPhase","inputs":[]},{"type":"error","name":"InvalidTokenAmount","inputs":[]},{"type":"error","name":"NoTokensAvailable","inputs":[]},{"type":"error","name":"OwnableInvalidOwner","inputs":[{"name":"owner","type":"address","internalType":"address"}]},{"type":"error","name":"OwnableUnauthorizedAccount","inputs":[{"name":"account","type":"address","internalType":"address"}]},{"type":"error","name":"PreSaleAlreadyInitialized","inputs":[]},{"type":"error","name":"PreSaleNotActive","inputs":[]},{"type":"error","name":"WithdrawalFailed","inputs":[]},{"type":"error","name":"ZeroAddress","inputs":[]}],"bytecode":{"object":"0x60806040523480156200001157600080fd5b5060405162001880380380620018808339818101604052810190620000379190620003d7565b33600073ffffffffffffffffffffffffffffffffffffffff168173ffffffffffffffffffffffffffffffffffffffff1603620000ad5760006040517f1e4fbdf7000000000000000000000000000000000000000000000000000000008152600401620000a4919062000470565b60405180910390fd5b620000be816200026e60201b60201c565b50600073ffffffffffffffffffffffffffffffffffffffff168573ffffffffffffffffffffffffffffffffffffffff160362000126576040517fd92e233d00000000000000000000000000000000000000000000000000000000815260040160405180910390fd5b84600160006101000a81548173ffffffffffffffffffffffffffffffffffffffff021916908373ffffffffffffffffffffffffffffffffffffffff16021790555083600460008060038111156200018257620001816200048d565b5b60038111156200019757620001966200048d565b5b815260200190815260200160002081905550826004600060016003811115620001c557620001c46200048d565b5b6003811115620001da57620001d96200048d565b5b8152602001908152602001600020819055508160046000600260038111156200020857620002076200048d565b5b60038111156200021d576200021c6200048d565b5b8152602001908152602001600020819055508060028190555060008060146101000a81548160ff021916908360038111156200025e576200025d6200048d565b5b02179055505050505050620004bc565b60008060009054906101000a900473ffffffffffffffffffffffffffffffffffffffff169050816000806101000a81548173ffffffffffffffffffffffffffffffffffffffff021916908373ffffffffffffffffffffffffffffffffffffffff1602179055508173ffffffffffffffffffffffffffffffffffffffff168173ffffffffffffffffffffffffffffffffffffffff167f8be0079c531659141344cd1fd0a4f28419497f9722a3daafe3b4186f6b6457e060405160405180910390a35050565b600080fd5b600073ffffffffffffffffffffffffffffffffffffffff82169050919050565b6000620003648262000337565b9050919050565b620003768162000357565b81146200038257600080fd5b50565b60008151905062000396816200036b565b92915050565b6000819050919050565b620003b1816200039c565b8114620003bd57600080fd5b50565b600081519050620003d181620003a6565b92915050565b600080600080600060a08688031215620003f657620003f562000332565b5b6000620004068882890162000385565b95505060206200041988828901620003c0565b94505060406200042c88828901620003c0565b93505060606200043f88828901620003c0565b92505060806200045288828901620003c0565b9150509295509295909350565b6200046a8162000357565b82525050565b60006020820190506200048760008301846200045f565b92915050565b7f4e487b7100000000000000000000000000000000000000000000000000000000600052602160045260246000fd5b6113b480620004cc6000396000f3fe6080604052600436106100f75760003560e01c80638da5cb5b1161008a578063ee2d2c6811610059578063ee2d2c68146102d6578063ee889ed0146102ed578063f2fde38b14610304578063fc0c546a1461032d57610106565b80638da5cb5b1461024d578063c8b0812514610278578063cf3d8e53146102a3578063d0febe4c146102cc57610106565b8063287294c8116100c6578063287294c8146101b5578063518ab2a8146101e057806360659a921461020b578063715018a61461023657610106565b8063055ad42e1461010b578063103d6ed314610136578063147709591461017357806324600fc31461019e57610106565b3661010657610104610358565b005b600080fd5b34801561011757600080fd5b50610120610664565b60405161012d9190610e8c565b60405180910390f35b34801561014257600080fd5b5061015d60048036038101906101589190610ed1565b610677565b60405161016a9190610f17565b60405180910390f35b34801561017f57600080fd5b5061018861068f565b6040516101959190610f4d565b60405180910390f35b3480156101aa57600080fd5b506101b36106a2565b005b3480156101c157600080fd5b506101ca6107fa565b6040516101d79190610f17565b60405180910390f35b3480156101ec57600080fd5b506101f5610800565b6040516102029190610f17565b60405180910390f35b34801561021757600080fd5b50610220610806565b60405161022d9190610f17565b60405180910390f35b34801561024257600080fd5b5061024b61080c565b005b34801561025957600080fd5b50610262610820565b60405161026f9190610fa9565b60405180910390f35b34801561028457600080fd5b5061028d610849565b60405161029a9190610f17565b60405180910390f35b3480156102af57600080fd5b506102ca60048036038101906102c59190610ed1565b610853565b005b6102d4610358565b005b3480156102e257600080fd5b506102eb6109c7565b005b3480156102f957600080fd5b50610302610b49565b005b34801561031057600080fd5b5061032b60048036038101906103269190610ff0565b610c16565b005b34801561033957600080fd5b50610342610c9c565b60405161034f919061107c565b60405180910390f35b60038081111561036b5761036a610e15565b5b600060149054906101000a900460ff16600381111561038d5761038c610e15565b5b036103c4576040517fe3c26abe00000000000000000000000000000000000000000000000000000000815260040160405180910390fd5b6000340361040c576001346040517f03eb8b540000000000000000000000000000000000000000000000000000000081526004016104039291906110d2565b60405180910390fd5b6000600460008060149054906101000a900460ff16600381111561043357610432610e15565b5b600381111561044557610444610e15565b5b815260200190815260200160002054905060008103610490576040517f9a36fd9c00000000000000000000000000000000000000000000000000000000815260040160405180910390fd5b6000670de0b6b3a764000082346104a7919061112a565b6104b1919061119b565b90506002548111156104ef576040517fc4dc60e000000000000000000000000000000000000000000000000000000000815260040160405180910390fd5b806002600082825461050191906111cc565b92505081905550806003600082825461051a9190611200565b9250508190555034600560008282546105339190611200565b92505081905550600160009054906101000a900473ffffffffffffffffffffffffffffffffffffffff1673ffffffffffffffffffffffffffffffffffffffff1663a9059cbb33836040518363ffffffff1660e01b8152600401610597929190611234565b6020604051808303816000875af11580156105b6573d6000803e3d6000fd5b505050506040513d601f19601f820116820180604052508101906105da9190611289565b610610576040517f2160733900000000000000000000000000000000000000000000000000000000815260040160405180910390fd5b3373ffffffffffffffffffffffffffffffffffffffff167f8fafebcaf9d154343dad25669bfa277f4fbacd7ac6b0c4fed522580e040a0f3382346040516106589291906112b6565b60405180910390a25050565b600060149054906101000a900460ff1681565b60046020528060005260406000206000915090505481565b600660009054906101000a900460ff1681565b6106aa610cc2565b6000479050600081036106f7576001816040517f03eb8b540000000000000000000000000000000000000000000000000000000081526004016106ee9291906110d2565b60405180910390fd5b6000610701610820565b73ffffffffffffffffffffffffffffffffffffffff168260405161072490611310565b60006040518083038185875af1925050503d8060008114610761576040519150601f19603f3d011682016040523d82523d6000602084013e610766565b606091505b50509050806107a1576040517f27fcd9d100000000000000000000000000000000000000000000000000000000815260040160405180910390fd5b6107a9610820565b73ffffffffffffffffffffffffffffffffffffffff167feaff4b37086828766ad3268786972c0cd24259d4c87a80f9d3963a3c3d999b0d836040516107ee9190610f17565b60405180910390a25050565b60055481565b60035481565b60025481565b610814610cc2565b61081e6000610d49565b565b60008060009054906101000a900473ffffffffffffffffffffffffffffffffffffffff16905090565b6000600254905090565b61085b610cc2565b60038081111561086e5761086d610e15565b5b600060149054906101000a900460ff1660038111156108905761088f610e15565b5b036108c7576040517fe3c26abe00000000000000000000000000000000000000000000000000000000815260040160405180910390fd5b600060149054906101000a900460ff1660038111156108e9576108e8610e15565b5b8160038111156108fc576108fb610e15565b5b11158061092c575060038081111561091757610916610e15565b5b81600381111561092a57610929610e15565b5b145b15610963576040517f9a36fd9c00000000000000000000000000000000000000000000000000000000815260040160405180910390fd5b80600060146101000a81548160ff0219169083600381111561098857610987610e15565b5b02179055507f05ac19f4e6db6fd8b645dd056e4842cd2f63e0c6f0568176c17ef60e3c16732d816040516109bc9190610e8c565b60405180910390a150565b6109cf610cc2565b600660009054906101000a900460ff1615610a16576040517ff388953700000000000000000000000000000000000000000000000000000000815260040160405180910390fd5b6000600160009054906101000a900473ffffffffffffffffffffffffffffffffffffffff1673ffffffffffffffffffffffffffffffffffffffff166370a08231306040518263ffffffff1660e01b8152600401610a739190610fa9565b602060405180830381865afa158015610a90573d6000803e3d6000fd5b505050506040513d601f19601f82011682018060405250810190610ab49190611351565b9050600254811015610af2576040517f2160733900000000000000000000000000000000000000000000000000000000815260040160405180910390fd5b6001600660006101000a81548160ff0219169083151502179055507f52662d1a3131f7ba0d800fc07f2bc63113061f8c1307e917016493a232bc8150600254604051610b3e9190610f17565b60405180910390a150565b610b51610cc2565b600380811115610b6457610b63610e15565b5b600060149054906101000a900460ff166003811115610b8657610b85610e15565b5b03610bbd576040517fe3c26abe00000000000000000000000000000000000000000000000000000000815260040160405180910390fd5b6003600060146101000a81548160ff02191690836003811115610be357610be2610e15565b5b02179055507fc82e6055d31de9b552cd0014f23a8b8ce120c288ed1afce01adb97150efc018560405160405180910390a1565b610c1e610cc2565b600073ffffffffffffffffffffffffffffffffffffffff168173ffffffffffffffffffffffffffffffffffffffff1603610c905760006040517f1e4fbdf7000000000000000000000000000000000000000000000000000000008152600401610c879190610fa9565b60405180910390fd5b610c9981610d49565b50565b600160009054906101000a900473ffffffffffffffffffffffffffffffffffffffff1681565b610cca610e0d565b73ffffffffffffffffffffffffffffffffffffffff16610ce8610820565b73ffffffffffffffffffffffffffffffffffffffff1614610d4757610d0b610e0d565b6040517f118cdaa7000000000000000000000000000000000000000000000000000000008152600401610d3e9190610fa9565b60405180910390fd5b565b60008060009054906101000a900473ffffffffffffffffffffffffffffffffffffffff169050816000806101000a81548173ffffffffffffffffffffffffffffffffffffffff021916908373ffffffffffffffffffffffffffffffffffffffff1602179055508173ffffffffffffffffffffffffffffffffffffffff168173ffffffffffffffffffffffffffffffffffffffff167f8be0079c531659141344cd1fd0a4f28419497f9722a3daafe3b4186f6b6457e060405160405180910390a35050565b600033905090565b7f4e487b7100000000000000000000000000000000000000000000000000000000600052602160045260246000fd5b60048110610e5557610e54610e15565b5b50565b6000819050610e6682610e44565b919050565b6000610e7682610e58565b9050919050565b610e8681610e6b565b82525050565b6000602082019050610ea16000830184610e7d565b92915050565b600080fd5b60048110610eb957600080fd5b50565b600081359050610ecb81610eac565b92915050565b600060208284031215610ee757610ee6610ea7565b5b6000610ef584828501610ebc565b91505092915050565b6000819050919050565b610f1181610efe565b82525050565b6000602082019050610f2c6000830184610f08565b92915050565b60008115159050919050565b610f4781610f32565b82525050565b6000602082019050610f626000830184610f3e565b92915050565b600073ffffffffffffffffffffffffffffffffffffffff82169050919050565b6000610f9382610f68565b9050919050565b610fa381610f88565b82525050565b6000602082019050610fbe6000830184610f9a565b92915050565b610fcd81610f88565b8114610fd857600080fd5b50565b600081359050610fea81610fc4565b92915050565b60006020828403121561100657611005610ea7565b5b600061101484828501610fdb565b91505092915050565b6000819050919050565b600061104261103d61103884610f68565b61101d565b610f68565b9050919050565b600061105482611027565b9050919050565b600061106682611049565b9050919050565b6110768161105b565b82525050565b6000602082019050611091600083018461106d565b92915050565b6000819050919050565b60006110bc6110b76110b284611097565b61101d565b610efe565b9050919050565b6110cc816110a1565b82525050565b60006040820190506110e760008301856110c3565b6110f46020830184610f08565b9392505050565b7f4e487b7100000000000000000000000000000000000000000000000000000000600052601160045260246000fd5b600061113582610efe565b915061114083610efe565b925082820261114e81610efe565b91508282048414831517611165576111646110fb565b5b5092915050565b7f4e487b7100000000000000000000000000000000000000000000000000000000600052601260045260246000fd5b60006111a682610efe565b91506111b183610efe565b9250826111c1576111c061116c565b5b828204905092915050565b60006111d782610efe565b91506111e283610efe565b92508282039050818111156111fa576111f96110fb565b5b92915050565b600061120b82610efe565b915061121683610efe565b925082820190508082111561122e5761122d6110fb565b5b92915050565b60006040820190506112496000830185610f9a565b6112566020830184610f08565b9392505050565b61126681610f32565b811461127157600080fd5b50565b6000815190506112838161125d565b92915050565b60006020828403121561129f5761129e610ea7565b5b60006112ad84828501611274565b91505092915050565b60006040820190506112cb6000830185610f08565b6112d86020830184610f08565b9392505050565b600081905092915050565b50565b60006112fa6000836112df565b9150611305826112ea565b600082019050919050565b600061131b826112ed565b9150819050919050565b61132e81610efe565b811461133957600080fd5b50565b60008151905061134b81611325565b92915050565b60006020828403121561136757611366610ea7565b5b60006113758482850161133c565b9150509291505056fea26469706673582212207691e69b58d4860dccd944e9082c0b72602ebbaaf74b04c2734fdb42ba2f3f8a64736f6c63430008160033","linkReferences":{}},"methodIdentifiers":{"buyTokens()":"d0febe4c","currentPhase()":"055ad42e","endPreSale()":"ee889ed0","initializePreSale()":"ee2d2c68","owner()":"8da5cb5b","phaseRates(uint8)":"103d6ed3","preSaleInitialized()":"14770959","renounceOwnership()":"715018a6","token()":"fc0c546a","tokensAvailable()":"60659a92","tokensRemaining()":"c8b08125","tokensSold()":"518ab2a8","totalBNBReceived()":"287294c8","transferOwnership(address)":"f2fde38b","updatePhase(uint8)":"cf3d8e53","withdrawFunds()":"24600fc3"},"id":1}