{"abi":[{"type":"constructor","inputs":[{"name":"tokenAddress","type":"address","internalType":"address"},{"name":"ratePhase1","type":"uint256","internalType":"uint256"},{"name":"ratePhase2","type":"uint256","internalType":"uint256"},{"name":"ratePhase3","type":"uint256","internalType":"uint256"},{"name":"_tokensAvailable","type":"uint256","internalType":"uint256"},{"name":"_maxTokensBuy","type":"uint256","internalType":"uint256"}],"stateMutability":"nonpayable"},{"type":"receive","stateMutability":"payable"},{"type":"function","name":"addMultipleToWhitelist","inputs":[{"name":"accounts","type":"address[]","internalType":"address[]"}],"outputs":[],"stateMutability":"nonpayable"},{"type":"function","name":"addToWhitelist","inputs":[{"name":"account","type":"address","internalType":"address"}],"outputs":[],"stateMutability":"nonpayable"},{"type":"function","name":"buyTokens","inputs":[],"outputs":[],"stateMutability":"payable"},{"type":"function","name":"currentPhase","inputs":[],"outputs":[{"name":"","type":"uint8","internalType":"enum Phase"}],"stateMutability":"view"},{"type":"function","name":"endPreSale","inputs":[],"outputs":[],"stateMutability":"nonpayable"},{"type":"function","name":"initializePreSale","inputs":[],"outputs":[],"stateMutability":"nonpayable"},{"type":"function","name":"maxTokensBuy","inputs":[],"outputs":[{"name":"","type":"uint256","internalType":"uint256"}],"stateMutability":"view"},{"type":"function","name":"owner","inputs":[],"outputs":[{"name":"","type":"address","internalType":"address"}],"stateMutability":"view"},{"type":"function","name":"phaseRates","inputs":[{"name":"","type":"uint8","internalType":"enum Phase"}],"outputs":[{"name":"","type":"uint256","internalType":"uint256"}],"stateMutability":"view"},{"type":"function","name":"preSaleInitialized","inputs":[],"outputs":[{"name":"","type":"bool","internalType":"bool"}],"stateMutability":"view"},{"type":"function","name":"removeFromWhitelist","inputs":[{"name":"account","type":"address","internalType":"address"}],"outputs":[],"stateMutability":"nonpayable"},{"type":"function","name":"renounceOwnership","inputs":[],"outputs":[],"stateMutability":"nonpayable"},{"type":"function","name":"token","inputs":[],"outputs":[{"name":"","type":"address","internalType":"contract IERC20"}],"stateMutability":"view"},{"type":"function","name":"tokensAvailable","inputs":[],"outputs":[{"name":"","type":"uint256","internalType":"uint256"}],"stateMutability":"view"},{"type":"function","name":"tokensPurchasedByAddress","inputs":[{"name":"","type":"address","internalType":"address"}],"outputs":[{"name":"","type":"uint256","internalType":"uint256"}],"stateMutability":"view"},{"type":"function","name":"tokensRemaining","inputs":[],"outputs":[{"name":"","type":"uint256","internalType":"uint256"}],"stateMutability":"view"},{"type":"function","name":"tokensSold","inputs":[],"outputs":[{"name":"","type":"uint256","internalType":"uint256"}],"stateMutability":"view"},{"type":"function","name":"totalBNBReceived","inputs":[],"outputs":[{"name":"","type":"uint256","internalType":"uint256"}],"stateMutability":"view"},{"type":"function","name":"transferOwnership","inputs":[{"name":"newOwner","type":"address","internalType":"address"}],"outputs":[],"stateMutability":"nonpayable"},{"type":"function","name":"updateMaxTokensBuy","inputs":[{"name":"newLimit","type":"uint256","internalType":"uint256"}],"outputs":[],"stateMutability":"nonpayable"},{"type":"function","name":"updatePhase","inputs":[{"name":"newPhase","type":"uint8","internalType":"enum Phase"}],"outputs":[],"stateMutability":"nonpayable"},{"type":"function","name":"updatePhaseRate","inputs":[{"name":"phase","type":"uint8","internalType":"enum Phase"},{"name":"newRate","type":"uint256","internalType":"uint256"}],"outputs":[],"stateMutability":"nonpayable"},{"type":"function","name":"whitelist","inputs":[{"name":"","type":"address","internalType":"address"}],"outputs":[{"name":"","type":"bool","internalType":"bool"}],"stateMutability":"view"},{"type":"function","name":"withdrawFunds","inputs":[],"outputs":[],"stateMutability":"nonpayable"},{"type":"event","name":"AddressWhitelisted","inputs":[{"name":"account","type":"address","indexed":true,"internalType":"address"}],"anonymous":false},{"type":"event","name":"FundsWithdrawn","inputs":[{"name":"owner","type":"address","indexed":true,"internalType":"address"},{"name":"amount","type":"uint256","indexed":false,"internalType":"uint256"}],"anonymous":false},{"type":"event","name":"MaxTokensBuyUpdated","inputs":[{"name":"newLimit","type":"uint256","indexed":false,"internalType":"uint256"}],"anonymous":false},{"type":"event","name":"OwnershipTransferred","inputs":[{"name":"previousOwner","type":"address","indexed":true,"internalType":"address"},{"name":"newOwner","type":"address","indexed":true,"internalType":"address"}],"anonymous":false},{"type":"event","name":"PhaseUpdated","inputs":[{"name":"newPhase","type":"uint8","indexed":false,"internalType":"enum Phase"}],"anonymous":false},{"type":"event","name":"PreSaleEnded","inputs":[],"anonymous":false},{"type":"event","name":"PreSaleInitialized","inputs":[{"name":"tokensAvailable","type":"uint256","indexed":false,"internalType":"uint256"}],"anonymous":false},{"type":"event","name":"TokensPurchased","inputs":[{"name":"buyer","type":"address","indexed":true,"internalType":"address"},{"name":"amount","type":"uint256","indexed":false,"internalType":"uint256"},{"name":"cost","type":"uint256","indexed":false,"internalType":"uint256"}],"anonymous":false},{"type":"event","name":"WhitelistUpdated","inputs":[{"name":"account","type":"address","indexed":true,"internalType":"address"},{"name":"status","type":"bool","indexed":false,"internalType":"bool"}],"anonymous":false},{"type":"error","name":"InsufficientFunds","inputs":[{"name":"required","type":"uint256","internalType":"uint256"},{"name":"available","type":"uint256","internalType":"uint256"}]},{"type":"error","name":"InvalidPhase","inputs":[{"name":"message","type":"string","internalType":"string"},{"name":"phase","type":"uint8","internalType":"enum Phase"}]},{"type":"error","name":"InvalidPhaseRate","inputs":[{"name":"message","type":"string","internalType":"string"},{"name":"rate","type":"uint256","internalType":"uint256"}]},{"type":"error","name":"InvalidTokenAmount","inputs":[{"name":"message","type":"string","internalType":"string"},{"name":"amount","type":"uint256","internalType":"uint256"}]},{"type":"error","name":"MaxTokensBuyExceeded","inputs":[{"name":"allowed","type":"uint256","internalType":"uint256"},{"name":"attempted","type":"uint256","internalType":"uint256"}]},{"type":"error","name":"NoTokensAvailable","inputs":[{"name":"message","type":"string","internalType":"string"},{"name":"available","type":"uint256","internalType":"uint256"},{"name":"requested","type":"uint256","internalType":"uint256"}]},{"type":"error","name":"OwnableInvalidOwner","inputs":[{"name":"owner","type":"address","internalType":"address"}]},{"type":"error","name":"OwnableUnauthorizedAccount","inputs":[{"name":"account","type":"address","internalType":"address"}]},{"type":"error","name":"PreSaleAlreadyInitialized","inputs":[{"name":"message","type":"string","internalType":"string"},{"name":"tokensAvailable","type":"uint256","internalType":"uint256"}]},{"type":"error","name":"PreSaleNotActive","inputs":[]},{"type":"error","name":"ReentrancyGuardReentrantCall","inputs":[]},{"type":"error","name":"WithdrawalFailed","inputs":[]},{"type":"error","name":"ZeroAddress","inputs":[]}],"bytecode":{"object":"0x60803461013e57601f610ff138819003918201601f191683019291906001600160401b03841183851017610142578160c0928492604096875283398101031261013e5780516001600160a01b03808216929183810361013e576020830151858401519160608501519360a06080870151960151963315610127575f543360018060a01b03198216175f558951923391167f8be0079c531659141344cd1fd0a4f28419497f9722a3daafe3b4186f6b6457e05f80a36001805515610118575060025490610100600160a81b039060081b1690610100600160a81b031916176002555f80526005602052855f205560015f52845f205560025f52835f2055600355600a5560ff196002541660025551610e9a90816101578239f35b63d92e233d60e01b8152600490fd5b8851631e4fbdf760e01b81525f6004820152602490fd5b5f80fd5b634e487b7160e01b5f52604160045260245ffdfe608060409080825260049081361015610357575b50361561001e575f80fd5b610026610e16565b60ff600254168181101561034457600381146103355734156103195761004b81610da8565b549081156102c8575080340290348204036102b557670de0b6b3a764000090049160035480841161024157335f526020906008825260ff835f2054165f14610239575f195b60098352806100a287865f2054610df5565b1161020957508481039081116101f6576003556100c0848454610df5565b83556100ce34600654610df5565b600655335f5260098152815f206100e6858254610df5565b90555f816001600160a01b0360025460081c16604485518094819363a9059cbb60e01b8352338a8401528a60248401525af19081156101ec575f916101b2575b5015610162577f8fafebcaf9d154343dad25669bfa277f4fbacd7ac6b0c4fed522580e040a0f339250815193845234908401523392a260018055005b506101ae90519283926393255a7360e01b845283019190604083526016604084015275024b73b30b634b2103a37b5b2b71030b6b7bab73a1d160551b6060840152602060808401930152565b0390fd5b90508181813d83116101e5575b6101c98183610dbf565b810103126101e1575180151581036101e1575f610126565b5f80fd5b503d6101bf565b83513d5f823e3d90fd5b601184634e487b7160e01b5f525260245ffd5b916102229150946009604496335f5252835f2054610df5565b9151631227f42760e31b8152928301526024820152fd5b600a54610090565b606060c49492519363186c356d60e21b8552840152603560648401527f496e73756666696369656e7420746f6b656e7320617661696c61626c6520696e60848401527f2070726573616c652e20417661696c61626c653a20000000000000000000000060a484015260248301526044820152fd5b601182634e487b7160e01b5f525260245ffd5b6103179150836084945193634fa8b6f760e11b8552840152601e60448401527f496e76616c6964207068617365207261746520666f722070686173653a20000060648401526024830190610d87565bfd5b506001604492519162fae2d560e21b8352820152346024820152fd5b5090516371e1355f60e11b8152fd5b602182634e487b7160e01b5f525260245ffd5b5f3560e01c908163055ad42e14610d6357508063103d6ed314610d335780631477095914610d1057806324600fc314610c21578063287294c814610c03578063518ab2a814610be657806358ed2cc314610b9a57806360659a92146108da578063715018a614610b365780638401f8d114610a4a5780638ab1d681146109e05780638da5cb5b146109ba5780639b19251a1461097c5780639e4137af146108f8578063c8b08125146108da578063cf3d8e53146107f4578063d0febe4c146107e0578063ded362fe146107c2578063e43252d71461075a578063ed3193d214610721578063ee2d2c68146105a0578063ee889ed01461051c578063f2fde38b146104955763fc0c546a1461046b575f610013565b50346101e1575f3660031901126101e1576020906001600160a01b0360025460081c169051908152f35b5090346101e15760203660031901126101e1578135916001600160a01b03918284168094036101e1576104c6610e39565b83156105065750505f54826001600160a01b03198216175f55167f8be0079c531659141344cd1fd0a4f28419497f9722a3daafe3b4186f6b6457e05f80a3005b905f6024925191631e4fbdf760e01b8352820152fd5b5090346101e1575f3660031901126101e157610536610e39565b6002549060ff82168381101561058d5760031461057e5760ff1982166003176002557fc82e6055d31de9b552cd0014f23a8b8ce120c288ed1afce01adb97150efc01855f80a1005b516371e1355f60e11b81529050fd5b602184634e487b7160e01b5f525260245ffd5b50346101e1575f3660031901126101e1576105b9610e39565b60075460ff81166106c657602460206001600160a01b0360025460081c168551928380926370a0823160e01b825230888301525afa9081156106bc575f9161068a575b506003549283821061063f577f52662d1a3131f7ba0d800fc07f2bc63113061f8c1307e917016493a232bc81506020858760018760ff19161760075551908152a1005b6101ae85519283926393255a7360e01b845283019190604083526016604084015275024b73b30b634b2103a37b5b2b71030b6b7bab73a1d160551b6060840152602060808401930152565b90506020813d6020116106b4575b816106a560209383610dbf565b810103126101e157515f6105fc565b3d9150610698565b84513d5f823e3d90fd5b5060a4916003549080519263ff61f1f360e01b8452830152602660448301527f5468652070726573616c6520416c726561647920696e697469616c697a65642060648301526503bb4ba341d160d51b60848301526024820152fd5b50346101e15760203660031901126101e15735906001600160a01b0382168092036101e1576020915f5260098252805f20549051908152f35b50346101e15760203660031901126101e15735906001600160a01b0382168092036101e157610787610e39565b815f5260086020525f20600160ff198254161790557f4f783c179409b4127238bc9c990bc99b9a651666a0d20b51d6c42849eb88466d5f80a2005b82346101e1575f3660031901126101e157602090600a549051908152f35b505f3660031901126101e157610026610e16565b50346101e15760203660031901126101e157803590808210156101e157610819610e39565b6002549060ff82168181101561034457600381146108cb5783118015906108c1575b6108805760ff19821660ff84161760025583517f05ac19f4e6db6fd8b645dd056e4842cd2f63e0c6f0568176c17ef60e3c16732d9060209061087d8187610d87565ba1005b8351634fa8b6f760e11b8152908101849052600f60448201526e024b73b30b634b210383430b9b29d1608d1b60648201526084906103176024820185610d87565b506003831461083b565b5083516371e1355f60e11b8152fd5b82346101e1575f3660031901126101e1576020906003549051908152f35b50346101e157816003193601126101e157803590808210156101e15760243592610920610e39565b8315610933578361093084610da8565b55005b805163c60dd43d60e01b815291820152601460448201527f496e76616c696420706861736520726174653a20000000000000000000000000606482015260248101839052608490fd5b50346101e15760203660031901126101e15735906001600160a01b0382168092036101e1576020915f526008825260ff815f20541690519015158152f35b82346101e1575f3660031901126101e1576020906001600160a01b035f54169051908152f35b50346101e15760203660031901126101e15735906001600160a01b0382168092036101e15760207ff93f9a76c1bf3444d22400a00cb9fe990e6abe9dbb333fda48859cfee864543d91610a31610e39565b835f5260088252805f2060ff198154169055515f8152a2005b5090346101e15760209160206003193601126101e15767ffffffffffffffff9181358381116101e157366023820112156101e157808301359384116101e15760249060053660248760051b840101116101e157610aa5610e39565b5f5b868110610ab057005b8381831b840101356001600160a01b0381168091036101e1578015610b265790816001925f5260088a52865f20805460ff811615610af2575b50505001610aa7565b60ff1916841790557f4f783c179409b4127238bc9c990bc99b9a651666a0d20b51d6c42849eb88466d5f80a25f8080610ae9565b855163d92e233d60e01b81528790fd5b346101e1575f3660031901126101e157610b4e610e39565b5f805473ffffffffffffffffffffffffffffffffffffffff19811682556001600160a01b03167f8be0079c531659141344cd1fd0a4f28419497f9722a3daafe3b4186f6b6457e08280a3005b50346101e15760203660031901126101e1577fd62ff6c5039086f4f370d050bc58ed17716234ac8dfc95cf9b02b8d9fa162282916020913590610bdb610e39565b81600a5551908152a1005b5090346101e1575f3660031901126101e157602091549051908152f35b82346101e1575f3660031901126101e1576020906006549051908152f35b50346101e1575f3660031901126101e157610c3a610e16565b610c42610e39565b47908115610cf5576001600160a01b03905f80808086868254165af13d15610cf0573d67ffffffffffffffff8111610cdd57855190610c8b601f8201601f191660200183610dbf565b81525f60203d92013e5b15610ccf57507feaff4b37086828766ad3268786972c0cd24259d4c87a80f9d3963a3c3d999b0d916020915f54169351908152a260018055005b83516327fcd9d160e01b8152fd5b604183634e487b7160e01b5f525260245ffd5b610c95565b906001604493519262fae2d560e21b84528301526024820152fd5b82346101e1575f3660031901126101e15760209060ff6007541690519015158152f35b5090346101e15760203660031901126101e1578135918210156101e157610d5b602092610da8565b549051908152f35b346101e1575f3660031901126101e15780610d8560209260ff60025416610d87565bf35b906004821015610d945752565b634e487b7160e01b5f52602160045260245ffd5b6004811015610d94575f52600560205260405f2090565b90601f8019910116810190811067ffffffffffffffff821117610de157604052565b634e487b7160e01b5f52604160045260245ffd5b91908201809211610e0257565b634e487b7160e01b5f52601160045260245ffd5b600260015414610e27576002600155565b604051633ee5aeb560e01b8152600490fd5b6001600160a01b035f54163303610e4c57565b60405163118cdaa760e01b8152336004820152602490fdfea2646970667358221220f3a20247c9eb8427c7a4c699aee0c5af8b0c88c237693c75570fd49df279221564736f6c63430008160033","linkReferences":{}},"methodIdentifiers":{"addMultipleToWhitelist(address[])":"8401f8d1","addToWhitelist(address)":"e43252d7","buyTokens()":"d0febe4c","currentPhase()":"055ad42e","endPreSale()":"ee889ed0","initializePreSale()":"ee2d2c68","maxTokensBuy()":"ded362fe","owner()":"8da5cb5b","phaseRates(uint8)":"103d6ed3","preSaleInitialized()":"14770959","removeFromWhitelist(address)":"8ab1d681","renounceOwnership()":"715018a6","token()":"fc0c546a","tokensAvailable()":"60659a92","tokensPurchasedByAddress(address)":"ed3193d2","tokensRemaining()":"c8b08125","tokensSold()":"518ab2a8","totalBNBReceived()":"287294c8","transferOwnership(address)":"f2fde38b","updateMaxTokensBuy(uint256)":"58ed2cc3","updatePhase(uint8)":"cf3d8e53","updatePhaseRate(uint8,uint256)":"9e4137af","whitelist(address)":"9b19251a","withdrawFunds()":"24600fc3"},"id":1}