{"abi":[{"type":"constructor","inputs":[{"name":"tokenName","type":"string","internalType":"string"},{"name":"tokenSymbol","type":"string","internalType":"string"},{"name":"_totalSupply","type":"uint256","internalType":"uint256"},{"name":"_token_decimals","type":"uint8","internalType":"uint8"},{"name":"_taxFee","type":"uint256","internalType":"uint256"},{"name":"_liquidityFee","type":"uint256","internalType":"uint256"},{"name":"_maxTokensTXAmount","type":"uint256","internalType":"uint256"},{"name":"_numTokensSellToAddToLiquidity","type":"uint256","internalType":"uint256"}],"stateMutability":"nonpayable"},{"type":"receive","stateMutability":"payable"},{"type":"function","name":"allowance","inputs":[{"name":"owner","type":"address","internalType":"address"},{"name":"spender","type":"address","internalType":"address"}],"outputs":[{"name":"","type":"uint256","internalType":"uint256"}],"stateMutability":"view"},{"type":"function","name":"approve","inputs":[{"name":"spender","type":"address","internalType":"address"},{"name":"amount","type":"uint256","internalType":"uint256"}],"outputs":[{"name":"","type":"bool","internalType":"bool"}],"stateMutability":"nonpayable"},{"type":"function","name":"balanceOf","inputs":[{"name":"account","type":"address","internalType":"address"}],"outputs":[{"name":"","type":"uint256","internalType":"uint256"}],"stateMutability":"view"},{"type":"function","name":"burn","inputs":[{"name":"amount","type":"uint256","internalType":"uint256"}],"outputs":[],"stateMutability":"nonpayable"},{"type":"function","name":"configureSwapProtocol","inputs":[{"name":"routerAddress","type":"address","internalType":"address"}],"outputs":[],"stateMutability":"nonpayable"},{"type":"function","name":"decimals","inputs":[],"outputs":[{"name":"","type":"uint8","internalType":"uint8"}],"stateMutability":"view"},{"type":"function","name":"excludeFromFee","inputs":[{"name":"account","type":"address","internalType":"address"}],"outputs":[],"stateMutability":"nonpayable"},{"type":"function","name":"includeInFee","inputs":[{"name":"account","type":"address","internalType":"address"}],"outputs":[],"stateMutability":"nonpayable"},{"type":"function","name":"initializeTokenomics","inputs":[],"outputs":[],"stateMutability":"nonpayable"},{"type":"function","name":"isAccountExcludedFromFree","inputs":[{"name":"account","type":"address","internalType":"address"}],"outputs":[{"name":"","type":"bool","internalType":"bool"}],"stateMutability":"view"},{"type":"function","name":"isSwapAndLiquifyEnabled","inputs":[],"outputs":[{"name":"","type":"bool","internalType":"bool"}],"stateMutability":"view"},{"type":"function","name":"liquidityFee","inputs":[],"outputs":[{"name":"","type":"uint256","internalType":"uint256"}],"stateMutability":"view"},{"type":"function","name":"maxTxAmount","inputs":[],"outputs":[{"name":"","type":"uint256","internalType":"uint256"}],"stateMutability":"view"},{"type":"function","name":"name","inputs":[],"outputs":[{"name":"","type":"string","internalType":"string"}],"stateMutability":"view"},{"type":"function","name":"numTokensSellToAddToLiquidity","inputs":[],"outputs":[{"name":"","type":"uint256","internalType":"uint256"}],"stateMutability":"view"},{"type":"function","name":"owner","inputs":[],"outputs":[{"name":"","type":"address","internalType":"address"}],"stateMutability":"view"},{"type":"function","name":"reflectionBalanceOf","inputs":[{"name":"account","type":"address","internalType":"address"}],"outputs":[{"name":"","type":"uint256","internalType":"uint256"}],"stateMutability":"view"},{"type":"function","name":"renounceOwnership","inputs":[],"outputs":[],"stateMutability":"nonpayable"},{"type":"function","name":"setFees","inputs":[{"name":"_taxFee","type":"uint256","internalType":"uint256"},{"name":"_liquidityFee","type":"uint256","internalType":"uint256"}],"outputs":[],"stateMutability":"nonpayable"},{"type":"function","name":"setMaxTxAmount","inputs":[{"name":"newMaxTxAmount","type":"uint256","internalType":"uint256"}],"outputs":[],"stateMutability":"nonpayable"},{"type":"function","name":"setNumTokensSellToAddToLiquidity","inputs":[{"name":"newNumTokensSellToAddToLiquidity","type":"uint256","internalType":"uint256"}],"outputs":[],"stateMutability":"nonpayable"},{"type":"function","name":"setSwapAndLiquifyEnabled","inputs":[{"name":"_enabled","type":"bool","internalType":"bool"}],"outputs":[],"stateMutability":"nonpayable"},{"type":"function","name":"swapAndLiquifyEnabled","inputs":[],"outputs":[{"name":"","type":"bool","internalType":"bool"}],"stateMutability":"view"},{"type":"function","name":"symbol","inputs":[],"outputs":[{"name":"","type":"string","internalType":"string"}],"stateMutability":"view"},{"type":"function","name":"taxFee","inputs":[],"outputs":[{"name":"","type":"uint256","internalType":"uint256"}],"stateMutability":"view"},{"type":"function","name":"tokenomics","inputs":[{"name":"","type":"uint256","internalType":"uint256"}],"outputs":[{"name":"wallet","type":"address","internalType":"address"},{"name":"percentage","type":"uint256","internalType":"uint256"}],"stateMutability":"view"},{"type":"function","name":"totalSupply","inputs":[],"outputs":[{"name":"","type":"uint256","internalType":"uint256"}],"stateMutability":"view"},{"type":"function","name":"transfer","inputs":[{"name":"recipient","type":"address","internalType":"address"},{"name":"amount","type":"uint256","internalType":"uint256"}],"outputs":[{"name":"","type":"bool","internalType":"bool"}],"stateMutability":"nonpayable"},{"type":"function","name":"transferFrom","inputs":[{"name":"sender","type":"address","internalType":"address"},{"name":"recipient","type":"address","internalType":"address"},{"name":"amount","type":"uint256","internalType":"uint256"}],"outputs":[{"name":"","type":"bool","internalType":"bool"}],"stateMutability":"nonpayable"},{"type":"function","name":"transferOwnership","inputs":[{"name":"newOwner","type":"address","internalType":"address"}],"outputs":[],"stateMutability":"nonpayable"},{"type":"function","name":"uniswapV2Pair","inputs":[],"outputs":[{"name":"","type":"address","internalType":"address"}],"stateMutability":"view"},{"type":"function","name":"uniswapV2Router","inputs":[],"outputs":[{"name":"","type":"address","internalType":"contract IUniswapV2Router02"}],"stateMutability":"view"},{"type":"function","name":"updateUniswapV2Router","inputs":[{"name":"newRouter","type":"address","internalType":"address"}],"outputs":[],"stateMutability":"nonpayable"},{"type":"function","name":"withdrawBNB","inputs":[{"name":"amount","type":"uint256","internalType":"uint256"}],"outputs":[],"stateMutability":"nonpayable"},{"type":"event","name":"Approval","inputs":[{"name":"owner","type":"address","indexed":true,"internalType":"address"},{"name":"spender","type":"address","indexed":true,"internalType":"address"},{"name":"value","type":"uint256","indexed":false,"internalType":"uint256"}],"anonymous":false},{"type":"event","name":"ExcludedFromFee","inputs":[{"name":"account","type":"address","indexed":true,"internalType":"address"}],"anonymous":false},{"type":"event","name":"FeesDistributed","inputs":[{"name":"reflectionFee","type":"uint256","indexed":false,"internalType":"uint256"},{"name":"liquidityFee","type":"uint256","indexed":false,"internalType":"uint256"},{"name":"burnFee","type":"uint256","indexed":false,"internalType":"uint256"}],"anonymous":false},{"type":"event","name":"FeesUpdated","inputs":[{"name":"_taxFee","type":"uint256","indexed":true,"internalType":"uint256"},{"name":"_liquidityFee","type":"uint256","indexed":true,"internalType":"uint256"}],"anonymous":false},{"type":"event","name":"IncludedInFee","inputs":[{"name":"account","type":"address","indexed":true,"internalType":"address"}],"anonymous":false},{"type":"event","name":"LiquidityAdded","inputs":[{"name":"tokenAmount","type":"uint256","indexed":false,"internalType":"uint256"},{"name":"ethAmount","type":"uint256","indexed":false,"internalType":"uint256"},{"name":"liquidity","type":"uint256","indexed":false,"internalType":"uint256"}],"anonymous":false},{"type":"event","name":"MaxTxAmountUpdated","inputs":[{"name":"newMaxTxAmount","type":"uint256","indexed":false,"internalType":"uint256"}],"anonymous":false},{"type":"event","name":"NumTokensSellToAddToLiquidityUpdated","inputs":[{"name":"newNumTokensSellToAddToLiquidity","type":"uint256","indexed":false,"internalType":"uint256"}],"anonymous":false},{"type":"event","name":"OwnershipTransferred","inputs":[{"name":"previousOwner","type":"address","indexed":true,"internalType":"address"},{"name":"newOwner","type":"address","indexed":true,"internalType":"address"}],"anonymous":false},{"type":"event","name":"SwapAndLiquify","inputs":[{"name":"tokensSwapped","type":"uint256","indexed":false,"internalType":"uint256"},{"name":"ethReceived","type":"uint256","indexed":false,"internalType":"uint256"},{"name":"tokensAddedToLiquidity","type":"uint256","indexed":false,"internalType":"uint256"}],"anonymous":false},{"type":"event","name":"SwapAndLiquifyEnabledUpdated","inputs":[{"name":"enabled","type":"bool","indexed":false,"internalType":"bool"}],"anonymous":false},{"type":"event","name":"TokensBurned","inputs":[{"name":"burner","type":"address","indexed":true,"internalType":"address"},{"name":"burnAmount","type":"uint256","indexed":false,"internalType":"uint256"}],"anonymous":false},{"type":"event","name":"Transfer","inputs":[{"name":"from","type":"address","indexed":true,"internalType":"address"},{"name":"to","type":"address","indexed":true,"internalType":"address"},{"name":"value","type":"uint256","indexed":false,"internalType":"uint256"}],"anonymous":false},{"type":"event","name":"UniswapConfigured","inputs":[{"name":"router","type":"address","indexed":true,"internalType":"address"},{"name":"pair","type":"address","indexed":true,"internalType":"address"}],"anonymous":false},{"type":"event","name":"UniswapV2RouterUpdated","inputs":[{"name":"newRouter","type":"address","indexed":false,"internalType":"address"}],"anonymous":false},{"type":"error","name":"AlreadyExcluded","inputs":[]},{"type":"error","name":"BurnExceedsTotalSupply","inputs":[{"name":"tBurn","type":"uint256","internalType":"uint256"},{"name":"_tTotal","type":"uint256","internalType":"uint256"}]},{"type":"error","name":"FeesExceeded","inputs":[{"name":"totalFees","type":"uint256","internalType":"uint256"}]},{"type":"error","name":"InsufficientBalance","inputs":[{"name":"available","type":"uint256","internalType":"uint256"},{"name":"required","type":"uint256","internalType":"uint256"}]},{"type":"error","name":"InvalidTokenomicsPercentage","inputs":[]},{"type":"error","name":"LiquidityAdditionFailed","inputs":[]},{"type":"error","name":"NotExcluded","inputs":[]},{"type":"error","name":"NumTokensSellToAddToLiquidityFailed","inputs":[{"name":"currentAmount","type":"uint256","internalType":"uint256"},{"name":"newAmount","type":"uint256","internalType":"uint256"}]},{"type":"error","name":"OwnableInvalidOwner","inputs":[{"name":"owner","type":"address","internalType":"address"}]},{"type":"error","name":"OwnableUnauthorizedAccount","inputs":[{"name":"account","type":"address","internalType":"address"}]},{"type":"error","name":"ReentrancyGuardReentrantCall","inputs":[]},{"type":"error","name":"SwapProtocolAlreadyConfigured","inputs":[]},{"type":"error","name":"TokenBalanceZero","inputs":[]},{"type":"error","name":"TokenomicsAlreadyInitialized","inputs":[{"name":"message","type":"string","internalType":"string"}]},{"type":"error","name":"TransferAmountExceedsMax","inputs":[]},{"type":"error","name":"TransferAmountZero","inputs":[]},{"type":"error","name":"ZeroAddress","inputs":[]},{"type":"error","name":"ZeroValue","inputs":[]}],"bytecode":{"object":"0x60406080815234620005445762002162803803806200001e8162000548565b92833981019061010081830312620005445780516001600160401b0381116200054457826200004f9183016200056e565b602082015190926001600160401b0382116200054457620000729183016200056e565b90838101519260608201519160ff83168303620005445760808101519360a08201519060e060c08401519301519333156200052d575f8054336001600160a01b0319821681178355916001600160a01b03909116907f8be0079c531659141344cd1fd0a4f28419497f9722a3daafe3b4186f6b6457e09080a36001805561ff00196007541660075561ffff19600f5416600f55620186a0620001158489620005de565b116200050a578051906001600160401b038211620003fc5760055490600182811c92168015620004ff575b6020831014620003dd5781601f849311620004a9575b50602090601f83116001146200041c575f9262000410575b50508160011b915f199060031b1c1916176005555b8051906001600160401b038211620003fc5760065490600182811c92168015620003f1575b6020831014620003dd5781601f8493116200037c575b50602090601f831160011462000305575f92620002f9575b50508160011b915f199060031b1c1916176006555b60ff199560ff8516876007541617600755604d60ff861611620002e5576200021b9060ff8616600a0a90620005ec565b93846002558415620002d1576200025b620002549360ff9362000265975f1906199889600355600b55600c556200025484841662000600565b90620005ec565b600d551662000600565b600e55335f526008602052825f2055600a602052815f20600182825416179055305f526001825f209182541617905560025481519081525f7fddf252ad1be2c89b69c2b068fc378daa952ba7f163c4a11628f55a4df523b3ef60203393a351611b2f9081620006138239f35b634e487b7160e01b5f52601260045260245ffd5b634e487b7160e01b5f52601160045260245ffd5b015190505f80620001d6565b60065f9081525f80516020620021428339815191529350601f198516905b8181106200036357509084600195949392106200034a575b505050811b01600655620001eb565b01515f1960f88460031b161c191690555f80806200033b565b9293602060018192878601518155019501930162000323565b60065f529091505f8051602062002142833981519152601f840160051c81019160208510620003d2575b90601f859493920160051c01905b818110620003c35750620001be565b5f8155849350600101620003b4565b9091508190620003a6565b634e487b7160e01b5f52602260045260245ffd5b91607f1691620001a8565b634e487b7160e01b5f52604160045260245ffd5b015190505f806200016e565b60055f90815293507f036b6384b5eca791c62761152d0c79bb0604c104a5fb6f4eb0703f3154bb3db091905b601f19841685106200048d576001945083601f1981161062000474575b505050811b0160055562000183565b01515f1960f88460031b161c191690555f808062000465565b8181015183556020948501946001909301929091019062000448565b90915060055f5260205f20601f840160051c81019160208510620004f4575b90601f859493920160051c01905b818110620004e5575062000156565b5f8155849350600101620004d6565b9091508190620004c8565b91607f169162000140565b60248962000519858a620005de565b905190632db7582d60e01b82526004820152fd5b8851631e4fbdf760e01b81525f6004820152602490fd5b5f80fd5b6040519190601f01601f191682016001600160401b03811183821017620003fc57604052565b919080601f84011215620005445782516001600160401b038111620003fc57602090620005a4601f8201601f1916830162000548565b9281845282828701011162000544575f5b818110620005ca5750825f9394955001015290565b8581018301518482018401528201620005b5565b91908201809211620002e557565b81810292918115918404141715620002e557565b60ff16604d8111620002e557600a0a9056fe608060409080825260049081361015610022575b5050503615610020575f80fd5b005b5f3560e01c90816304f377f8146111365750806306fdde0314611075578063087a2daf14611037578063095ea7b3146110075780630b78f9c014610f8c578063127f4b2e14610f225780631694505e14610ef857806318160ddd14610eda5780631e352ab514610c7a57806323b872dd14610beb5780632e66482914610baf578063313ce56714610b8e57806342966c6814610b6a578063437823ec14610ae057806349bd5a5e14610ab95780634a74bb0214610a9657806365b8dbc014610a0457806370a08231146109df578063715018a61461097b57806384aa9fb6146108f95780638c0b5e22146108db5780638da5cb5b146108b557806395d89b41146107b257806398118cb414610794578063a071dcf414610776578063a9059cbb1461073a578063bd90fc4e14610510578063c49b9a8014610407578063d12a7688146103e9578063dd62ed3e1461039f578063ea2f0b3714610317578063ec28438a146102b5578063f0f165af1461022c5763f2fde38b146101a45780610013565b34610228576020366003190112610228576101bd61119c565b906101c6611349565b6001600160a01b038092169283156102125750505f54826001600160a01b03198216175f55167f8be0079c531659141344cd1fd0a4f28419497f9722a3daafe3b4186f6b6457e05f80a3005b905f6024925191631e4fbdf760e01b8352820152fd5b5f80fd5b5090346102285760203660031901126102285781359161024a611349565b61026161025b60ff600754166112ba565b8461123b565b80600e55600d549081811161029c577fab1090599596cfb0c655b6424e552fba2cedf77457ed354fbe96e9abf4aa1f136020868651908152a1005b604493519263cd1a97bb60e01b84528301526024820152fd5b5034610228576020366003190112610228577f947f344d56e1e8c70dc492fb94c4ddddd490c016aab685f5e7e47b2e85cb44cf9160209135906102f6611349565b61030d61030760ff600754166112ba565b8361123b565b600d5551908152a1005b509034610228576020366003190112610228576001600160a01b0361033a61119c565b610342611349565b1691825f52600a60205260ff825f205416156103915750815f52600a6020525f2060ff1981541690557f78ce087db51d01d3e32355f2d83455d5a39f99194c8d3d1c2614893695cee4425f80a2005b9051634549716160e11b8152fd5b82346102285780600319360112610228576020906103bb61119c565b6103c36111b2565b906001600160a01b038091165f5260098452825f2091165f528252805f20549051908152f35b8234610228575f36600319011261022857602090600e549051908152f35b5034610228576020366003190112610228578035801515918282036102285761042e611349565b600f54918360ff84161515146104785760ff19831660ff851617600f5584518481527f53726dfcaf90650aa7eb35524f4d3220f07413c8d6cb404cc8c18bf5591bc15990602090a1005b849250156104d2576104ce825161048e816111c8565b601781527f5377617020697320616c726561647920656e61626c65640000000000000000006020820152925b5162461bcd60e51b81529283928301611155565b0390fd5b6104ce82516104e0816111c8565b601881527f5377617020697320616c72656164792064697361626c656400000000000000006020820152926104ba565b50903461022857602090816003193601126102285761052d61119c565b91610536611349565b600f546001600160a01b036010918181841c161580159061072e575b61071e5781861695861561070e5775ffffffffffffffffffffffffffffffffffffffff00001990911690831b62010000600160b01b031617600f819055845163c45a015560e01b815290831c821684828981845afa9182156106e557889186915f946106ef575b5087516315ab88c960e31b815292839182905afa9081156106e557918591898580955f936106c1575b505f90604493948b5197889687956364e329cb60e11b87523090870152166024850152165af19081156106b7575f9161068a575b501694851561067c575090600a91856001600160a01b0319825416179055845f52526001815f209160ff19928284825416179055835f525f20918254161790557fc1a9e56c8129347b63ce39a7b2cb626d8e39b9baae0723beb7cbe61d73475bc05f80a3005b835163d92e233d60e01b8152fd5b6106aa9150843d86116106b0575b6106a281836111f8565b81019061129b565b5f610616565b503d610698565b85513d5f823e3d90fd5b60449350906106dd5f92873d89116106b0576106a281836111f8565b9350906105e2565b86513d5f823e3d90fd5b610707919450823d84116106b0576106a281836111f8565b925f6105b9565b855163d92e233d60e01b81528890fd5b8451638e95803b60e01b81528790fd5b50818354161515610552565b823461022857806003193601126102285760209061076b61075961119c565b6107616119e1565b6024359033611381565b600180555160018152f35b8234610228575f36600319011261022857602090600b549051908152f35b8234610228575f36600319011261022857602090600c549051908152f35b509034610228575f366003190112610228578051905f9260065460018160011c916001811680156108ab575b60209485851082146108985750838752908115610878575060011461081e575b5050506108108261081a9403836111f8565b5191829182611155565b0390f35b60065f9081529295507ff652222313e28459528d920b65115c16c04f3efc82aaedc97be59f3f377c0d3f5b828410610865575050508261081a9461081092820101946107fe565b8054868501880152928601928101610849565b60ff1916868501525050151560051b83010192506108108261081a6107fe565b602290634e487b7160e01b5f525260245ffd5b92607f16926107de565b8234610228575f366003190112610228576020906001600160a01b035f54169051908152f35b8234610228575f36600319011261022857602090600d549051908152f35b509034610228576020366003190112610228576001600160a01b0361091c61119c565b16801561094957602092505f5260088252610942815f205461093c611a90565b9061124e565b9051908152f35b815162461bcd60e51b8152602081850152600c60248201526b5a65726f206164647265737360a01b6044820152606490fd5b34610228575f36600319011261022857610993611349565b5f805473ffffffffffffffffffffffffffffffffffffffff19811682556001600160a01b03167f8be0079c531659141344cd1fd0a4f28419497f9722a3daafe3b4186f6b6457e08280a3005b8234610228576020366003190112610228576020906109426109ff61119c565b61126c565b50903461022857602036600319011261022857610a1f61119c565b610a27611349565b6001600160a01b038116928315610a88577f7e0f425e693a3591da35eee37f8ada3aadc3632fa8ffbcecac1341351c8ece66602085858562010000600160b01b03600f549160101b169062010000600160b01b03191617600f5551908152a1005b825163d92e233d60e01b8152fd5b8234610228575f3660031901126102285760209060ff600f541690519015158152f35b8234610228575f366003190112610228576020906001600160a01b03601054169051908152f35b509034610228576020366003190112610228576001600160a01b03610b0361119c565b610b0b611349565b1691825f52600a60205260ff825f205416610b5c5750815f52600a6020525f20600160ff198254161790557ff1d6512ec7550bf605a5a38910e48fb6a57938ed74a5afa01753fa023001005c5f80a2005b905163175c779760e11b8152fd5b50346102285760203660031901126102285761002090610b88611349565b35611a04565b8234610228575f3660031901126102285760209060ff600754169051908152f35b8234610228576020366003190112610228576020906001600160a01b03610bd461119c565b165f52600a825260ff815f20541690519015158152f35b503461022857606036600319011261022857610c0561119c565b90610c0e6111b2565b9060443591610c1b6119e1565b6001600160a01b0384165f526009602052845f20335f52602052845f205491838310610c5e5760208661076b878787610c55828985611381565b039033906112cb565b935050604493519263cf47918160e01b84528301526024820152fd5b5034610228575f36600319011261022857610c93611349565b60ff60075460081c16610e9757815190610cac826111c8565b33825260326020809301526001600160a01b0319906011923383601154161760115560129260326012558551610ce1816111c8565b600f83735cffe6546affdceea5fc02838ad7b1aaec3fc00a928381520152816013541617601355600f601455818651610d19816111c8565b7351b8470fe0da250b5893ee5b26574feb32282f2b90818152600a9283910152826015541617601555806016558651610d51816111c8565b81847324f515276052d412f659aa28a6dd7f39a52f6ad7928381520152826017541617601755806018558651610d86816111c8565b818473d3a2bd9cfb11067fa80aca88bed48fa7cf0e2dcc928381520152826019541617601955601a556005865192610dbd846111c8565b7305b0cf5efa12dc9bd83558b4787120a9297d9246938481520152601b541617601b556005601c555f935f5b60068110610e5a57506064809503610e4d5750505f5b60068110610e18576007805461ff001916610100179055005b600190610e476002546001600160a01b0387610e3b85871b93888501549061123b565b04918701541633611381565b01610dff565b516323c1a96160e11b8152fd5b948560011b6001600160a01b03818701541615610e885760019185610e819201549061121a565b9501610de9565b50505163d92e233d60e01b8152fd5b602060649251916325dab35760e01b8352820152601f60248201527f546f6b656e6f6d69637320616c726561647920696e697469616c697a656421006044820152fd5b8234610228575f366003190112610228576020906002549051908152f35b8234610228575f366003190112610228576020906001600160a01b03600f5460101c169051908152f35b503461022857602036600319011261022857803590610f3f611349565b814710610f7057505f80808093818115610f67575b3390f115610f5e57005b513d5f823e3d90fd5b506108fc610f54565b906044924790519263cf47918160e01b84528301526024820152fd5b503461022857816003193601126102285780359060243592610fac611349565b610fb6848461121a565b90620186a08211610ff25750505080600b5581600c557f5c6323bf1c2d7aaea2c091a4751c1c87af7f2864650c336507a77d0557af37a15f80a3005b51632db7582d60e01b81529182015260249150fd5b823461022857806003193601126102285760209061103061102661119c565b60243590336112cb565b5160018152f35b5034610228576020366003190112610228573560068110156102285760011b60126001600160a01b0382601101541691015482519182526020820152f35b509034610228575f366003190112610228578051905f9260055460018160011c9160018116801561112c575b6020948585108214610898575083875290811561087857506001146110d2575050506108108261081a9403836111f8565b60055f9081529295507f036b6384b5eca791c62761152d0c79bb0604c104a5fb6f4eb0703f3154bb3db05b828410611119575050508261081a9461081092820101946107fe565b80548685018801529286019281016110fd565b92607f16926110a1565b34610228575f3660031901126102285760209060ff600f541615158152f35b602080825282518183018190529093925f5b82811061118857505060409293505f838284010152601f8019910116010190565b818101860151848201604001528501611167565b600435906001600160a01b038216820361022857565b602435906001600160a01b038216820361022857565b6040810190811067ffffffffffffffff8211176111e457604052565b634e487b7160e01b5f52604160045260245ffd5b90601f8019910116810190811067ffffffffffffffff8211176111e457604052565b9190820180921161122757565b634e487b7160e01b5f52601160045260245ffd5b8181029291811591840414171561122757565b8115611258570490565b634e487b7160e01b5f52601260045260245ffd5b6001600160a01b03165f52600860205260405f20548015611296576112939061093c611a90565b90565b505f90565b9081602091031261022857516001600160a01b03811681036102285790565b60ff16604d811161122757600a0a90565b90916001600160a01b03809216918215801561133f575b61132d577f8c5be1e5ebec7d5bd14f71427d1e84f3dd0314c0f7b2291e5b200ac8c7c3b92591602091845f526009835260405f20951694855f5282528060405f2055604051908152a3565b60405163d92e233d60e01b8152600490fd5b50808416156112e2565b6001600160a01b035f5416330361135c57565b60405163118cdaa760e01b8152336004820152602490fd5b9190820391821161122757565b5f93926001600160a01b039291831691821561132d57831692831561132d5781156119cf57805f5416831415806119c4575b806119b9575b6119a7576113c63061126c565b90600e5482101580611997575b80611989575b61162b575b5050818552602090600a8252604060ff818820541615879088818a92611580575b918798999a828594611454611445856114408d987fddf252ad1be2c89b69c2b068fc378daa952ba7f163c4a11628f55a4df523b3ef9f9b611440908f611374565b611374565b9961144e611a90565b9061123b565b87845260088652611469898520918254611374565b905561147c611476611a90565b8a61123b565b8d84526008865261149189852091825461121a565b90556114a5575b50505050505051908152a3565b7ffd38818f5291bf0bb3a2a48aadc06ba8757865d1dabd804585338aab3009dcb6946060926114e06114d861025b611a90565b600354611374565b6003556114ef8260045461121a565b60045588518281528187820152818a8201527f312c5308f42848705a866c73dec11fd0783c2d64aac6a97e94467062ad3f4058948591a161154c8961153b611535611a90565b8661123b565b92308152600889522091825461121a565b905561155784611a04565b8751908152602081019190915260408101839052606090a18451908152a2845f84818080611498565b92505050620186a09081611596600b548661123b565b04617530808202908282041482151715611617578798999a84611440946114546114458b966114408c7fddf252ad1be2c89b69c2b068fc378daa952ba7f163c4a11628f55a4df523b3ef9f9b6115f0990498898094611374565b9a8b976115ff600c548461123b565b049a5050505050505092945094509a999897506113ff565b634e487b7160e01b8b52601160045260248bfd5b61ff001990600f9261010083855416178085558115611977576001906116558360011c8094611374565b91479160409283516060810167ffffffffffffffff90828110828211176111e45786526002825260209485830194873687378351156119635730865287516315ab88c960e31b81526004969160101c8c169088818981855afa908115611959575f9161193c575b50855160011015611929576116d9918d8d92168b880152306112cb565b8a8d5460101c1691823b1561022857908b8b95928a5196879463791ac94760e01b865260a48601918b8701525f602487015260a060448701525180915260c4850193928b5f915b8383106119075750505050505091815f81819530606483015242608483015203925af180156106e5576118dd575b505061175a9047611374565b9580895460101c1680156118cd579160608f949261177a888b96306112cb565b60c4818d5460101c16918754168851968793849263f305d71960e01b845230888501528c60248501528a60448501528a606485015260848401524260a48401525af19182156118c3578493859361187b575b5050811561186d57507f17bbfb9a6069321b6ded73bd96327c9e6b7212a5cd51ff219cd61370acafb5619695949284926118407fd7f28048575eead8851d024ead087913957dfb4fd1a02b4d1573f5352a5a2be39361185e9751938493846040919493926060820195825260208201520152565b0390a151938493846040919493926060820195825260208201520152565b0390a181541690555f806113de565b845163b657fe1360e01b8152fd5b9350935090506060823d6060116118bb575b8161189a606093836111f8565b810103126118b75783825193830151920151929192905f806117cc565b8d80fd5b3d915061188d565b85513d86823e3d90fd5b845163d92e233d60e01b81528390fd5b9080929f50116118f45783525f9c61175a8e61174e565b604182634e487b7160e01b5f525260245ffd5b85975095849682939594965116815201950191019187949391928f8c90611720565b603288634e487b7160e01b5f525260245ffd5b6119539150893d8b116106b0576106a281836111f8565b5f6116bc565b8a513d5f823e3d90fd5b634e487b7160e01b5f52603260045260245ffd5b6040516364e2819f60e01b8152600490fd5b5080601054168414156113d9565b5060ff600f5460081c16156113d3565b6040516346830da960e01b8152600490fd5b50600d5482116113b9565b50600d5415156113b3565b6040516329a1e53760e01b8152600490fd5b6002600154146119f2576002600155565b604051633ee5aeb560e01b8152600490fd5b600254808211611a72578115611a605781611a2f91611a276114d861025b611a90565b600355611374565b6002556040519081527ffd38818f5291bf0bb3a2a48aadc06ba8757865d1dabd804585338aab3009dcb660203092a2565b604051637c946ed760e01b8152600490fd5b60449250604051916320c7af6760e21b835260048301526024820152fd5b6002548015611aa5576112939060035461124e565b60405162461bcd60e51b815260206004820152602660248201527f546f74616c20737570706c79206d7573742062652067726561746572207468616044820152656e207a65726f60d01b6064820152608490fdfea264697066735822122045bc96a72fadcf5f8c8c26eba389e289489935df61ab6d770a9c36c53dcccd3a64736f6c63430008160033f652222313e28459528d920b65115c16c04f3efc82aaedc97be59f3f377c0d3f","linkReferences":{}},"methodIdentifiers":{"allowance(address,address)":"dd62ed3e","approve(address,uint256)":"095ea7b3","balanceOf(address)":"70a08231","burn(uint256)":"42966c68","configureSwapProtocol(address)":"bd90fc4e","decimals()":"313ce567","excludeFromFee(address)":"437823ec","includeInFee(address)":"ea2f0b37","initializeTokenomics()":"1e352ab5","isAccountExcludedFromFree(address)":"2e664829","isSwapAndLiquifyEnabled()":"04f377f8","liquidityFee()":"98118cb4","maxTxAmount()":"8c0b5e22","name()":"06fdde03","numTokensSellToAddToLiquidity()":"d12a7688","owner()":"8da5cb5b","reflectionBalanceOf(address)":"84aa9fb6","renounceOwnership()":"715018a6","setFees(uint256,uint256)":"0b78f9c0","setMaxTxAmount(uint256)":"ec28438a","setNumTokensSellToAddToLiquidity(uint256)":"f0f165af","setSwapAndLiquifyEnabled(bool)":"c49b9a80","swapAndLiquifyEnabled()":"4a74bb02","symbol()":"95d89b41","taxFee()":"a071dcf4","tokenomics(uint256)":"087a2daf","totalSupply()":"18160ddd","transfer(address,uint256)":"a9059cbb","transferFrom(address,address,uint256)":"23b872dd","transferOwnership(address)":"f2fde38b","uniswapV2Pair()":"49bd5a5e","uniswapV2Router()":"1694505e","updateUniswapV2Router(address)":"65b8dbc0","withdrawBNB(uint256)":"127f4b2e"},"id":0}