{"abi":[{"type":"constructor","inputs":[],"stateMutability":"nonpayable"},{"type":"receive","stateMutability":"payable"},{"type":"function","name":"BURN_PERCENTAGE","inputs":[],"outputs":[{"name":"","type":"uint256","internalType":"uint256"}],"stateMutability":"view"},{"type":"function","name":"UPGRADE_INTERFACE_VERSION","inputs":[],"outputs":[{"name":"","type":"string","internalType":"string"}],"stateMutability":"view"},{"type":"function","name":"allowance","inputs":[{"name":"owner","type":"address","internalType":"address"},{"name":"spender","type":"address","internalType":"address"}],"outputs":[{"name":"","type":"uint256","internalType":"uint256"}],"stateMutability":"view"},{"type":"function","name":"approve","inputs":[{"name":"spender","type":"address","internalType":"address"},{"name":"value","type":"uint256","internalType":"uint256"}],"outputs":[{"name":"","type":"bool","internalType":"bool"}],"stateMutability":"nonpayable"},{"type":"function","name":"balanceOf","inputs":[{"name":"account","type":"address","internalType":"address"}],"outputs":[{"name":"","type":"uint256","internalType":"uint256"}],"stateMutability":"view"},{"type":"function","name":"burn","inputs":[{"name":"amount","type":"uint256","internalType":"uint256"}],"outputs":[],"stateMutability":"nonpayable"},{"type":"function","name":"burnFee","inputs":[],"outputs":[{"name":"","type":"uint256","internalType":"uint256"}],"stateMutability":"view"},{"type":"function","name":"decimals","inputs":[],"outputs":[{"name":"","type":"uint8","internalType":"uint8"}],"stateMutability":"view"},{"type":"function","name":"excludeFromFee","inputs":[{"name":"account","type":"address","internalType":"address"}],"outputs":[],"stateMutability":"nonpayable"},{"type":"function","name":"includeInFee","inputs":[{"name":"account","type":"address","internalType":"address"}],"outputs":[],"stateMutability":"nonpayable"},{"type":"function","name":"initialize","inputs":[{"name":"initialOwner","type":"address","internalType":"address"},{"name":"_taxFee","type":"uint256","internalType":"uint256"},{"name":"_liquidityFee","type":"uint256","internalType":"uint256"},{"name":"_burnFee","type":"uint256","internalType":"uint256"},{"name":"_maxTxAmount","type":"uint256","internalType":"uint256"},{"name":"_numTokensSellToAddToLiquidity","type":"uint256","internalType":"uint256"},{"name":"routerAddress","type":"address","internalType":"address"}],"outputs":[],"stateMutability":"nonpayable"},{"type":"function","name":"isExcludedFromFee","inputs":[{"name":"account","type":"address","internalType":"address"}],"outputs":[{"name":"","type":"bool","internalType":"bool"}],"stateMutability":"view"},{"type":"function","name":"liquidityFee","inputs":[],"outputs":[{"name":"","type":"uint256","internalType":"uint256"}],"stateMutability":"view"},{"type":"function","name":"maxTxAmount","inputs":[],"outputs":[{"name":"","type":"uint256","internalType":"uint256"}],"stateMutability":"view"},{"type":"function","name":"mint","inputs":[{"name":"to","type":"address","internalType":"address"},{"name":"amount","type":"uint256","internalType":"uint256"}],"outputs":[],"stateMutability":"nonpayable"},{"type":"function","name":"name","inputs":[],"outputs":[{"name":"","type":"string","internalType":"string"}],"stateMutability":"view"},{"type":"function","name":"numTokensSellToAddToLiquidity","inputs":[],"outputs":[{"name":"","type":"uint256","internalType":"uint256"}],"stateMutability":"view"},{"type":"function","name":"owner","inputs":[],"outputs":[{"name":"","type":"address","internalType":"address"}],"stateMutability":"view"},{"type":"function","name":"pause","inputs":[],"outputs":[],"stateMutability":"nonpayable"},{"type":"function","name":"paused","inputs":[],"outputs":[{"name":"","type":"bool","internalType":"bool"}],"stateMutability":"view"},{"type":"function","name":"proxiableUUID","inputs":[],"outputs":[{"name":"","type":"bytes32","internalType":"bytes32"}],"stateMutability":"view"},{"type":"function","name":"renounceOwnership","inputs":[],"outputs":[],"stateMutability":"nonpayable"},{"type":"function","name":"setBurnFeePercent","inputs":[{"name":"_burnFee","type":"uint256","internalType":"uint256"}],"outputs":[],"stateMutability":"nonpayable"},{"type":"function","name":"setLiquidityFeePercent","inputs":[{"name":"_liquidityFee","type":"uint256","internalType":"uint256"}],"outputs":[],"stateMutability":"nonpayable"},{"type":"function","name":"setMaxTxAmount","inputs":[{"name":"_maxTxAmount","type":"uint256","internalType":"uint256"}],"outputs":[],"stateMutability":"nonpayable"},{"type":"function","name":"setNumTokensSellToAddToLiquidity","inputs":[{"name":"_numTokensSellToAddToLiquidity","type":"uint256","internalType":"uint256"}],"outputs":[],"stateMutability":"nonpayable"},{"type":"function","name":"setSwapAndLiquifyEnabled","inputs":[{"name":"enabled","type":"bool","internalType":"bool"}],"outputs":[],"stateMutability":"nonpayable"},{"type":"function","name":"setTaxFeePercent","inputs":[{"name":"_taxFee","type":"uint256","internalType":"uint256"}],"outputs":[],"stateMutability":"nonpayable"},{"type":"function","name":"swapAndLiquifyEnabled","inputs":[],"outputs":[{"name":"","type":"bool","internalType":"bool"}],"stateMutability":"view"},{"type":"function","name":"symbol","inputs":[],"outputs":[{"name":"","type":"string","internalType":"string"}],"stateMutability":"view"},{"type":"function","name":"taxFee","inputs":[],"outputs":[{"name":"","type":"uint256","internalType":"uint256"}],"stateMutability":"view"},{"type":"function","name":"totalBurned","inputs":[],"outputs":[{"name":"","type":"uint256","internalType":"uint256"}],"stateMutability":"view"},{"type":"function","name":"totalLiquidityCollected","inputs":[],"outputs":[{"name":"","type":"uint256","internalType":"uint256"}],"stateMutability":"view"},{"type":"function","name":"totalSupply","inputs":[],"outputs":[{"name":"","type":"uint256","internalType":"uint256"}],"stateMutability":"view"},{"type":"function","name":"totalTaxesCollected","inputs":[],"outputs":[{"name":"","type":"uint256","internalType":"uint256"}],"stateMutability":"view"},{"type":"function","name":"transfer","inputs":[{"name":"to","type":"address","internalType":"address"},{"name":"value","type":"uint256","internalType":"uint256"}],"outputs":[{"name":"","type":"bool","internalType":"bool"}],"stateMutability":"nonpayable"},{"type":"function","name":"transferFrom","inputs":[{"name":"from","type":"address","internalType":"address"},{"name":"to","type":"address","internalType":"address"},{"name":"value","type":"uint256","internalType":"uint256"}],"outputs":[{"name":"","type":"bool","internalType":"bool"}],"stateMutability":"nonpayable"},{"type":"function","name":"transferOwnership","inputs":[{"name":"newOwner","type":"address","internalType":"address"}],"outputs":[],"stateMutability":"nonpayable"},{"type":"function","name":"uniswapV2Pair","inputs":[],"outputs":[{"name":"","type":"address","internalType":"address"}],"stateMutability":"view"},{"type":"function","name":"uniswapV2Router","inputs":[],"outputs":[{"name":"","type":"address","internalType":"contract IUniswapV2Router02"}],"stateMutability":"view"},{"type":"function","name":"unpause","inputs":[],"outputs":[],"stateMutability":"nonpayable"},{"type":"function","name":"upgradeToAndCall","inputs":[{"name":"newImplementation","type":"address","internalType":"address"},{"name":"data","type":"bytes","internalType":"bytes"}],"outputs":[],"stateMutability":"payable"},{"type":"event","name":"Approval","inputs":[{"name":"owner","type":"address","indexed":true,"internalType":"address"},{"name":"spender","type":"address","indexed":true,"internalType":"address"},{"name":"value","type":"uint256","indexed":false,"internalType":"uint256"}],"anonymous":false},{"type":"event","name":"Initialized","inputs":[{"name":"version","type":"uint64","indexed":false,"internalType":"uint64"}],"anonymous":false},{"type":"event","name":"OwnershipTransferred","inputs":[{"name":"previousOwner","type":"address","indexed":true,"internalType":"address"},{"name":"newOwner","type":"address","indexed":true,"internalType":"address"}],"anonymous":false},{"type":"event","name":"Paused","inputs":[{"name":"account","type":"address","indexed":false,"internalType":"address"}],"anonymous":false},{"type":"event","name":"SwapAndLiquify","inputs":[{"name":"tokensSwapped","type":"uint256","indexed":false,"internalType":"uint256"},{"name":"ethReceived","type":"uint256","indexed":false,"internalType":"uint256"},{"name":"tokensIntoLiquidity","type":"uint256","indexed":false,"internalType":"uint256"}],"anonymous":false},{"type":"event","name":"SwapAndLiquifyEnabledUpdated","inputs":[{"name":"enabled","type":"bool","indexed":false,"internalType":"bool"}],"anonymous":false},{"type":"event","name":"TaxDistributed","inputs":[{"name":"taxAmount","type":"uint256","indexed":false,"internalType":"uint256"},{"name":"liquidityAmount","type":"uint256","indexed":false,"internalType":"uint256"},{"name":"burnAmount","type":"uint256","indexed":false,"internalType":"uint256"}],"anonymous":false},{"type":"event","name":"TokensBurned","inputs":[{"name":"account","type":"address","indexed":true,"internalType":"address"},{"name":"amount","type":"uint256","indexed":false,"internalType":"uint256"}],"anonymous":false},{"type":"event","name":"Transfer","inputs":[{"name":"from","type":"address","indexed":true,"internalType":"address"},{"name":"to","type":"address","indexed":true,"internalType":"address"},{"name":"value","type":"uint256","indexed":false,"internalType":"uint256"}],"anonymous":false},{"type":"event","name":"Unpaused","inputs":[{"name":"account","type":"address","indexed":false,"internalType":"address"}],"anonymous":false},{"type":"event","name":"Upgraded","inputs":[{"name":"implementation","type":"address","indexed":true,"internalType":"address"}],"anonymous":false},{"type":"error","name":"AddressEmptyCode","inputs":[{"name":"target","type":"address","internalType":"address"}]},{"type":"error","name":"ERC1967InvalidImplementation","inputs":[{"name":"implementation","type":"address","internalType":"address"}]},{"type":"error","name":"ERC1967NonPayable","inputs":[]},{"type":"error","name":"ERC20InsufficientAllowance","inputs":[{"name":"spender","type":"address","internalType":"address"},{"name":"allowance","type":"uint256","internalType":"uint256"},{"name":"needed","type":"uint256","internalType":"uint256"}]},{"type":"error","name":"ERC20InsufficientBalance","inputs":[{"name":"sender","type":"address","internalType":"address"},{"name":"balance","type":"uint256","internalType":"uint256"},{"name":"needed","type":"uint256","internalType":"uint256"}]},{"type":"error","name":"ERC20InvalidApprover","inputs":[{"name":"approver","type":"address","internalType":"address"}]},{"type":"error","name":"ERC20InvalidReceiver","inputs":[{"name":"receiver","type":"address","internalType":"address"}]},{"type":"error","name":"ERC20InvalidSender","inputs":[{"name":"sender","type":"address","internalType":"address"}]},{"type":"error","name":"ERC20InvalidSpender","inputs":[{"name":"spender","type":"address","internalType":"address"}]},{"type":"error","name":"EnforcedPause","inputs":[]},{"type":"error","name":"ExpectedPause","inputs":[]},{"type":"error","name":"FailedInnerCall","inputs":[]},{"type":"error","name":"InvalidInitialization","inputs":[]},{"type":"error","name":"NotInitializing","inputs":[]},{"type":"error","name":"OwnableInvalidOwner","inputs":[{"name":"owner","type":"address","internalType":"address"}]},{"type":"error","name":"OwnableUnauthorizedAccount","inputs":[{"name":"account","type":"address","internalType":"address"}]},{"type":"error","name":"UUPSUnauthorizedCallContext","inputs":[]},{"type":"error","name":"UUPSUnsupportedProxiableUUID","inputs":[{"name":"slot","type":"bytes32","internalType":"bytes32"}]}],"bytecode":{"object":"0x60a06040523060805234801561001457600080fd5b5060805161214861003e60003960008181611178015281816111a101526112e201526121486000f3fe6080604052600436106102555760003560e01c8063884133e611610139578063b98be3b8116100b6578063dd62ed3e1161007a578063dd62ed3e146106b9578063ea2f0b37146106d9578063ec28438a146106f9578063f0f165af14610719578063f2fde38b14610739578063fce589d81461075957600080fd5b8063b98be3b814610637578063c49b9a801461064d578063cea269581461066d578063d12a76881461068d578063d89135cd146106a357600080fd5b80639649b910116100fd5780639649b910146105a557806398118cb4146105ba578063a071dcf4146105d0578063a9059cbb146105e6578063ad3cb1cc1461060657600080fd5b8063884133e61461052f5780638c0b5e22146105455780638da5cb5b1461055b5780638ee88c531461057057806395d89b411461059057600080fd5b806342966c68116101d257806352d1902d1161019657806352d1902d146104725780635342acb4146104875780635c975abb146104c057806370a08231146104e5578063715018a6146105055780638456cb591461051a57600080fd5b806342966c68146103e5578063437823ec1461040557806349bd5a5e146104255780634a74bb02146104455780634f1ef2861461045f57600080fd5b806323b872dd1161021957806323b872dd14610354578063313ce5671461037457806339b6e72c146103905780633f4ba83a146103b057806340c10f19146103c557600080fd5b8063061c82d01461026157806306fdde0314610283578063095ea7b3146102ae5780631694505e146102de57806318160ddd1461031657600080fd5b3661025c57005b600080fd5b34801561026d57600080fd5b5061028161027c366004611c07565b61076f565b005b34801561028f57600080fd5b5061029861077c565b6040516102a59190611c44565b60405180910390f35b3480156102ba57600080fd5b506102ce6102c9366004611c8c565b61083f565b60405190151581526020016102a5565b3480156102ea57600080fd5b506000546102fe906001600160a01b031681565b6040516001600160a01b0390911681526020016102a5565b34801561032257600080fd5b507f52c63247e1f47db19d5ce0460030c497f067ca4cebf71ba98eeadabe20bace02545b6040519081526020016102a5565b34801561036057600080fd5b506102ce61036f366004611cb8565b610859565b34801561038057600080fd5b50604051601281526020016102a5565b34801561039c57600080fd5b506102816103ab366004611cf9565b61087f565b3480156103bc57600080fd5b50610281610bd2565b3480156103d157600080fd5b506102816103e0366004611c8c565b610be4565b3480156103f157600080fd5b50610281610400366004611c07565b610bfa565b34801561041157600080fd5b50610281610420366004611d62565b610d05565b34801561043157600080fd5b506001546102fe906001600160a01b031681565b34801561045157600080fd5b506007546102ce9060ff1681565b61028161046d366004611d95565b610d31565b34801561047e57600080fd5b50610346610d4c565b34801561049357600080fd5b506102ce6104a2366004611d62565b6001600160a01b03166000908152600b602052604090205460ff1690565b3480156104cc57600080fd5b506000805160206120f38339815191525460ff166102ce565b3480156104f157600080fd5b50610346610500366004611d62565b610d69565b34801561051157600080fd5b50610281610d91565b34801561052657600080fd5b50610281610da3565b34801561053b57600080fd5b5061034660085481565b34801561055157600080fd5b5061034660055481565b34801561056757600080fd5b506102fe610db3565b34801561057c57600080fd5b5061028161058b366004611c07565b610de1565b34801561059c57600080fd5b50610298610dee565b3480156105b157600080fd5b50610346601e81565b3480156105c657600080fd5b5061034660035481565b3480156105dc57600080fd5b5061034660025481565b3480156105f257600080fd5b506102ce610601366004611c8c565b610e2d565b34801561061257600080fd5b50610298604051806040016040528060058152602001640352e302e360dc1b81525081565b34801561064357600080fd5b5061034660095481565b34801561065957600080fd5b50610281610668366004611e59565b610e3b565b34801561067957600080fd5b50610281610688366004611c07565b610e8b565b34801561069957600080fd5b5061034660065481565b3480156106af57600080fd5b50610346600a5481565b3480156106c557600080fd5b506103466106d4366004611e7b565b610e98565b3480156106e557600080fd5b506102816106f4366004611d62565b610ee2565b34801561070557600080fd5b50610281610714366004611c07565b610f0b565b34801561072557600080fd5b50610281610734366004611c07565b610f18565b34801561074557600080fd5b50610281610754366004611d62565b610f25565b34801561076557600080fd5b5061034660045481565b610777610f63565b600255565b7f52c63247e1f47db19d5ce0460030c497f067ca4cebf71ba98eeadabe20bace0380546060916000805160206120b3833981519152916107bb90611eb4565b80601f01602080910402602001604051908101604052809291908181526020018280546107e790611eb4565b80156108345780601f1061080957610100808354040283529160200191610834565b820191906000526020600020905b81548152906001019060200180831161081757829003601f168201915b505050505091505090565b60003361084d818585610f95565b60019150505b92915050565b600033610867858285610fa7565b61087285858561100d565b60019150505b9392505050565b7ff0c57e16840df040f15088dc2f81fe391c3923bec73e23a9662efc9c229c6a008054600160401b810460ff16159067ffffffffffffffff166000811580156108c55750825b905060008267ffffffffffffffff1660011480156108e25750303b155b9050811580156108f0575080155b1561090e5760405163f92ee8a960e01b815260040160405180910390fd5b845467ffffffffffffffff19166001178555831561093857845460ff60401b1916600160401b1785555b61098260405180604001604052806008815260200167436172616d656c6f60c01b81525060405180604001604052806008815260200167434152414d454c4f60c01b81525061106c565b61098a61107e565b6109938c61108e565b61099b61109f565b60028b905560038a90556004898155600589905560068890556007805460ff19169055600080546001600160a01b0319166001600160a01b0389169081179091556040805163c45a015560e01b81529051919263c45a01559282820192602092908290030181865afa158015610a15573d6000803e3d6000fd5b505050506040513d601f19601f82011682018060405250810190610a399190611eee565b6001600160a01b031663c9c653963060008054906101000a90046001600160a01b03166001600160a01b031663ad5c46486040518163ffffffff1660e01b8152600401602060405180830381865afa158015610a99573d6000803e3d6000fd5b505050506040513d601f19601f82011682018060405250810190610abd9190611eee565b6040516001600160e01b031960e085901b1681526001600160a01b039283166004820152911660248201526044016020604051808303816000875af1158015610b0a573d6000803e3d6000fd5b505050506040513d601f19601f82011682018060405250810190610b2e9190611eee565b600180546001600160a01b0319166001600160a01b0392909216919091179055610b5786610d05565b600154610b6c906001600160a01b0316610d05565b610b758c610d05565b610b7e8c610f25565b8315610bc457845460ff60401b19168555604051600181527fc7f505b2f371ae2175ee4913f4499e1f2633a7b5936321eed1cdaeb6115181d29060200160405180910390a15b505050505050505050505050565b610bda610f63565b610be26110a7565b565b610bec610f63565b610bf68282611101565b5050565b610c02610f63565b60008111610c655760405162461bcd60e51b815260206004820152602560248201527f4275726e20616d6f756e74206d7573742062652067726561746572207468616e604482015264207a65726f60d81b60648201526084015b60405180910390fd5b6000610c7033610d69565b905081811015610cc25760405162461bcd60e51b815260206004820152601b60248201527f4275726e20616d6f756e7420657863656564732062616c616e636500000000006044820152606401610c5c565b610ccc3383611137565b60405182815233907ffd38818f5291bf0bb3a2a48aadc06ba8757865d1dabd804585338aab3009dcb69060200160405180910390a25050565b610d0d610f63565b6001600160a01b03166000908152600b60205260409020805460ff19166001179055565b610d3961116d565b610d4282611212565b610bf6828261121a565b6000610d566112d7565b506000805160206120d383398151915290565b6001600160a01b031660009081526000805160206120b3833981519152602052604090205490565b610d99610f63565b610be26000611320565b610dab610f63565b610be2611391565b7f9016d09d72d40fdae2fd8ceac6b6234c7706214fd39c1cd1e609a0528c199300546001600160a01b031690565b610de9610f63565b600355565b7f52c63247e1f47db19d5ce0460030c497f067ca4cebf71ba98eeadabe20bace0480546060916000805160206120b3833981519152916107bb90611eb4565b60003361084d81858561100d565b610e43610f63565b6007805460ff19168215159081179091556040519081527f53726dfcaf90650aa7eb35524f4d3220f07413c8d6cb404cc8c18bf5591bc159906020015b60405180910390a150565b610e93610f63565b600455565b6001600160a01b0391821660009081527f52c63247e1f47db19d5ce0460030c497f067ca4cebf71ba98eeadabe20bace016020908152604080832093909416825291909152205490565b610eea610f63565b6001600160a01b03166000908152600b60205260409020805460ff19169055565b610f13610f63565b600555565b610f20610f63565b600655565b610f2d610f63565b6001600160a01b038116610f5757604051631e4fbdf760e01b815260006004820152602401610c5c565b610f6081611320565b50565b33610f6c610db3565b6001600160a01b031614610be25760405163118cdaa760e01b8152336004820152602401610c5c565b610fa283838360016113da565b505050565b6000610fb38484610e98565b905060001981146110075781811015610ff857604051637dc7a0d960e11b81526001600160a01b03841660048201526024810182905260448101839052606401610c5c565b611007848484840360006113da565b50505050565b6001600160a01b03831661103757604051634b637e8f60e11b815260006004820152602401610c5c565b6001600160a01b0382166110615760405163ec442f0560e01b815260006004820152602401610c5c565b610fa28383836114c2565b61107461175e565b610bf682826117a7565b61108661175e565b610be26117f8565b61109661175e565b610f6081611819565b610be261175e565b6110af611821565b6000805160206120f3833981519152805460ff191681557f5db9ee0a495bf2e6ff9c91a7834c1ba4fdd244a5e8aa4e537bd38aeae4b073aa335b6040516001600160a01b039091168152602001610e80565b6001600160a01b03821661112b5760405163ec442f0560e01b815260006004820152602401610c5c565b610bf6600083836114c2565b6001600160a01b03821661116157604051634b637e8f60e11b815260006004820152602401610c5c565b610bf6826000836114c2565b306001600160a01b037f00000000000000000000000000000000000000000000000000000000000000001614806111f457507f00000000000000000000000000000000000000000000000000000000000000006001600160a01b03166111e86000805160206120d3833981519152546001600160a01b031690565b6001600160a01b031614155b15610be25760405163703e46dd60e11b815260040160405180910390fd5b610f60610f63565b816001600160a01b03166352d1902d6040518163ffffffff1660e01b8152600401602060405180830381865afa925050508015611274575060408051601f3d908101601f1916820190925261127191810190611f0b565b60015b61129c57604051634c9c8ce360e01b81526001600160a01b0383166004820152602401610c5c565b6000805160206120d383398151915281146112cd57604051632a87526960e21b815260048101829052602401610c5c565b610fa28383611851565b306001600160a01b037f00000000000000000000000000000000000000000000000000000000000000001614610be25760405163703e46dd60e11b815260040160405180910390fd5b7f9016d09d72d40fdae2fd8ceac6b6234c7706214fd39c1cd1e609a0528c19930080546001600160a01b031981166001600160a01b03848116918217845560405192169182907f8be0079c531659141344cd1fd0a4f28419497f9722a3daafe3b4186f6b6457e090600090a3505050565b6113996118a7565b6000805160206120f3833981519152805460ff191660011781557f62e78cea01bee320cd4e420270b5ea74000d11b0c9f74754ebdbfc544b05a258336110e9565b6000805160206120b38339815191526001600160a01b0385166114135760405163e602df0560e01b815260006004820152602401610c5c565b6001600160a01b03841661143d57604051634a1406b160e11b815260006004820152602401610c5c565b6001600160a01b038086166000908152600183016020908152604080832093881683529290522083905581156114bb57836001600160a01b0316856001600160a01b03167f8c5be1e5ebec7d5bd14f71427d1e84f3dd0314c0f7b2291e5b200ac8c7c3b925856040516114b291815260200190565b60405180910390a35b5050505050565b6114cd8383836118d8565b6001600160a01b0382166114e057505050565b6114e8610db3565b6001600160a01b0316836001600160a01b031614158015611522575061150c610db3565b6001600160a01b0316826001600160a01b031614155b15611589576005548111156115895760405162461bcd60e51b815260206004820152602760248201527f5472616e7366657220616d6f756e74206578636565647320746865206d6178546044820152661e105b5bdd5b9d60ca1b6064820152608401610c5c565b6001600160a01b0383166000908152600b602052604090205460ff161580156115cb57506001600160a01b0382166000908152600b602052604090205460ff16155b15610fa25760008060006115de846118eb565b919450925090506000816115f28486611f3a565b6115fc9190611f3a565b90508481111561164e5760405162461bcd60e51b815260206004820181905260248201527f546f74616c206665657320657863656564207472616e736665722076616c75656044820152606401610c5c565b81156116b45761165e8783611137565b81600a60008282546116709190611f3a565b90915550506040518281526001600160a01b038816907ffd38818f5291bf0bb3a2a48aadc06ba8757865d1dabd804585338aab3009dcb69060200160405180910390a25b60008411806116c35750600083115b156117145783600860008282546116da9190611f3a565b9250508190555082600960008282546116f39190611f3a565b90915550600090506117058486611f3a565b90506117128830836118d8565b505b60408051858152602081018590529081018390527ffd3bc8cbcb80e2c149c0afd0c43c5481efe524348d615ffb006c32e490f60add9060600160405180910390a150505050505050565b7ff0c57e16840df040f15088dc2f81fe391c3923bec73e23a9662efc9c229c6a0054600160401b900460ff16610be257604051631afcd79f60e31b815260040160405180910390fd5b6117af61175e565b6000805160206120b38339815191527f52c63247e1f47db19d5ce0460030c497f067ca4cebf71ba98eeadabe20bace036117e98482611f9d565b50600481016110078382611f9d565b61180061175e565b6000805160206120f3833981519152805460ff19169055565b610f2d61175e565b6000805160206120f38339815191525460ff16610be257604051638dfc202b60e01b815260040160405180910390fd5b61185a8261194a565b6040516001600160a01b038316907fbc7cd75a20ee27fd9adebab32041f755214dbc6bffa90cc0225b39da2e5c2d3b90600090a280511561189f57610fa282826119af565b610bf6611a25565b6000805160206120f38339815191525460ff1615610be25760405163d93c066560e01b815260040160405180910390fd5b6118e06118a7565b610fa2838383611a44565b6000806000606460025485611900919061205d565b61190a9190612074565b925060646003548561191c919061205d565b6119269190612074565b9150606460045485611938919061205d565b6119429190612074565b929491935050565b806001600160a01b03163b60000361198057604051634c9c8ce360e01b81526001600160a01b0382166004820152602401610c5c565b6000805160206120d383398151915280546001600160a01b0319166001600160a01b0392909216919091179055565b6060600080846001600160a01b0316846040516119cc9190612096565b600060405180830381855af49150503d8060008114611a07576040519150601f19603f3d011682016040523d82523d6000602084013e611a0c565b606091505b5091509150611a1c858383611b82565b95945050505050565b3415610be25760405163b398979f60e01b815260040160405180910390fd5b6000805160206120b38339815191526001600160a01b038416611a805781816002016000828254611a759190611f3a565b90915550611af29050565b6001600160a01b03841660009081526020829052604090205482811015611ad35760405163391434e360e21b81526001600160a01b03861660048201526024810182905260448101849052606401610c5c565b6001600160a01b03851660009081526020839052604090209083900390555b6001600160a01b038316611b10576002810180548390039055611b2f565b6001600160a01b03831660009081526020829052604090208054830190555b826001600160a01b0316846001600160a01b03167fddf252ad1be2c89b69c2b068fc378daa952ba7f163c4a11628f55a4df523b3ef84604051611b7491815260200190565b60405180910390a350505050565b606082611b9757611b9282611bde565b610878565b8151158015611bae57506001600160a01b0384163b155b15611bd757604051639996b31560e01b81526001600160a01b0385166004820152602401610c5c565b5080610878565b805115611bee5780518082602001fd5b604051630a12f52160e11b815260040160405180910390fd5b600060208284031215611c1957600080fd5b5035919050565b60005b83811015611c3b578181015183820152602001611c23565b50506000910152565b6020815260008251806020840152611c63816040850160208701611c20565b601f01601f19169190910160400192915050565b6001600160a01b0381168114610f6057600080fd5b60008060408385031215611c9f57600080fd5b8235611caa81611c77565b946020939093013593505050565b600080600060608486031215611ccd57600080fd5b8335611cd881611c77565b92506020840135611ce881611c77565b929592945050506040919091013590565b600080600080600080600060e0888a031215611d1457600080fd5b8735611d1f81611c77565b96506020880135955060408801359450606088013593506080880135925060a0880135915060c0880135611d5281611c77565b8091505092959891949750929550565b600060208284031215611d7457600080fd5b813561087881611c77565b634e487b7160e01b600052604160045260246000fd5b60008060408385031215611da857600080fd5b8235611db381611c77565b9150602083013567ffffffffffffffff80821115611dd057600080fd5b818501915085601f830112611de457600080fd5b813581811115611df657611df6611d7f565b604051601f8201601f19908116603f01168101908382118183101715611e1e57611e1e611d7f565b81604052828152886020848701011115611e3757600080fd5b8260208601602083013760006020848301015280955050505050509250929050565b600060208284031215611e6b57600080fd5b8135801515811461087857600080fd5b60008060408385031215611e8e57600080fd5b8235611e9981611c77565b91506020830135611ea981611c77565b809150509250929050565b600181811c90821680611ec857607f821691505b602082108103611ee857634e487b7160e01b600052602260045260246000fd5b50919050565b600060208284031215611f0057600080fd5b815161087881611c77565b600060208284031215611f1d57600080fd5b5051919050565b634e487b7160e01b600052601160045260246000fd5b8082018082111561085357610853611f24565b601f821115610fa2576000816000526020600020601f850160051c81016020861015611f765750805b601f850160051c820191505b81811015611f9557828155600101611f82565b505050505050565b815167ffffffffffffffff811115611fb757611fb7611d7f565b611fcb81611fc58454611eb4565b84611f4d565b602080601f8311600181146120005760008415611fe85750858301515b600019600386901b1c1916600185901b178555611f95565b600085815260208120601f198616915b8281101561202f57888601518255948401946001909101908401612010565b508582101561204d5787850151600019600388901b60f8161c191681555b5050505050600190811b01905550565b808202811582820484141761085357610853611f24565b60008261209157634e487b7160e01b600052601260045260246000fd5b500490565b600082516120a8818460208701611c20565b919091019291505056fe52c63247e1f47db19d5ce0460030c497f067ca4cebf71ba98eeadabe20bace00360894a13ba1a3210667c828492db98dca3e2076cc3735a920a3ca505d382bbccd5ed15c6e187e77e9aee88184c21f4f2182ab5827cb3b7e07fbedcd63f03300a2646970667358221220a010f71abf326682265bfb8a558a1ede9b594317082d64d28f318d0d0461013364736f6c63430008160033","linkReferences":{}},"methodIdentifiers":{"BURN_PERCENTAGE()":"9649b910","UPGRADE_INTERFACE_VERSION()":"ad3cb1cc","allowance(address,address)":"dd62ed3e","approve(address,uint256)":"095ea7b3","balanceOf(address)":"70a08231","burn(uint256)":"42966c68","burnFee()":"fce589d8","decimals()":"313ce567","excludeFromFee(address)":"437823ec","includeInFee(address)":"ea2f0b37","initialize(address,uint256,uint256,uint256,uint256,uint256,address)":"39b6e72c","isExcludedFromFee(address)":"5342acb4","liquidityFee()":"98118cb4","maxTxAmount()":"8c0b5e22","mint(address,uint256)":"40c10f19","name()":"06fdde03","numTokensSellToAddToLiquidity()":"d12a7688","owner()":"8da5cb5b","pause()":"8456cb59","paused()":"5c975abb","proxiableUUID()":"52d1902d","renounceOwnership()":"715018a6","setBurnFeePercent(uint256)":"cea26958","setLiquidityFeePercent(uint256)":"8ee88c53","setMaxTxAmount(uint256)":"ec28438a","setNumTokensSellToAddToLiquidity(uint256)":"f0f165af","setSwapAndLiquifyEnabled(bool)":"c49b9a80","setTaxFeePercent(uint256)":"061c82d0","swapAndLiquifyEnabled()":"4a74bb02","symbol()":"95d89b41","taxFee()":"a071dcf4","totalBurned()":"d89135cd","totalLiquidityCollected()":"b98be3b8","totalSupply()":"18160ddd","totalTaxesCollected()":"884133e6","transfer(address,uint256)":"a9059cbb","transferFrom(address,address,uint256)":"23b872dd","transferOwnership(address)":"f2fde38b","uniswapV2Pair()":"49bd5a5e","uniswapV2Router()":"1694505e","unpause()":"3f4ba83a","upgradeToAndCall(address,bytes)":"4f1ef286"},"id":0}