{"abi":[{"type":"constructor","inputs":[{"name":"tokenName","type":"string","internalType":"string"},{"name":"tokenSymbol","type":"string","internalType":"string"},{"name":"_totalSupply","type":"uint256","internalType":"uint256"},{"name":"_token_decimals","type":"uint8","internalType":"uint8"},{"name":"_taxFee","type":"uint256","internalType":"uint256"},{"name":"_liquidityFee","type":"uint256","internalType":"uint256"},{"name":"_maxTokensTXAmount","type":"uint256","internalType":"uint256"},{"name":"_numTokensSellToAddToLiquidity","type":"uint256","internalType":"uint256"}],"stateMutability":"nonpayable"},{"type":"receive","stateMutability":"payable"},{"type":"function","name":"allowance","inputs":[{"name":"owner","type":"address","internalType":"address"},{"name":"spender","type":"address","internalType":"address"}],"outputs":[{"name":"","type":"uint256","internalType":"uint256"}],"stateMutability":"view"},{"type":"function","name":"approve","inputs":[{"name":"spender","type":"address","internalType":"address"},{"name":"amount","type":"uint256","internalType":"uint256"}],"outputs":[{"name":"","type":"bool","internalType":"bool"}],"stateMutability":"nonpayable"},{"type":"function","name":"balanceOf","inputs":[{"name":"account","type":"address","internalType":"address"}],"outputs":[{"name":"","type":"uint256","internalType":"uint256"}],"stateMutability":"view"},{"type":"function","name":"configureUniswap","inputs":[{"name":"routerAddress","type":"address","internalType":"address"}],"outputs":[],"stateMutability":"nonpayable"},{"type":"function","name":"decimals","inputs":[],"outputs":[{"name":"","type":"uint8","internalType":"uint8"}],"stateMutability":"view"},{"type":"function","name":"excludeFromFee","inputs":[{"name":"account","type":"address","internalType":"address"}],"outputs":[],"stateMutability":"nonpayable"},{"type":"function","name":"includeInFee","inputs":[{"name":"account","type":"address","internalType":"address"}],"outputs":[],"stateMutability":"nonpayable"},{"type":"function","name":"initializeTokenomics","inputs":[],"outputs":[],"stateMutability":"nonpayable"},{"type":"function","name":"isAccountExcludedFromFree","inputs":[{"name":"account","type":"address","internalType":"address"}],"outputs":[{"name":"","type":"bool","internalType":"bool"}],"stateMutability":"view"},{"type":"function","name":"isSwapAndLiquifyEnabled","inputs":[],"outputs":[{"name":"","type":"bool","internalType":"bool"}],"stateMutability":"view"},{"type":"function","name":"liquidityFee","inputs":[],"outputs":[{"name":"","type":"uint256","internalType":"uint256"}],"stateMutability":"view"},{"type":"function","name":"maxTxAmount","inputs":[],"outputs":[{"name":"","type":"uint256","internalType":"uint256"}],"stateMutability":"view"},{"type":"function","name":"name","inputs":[],"outputs":[{"name":"","type":"string","internalType":"string"}],"stateMutability":"view"},{"type":"function","name":"numTokensSellToAddToLiquidity","inputs":[],"outputs":[{"name":"","type":"uint256","internalType":"uint256"}],"stateMutability":"view"},{"type":"function","name":"owner","inputs":[],"outputs":[{"name":"","type":"address","internalType":"address"}],"stateMutability":"view"},{"type":"function","name":"reflectionBalanceOf","inputs":[{"name":"account","type":"address","internalType":"address"}],"outputs":[{"name":"","type":"uint256","internalType":"uint256"}],"stateMutability":"view"},{"type":"function","name":"renounceOwnership","inputs":[],"outputs":[],"stateMutability":"nonpayable"},{"type":"function","name":"setFees","inputs":[{"name":"_taxFee","type":"uint256","internalType":"uint256"},{"name":"_liquidityFee","type":"uint256","internalType":"uint256"}],"outputs":[],"stateMutability":"nonpayable"},{"type":"function","name":"setMaxTxAmount","inputs":[{"name":"newMaxTxAmount","type":"uint256","internalType":"uint256"}],"outputs":[],"stateMutability":"nonpayable"},{"type":"function","name":"setNumTokensSellToAddToLiquidity","inputs":[{"name":"newNumTokensSellToAddToLiquidity","type":"uint256","internalType":"uint256"}],"outputs":[],"stateMutability":"nonpayable"},{"type":"function","name":"setSwapAndLiquifyEnabled","inputs":[{"name":"_enabled","type":"bool","internalType":"bool"}],"outputs":[],"stateMutability":"nonpayable"},{"type":"function","name":"swapAndLiquifyEnabled","inputs":[],"outputs":[{"name":"","type":"bool","internalType":"bool"}],"stateMutability":"view"},{"type":"function","name":"symbol","inputs":[],"outputs":[{"name":"","type":"string","internalType":"string"}],"stateMutability":"view"},{"type":"function","name":"taxFee","inputs":[],"outputs":[{"name":"","type":"uint256","internalType":"uint256"}],"stateMutability":"view"},{"type":"function","name":"tokenomics","inputs":[{"name":"","type":"uint256","internalType":"uint256"}],"outputs":[{"name":"wallet","type":"address","internalType":"address"},{"name":"percentage","type":"uint256","internalType":"uint256"}],"stateMutability":"view"},{"type":"function","name":"totalSupply","inputs":[],"outputs":[{"name":"","type":"uint256","internalType":"uint256"}],"stateMutability":"view"},{"type":"function","name":"transfer","inputs":[{"name":"recipient","type":"address","internalType":"address"},{"name":"amount","type":"uint256","internalType":"uint256"}],"outputs":[{"name":"","type":"bool","internalType":"bool"}],"stateMutability":"nonpayable"},{"type":"function","name":"transferFrom","inputs":[{"name":"sender","type":"address","internalType":"address"},{"name":"recipient","type":"address","internalType":"address"},{"name":"amount","type":"uint256","internalType":"uint256"}],"outputs":[{"name":"","type":"bool","internalType":"bool"}],"stateMutability":"nonpayable"},{"type":"function","name":"transferOwnership","inputs":[{"name":"newOwner","type":"address","internalType":"address"}],"outputs":[],"stateMutability":"nonpayable"},{"type":"function","name":"uniswapV2Pair","inputs":[],"outputs":[{"name":"","type":"address","internalType":"address"}],"stateMutability":"view"},{"type":"function","name":"uniswapV2Router","inputs":[],"outputs":[{"name":"","type":"address","internalType":"contract IUniswapV2Router02"}],"stateMutability":"view"},{"type":"function","name":"updateUniswapV2Router","inputs":[{"name":"newRouter","type":"address","internalType":"address"}],"outputs":[],"stateMutability":"nonpayable"},{"type":"function","name":"withdrawBNB","inputs":[{"name":"amount","type":"uint256","internalType":"uint256"}],"outputs":[],"stateMutability":"nonpayable"},{"type":"event","name":"Approval","inputs":[{"name":"owner","type":"address","indexed":true,"internalType":"address"},{"name":"spender","type":"address","indexed":true,"internalType":"address"},{"name":"value","type":"uint256","indexed":false,"internalType":"uint256"}],"anonymous":false},{"type":"event","name":"ExcludedFromFee","inputs":[{"name":"account","type":"address","indexed":true,"internalType":"address"}],"anonymous":false},{"type":"event","name":"FeesDistributed","inputs":[{"name":"reflectionFee","type":"uint256","indexed":false,"internalType":"uint256"},{"name":"liquidityFee","type":"uint256","indexed":false,"internalType":"uint256"},{"name":"burnFee","type":"uint256","indexed":false,"internalType":"uint256"}],"anonymous":false},{"type":"event","name":"FeesUpdated","inputs":[{"name":"_taxFee","type":"uint256","indexed":true,"internalType":"uint256"},{"name":"_liquidityFee","type":"uint256","indexed":true,"internalType":"uint256"}],"anonymous":false},{"type":"event","name":"IncludedInFee","inputs":[{"name":"account","type":"address","indexed":true,"internalType":"address"}],"anonymous":false},{"type":"event","name":"LiquidityAdded","inputs":[{"name":"tokenAmount","type":"uint256","indexed":false,"internalType":"uint256"},{"name":"ethAmount","type":"uint256","indexed":false,"internalType":"uint256"},{"name":"liquidity","type":"uint256","indexed":false,"internalType":"uint256"}],"anonymous":false},{"type":"event","name":"MaxTxAmountUpdated","inputs":[{"name":"newMaxTxAmount","type":"uint256","indexed":false,"internalType":"uint256"}],"anonymous":false},{"type":"event","name":"NumTokensSellToAddToLiquidityUpdated","inputs":[{"name":"newNumTokensSellToAddToLiquidity","type":"uint256","indexed":false,"internalType":"uint256"}],"anonymous":false},{"type":"event","name":"OwnershipTransferred","inputs":[{"name":"previousOwner","type":"address","indexed":true,"internalType":"address"},{"name":"newOwner","type":"address","indexed":true,"internalType":"address"}],"anonymous":false},{"type":"event","name":"SwapAndLiquify","inputs":[{"name":"tokensSwapped","type":"uint256","indexed":false,"internalType":"uint256"},{"name":"ethReceived","type":"uint256","indexed":false,"internalType":"uint256"},{"name":"tokensAddedToLiquidity","type":"uint256","indexed":false,"internalType":"uint256"}],"anonymous":false},{"type":"event","name":"SwapAndLiquifyEnabledUpdated","inputs":[{"name":"enabled","type":"bool","indexed":false,"internalType":"bool"}],"anonymous":false},{"type":"event","name":"TokensBurned","inputs":[{"name":"burner","type":"address","indexed":true,"internalType":"address"},{"name":"burnAmount","type":"uint256","indexed":false,"internalType":"uint256"}],"anonymous":false},{"type":"event","name":"Transfer","inputs":[{"name":"from","type":"address","indexed":true,"internalType":"address"},{"name":"to","type":"address","indexed":true,"internalType":"address"},{"name":"value","type":"uint256","indexed":false,"internalType":"uint256"}],"anonymous":false},{"type":"event","name":"UniswapConfigured","inputs":[{"name":"router","type":"address","indexed":true,"internalType":"address"},{"name":"pair","type":"address","indexed":true,"internalType":"address"}],"anonymous":false},{"type":"event","name":"UniswapV2RouterUpdated","inputs":[{"name":"newRouter","type":"address","indexed":false,"internalType":"address"}],"anonymous":false},{"type":"error","name":"AlreadyExcluded","inputs":[]},{"type":"error","name":"FeesExceeded","inputs":[{"name":"totalFees","type":"uint256","internalType":"uint256"}]},{"type":"error","name":"InsufficientBalance","inputs":[{"name":"available","type":"uint256","internalType":"uint256"},{"name":"required","type":"uint256","internalType":"uint256"}]},{"type":"error","name":"InvalidTokenomicsPercentage","inputs":[]},{"type":"error","name":"LiquidityAdditionFailed","inputs":[]},{"type":"error","name":"NotExcluded","inputs":[]},{"type":"error","name":"NumTokensSellToAddToLiquidityFailed","inputs":[{"name":"currentAmount","type":"uint256","internalType":"uint256"},{"name":"newAmount","type":"uint256","internalType":"uint256"}]},{"type":"error","name":"OwnableInvalidOwner","inputs":[{"name":"owner","type":"address","internalType":"address"}]},{"type":"error","name":"OwnableUnauthorizedAccount","inputs":[{"name":"account","type":"address","internalType":"address"}]},{"type":"error","name":"ReentrancyGuardReentrantCall","inputs":[]},{"type":"error","name":"TokenBalanceZero","inputs":[]},{"type":"error","name":"TokenomicsAlreadyInitialized","inputs":[{"name":"message","type":"string","internalType":"string"}]},{"type":"error","name":"TransferAmountExceedsMax","inputs":[]},{"type":"error","name":"TransferAmountZero","inputs":[]},{"type":"error","name":"UniswapAlreadyConfigured","inputs":[]},{"type":"error","name":"ZeroAddress","inputs":[]},{"type":"error","name":"ZeroValue","inputs":[]}],"bytecode":{"object":"0x60406080815234620005615762002190803803806200001e8162000566565b92833981019061010081830312620005615780516001600160401b0381116200056157826200004f9183016200058c565b602082015190926001600160401b0382116200056157620000729183016200058c565b90838101519260608201519160ff83168303620005615760808101519360a08201519060e060c0840151930151933315620005495760008054336001600160a01b0319821681178355916001600160a01b03909116907f8be0079c531659141344cd1fd0a4f28419497f9722a3daafe3b4186f6b6457e09080a36001805561ff00196007541660075561ffff19600f5416600f55620186a0620001168489620005fe565b1162000526578051906001600160401b038211620004145760055490600182811c921680156200051b575b6020831014620003f35781601f849311620004c5575b50602090601f831160011462000436576000926200042a575b50508160011b916000199060031b1c1916176005555b8051906001600160401b038211620004145760065490600182811c9216801562000409575b6020831014620003f35781601f8493116200038f575b50602090601f8311600114620003155760009262000309575b50508160011b916000199060031b1c1916176006555b60ff199560ff8516876007541617600755604d60ff861611620002f357620002209060ff8616600a0a906200060c565b93846002558415620002dd57620002616200025a9360ff936200026b9760001906199889600355600b55600c556200025a84841662000620565b906200060c565b600d551662000620565b600e553360005260086020528260002055600a602052816000206001828254161790553060005260018260002091825416179055600254815190815260007fddf252ad1be2c89b69c2b068fc378daa952ba7f163c4a11628f55a4df523b3ef60203393a351611b3d9081620006338239f35b634e487b7160e01b600052601260045260246000fd5b634e487b7160e01b600052601160045260246000fd5b015190503880620001da565b60066000908152600080516020620021708339815191529350601f198516905b8181106200037657509084600195949392106200035c575b505050811b01600655620001f0565b015160001960f88460031b161c191690553880806200034d565b9293602060018192878601518155019501930162000335565b600660005290915060008051602062002170833981519152601f840160051c81019160208510620003e8575b90601f859493920160051c01905b818110620003d85750620001c1565b60008155849350600101620003c9565b9091508190620003bb565b634e487b7160e01b600052602260045260246000fd5b91607f1691620001ab565b634e487b7160e01b600052604160045260246000fd5b01519050388062000170565b6005600090815293507f036b6384b5eca791c62761152d0c79bb0604c104a5fb6f4eb0703f3154bb3db091905b601f1984168510620004a9576001945083601f198116106200048f575b505050811b0160055562000186565b015160001960f88460031b161c1916905538808062000480565b8181015183556020948501946001909301929091019062000463565b90915060056000526020600020601f840160051c81016020851062000513575b90849392915b601f830160051c820181106200050357505062000157565b60008155859450600101620004eb565b5080620004e5565b91607f169162000141565b60248962000535858a620005fe565b905190632db7582d60e01b82526004820152fd5b8851631e4fbdf760e01b815260006004820152602490fd5b600080fd5b6040519190601f01601f191682016001600160401b038111838210176200041457604052565b919080601f84011215620005615782516001600160401b0381116200041457602090620005c2601f8201601f1916830162000566565b92818452828287010111620005615760005b818110620005ea57508260009394955001015290565b8581018301518482018401528201620005d4565b91908201809211620002f357565b81810292918115918404141715620002f357565b60ff16604d8111620002f357600a0a9056fe6080604081815260049081361015610022575b505050361561002057600080fd5b005b600092833560e01c90816304f377f81461114b5750806306fdde031461108c578063087a2daf1461104a578063095ea7b3146110195780630b78f9c014610f9c578063127f4b2e14610f2e5780631694505e14610f0357806318160ddd14610ee45780631e352ab514610c6d57806323b872dd14610bdf5780632e66482914610ba3578063313ce56714610b81578063437823ec14610af757806349bd5a5e14610acf5780634a74bb0214610aab57806365b8dbc014610a1857806370a08231146109f2578063715018a61461099d57806384aa9fb6146109195780638c0b5e22146108fa5780638da5cb5b146108d457806395d89b41146107d157806398118cb4146107b2578063a071dcf414610793578063a9059cbb14610756578063c49b9a8014610647578063d12a768814610628578063dd62ed3e146105db578063ea2f0b3714610553578063ec28438a146104ef578063f0f165af14610465578063f2fde38b146103d15763f685a28b0361001257346103cd57602090816003193601126103c9576101b16111b5565b916101ba611374565b600f546001600160a01b036010918181841c16158015906103bd575b6103ad5781861695861561039d5775ffffffffffffffffffffffffffffffffffffffff00001990911690831b62010000600160b01b031617600f819055845163c45a015560e01b8152908890841c831685838a81845afa92831561039357829187918b9495610374575b5088516315ab88c960e31b815293849182905afa9182156103685791898286899581979594610348575b50604493948b5197889687956364e329cb60e11b87523090870152166024850152165af190811561033e578891610311575b5016948515610303575090600a91856001600160a01b03198254161790558486525260018185209160ff199282848254161790558386528520918254161790557fc1a9e56c8129347b63ce39a7b2cb626d8e39b9baae0723beb7cbe61d73475bc08380a380f35b835163d92e233d60e01b8152fd5b6103319150843d8611610337575b6103298183611218565b8101906112d3565b3861029c565b503d61031f565b85513d8a823e3d90fd5b6044945061036290873d8911610337576103298183611218565b9361026a565b508651903d90823e3d90fd5b61038c919550823d8411610337576103298183611218565b9338610240565b87513d84823e3d90fd5b855163d92e233d60e01b81528890fd5b845163d6150e9560e01b81528790fd5b508183541615156101d6565b8380fd5b8280fd5b5090346103cd5760203660031901126103cd576103ec6111b5565b906103f5611374565b6001600160a01b0380921692831561044f575050825473ffffffffffffffffffffffffffffffffffffffff19811683178455167f8be0079c531659141344cd1fd0a4f28419497f9722a3daafe3b4186f6b6457e08380a380f35b51631e4fbdf760e01b8152908101849052602490fd5b50346103cd5760203660031901126103cd57813591610482611374565b61049961049360ff600754166112c2565b8461125d565b80600e55600d54908181116104d657857fab1090599596cfb0c655b6424e552fba2cedf77457ed354fbe96e9abf4aa1f136020878751908152a180f35b604493519263cd1a97bb60e01b84528301526024820152fd5b5090346103cd5760203660031901126103cd577f947f344d56e1e8c70dc492fb94c4ddddd490c016aab685f5e7e47b2e85cb44cf916020913590610531611374565b61054861054260ff600754166112c2565b8361125d565b600d5551908152a180f35b50346103cd5760203660031901126103cd576001600160a01b036105756111b5565b61057d611374565b1691828452600a60205260ff8285205416156105cd5750818352600a6020528220805460ff191690557f78ce087db51d01d3e32355f2d83455d5a39f99194c8d3d1c2614893695cee4428280a280f35b9051634549716160e11b8152fd5b838234610624578060031936011261062457806020926105f96111b5565b6106016111d0565b6001600160a01b0391821683526009865283832091168252845220549051908152f35b5080fd5b838234610624578160031936011261062457602090600e549051908152f35b50346103cd5760203660031901126103cd578135801515928382036107525761066e611374565b600f54918460ff84161515146106ba57857f53726dfcaf90650aa7eb35524f4d3220f07413c8d6cb404cc8c18bf5591bc159602087878760ff83169060ff191617600f5551908152a180f35b909150156107145761071082516106d0816111e6565b601781527f5377617020697320616c726561647920656e61626c65640000000000000000006020820152925b5162461bcd60e51b8152928392830161116c565b0390fd5b6107108251610722816111e6565b601881527f5377617020697320616c72656164792064697361626c656400000000000000006020820152926106fc565b8480fd5b8382346106245780600319360112610624576020906107886107766111b5565b61077e611a7b565b60243590336113ad565b600180555160018152f35b838234610624578160031936011261062457602090600b549051908152f35b838234610624578160031936011261062457602090600c549051908152f35b50346103cd57826003193601126103cd5780519183600654906001908260011c926001811680156108ca575b60209586861082146108b75750848852908115610895575060011461083c575b610838868661082e828b0383611218565b519182918261116c565b0390f35b929550600683527ff652222313e28459528d920b65115c16c04f3efc82aaedc97be59f3f377c0d3f5b82841061088257505050826108389461082e92820101943861081d565b8054868501880152928601928101610865565b60ff191687860152505050151560051b830101925061082e826108383861081d565b634e487b7160e01b845260229052602483fd5b93607f16936107fd565b8382346106245781600319360112610624576001600160a01b0360209254169051908152f35b838234610624578160031936011261062457602090600d549051908152f35b50919034610624576020366003190112610624576001600160a01b0361093d6111b5565b1690811561096b57602084610964818686815260088552205461095e611a9e565b90611270565b9051908152f35b606490602085519162461bcd60e51b8352820152600c60248201526b5a65726f206164647265737360a01b6044820152fd5b83346109ef57806003193601126109ef576109b6611374565b806001600160a01b038154811981168355167f8be0079c531659141344cd1fd0a4f28419497f9722a3daafe3b4186f6b6457e08280a380f35b80fd5b83823461062457602036600319011261062457602090610964610a136111b5565b611290565b50346103cd5760203660031901126103cd57610a326111b5565b610a3a611374565b6001600160a01b038116928315610a9d5750916020917f7e0f425e693a3591da35eee37f8ada3aadc3632fa8ffbcecac1341351c8ece669362010000600160b01b03600f549160101b169062010000600160b01b03191617600f5551908152a180f35b825163d92e233d60e01b8152fd5b83823461062457816003193601126106245760209060ff600f541690519015158152f35b8382346106245781600319360112610624576020906001600160a01b03601054169051908152f35b50346103cd5760203660031901126103cd576001600160a01b03610b196111b5565b610b21611374565b1691828452600a60205260ff8285205416610b735750818352600a6020528220805460ff191660011790557ff1d6512ec7550bf605a5a38910e48fb6a57938ed74a5afa01753fa023001005c8280a280f35b905163175c779760e11b8152fd5b83823461062457816003193601126106245760209060ff600754169051908152f35b8382346106245760203660031901126106245760ff816020936001600160a01b03610bcc6111b5565b168152600a855220541690519015158152f35b5091346109ef5760603660031901126109ef57610bfa6111b5565b91610c036111d0565b8460443593610c10611a7b565b6001600160a01b03861681526009602052818120338252602052205491838310610c5157602086610788878787610c488289856113ad565b039033906112f2565b935050604493519263cf47918160e01b84528301526024820152fd5b5090346103cd57826003193601126103cd57610c87611374565b60075460ff8160081c1615610ea05761ff001916610100176007558151610cad816111e6565b73770a14689463d15e7f2f28c581cc61faf076e35c9182825260326020809301526001600160a01b03199160119383601154161760115560129260326012558551610cf7816111e6565b600f83735cffe6546affdceea5fc02838ad7b1aaec3fc00a928381520152816013541617601355600f601455818651610d2f816111e6565b7351b8470fe0da250b5893ee5b26574feb32282f2b90818152600a9283910152826015541617601555806016558651610d67816111e6565b81847324f515276052d412f659aa28a6dd7f39a52f6ad7928381520152826017541617601755806018558651610d9c816111e6565b818473d3a2bd9cfb11067fa80aca88bed48fa7cf0e2dcc928381520152826019541617601955601a556005865192610dd3846111e6565b7305b0cf5efa12dc9bd83558b4787120a9297d9246938481520152601b541617601b556005601c558493855b60068110610e6357506064809503610e56575050835b60068110610e21578480f35b600190610e506002546001600160a01b0387610e4485871b93888501549061125d565b049187015416336113ad565b01610e15565b516323c1a96160e11b8152fd5b948560011b6001600160a01b03818701541615610e915760019185610e8a9201549061123a565b9501610dff565b50505163d92e233d60e01b8152fd5b50602060649251916325dab35760e01b8352820152601f60248201527f546f6b656e6f6d69637320616c726561647920696e697469616c697a656421006044820152fd5b8382346106245781600319360112610624576020906002549051908152f35b8382346106245781600319360112610624576020906001600160a01b03600f5460101c169051908152f35b5090346103cd5760203660031901126103cd57803590610f4c611374565b814710610f8057508280808093818115610f77575b3390f115610f6d575080f35b51903d90823e3d90fd5b506108fc610f61565b906044924790519263cf47918160e01b84528301526024820152fd5b5090346103cd57816003193601126103cd5780359060243592610fbd611374565b610fc7848461123a565b90620186a082116110045750505080600b5581600c557f5c6323bf1c2d7aaea2c091a4751c1c87af7f2864650c336507a77d0557af37a18380a380f35b51632db7582d60e01b81529182015260249150fd5b8382346106245780600319360112610624576020906110436110396111b5565b60243590336112f2565b5160018152f35b5091903461062457602036600319011261062457359060068210156109ef575060011b60126001600160a01b0382601101541691015482519182526020820152f35b50346103cd57826003193601126103cd5780519183600554906001908260011c92600181168015611141575b60209586861082146108b7575084885290811561089557506001146110e857610838868661082e828b0383611218565b929550600583527f036b6384b5eca791c62761152d0c79bb0604c104a5fb6f4eb0703f3154bb3db05b82841061112e57505050826108389461082e92820101943861081d565b8054868501880152928601928101611111565b93607f16936110b8565b84903461062457816003193601126106245760209060ff600f541615158152f35b6020808252825181830181905290939260005b8281106111a157505060409293506000838284010152601f8019910116010190565b81810186015184820160400152850161117f565b600435906001600160a01b03821682036111cb57565b600080fd5b602435906001600160a01b03821682036111cb57565b6040810190811067ffffffffffffffff82111761120257604052565b634e487b7160e01b600052604160045260246000fd5b90601f8019910116810190811067ffffffffffffffff82111761120257604052565b9190820180921161124757565b634e487b7160e01b600052601160045260246000fd5b8181029291811591840414171561124757565b811561127a570490565b634e487b7160e01b600052601260045260246000fd5b6001600160a01b0316600052600860205260406000205480156112bc576112b99061095e611a9e565b90565b50600090565b60ff16604d811161124757600a0a90565b908160209103126111cb57516001600160a01b03811681036111cb5790565b90916001600160a01b03809216918215801561136a575b611358577f8c5be1e5ebec7d5bd14f71427d1e84f3dd0314c0f7b2291e5b200ac8c7c3b925916020918460005260098352604060002095169485600052825280604060002055604051908152a3565b60405163d92e233d60e01b8152600490fd5b5080841615611309565b6001600160a01b0360005416330361138857565b60405163118cdaa760e01b8152336004820152602490fd5b9190820391821161124757565b6001600160a01b0360009116918215611358576001600160a01b0316928315611358578015611a695760ff60075460081c161580611a5e575b80611a53575b611a41576113f930611290565b600e5481101580611a31575b80611a1c575b61166b575b50828252602091600a835260409060ff82822054161590808183819461160b575b61145a61144b8661144687611446888d6113a0565b6113a0565b97611454611a9e565b9061125d565b8983526008895261146f8784209182546113a0565b905561148261147c611a9e565b8861125d565b8a83526008895261149787842091825461123a565b90556114cd575b50505050907fddf252ad1be2c89b69c2b068fc378daa952ba7f163c4a11628f55a4df523b3ef929151908152a3565b90606092916114e86114e0610493611a9e565b6003546113a0565b6003556114f78260045461123a565b6004558551828152818982015281878201527f312c5308f42848705a866c73dec11fd0783c2d64aac6a97e94467062ad3f4058948591a16115548661154361153d611a9e565b8661125d565b9230815260088b522091825461123a565b905583156115fa57958095949388937ffd38818f5291bf0bb3a2a48aadc06ba8757865d1dabd804585338aab3009dcb6937fddf252ad1be2c89b69c2b068fc378daa952ba7f163c4a11628f55a4df523b3ef996115b56114e061153d611a9e565b6003556115c4846002546113a0565b600255875184815286863092a28751908152602081019190915260408101839052606090a18451908152a290919238808061149e565b8451637c946ed760e01b8152600490fd5b9250925050620186a080611621600b548761125d565b04926175308085029085820414851517156116575782611643910480956113a0565b91611650600c548861125d565b0492611431565b634e487b7160e01b82526011600452602482fd5b61010061ff0019600f54161780600f558115611a0a5761168e8260011c836113a0565b904790604051906060820182811067ffffffffffffffff8211176119f6576040526002825260403660208401378151156119e2573060208301526040516315ab88c960e31b81526020816004816001600160a01b038660101c165afa9081156119d75788916119b8575b508251600110156119a457906001600160a01b0361172d921660408401526001600160a01b038660011c9160101c16306112f2565b6001600160a01b03600f5460101c16803b156119a05790869060405192839163791ac94760e01b835260a483018860011c600485015284602485015260a060448501528151809152602060c48501920190855b81811061197b575050508383809230606483015242608483015203925af1801561193e57611949575b506117b490476113a0565b916001600160a01b03600f5460101c16918215611358576117d7818594306112f2565b60606001600160a01b03600f5460101c1660c46001600160a01b03895416604051978893849263f305d71960e01b84523060048501528760248501528c60448501528c606485015260848401524260a48401525af190811561193e578691879588916118f6575b5080156118e4577f17bbfb9a6069321b6ded73bd96327c9e6b7212a5cd51ff219cd61370acafb561956118d0936118ad7fd7f28048575eead8851d024ead087913957dfb4fd1a02b4d1573f5352a5a2be393604051938493846040919493926060820195825260208201520152565b0390a160405193849360011c846040919493926060820195825260208201520152565b0390a161ff0019600f5416600f5538611410565b60405163b657fe1360e01b8152600490fd5b92505093506060813d606011611936575b8161191460609383611218565b8101031261193257805193604060208301519201519491943861183e565b8580fd5b3d9150611907565b6040513d88823e3d90fd5b67ffffffffffffffff819692961161196757604052936117b46117a9565b634e487b7160e01b82526041600452602482fd5b82516001600160a01b031684528c965087955060209384019390920191600101611780565b8680fd5b634e487b7160e01b88526032600452602488fd5b6119d1915060203d602011610337576103298183611218565b386116f8565b6040513d8a823e3d90fd5b634e487b7160e01b87526032600452602487fd5b634e487b7160e01b88526041600452602488fd5b6040516364e2819f60e01b8152600490fd5b506001600160a01b036010541684141561140b565b5060ff600f5460081c1615611405565b6040516346830da960e01b8152600490fd5b50600d5481116113ec565b50600d5415156113e6565b6040516329a1e53760e01b8152600490fd5b600260015414611a8c576002600155565b604051633ee5aeb560e01b8152600490fd5b6002548015611ab3576112b990600354611270565b60405162461bcd60e51b815260206004820152602660248201527f546f74616c20737570706c79206d7573742062652067726561746572207468616044820152656e207a65726f60d01b6064820152608490fdfea2646970667358221220725f9f5e867d5332342389e74e74efa1b388ba12c1f54f309c23716c5b46187d64736f6c63430008160033f652222313e28459528d920b65115c16c04f3efc82aaedc97be59f3f377c0d3f","linkReferences":{}},"methodIdentifiers":{"allowance(address,address)":"dd62ed3e","approve(address,uint256)":"095ea7b3","balanceOf(address)":"70a08231","configureUniswap(address)":"f685a28b","decimals()":"313ce567","excludeFromFee(address)":"437823ec","includeInFee(address)":"ea2f0b37","initializeTokenomics()":"1e352ab5","isAccountExcludedFromFree(address)":"2e664829","isSwapAndLiquifyEnabled()":"04f377f8","liquidityFee()":"98118cb4","maxTxAmount()":"8c0b5e22","name()":"06fdde03","numTokensSellToAddToLiquidity()":"d12a7688","owner()":"8da5cb5b","reflectionBalanceOf(address)":"84aa9fb6","renounceOwnership()":"715018a6","setFees(uint256,uint256)":"0b78f9c0","setMaxTxAmount(uint256)":"ec28438a","setNumTokensSellToAddToLiquidity(uint256)":"f0f165af","setSwapAndLiquifyEnabled(bool)":"c49b9a80","swapAndLiquifyEnabled()":"4a74bb02","symbol()":"95d89b41","taxFee()":"a071dcf4","tokenomics(uint256)":"087a2daf","totalSupply()":"18160ddd","transfer(address,uint256)":"a9059cbb","transferFrom(address,address,uint256)":"23b872dd","transferOwnership(address)":"f2fde38b","uniswapV2Pair()":"49bd5a5e","uniswapV2Router()":"1694505e","updateUniswapV2Router(address)":"65b8dbc0","withdrawBNB(uint256)":"127f4b2e"},"id":0}