{"abi":[{"type":"constructor","inputs":[{"name":"_tokenAddress","type":"address","internalType":"address"},{"name":"_presaleWallet","type":"address","internalType":"address"},{"name":"_rate","type":"uint256","internalType":"uint256"},{"name":"_totalTokensAvailable","type":"uint256","internalType":"uint256"},{"name":"_maxTxAmount","type":"uint256","internalType":"uint256"}],"stateMutability":"nonpayable"},{"type":"function","name":"buyTokens","inputs":[],"outputs":[],"stateMutability":"payable"},{"type":"function","name":"claimTokens","inputs":[],"outputs":[],"stateMutability":"nonpayable"},{"type":"function","name":"endPresale","inputs":[],"outputs":[],"stateMutability":"nonpayable"},{"type":"function","name":"ethContributed","inputs":[{"name":"","type":"address","internalType":"address"}],"outputs":[{"name":"","type":"uint256","internalType":"uint256"}],"stateMutability":"view"},{"type":"function","name":"maxTxAmount","inputs":[],"outputs":[{"name":"","type":"uint256","internalType":"uint256"}],"stateMutability":"view"},{"type":"function","name":"owner","inputs":[],"outputs":[{"name":"","type":"address","internalType":"address"}],"stateMutability":"view"},{"type":"function","name":"presaleEnded","inputs":[],"outputs":[{"name":"","type":"bool","internalType":"bool"}],"stateMutability":"view"},{"type":"function","name":"presaleWallet","inputs":[],"outputs":[{"name":"","type":"address","internalType":"address"}],"stateMutability":"view"},{"type":"function","name":"purchasedTokens","inputs":[{"name":"","type":"address","internalType":"address"}],"outputs":[{"name":"","type":"uint256","internalType":"uint256"}],"stateMutability":"view"},{"type":"function","name":"rate","inputs":[],"outputs":[{"name":"","type":"uint256","internalType":"uint256"}],"stateMutability":"view"},{"type":"function","name":"token","inputs":[],"outputs":[{"name":"","type":"address","internalType":"contract Token"}],"stateMutability":"view"},{"type":"function","name":"tokenDecimals","inputs":[],"outputs":[{"name":"","type":"uint8","internalType":"uint8"}],"stateMutability":"view"},{"type":"function","name":"totalTokensAvailable","inputs":[],"outputs":[{"name":"","type":"uint256","internalType":"uint256"}],"stateMutability":"view"},{"type":"function","name":"totalTokensSold","inputs":[],"outputs":[{"name":"","type":"uint256","internalType":"uint256"}],"stateMutability":"view"},{"type":"function","name":"updateMaxTxAmount","inputs":[{"name":"newMaxTxAmount","type":"uint256","internalType":"uint256"}],"outputs":[],"stateMutability":"nonpayable"},{"type":"function","name":"updatePresaleWallet","inputs":[{"name":"newPresaleWallet","type":"address","internalType":"address"}],"outputs":[],"stateMutability":"nonpayable"},{"type":"function","name":"updateRate","inputs":[{"name":"newRate","type":"uint256","internalType":"uint256"}],"outputs":[],"stateMutability":"nonpayable"},{"type":"event","name":"PresaleEnded","inputs":[],"anonymous":false},{"type":"event","name":"TokensPurchased","inputs":[{"name":"buyer","type":"address","indexed":true,"internalType":"address"},{"name":"amount","type":"uint256","indexed":false,"internalType":"uint256"}],"anonymous":false}],"bytecode":{"object":"0x608060409080825234620001b55760a08162000cff8038038091620000258285620001ba565b833981010312620001b5576200003b81620001f4565b906020906200004c828201620001f4565b6004838684015195608060608601519501519660018060a01b038092169160018060a01b0319906000968483895416178855168160025416176002553390600154161760015560055587519283809263313ce56760e01b82525afa908115620001ab57829162000161575b5060ff915016918260ff19600754161760075582156200010d575081620000f3620000ec92620000ec620000fc969562000209565b906200022e565b60045562000209565b60065551610abc9081620002438239f35b60849085519062461bcd60e51b82526004820152602860248201527f546f6b656e20646563696d616c73206d7573742062652067726561746572207460448201526768616e207a65726f60c01b6064820152fd5b90508381813d8311620001a3575b6200017b8183620001ba565b810103126200019f57519060ff821682036200019c575060ff9038620000b7565b80fd5b5080fd5b503d6200016f565b86513d84823e3d90fd5b600080fd5b601f909101601f19168101906001600160401b03821190821017620001de57604052565b634e487b7160e01b600052604160045260246000fd5b51906001600160a01b0382168203620001b557565b604d81116200021857600a0a90565b634e487b7160e01b600052601160045260246000fd5b81810292918115918404141715620002185756fe608060408181526004918236101561001657600080fd5b600092833560e01c9182631ed77dc8146108d9575081632c4e722e146108ba5781633b97e8561461089857816348c54b9d146107635781634bae6f3f1461072a5781636256d181146106cb57816363b20117146106ac57816369ea17711461062f5781636dd2cbe5146106115781638c0b5e22146105f25781638da5cb5b146105ca5781638e17c0171461053e578163a43be57b146103d2578163d0febe4c1461016c578163e580b2b014610145578163f96f5b3514610108575063fc0c546a146100e057600080fd5b346101045781600319360112610104576001600160a01b0360209254169051908152f35b5080fd5b90503461014157602036600319011261014157356001600160a01b03811680910361014157828291602094526009845220549051908152f35b8280fd5b50503461010457816003193601126101045760209060ff60075460081c1690519015158152f35b9050826003193601126101415760075460ff8160081c1661038f5760ff610195600554346109c5565b911660120360ff811161037c5760ff16604d811161037c57600a0a9081156103695704908251906101c5826108fe565b600d82526101eb6020926c22aa24103932b1b2b134b2379d60991b8482015234906109fb565b6102288385516101fa816108fe565b601281527f546f6b656e732063616c63756c61646f733a0000000000000000000000000000858201526109fb565b6006548311610328576003549061023f84836109ee565b8154106102e5575090610273837f8f28852646c20cc973d3a8218f7eefed58c25c909f78f0265af4818c3d4dc271936109ee565b6003553385526008815283852061028b8482546109ee565b9055338552600981528385206102a23482546109ee565b905583519283523392a2818080806001600160a01b0360025416819034156102db575b3491f1156102d1575080f35b51903d90823e3d90fd5b6108fc91506102c5565b845162461bcd60e51b8152908101839052601f60248201527f4e6f7420656e6f75676820746f6b656e73206c65667420666f722073616c65006044820152606490fd5b60649184519162461bcd60e51b8352820152601e60248201527f45786365656473206d6178207472616e73616374696f6e20616d6f756e7400006044820152fd5b634e487b7160e01b855260128352602485fd5b634e487b7160e01b855260118352602485fd5b506020606492519162461bcd60e51b8352820152601160248201527f50726573616c652068617320656e6465640000000000000000000000000000006044820152fd5b8383346101045781600319360112610104576001600160a01b0380600154166103fc81331461096f565b60075460ff8160081c166104fb576101009061ff0019161760075584549460035491828703928784116104e857869703610459575b857f1eb1561f8507eb9bc6988331f66f369e75710f2b4b678ad5b4a52454b6636f5f8180a180f35b856020946104949754169286519788958694859363a9059cbb60e01b85528401602090939291936001600160a01b0360408201951681520152565b03925af19081156104df57506104b0575b808080808594610431565b6104d19060203d6020116104d8575b6104c98183610930565b810190610952565b50816104a5565b503d6104bf565b513d84823e3d90fd5b634e487b7160e01b875260118352602487fd5b835162461bcd60e51b8152602081880152601560248201527f50726573616c6520616c726561647920656e64656400000000000000000000006044820152606490fd5b905034610141576020366003190112610141578035916001600160a01b038084168094036105c6576105759060015416331461096f565b82156105915750506001600160a01b0319600254161760025580f35b906020606492519162461bcd60e51b8352820152600f60248201526e496e76616c6964206164647265737360881b6044820152fd5b8480fd5b5050346101045781600319360112610104576020906001600160a01b03600154169051908152f35b5050346101045781600319360112610104576020906006549051908152f35b90503461014157826003193601126101415760209250549051908152f35b9050346101415760203660031901126101415780359161065b6001600160a01b0360015416331461096f565b821561066957505060055580f35b906020606492519162461bcd60e51b8352820152601e60248201527f52617465206d7573742062652067726561746572207468616e207a65726f00006044820152fd5b5050346101045781600319360112610104576020906003549051908152f35b839034610104576020366003190112610104576106f46001600160a01b0360015416331461096f565b60ff60075416604d8111610717579061071191600a0a90356109c5565b60065580f35b634e487b7160e01b835260118252602483fd5b90503461014157602036600319011261014157356001600160a01b03811680910361014157828291602094526008845220549051908152f35b83833461010457816003193601126101045760ff60075460081c16156108565733825260209060088252808320549384156108155733808552600884528285208590558454835163a9059cbb60e01b815292830191825260208201879052919291849184916001600160a01b03169082908890829060400103925af190811561080c57506107ef578280f35b8161080592903d106104d8576104c98183610930565b5081808280f35b513d85823e3d90fd5b82606492519162461bcd60e51b8352820152601260248201527f4e6f20746f6b656e7320746f20636c61696d00000000000000000000000000006044820152fd5b5162461bcd60e51b8152602081840152601160248201527f50726573616c65206e6f7420656e6465640000000000000000000000000000006044820152606490fd5b50503461010457816003193601126101045760209060ff600754169051908152f35b5050346101045781600319360112610104576020906005549051908152f35b8490346101045781600319360112610104576020906001600160a01b03600254168152f35b6040810190811067ffffffffffffffff82111761091a57604052565b634e487b7160e01b600052604160045260246000fd5b90601f8019910116810190811067ffffffffffffffff82111761091a57604052565b9081602091031261096a5751801515810361096a5790565b600080fd5b1561097657565b60405162461bcd60e51b815260206004820152602160248201527f4f6e6c79206f776e65722063616e2063616c6c20746869732066756e6374696f6044820152603760f91b6064820152608490fd5b818102929181159184041417156109d857565b634e487b7160e01b600052601160045260246000fd5b919082018092116109d857565b604051906020926020830193632d839cb360e21b85526040602485015282519283606486015260005b848110610a725750505091610a5f60848284600097959688848199850101526044830152601f80199101168101036064810184520182610930565b51906a636f6e736f6c652e6c6f675afa50565b818101830151868201608401528201610a2456fea2646970667358221220f3f41091e6416e60353c51d426c683e000b4fe65fcdaee8df793441f87fe91d664736f6c63430008160033","linkReferences":{}},"methodIdentifiers":{"buyTokens()":"d0febe4c","claimTokens()":"48c54b9d","endPresale()":"a43be57b","ethContributed(address)":"f96f5b35","maxTxAmount()":"8c0b5e22","owner()":"8da5cb5b","presaleEnded()":"e580b2b0","presaleWallet()":"1ed77dc8","purchasedTokens(address)":"4bae6f3f","rate()":"2c4e722e","token()":"fc0c546a","tokenDecimals()":"3b97e856","totalTokensAvailable()":"6dd2cbe5","totalTokensSold()":"63b20117","updateMaxTxAmount(uint256)":"6256d181","updatePresaleWallet(address)":"8e17c017","updateRate(uint256)":"69ea1771"},"id":0}