{"abi":[{"type":"constructor","inputs":[{"name":"tokenAddress","type":"address","internalType":"address"},{"name":"ratePhase1","type":"uint256","internalType":"uint256"},{"name":"ratePhase2","type":"uint256","internalType":"uint256"},{"name":"ratePhase3","type":"uint256","internalType":"uint256"},{"name":"_tokensAvailable","type":"uint256","internalType":"uint256"}],"stateMutability":"nonpayable"},{"type":"receive","stateMutability":"payable"},{"type":"function","name":"addToWhitelist","inputs":[{"name":"account","type":"address","internalType":"address"}],"outputs":[],"stateMutability":"nonpayable"},{"type":"function","name":"buyTokens","inputs":[],"outputs":[],"stateMutability":"payable"},{"type":"function","name":"currentPhase","inputs":[],"outputs":[{"name":"","type":"uint8","internalType":"enum CarameloPreSale.Phase"}],"stateMutability":"view"},{"type":"function","name":"endPreSale","inputs":[],"outputs":[],"stateMutability":"nonpayable"},{"type":"function","name":"initializePreSale","inputs":[],"outputs":[],"stateMutability":"nonpayable"},{"type":"function","name":"maxTokensBuy","inputs":[],"outputs":[{"name":"","type":"uint256","internalType":"uint256"}],"stateMutability":"view"},{"type":"function","name":"owner","inputs":[],"outputs":[{"name":"","type":"address","internalType":"address"}],"stateMutability":"view"},{"type":"function","name":"phaseRates","inputs":[{"name":"","type":"uint8","internalType":"enum CarameloPreSale.Phase"}],"outputs":[{"name":"","type":"uint256","internalType":"uint256"}],"stateMutability":"view"},{"type":"function","name":"preSaleInitialized","inputs":[],"outputs":[{"name":"","type":"bool","internalType":"bool"}],"stateMutability":"view"},{"type":"function","name":"removeFromWhitelist","inputs":[{"name":"account","type":"address","internalType":"address"}],"outputs":[],"stateMutability":"nonpayable"},{"type":"function","name":"renounceOwnership","inputs":[],"outputs":[],"stateMutability":"nonpayable"},{"type":"function","name":"token","inputs":[],"outputs":[{"name":"","type":"address","internalType":"contract IERC20"}],"stateMutability":"view"},{"type":"function","name":"tokensAvailable","inputs":[],"outputs":[{"name":"","type":"uint256","internalType":"uint256"}],"stateMutability":"view"},{"type":"function","name":"tokensPurchasedByAddress","inputs":[{"name":"","type":"address","internalType":"address"}],"outputs":[{"name":"","type":"uint256","internalType":"uint256"}],"stateMutability":"view"},{"type":"function","name":"tokensRemaining","inputs":[],"outputs":[{"name":"","type":"uint256","internalType":"uint256"}],"stateMutability":"view"},{"type":"function","name":"tokensSold","inputs":[],"outputs":[{"name":"","type":"uint256","internalType":"uint256"}],"stateMutability":"view"},{"type":"function","name":"totalBNBReceived","inputs":[],"outputs":[{"name":"","type":"uint256","internalType":"uint256"}],"stateMutability":"view"},{"type":"function","name":"transferOwnership","inputs":[{"name":"newOwner","type":"address","internalType":"address"}],"outputs":[],"stateMutability":"nonpayable"},{"type":"function","name":"updateMaxTokensBuy","inputs":[{"name":"newLimit","type":"uint256","internalType":"uint256"}],"outputs":[],"stateMutability":"nonpayable"},{"type":"function","name":"updatePhase","inputs":[{"name":"newPhase","type":"uint8","internalType":"enum CarameloPreSale.Phase"}],"outputs":[],"stateMutability":"nonpayable"},{"type":"function","name":"whitelist","inputs":[{"name":"","type":"address","internalType":"address"}],"outputs":[{"name":"","type":"bool","internalType":"bool"}],"stateMutability":"view"},{"type":"function","name":"withdrawFunds","inputs":[],"outputs":[],"stateMutability":"nonpayable"},{"type":"event","name":"AddressWhitelisted","inputs":[{"name":"account","type":"address","indexed":true,"internalType":"address"}],"anonymous":false},{"type":"event","name":"FundsWithdrawn","inputs":[{"name":"owner","type":"address","indexed":true,"internalType":"address"},{"name":"amount","type":"uint256","indexed":false,"internalType":"uint256"}],"anonymous":false},{"type":"event","name":"MaxTokensBuyUpdated","inputs":[{"name":"newLimit","type":"uint256","indexed":false,"internalType":"uint256"}],"anonymous":false},{"type":"event","name":"OwnershipTransferred","inputs":[{"name":"previousOwner","type":"address","indexed":true,"internalType":"address"},{"name":"newOwner","type":"address","indexed":true,"internalType":"address"}],"anonymous":false},{"type":"event","name":"PhaseUpdated","inputs":[{"name":"newPhase","type":"uint8","indexed":false,"internalType":"enum CarameloPreSale.Phase"}],"anonymous":false},{"type":"event","name":"PreSaleEnded","inputs":[],"anonymous":false},{"type":"event","name":"PreSaleInitialized","inputs":[{"name":"tokensAvailable","type":"uint256","indexed":false,"internalType":"uint256"}],"anonymous":false},{"type":"event","name":"TokensPurchased","inputs":[{"name":"buyer","type":"address","indexed":true,"internalType":"address"},{"name":"amount","type":"uint256","indexed":false,"internalType":"uint256"},{"name":"cost","type":"uint256","indexed":false,"internalType":"uint256"}],"anonymous":false},{"type":"event","name":"WhitelistUpdated","inputs":[{"name":"account","type":"address","indexed":true,"internalType":"address"},{"name":"status","type":"bool","indexed":false,"internalType":"bool"}],"anonymous":false},{"type":"error","name":"InsufficientFunds","inputs":[{"name":"required","type":"uint256","internalType":"uint256"},{"name":"available","type":"uint256","internalType":"uint256"}]},{"type":"error","name":"InvalidPhase","inputs":[]},{"type":"error","name":"InvalidTokenAmount","inputs":[]},{"type":"error","name":"MaxTokensBuyExceeded","inputs":[{"name":"allowed","type":"uint256","internalType":"uint256"},{"name":"attempted","type":"uint256","internalType":"uint256"}]},{"type":"error","name":"NoTokensAvailable","inputs":[]},{"type":"error","name":"OwnableInvalidOwner","inputs":[{"name":"owner","type":"address","internalType":"address"}]},{"type":"error","name":"OwnableUnauthorizedAccount","inputs":[{"name":"account","type":"address","internalType":"address"}]},{"type":"error","name":"PreSaleAlreadyInitialized","inputs":[]},{"type":"error","name":"PreSaleNotActive","inputs":[]},{"type":"error","name":"ReentrancyGuardReentrantCall","inputs":[]},{"type":"error","name":"WithdrawalFailed","inputs":[]},{"type":"error","name":"ZeroAddress","inputs":[]}],"bytecode":{"object":"0x6080604052683635c9adc5dea00000600a5534801561001d57600080fd5b5060405161100438038061100483398101604081905261003c91610192565b338061006257604051631e4fbdf760e01b81526000600482015260240160405180910390fd5b61006b81610142565b50600180556001600160a01b0385166100975760405163d92e233d60e01b815260040160405180910390fd5b6002805460056020527f05b8ccbb9d4d8fb16ea74ce3c29a41f1b461fbdaff4714a0d9a8eb05499746bc959095557f1471eb6eb2c5e789fc3de43f8ce62938c7d1836ec861730447e2ada8fd81017b9390935560008390527f89832631fb3c3307a103ba2c84ab569c64d6182a18893dcd163f0f1c2090733a9190915560035560ff196001600160a01b039390931661010002929092166001600160a81b03199091161790556101e7565b600080546001600160a01b038381166001600160a01b0319831681178455604051919092169283917f8be0079c531659141344cd1fd0a4f28419497f9722a3daafe3b4186f6b6457e09190a35050565b600080600080600060a086880312156101aa57600080fd5b85516001600160a01b03811681146101c157600080fd5b602087015160408801516060890151608090990151929a91995097965090945092505050565b610e0e806101f66000396000f3fe6080604052600436106101595760003560e01c80639b19251a116100bb578063e43252d71161007f578063ee889ed011610059578063ee889ed0146103c5578063f2fde38b146103da578063fc0c546a146103fa57600080fd5b8063e43252d714610363578063ed3193d214610383578063ee2d2c68146103b057600080fd5b80639b19251a146102e0578063c8b0812514610310578063cf3d8e5314610325578063d0febe4c14610345578063ded362fe1461034d57600080fd5b8063518ab2a81161011d578063715018a6116100f7578063715018a6146102795780638ab1d6811461028e5780638da5cb5b146102ae57600080fd5b8063518ab2a81461022d57806358ed2cc31461024357806360659a921461026357600080fd5b8063055ad42e1461016d578063103d6ed31461019d57806314770959146101d857806324600fc314610202578063287294c81461021757600080fd5b366101685761016661041f565b005b600080fd5b34801561017957600080fd5b506002546101879060ff1681565b6040516101949190610c90565b60405180910390f35b3480156101a957600080fd5b506101ca6101b8366004610cb8565b60056020526000908152604090205481565b604051908152602001610194565b3480156101e457600080fd5b506007546101f29060ff1681565b6040519015158152602001610194565b34801561020e57600080fd5b50610166610705565b34801561022357600080fd5b506101ca60065481565b34801561023957600080fd5b506101ca60045481565b34801561024f57600080fd5b5061016661025e366004610ce0565b61080e565b34801561026f57600080fd5b506101ca60035481565b34801561028557600080fd5b50610166610852565b34801561029a57600080fd5b506101666102a9366004610cf9565b610864565b3480156102ba57600080fd5b506000546001600160a01b03165b6040516001600160a01b039091168152602001610194565b3480156102ec57600080fd5b506101f26102fb366004610cf9565b60086020526000908152604090205460ff1681565b34801561031c57600080fd5b506003546101ca565b34801561033157600080fd5b50610166610340366004610cb8565b6108c1565b61016661041f565b34801561035957600080fd5b506101ca600a5481565b34801561036f57600080fd5b5061016661037e366004610cf9565b6109b8565b34801561038f57600080fd5b506101ca61039e366004610cf9565b60096020526000908152604090205481565b3480156103bc57600080fd5b50610166610a0c565b3480156103d157600080fd5b50610166610b11565b3480156103e657600080fd5b506101666103f5366004610cf9565b610b88565b34801561040657600080fd5b506002546102c89061010090046001600160a01b031681565b610427610bc6565b600360025460ff16600381111561044057610440610c7a565b0361045e576040516371e1355f60e11b815260040160405180910390fd5b3460000361048c5760405162fae2d560e21b8152600160048201523460248201526044015b60405180910390fd5b600254600090600590829060ff1660038111156104ab576104ab610c7a565b60038111156104bc576104bc610c7a565b8152602001908152602001600020549050806000036104ee5760405163268dbf6760e21b815260040160405180910390fd5b6000670de0b6b3a76400006105038334610d38565b61050d9190610d55565b905060035481111561053257604051630626e30760e51b815260040160405180910390fd5b3360009081526008602052604081205460ff1661055157600a54610555565b6000195b336000908152600960205260409020549091508190610575908490610d77565b11156105ba57336000908152600960205260409020548190610598908490610d77565b604051631227f42760e31b815260048101929092526024820152604401610483565b81600360008282546105cc9190610d8a565b9250508190555081600460008282546105e59190610d77565b9250508190555034600660008282546105fe9190610d77565b90915550503360009081526009602052604081208054849290610622908490610d77565b909155505060025460405163a9059cbb60e01b8152336004820152602481018490526101009091046001600160a01b03169063a9059cbb906044016020604051808303816000875af115801561067c573d6000803e3d6000fd5b505050506040513d601f19601f820116820180604052508101906106a09190610d9d565b6106bd57604051632160733960e01b815260040160405180910390fd5b6040805183815234602082015233917f8fafebcaf9d154343dad25669bfa277f4fbacd7ac6b0c4fed522580e040a0f33910160405180910390a250505061070360018055565b565b61070d610bc6565b610715610bf0565b4760008190036107415760405162fae2d560e21b81526001600482015260248101829052604401610483565b600080546040516001600160a01b039091169083908381818185875af1925050503d806000811461078e576040519150601f19603f3d011682016040523d82523d6000602084013e610793565b606091505b50509050806107b5576040516327fcd9d160e01b815260040160405180910390fd5b6000546001600160a01b03166001600160a01b03167feaff4b37086828766ad3268786972c0cd24259d4c87a80f9d3963a3c3d999b0d836040516107fb91815260200190565b60405180910390a2505061070360018055565b610816610bf0565b600a8190556040518181527fd62ff6c5039086f4f370d050bc58ed17716234ac8dfc95cf9b02b8d9fa162282906020015b60405180910390a150565b61085a610bf0565b6107036000610c1d565b61086c610bf0565b6001600160a01b0381166000818152600860209081526040808320805460ff19169055519182527ff93f9a76c1bf3444d22400a00cb9fe990e6abe9dbb333fda48859cfee864543d910160405180910390a250565b6108c9610bf0565b600360025460ff1660038111156108e2576108e2610c7a565b03610900576040516371e1355f60e11b815260040160405180910390fd5b60025460ff16600381111561091757610917610c7a565b81600381111561092957610929610c7a565b1115806109475750600381600381111561094557610945610c7a565b145b156109655760405163268dbf6760e21b815260040160405180910390fd5b6002805482919060ff1916600183600381111561098457610984610c7a565b02179055507f05ac19f4e6db6fd8b645dd056e4842cd2f63e0c6f0568176c17ef60e3c16732d816040516108479190610c90565b6109c0610bf0565b6001600160a01b038116600081815260086020526040808220805460ff19166001179055517f4f783c179409b4127238bc9c990bc99b9a651666a0d20b51d6c42849eb88466d9190a250565b610a14610bf0565b60075460ff1615610a385760405163f388953760e01b815260040160405180910390fd5b6002546040516370a0823160e01b815230600482015260009161010090046001600160a01b0316906370a0823190602401602060405180830381865afa158015610a86573d6000803e3d6000fd5b505050506040513d601f19601f82011682018060405250810190610aaa9190610dbf565b9050600354811015610acf57604051632160733960e01b815260040160405180910390fd5b6007805460ff191660011790556003546040517f52662d1a3131f7ba0d800fc07f2bc63113061f8c1307e917016493a232bc8150916108479190815260200190565b610b19610bf0565b600360025460ff166003811115610b3257610b32610c7a565b03610b50576040516371e1355f60e11b815260040160405180910390fd5b6002805460ff191660031790556040517fc82e6055d31de9b552cd0014f23a8b8ce120c288ed1afce01adb97150efc018590600090a1565b610b90610bf0565b6001600160a01b038116610bba57604051631e4fbdf760e01b815260006004820152602401610483565b610bc381610c1d565b50565b600260015403610be957604051633ee5aeb560e01b815260040160405180910390fd5b6002600155565b6000546001600160a01b031633146107035760405163118cdaa760e01b8152336004820152602401610483565b600080546001600160a01b0383811673ffffffffffffffffffffffffffffffffffffffff19831681178455604051919092169283917f8be0079c531659141344cd1fd0a4f28419497f9722a3daafe3b4186f6b6457e09190a35050565b634e487b7160e01b600052602160045260246000fd5b6020810160048310610cb257634e487b7160e01b600052602160045260246000fd5b91905290565b600060208284031215610cca57600080fd5b813560048110610cd957600080fd5b9392505050565b600060208284031215610cf257600080fd5b5035919050565b600060208284031215610d0b57600080fd5b81356001600160a01b0381168114610cd957600080fd5b634e487b7160e01b600052601160045260246000fd5b8082028115828204841417610d4f57610d4f610d22565b92915050565b600082610d7257634e487b7160e01b600052601260045260246000fd5b500490565b80820180821115610d4f57610d4f610d22565b81810381811115610d4f57610d4f610d22565b600060208284031215610daf57600080fd5b81518015158114610cd957600080fd5b600060208284031215610dd157600080fd5b505191905056fea2646970667358221220c022eab924ba8ff66df099bb24ae34b0a9054cda8aececaf1ba10f067d8504b664736f6c63430008160033","linkReferences":{}},"methodIdentifiers":{"addToWhitelist(address)":"e43252d7","buyTokens()":"d0febe4c","currentPhase()":"055ad42e","endPreSale()":"ee889ed0","initializePreSale()":"ee2d2c68","maxTokensBuy()":"ded362fe","owner()":"8da5cb5b","phaseRates(uint8)":"103d6ed3","preSaleInitialized()":"14770959","removeFromWhitelist(address)":"8ab1d681","renounceOwnership()":"715018a6","token()":"fc0c546a","tokensAvailable()":"60659a92","tokensPurchasedByAddress(address)":"ed3193d2","tokensRemaining()":"c8b08125","tokensSold()":"518ab2a8","totalBNBReceived()":"287294c8","transferOwnership(address)":"f2fde38b","updateMaxTokensBuy(uint256)":"58ed2cc3","updatePhase(uint8)":"cf3d8e53","whitelist(address)":"9b19251a","withdrawFunds()":"24600fc3"},"id":0}