{"abi":[{"type":"constructor","inputs":[{"name":"tokenAddress","type":"address","internalType":"address"},{"name":"ratePhase1","type":"uint256","internalType":"uint256"},{"name":"ratePhase2","type":"uint256","internalType":"uint256"},{"name":"ratePhase3","type":"uint256","internalType":"uint256"},{"name":"_tokensAvailable","type":"uint256","internalType":"uint256"},{"name":"_maxTokensBuy","type":"uint256","internalType":"uint256"}],"stateMutability":"nonpayable"},{"type":"receive","stateMutability":"payable"},{"type":"function","name":"addMultipleToWhitelist","inputs":[{"name":"accounts","type":"address[]","internalType":"address[]"}],"outputs":[],"stateMutability":"nonpayable"},{"type":"function","name":"addToWhitelist","inputs":[{"name":"account","type":"address","internalType":"address"}],"outputs":[],"stateMutability":"nonpayable"},{"type":"function","name":"buyTokens","inputs":[],"outputs":[],"stateMutability":"payable"},{"type":"function","name":"currentPhase","inputs":[],"outputs":[{"name":"","type":"uint8","internalType":"enum Phase"}],"stateMutability":"view"},{"type":"function","name":"endPreSale","inputs":[],"outputs":[],"stateMutability":"nonpayable"},{"type":"function","name":"initializePreSale","inputs":[],"outputs":[],"stateMutability":"nonpayable"},{"type":"function","name":"maxTokensBuy","inputs":[],"outputs":[{"name":"","type":"uint256","internalType":"uint256"}],"stateMutability":"view"},{"type":"function","name":"owner","inputs":[],"outputs":[{"name":"","type":"address","internalType":"address"}],"stateMutability":"view"},{"type":"function","name":"phaseRates","inputs":[{"name":"","type":"uint8","internalType":"enum Phase"}],"outputs":[{"name":"","type":"uint256","internalType":"uint256"}],"stateMutability":"view"},{"type":"function","name":"preSaleInitialized","inputs":[],"outputs":[{"name":"","type":"bool","internalType":"bool"}],"stateMutability":"view"},{"type":"function","name":"removeFromWhitelist","inputs":[{"name":"account","type":"address","internalType":"address"}],"outputs":[],"stateMutability":"nonpayable"},{"type":"function","name":"renounceOwnership","inputs":[],"outputs":[],"stateMutability":"nonpayable"},{"type":"function","name":"token","inputs":[],"outputs":[{"name":"","type":"address","internalType":"contract IERC20"}],"stateMutability":"view"},{"type":"function","name":"tokensAvailable","inputs":[],"outputs":[{"name":"","type":"uint256","internalType":"uint256"}],"stateMutability":"view"},{"type":"function","name":"tokensPurchasedByAddress","inputs":[{"name":"","type":"address","internalType":"address"}],"outputs":[{"name":"","type":"uint256","internalType":"uint256"}],"stateMutability":"view"},{"type":"function","name":"tokensRemaining","inputs":[],"outputs":[{"name":"","type":"uint256","internalType":"uint256"}],"stateMutability":"view"},{"type":"function","name":"tokensSold","inputs":[],"outputs":[{"name":"","type":"uint256","internalType":"uint256"}],"stateMutability":"view"},{"type":"function","name":"totalBNBReceived","inputs":[],"outputs":[{"name":"","type":"uint256","internalType":"uint256"}],"stateMutability":"view"},{"type":"function","name":"transferOwnership","inputs":[{"name":"newOwner","type":"address","internalType":"address"}],"outputs":[],"stateMutability":"nonpayable"},{"type":"function","name":"updateMaxTokensBuy","inputs":[{"name":"newLimit","type":"uint256","internalType":"uint256"}],"outputs":[],"stateMutability":"nonpayable"},{"type":"function","name":"updatePhase","inputs":[{"name":"newPhase","type":"uint8","internalType":"enum Phase"}],"outputs":[],"stateMutability":"nonpayable"},{"type":"function","name":"updatePhaseRate","inputs":[{"name":"phase","type":"uint8","internalType":"enum Phase"},{"name":"newRate","type":"uint256","internalType":"uint256"}],"outputs":[],"stateMutability":"nonpayable"},{"type":"function","name":"whitelist","inputs":[{"name":"","type":"address","internalType":"address"}],"outputs":[{"name":"","type":"bool","internalType":"bool"}],"stateMutability":"view"},{"type":"function","name":"withdrawFunds","inputs":[],"outputs":[],"stateMutability":"nonpayable"},{"type":"function","name":"withdrawUnsoldTokens","inputs":[],"outputs":[],"stateMutability":"nonpayable"},{"type":"event","name":"AddressWhitelisted","inputs":[{"name":"account","type":"address","indexed":true,"internalType":"address"}],"anonymous":false},{"type":"event","name":"FundsWithdrawn","inputs":[{"name":"owner","type":"address","indexed":true,"internalType":"address"},{"name":"amount","type":"uint256","indexed":false,"internalType":"uint256"}],"anonymous":false},{"type":"event","name":"MaxTokensBuyUpdated","inputs":[{"name":"newLimit","type":"uint256","indexed":false,"internalType":"uint256"}],"anonymous":false},{"type":"event","name":"OwnershipTransferred","inputs":[{"name":"previousOwner","type":"address","indexed":true,"internalType":"address"},{"name":"newOwner","type":"address","indexed":true,"internalType":"address"}],"anonymous":false},{"type":"event","name":"PhaseUpdated","inputs":[{"name":"newPhase","type":"uint8","indexed":false,"internalType":"enum Phase"}],"anonymous":false},{"type":"event","name":"PreSaleEnded","inputs":[],"anonymous":false},{"type":"event","name":"PreSaleInitialized","inputs":[{"name":"tokensAvailable","type":"uint256","indexed":false,"internalType":"uint256"}],"anonymous":false},{"type":"event","name":"TokensPurchased","inputs":[{"name":"buyer","type":"address","indexed":true,"internalType":"address"},{"name":"amount","type":"uint256","indexed":false,"internalType":"uint256"},{"name":"cost","type":"uint256","indexed":false,"internalType":"uint256"}],"anonymous":false},{"type":"event","name":"WhitelistUpdated","inputs":[{"name":"account","type":"address","indexed":true,"internalType":"address"},{"name":"status","type":"bool","indexed":false,"internalType":"bool"}],"anonymous":false},{"type":"error","name":"InsufficientFunds","inputs":[{"name":"required","type":"uint256","internalType":"uint256"},{"name":"available","type":"uint256","internalType":"uint256"}]},{"type":"error","name":"InvalidPhase","inputs":[{"name":"message","type":"string","internalType":"string"},{"name":"phase","type":"uint8","internalType":"enum Phase"}]},{"type":"error","name":"InvalidPhaseRate","inputs":[{"name":"message","type":"string","internalType":"string"},{"name":"rate","type":"uint256","internalType":"uint256"}]},{"type":"error","name":"InvalidTokenAmount","inputs":[{"name":"message","type":"string","internalType":"string"},{"name":"amount","type":"uint256","internalType":"uint256"}]},{"type":"error","name":"MaxTokensBuyExceeded","inputs":[{"name":"allowed","type":"uint256","internalType":"uint256"},{"name":"attempted","type":"uint256","internalType":"uint256"}]},{"type":"error","name":"NoTokensAvailable","inputs":[{"name":"message","type":"string","internalType":"string"},{"name":"available","type":"uint256","internalType":"uint256"},{"name":"requested","type":"uint256","internalType":"uint256"}]},{"type":"error","name":"OwnableInvalidOwner","inputs":[{"name":"owner","type":"address","internalType":"address"}]},{"type":"error","name":"OwnableUnauthorizedAccount","inputs":[{"name":"account","type":"address","internalType":"address"}]},{"type":"error","name":"PreSaleAlreadyInitialized","inputs":[{"name":"message","type":"string","internalType":"string"},{"name":"tokensAvailable","type":"uint256","internalType":"uint256"}]},{"type":"error","name":"PreSaleNotActive","inputs":[]},{"type":"error","name":"ReentrancyGuardReentrantCall","inputs":[]},{"type":"error","name":"WithdrawalFailed","inputs":[]},{"type":"error","name":"ZeroAddress","inputs":[]}],"bytecode":{"object":"0x60803461013e57601f6110f138819003918201601f191683019291906001600160401b03841183851017610142578160c0928492604096875283398101031261013e5780516001600160a01b03808216929183810361013e576020830151858401519160608501519360a06080870151960151963315610127575f543360018060a01b03198216175f558951923391167f8be0079c531659141344cd1fd0a4f28419497f9722a3daafe3b4186f6b6457e05f80a36001805515610118575060025490610100600160a81b039060081b1690610100600160a81b031916176002555f80526005602052855f205560015f52845f205560025f52835f2055600355600a5560ff196002541660025551610f9a90816101578239f35b63d92e233d60e01b8152600490fd5b8851631e4fbdf760e01b81525f6004820152602490fd5b5f80fd5b634e487b7160e01b5f52604160045260245ffdfe608060409080825260049081361015610357575b50361561001e575f80fd5b610026610f16565b60ff600254168181101561034457600381146103355734156103195761004b81610e90565b549081156102c8575080340290348204036102b557670de0b6b3a764000090049160035480841161024157335f526020906008825260ff835f2054165f14610239575f195b60098352806100a287865f2054610ef5565b1161020957508481039081116101f6576003556100c0848454610ef5565b83556100ce34600654610ef5565b600655335f5260098152815f206100e6858254610ef5565b9055600254825163a9059cbb60e01b8152338582019081526020810187905290918391839160081c6001600160a01b03169082905f90829060400103925af19081156101ec575f916101bf575b501561016f577f8fafebcaf9d154343dad25669bfa277f4fbacd7ac6b0c4fed522580e040a0f339250815193845234908401523392a260018055005b506101bb90519283926393255a7360e01b845283019190604083526016604084015275024b73b30b634b2103a37b5b2b71030b6b7bab73a1d160551b6060840152602060808401930152565b0390fd5b6101df9150823d84116101e5575b6101d78183610ea7565b810190610edd565b5f610133565b503d6101cd565b83513d5f823e3d90fd5b601184634e487b7160e01b5f525260245ffd5b916102229150946009604496335f5252835f2054610ef5565b9151631227f42760e31b8152928301526024820152fd5b600a54610090565b606060c49492519363186c356d60e21b8552840152603560648401527f496e73756666696369656e7420746f6b656e7320617661696c61626c6520696e60848401527f2070726573616c652e20417661696c61626c653a20000000000000000000000060a484015260248301526044820152fd5b601182634e487b7160e01b5f525260245ffd5b6103179150836084945193634fa8b6f760e11b8552840152601e60448401527f496e76616c6964207068617365207261746520666f722070686173653a20000060648401526024830190610e6f565bfd5b506001604492519162fae2d560e21b8352820152346024820152fd5b5090516371e1355f60e11b8152fd5b602182634e487b7160e01b5f525260245ffd5b5f3560e01c908163055ad42e14610e4b57508063103d6ed314610e1b5780631477095914610df857806324600fc314610d09578063287294c814610ceb578063518ab2a814610cce57806358ed2cc314610c8257806360659a92146109c2578063715018a614610c1e5780638401f8d114610b325780638ab1d68114610ac85780638da5cb5b14610aa25780639b19251a14610a645780639e4137af146109e0578063c8b08125146109c2578063c8bdbfb6146108e9578063cf3d8e5314610803578063d0febe4c146107ef578063ded362fe146107d1578063e43252d714610769578063ed3193d214610730578063ee2d2c68146105af578063ee889ed01461052b578063f2fde38b146104a45763fc0c546a14610476575f610013565b50346104a0575f3660031901126104a0576020906001600160a01b0360025460081c169051908152f35b5f80fd5b5090346104a05760203660031901126104a0578135916001600160a01b03918284168094036104a0576104d5610f39565b83156105155750505f54826001600160a01b03198216175f55167f8be0079c531659141344cd1fd0a4f28419497f9722a3daafe3b4186f6b6457e05f80a3005b905f6024925191631e4fbdf760e01b8352820152fd5b5090346104a0575f3660031901126104a057610545610f39565b6002549060ff82168381101561059c5760031461058d5760ff1982166003176002557fc82e6055d31de9b552cd0014f23a8b8ce120c288ed1afce01adb97150efc01855f80a1005b516371e1355f60e11b81529050fd5b602184634e487b7160e01b5f525260245ffd5b50346104a0575f3660031901126104a0576105c8610f39565b60075460ff81166106d557602460206001600160a01b0360025460081c168551928380926370a0823160e01b825230888301525afa9081156106cb575f91610699575b506003549283821061064e577f52662d1a3131f7ba0d800fc07f2bc63113061f8c1307e917016493a232bc81506020858760018760ff19161760075551908152a1005b6101bb85519283926393255a7360e01b845283019190604083526016604084015275024b73b30b634b2103a37b5b2b71030b6b7bab73a1d160551b6060840152602060808401930152565b90506020813d6020116106c3575b816106b460209383610ea7565b810103126104a057515f61060b565b3d91506106a7565b84513d5f823e3d90fd5b5060a4916003549080519263ff61f1f360e01b8452830152602660448301527f5468652070726573616c6520416c726561647920696e697469616c697a65642060648301526503bb4ba341d160d51b60848301526024820152fd5b50346104a05760203660031901126104a05735906001600160a01b0382168092036104a0576020915f5260098252805f20549051908152f35b50346104a05760203660031901126104a05735906001600160a01b0382168092036104a057610796610f39565b815f5260086020525f20600160ff198254161790557f4f783c179409b4127238bc9c990bc99b9a651666a0d20b51d6c42849eb88466d5f80a2005b82346104a0575f3660031901126104a057602090600a549051908152f35b505f3660031901126104a057610026610f16565b50346104a05760203660031901126104a057803590808210156104a057610828610f39565b6002549060ff82168181101561034457600381146108da5783118015906108d0575b61088f5760ff19821660ff84161760025583517f05ac19f4e6db6fd8b645dd056e4842cd2f63e0c6f0568176c17ef60e3c16732d9060209061088c8187610e6f565ba1005b8351634fa8b6f760e11b8152908101849052600f60448201526e024b73b30b634b210383430b9b29d1608d1b60648201526084906103176024820185610e6f565b506003831461084a565b5083516371e1355f60e11b8152fd5b5090346104a0575f3660031901126104a057610903610f39565b60025460ff81168381101561059c576003036109b457600354908161092457005b5f60038190558054845163a9059cbb60e01b81526001600160a01b039182168782019081526020818101969096529094938593909284928390604001039360081c165af19081156109aa575f9161098b575b501561097e57005b516327fcd9d160e01b8152fd5b6109a4915060203d6020116101e5576101d78183610ea7565b5f610976565b82513d5f823e3d90fd5b50516371e1355f60e11b8152fd5b82346104a0575f3660031901126104a0576020906003549051908152f35b50346104a057816003193601126104a057803590808210156104a05760243592610a08610f39565b8315610a1b5783610a1884610e90565b55005b805163c60dd43d60e01b815291820152601460448201527f496e76616c696420706861736520726174653a20000000000000000000000000606482015260248101839052608490fd5b50346104a05760203660031901126104a05735906001600160a01b0382168092036104a0576020915f526008825260ff815f20541690519015158152f35b82346104a0575f3660031901126104a0576020906001600160a01b035f54169051908152f35b50346104a05760203660031901126104a05735906001600160a01b0382168092036104a05760207ff93f9a76c1bf3444d22400a00cb9fe990e6abe9dbb333fda48859cfee864543d91610b19610f39565b835f5260088252805f2060ff198154169055515f8152a2005b5090346104a05760209160206003193601126104a05767ffffffffffffffff9181358381116104a057366023820112156104a057808301359384116104a05760249060053660248760051b840101116104a057610b8d610f39565b5f5b868110610b9857005b8381831b840101356001600160a01b0381168091036104a0578015610c0e5790816001925f5260088a52865f20805460ff811615610bda575b50505001610b8f565b60ff1916841790557f4f783c179409b4127238bc9c990bc99b9a651666a0d20b51d6c42849eb88466d5f80a25f8080610bd1565b855163d92e233d60e01b81528790fd5b346104a0575f3660031901126104a057610c36610f39565b5f805473ffffffffffffffffffffffffffffffffffffffff19811682556001600160a01b03167f8be0079c531659141344cd1fd0a4f28419497f9722a3daafe3b4186f6b6457e08280a3005b50346104a05760203660031901126104a0577fd62ff6c5039086f4f370d050bc58ed17716234ac8dfc95cf9b02b8d9fa162282916020913590610cc3610f39565b81600a5551908152a1005b5090346104a0575f3660031901126104a057602091549051908152f35b82346104a0575f3660031901126104a0576020906006549051908152f35b50346104a0575f3660031901126104a057610d22610f16565b610d2a610f39565b47908115610ddd576001600160a01b03905f80808086868254165af13d15610dd8573d67ffffffffffffffff8111610dc557855190610d73601f8201601f191660200183610ea7565b81525f60203d92013e5b15610db757507feaff4b37086828766ad3268786972c0cd24259d4c87a80f9d3963a3c3d999b0d916020915f54169351908152a260018055005b83516327fcd9d160e01b8152fd5b604183634e487b7160e01b5f525260245ffd5b610d7d565b906001604493519262fae2d560e21b84528301526024820152fd5b82346104a0575f3660031901126104a05760209060ff6007541690519015158152f35b5090346104a05760203660031901126104a0578135918210156104a057610e43602092610e90565b549051908152f35b346104a0575f3660031901126104a05780610e6d60209260ff60025416610e6f565bf35b906004821015610e7c5752565b634e487b7160e01b5f52602160045260245ffd5b6004811015610e7c575f52600560205260405f2090565b90601f8019910116810190811067ffffffffffffffff821117610ec957604052565b634e487b7160e01b5f52604160045260245ffd5b908160209103126104a0575180151581036104a05790565b91908201809211610f0257565b634e487b7160e01b5f52601160045260245ffd5b600260015414610f27576002600155565b604051633ee5aeb560e01b8152600490fd5b6001600160a01b035f54163303610f4c57565b60405163118cdaa760e01b8152336004820152602490fdfea264697066735822122023592af70f747c906ae1432799b919edac6a8807506c7783f772095df041ac1c64736f6c63430008160033","linkReferences":{}},"methodIdentifiers":{"addMultipleToWhitelist(address[])":"8401f8d1","addToWhitelist(address)":"e43252d7","buyTokens()":"d0febe4c","currentPhase()":"055ad42e","endPreSale()":"ee889ed0","initializePreSale()":"ee2d2c68","maxTokensBuy()":"ded362fe","owner()":"8da5cb5b","phaseRates(uint8)":"103d6ed3","preSaleInitialized()":"14770959","removeFromWhitelist(address)":"8ab1d681","renounceOwnership()":"715018a6","token()":"fc0c546a","tokensAvailable()":"60659a92","tokensPurchasedByAddress(address)":"ed3193d2","tokensRemaining()":"c8b08125","tokensSold()":"518ab2a8","totalBNBReceived()":"287294c8","transferOwnership(address)":"f2fde38b","updateMaxTokensBuy(uint256)":"58ed2cc3","updatePhase(uint8)":"cf3d8e53","updatePhaseRate(uint8,uint256)":"9e4137af","whitelist(address)":"9b19251a","withdrawFunds()":"24600fc3","withdrawUnsoldTokens()":"c8bdbfb6"},"id":1}