{"abi":[{"type":"constructor","inputs":[{"name":"tokenAddress","type":"address","internalType":"address"},{"name":"ratePhase1","type":"uint256","internalType":"uint256"},{"name":"ratePhase2","type":"uint256","internalType":"uint256"},{"name":"ratePhase3","type":"uint256","internalType":"uint256"},{"name":"_tokensAvailable","type":"uint256","internalType":"uint256"}],"stateMutability":"nonpayable"},{"type":"receive","stateMutability":"payable"},{"type":"function","name":"buyTokens","inputs":[],"outputs":[],"stateMutability":"payable"},{"type":"function","name":"currentPhase","inputs":[],"outputs":[{"name":"","type":"uint8","internalType":"enum CarameloPreSale.Phase"}],"stateMutability":"view"},{"type":"function","name":"endPreSale","inputs":[],"outputs":[],"stateMutability":"nonpayable"},{"type":"function","name":"initializePreSale","inputs":[],"outputs":[],"stateMutability":"nonpayable"},{"type":"function","name":"owner","inputs":[],"outputs":[{"name":"","type":"address","internalType":"address"}],"stateMutability":"view"},{"type":"function","name":"phaseRates","inputs":[{"name":"","type":"uint8","internalType":"enum CarameloPreSale.Phase"}],"outputs":[{"name":"","type":"uint256","internalType":"uint256"}],"stateMutability":"view"},{"type":"function","name":"preSaleInitialized","inputs":[],"outputs":[{"name":"","type":"bool","internalType":"bool"}],"stateMutability":"view"},{"type":"function","name":"renounceOwnership","inputs":[],"outputs":[],"stateMutability":"nonpayable"},{"type":"function","name":"token","inputs":[],"outputs":[{"name":"","type":"address","internalType":"contract IERC20"}],"stateMutability":"view"},{"type":"function","name":"tokensAvailable","inputs":[],"outputs":[{"name":"","type":"uint256","internalType":"uint256"}],"stateMutability":"view"},{"type":"function","name":"tokensRemaining","inputs":[],"outputs":[{"name":"","type":"uint256","internalType":"uint256"}],"stateMutability":"view"},{"type":"function","name":"tokensSold","inputs":[],"outputs":[{"name":"","type":"uint256","internalType":"uint256"}],"stateMutability":"view"},{"type":"function","name":"totalBNBReceived","inputs":[],"outputs":[{"name":"","type":"uint256","internalType":"uint256"}],"stateMutability":"view"},{"type":"function","name":"transferOwnership","inputs":[{"name":"newOwner","type":"address","internalType":"address"}],"outputs":[],"stateMutability":"nonpayable"},{"type":"function","name":"updatePhase","inputs":[{"name":"newPhase","type":"uint8","internalType":"enum CarameloPreSale.Phase"}],"outputs":[],"stateMutability":"nonpayable"},{"type":"function","name":"withdrawFunds","inputs":[],"outputs":[],"stateMutability":"nonpayable"},{"type":"event","name":"FundsWithdrawn","inputs":[{"name":"owner","type":"address","indexed":true,"internalType":"address"},{"name":"amount","type":"uint256","indexed":false,"internalType":"uint256"}],"anonymous":false},{"type":"event","name":"OwnershipTransferred","inputs":[{"name":"previousOwner","type":"address","indexed":true,"internalType":"address"},{"name":"newOwner","type":"address","indexed":true,"internalType":"address"}],"anonymous":false},{"type":"event","name":"PhaseUpdated","inputs":[{"name":"newPhase","type":"uint8","indexed":false,"internalType":"enum CarameloPreSale.Phase"}],"anonymous":false},{"type":"event","name":"PreSaleEnded","inputs":[],"anonymous":false},{"type":"event","name":"PreSaleInitialized","inputs":[{"name":"tokensAvailable","type":"uint256","indexed":false,"internalType":"uint256"}],"anonymous":false},{"type":"event","name":"TokensPurchased","inputs":[{"name":"buyer","type":"address","indexed":true,"internalType":"address"},{"name":"amount","type":"uint256","indexed":false,"internalType":"uint256"},{"name":"cost","type":"uint256","indexed":false,"internalType":"uint256"}],"anonymous":false},{"type":"error","name":"InsufficientFunds","inputs":[{"name":"required","type":"uint256","internalType":"uint256"},{"name":"available","type":"uint256","internalType":"uint256"}]},{"type":"error","name":"InvalidPhase","inputs":[]},{"type":"error","name":"InvalidTokenAmount","inputs":[]},{"type":"error","name":"NoTokensAvailable","inputs":[]},{"type":"error","name":"OwnableInvalidOwner","inputs":[{"name":"owner","type":"address","internalType":"address"}]},{"type":"error","name":"OwnableUnauthorizedAccount","inputs":[{"name":"account","type":"address","internalType":"address"}]},{"type":"error","name":"PreSaleAlreadyInitialized","inputs":[]},{"type":"error","name":"PreSaleNotActive","inputs":[]},{"type":"error","name":"ReentrancyGuardReentrantCall","inputs":[]},{"type":"error","name":"WithdrawalFailed","inputs":[]},{"type":"error","name":"ZeroAddress","inputs":[]}],"bytecode":{"object":"0x60803461014157601f610c1738819003918201601f191683019291906001600160401b03841183851017610146578160a092849260409687528339810103126101415780516001600160a01b039190828116908181036101415760208301518584015191608060608601519501519533156101295760008054336001600160a01b03198216811783558a51929792939091167f8be0079c531659141344cd1fd0a4f28419497f9722a3daafe3b4186f6b6457e08880a3600180551561011a5750908693929160025490610100600160a81b039060081b1690610100600160a81b03191617600255828052600560205283832055600182528282205560028152205560035560ff196002541660025551610aba908161015d8239f35b63d92e233d60e01b8152600490fd5b8751631e4fbdf760e01b815260006004820152602490fd5b600080fd5b634e487b7160e01b600052604160045260246000fdfe6080604081815260049182361015610208575b50361561001e57600080fd5b610026610a35565b6002549160ff8316818110156101f357600381146101e45734156101c85761004d906109c1565b5480156101b95780340290348204036101a457670de0b6b3a76400009004926003548085116101945784810390811161017f5760206044926001600160a01b039260035561009c878654610a12565b85556100aa34600654610a12565b60065585519384809263a9059cbb60e01b82523388830152896024830152600095869160081c165af191821561017357819261012d575b50501561011f5750807f8fafebcaf9d154343dad25669bfa277f4fbacd7ac6b0c4fed522580e040a0f3391519283523460208401523392a260018055005b9051632160733960e01b8152fd5b9091506020813d60201161016b575b81610149602093836109da565b810103126101675751908115158203610164575038806100e1565b80fd5b5080fd5b3d915061013c565b508351903d90823e3d90fd5b601183634e487b7160e01b6000525260246000fd5b8351630626e30760e51b81528390fd5b601182634e487b7160e01b6000525260246000fd5b50905163268dbf6760e21b8152fd5b506001604492519162fae2d560e21b8352820152346024820152fd5b5090516371e1355f60e11b8152fd5b602182634e487b7160e01b6000525260246000fd5b600090813560e01c908163055ad42e1461097257508063103d6ed314610942578063147709591461091e57806324600fc31461082d578063287294c81461080e578063518ab2a8146107f057806360659a9214610759578063715018a61461079e5780638da5cb5b14610778578063c8b0812514610759578063cf3d8e531461068c578063d0febe4c1461050b578063ee2d2c681461040d578063ee889ed014610389578063f2fde38b146102eb5763fc0c546a036100125790346101675781600319360112610167576020906001600160a01b0360025460081c169051908152f35b50919034610385576020366003190112610385578135916001600160a01b03918284168094036103815761031d610a58565b831561036b575050825473ffffffffffffffffffffffffffffffffffffffff19811683178455167f8be0079c531659141344cd1fd0a4f28419497f9722a3daafe3b4186f6b6457e08380a380f35b51631e4fbdf760e01b8152908101849052602490fd5b8480fd5b8280fd5b5091346103855782600319360112610385576103a3610a58565b6002549160ff8316828110156103fa576003146103ed5760ff198316600317600255837fc82e6055d31de9b552cd0014f23a8b8ce120c288ed1afce01adb97150efc01858180a180f35b516371e1355f60e11b8152fd5b634e487b7160e01b855260218352602485fd5b509034610167578160031936011261016757610427610a58565b60075460ff81166104fb576024929360206001600160a01b0360025460081c168451958680926370a0823160e01b825230868301525afa9384156104f15785946104bd575b506003548094106104af575060ff1916600117600755519081527f52662d1a3131f7ba0d800fc07f2bc63113061f8c1307e917016493a232bc815090602090a180f35b8251632160733960e01b8152fd5b9093506020813d6020116104e9575b816104d9602093836109da565b810103126103815751923861046c565b3d91506104cc565b83513d87823e3d90fd5b815163f388953760e01b81528490fd5b5091908260031936011261038557610521610a35565b6002549160ff83168181101561067957600381146101e45734156101c857610548906109c1565b5480156101b957803402903482040361066657670de0b6b3a764000090049260035480851161019457848103908111610653576001600160a01b0360448793602093600355610598888754610a12565b86556105a634600654610a12565b600655865163a9059cbb60e01b8152338782015260248101899052948593849260081c165af19081156104f1578591610618575b501561011f5750807f8fafebcaf9d154343dad25669bfa277f4fbacd7ac6b0c4fed522580e040a0f3391519283523460208401523392a26001805580f35b90506020813d60201161064b575b81610633602093836109da565b810103126103815751801515810361038157386105da565b3d9150610626565b634e487b7160e01b865260118352602486fd5b634e487b7160e01b855260118252602485fd5b634e487b7160e01b855260218252602485fd5b509190346103855760203660031901126103855781359180831015610755576106b3610a58565b6002549060ff8216818110156107425760038114610733578411801590610729575b61071b575060ff191660ff831617600255517f05ac19f4e6db6fd8b645dd056e4842cd2f63e0c6f0568176c17ef60e3c16732d9181906107159082610998565b0390a180f35b825163268dbf6760e21b8152fd5b50600384146106d5565b5082516371e1355f60e11b8152fd5b634e487b7160e01b865260218252602486fd5b8380fd5b5090346101675781600319360112610167576020906003549051908152f35b5090346101675781600319360112610167576001600160a01b0360209254169051908152f35b50346101645780600319360112610164576107b7610a58565b806001600160a01b038154811981168355167f8be0079c531659141344cd1fd0a4f28419497f9722a3daafe3b4186f6b6457e08280a380f35b50913461038557826003193601126103855760209250549051908152f35b5090346101675781600319360112610167576020906006549051908152f35b509134610385578260031936011261038557610847610a35565b61084f610a58565b47908115610903576001600160a01b03908480808086868254165af13d156108fe573d67ffffffffffffffff81116108eb57855190610898601f8201601f1916602001836109da565b81528660203d92013e5b156108dd57507feaff4b37086828766ad3268786972c0cd24259d4c87a80f9d3963a3c3d999b0d916020918554169351908152a26001805580f35b83516327fcd9d160e01b8152fd5b634e487b7160e01b875260418352602487fd5b6108a2565b906001604493519262fae2d560e21b84528301526024820152fd5b50903461016757816003193601126101675760209060ff6007541690519015158152f35b503461016457602036600319011261016457823592831015610164575061096a6020926109c1565b549051908152f35b8234610164578060031936011261016457508061099460ff6002541682610998565b0390f35b9190602083019260048210156109ab5752565b634e487b7160e01b600052602160045260246000fd5b60048110156109ab576000526005602052604060002090565b90601f8019910116810190811067ffffffffffffffff8211176109fc57604052565b634e487b7160e01b600052604160045260246000fd5b91908201809211610a1f57565b634e487b7160e01b600052601160045260246000fd5b600260015414610a46576002600155565b604051633ee5aeb560e01b8152600490fd5b6001600160a01b03600054163303610a6c57565b60405163118cdaa760e01b8152336004820152602490fdfea2646970667358221220617b74eac27f193063261db37936e95026cd83d822d3e93407b339c53f2d522b64736f6c63430008160033","linkReferences":{}},"methodIdentifiers":{"buyTokens()":"d0febe4c","currentPhase()":"055ad42e","endPreSale()":"ee889ed0","initializePreSale()":"ee2d2c68","owner()":"8da5cb5b","phaseRates(uint8)":"103d6ed3","preSaleInitialized()":"14770959","renounceOwnership()":"715018a6","token()":"fc0c546a","tokensAvailable()":"60659a92","tokensRemaining()":"c8b08125","tokensSold()":"518ab2a8","totalBNBReceived()":"287294c8","transferOwnership(address)":"f2fde38b","updatePhase(uint8)":"cf3d8e53","withdrawFunds()":"24600fc3"},"id":0}